:1000000003C300001CC300001AC3000018C3000093
:1000100016C3000014C3000012C3000010C3000088
:100020000EC300000CC300000AC3000008C3000098
:1000300006C3000004C3000002C3000000C30000A8
:10004000FEC20000FCC20000FAC20000F8C20000BC
:10005000F6C20000F4C20000F2C20000F0C20000CC
:10006000EEC20000ECC20000000000C0E0F0F0F0C2
:10007000F0F0F0F0F0F0F0F0F0F0F0E0C000000090
:10008000000000FFFFFFFF01000000000000000073
:1000900001FFFFFFFF000000000000FFFFFFFF80E7
:1000A000000000000000000080FFFFFFFF000000D4
:1000B00000000003070F0F0F0F0F0F0F0F0F0F0F91
:1000C0000F0F0F07030000000000000000000000F9
:1000D000000000000000E0F0F0E000000000000080
:1000E0000000000000000000000000000000FFFF12
:1000F000FFFF000000000000000000000000000002
:10010000000000000000FFFFFFFF000000000000F3
:1001100000000000000000000000000000000307D5
:100120000703000000000000000000E0F0F0F0F025
:10013000F0F0F0F0F0F0F0F0F0F0F0E0000000008F
:1001400000000081C1C0C0C0C0C0C0C0C0C0C0E10C
:10015000FFFFFFFF00000000000000FFFFFFFF8720
:10016000030303030303030303038381000000006D
:10017000000000070F0F0F0F0F0F0F0F0F0F0F0FC4
:100180000F0F0F0700000000000000E0F0F0F0F09B
:10019000F0F0F0F0F0F0F0F0F0F0F0E0000000002F
:1001A00000000081C1C0C0C0C0C0C0C0C0C0C0E1AC
:1001B000FFFFFF7F000000000000008183030303B6
:1001C0000303030303030387FFFFFFFE0000000098
:1001D000000000070F0F0F0F0F0F0F0F0F0F0F0F64
:1001E0000F0F0F0700000000000000E0F0F0F030FB
:1001F0000000000000000030F0F0F0E0000000001F
:10020000000000FFFFFFFFE0C0C0C0C0C0C0C0E0F2
:10021000FFFFFFFF000000000000000103030303D5
:100220000303030303030307FFFFFFFF00000000B6
:100230000000000000000000000000000000000CB2
:100240000F0F0F0700000000000000E0F0F0F0F0DA
:10025000F0F0F0F0F0F0F0F0F0F0F0E0000000006E
:10026000000000FFFFFFFFE1C0C0C0C0C0C0C0C0B1
:10027000C0C0C181000000000000008183030303AF
:100280000303030303030387FFFFFFFF00000000D6
:10029000000000070F0F0F0F0F0F0F0F0F0F0F0FA3
:1002A0000F0F0F0700000000000000E0F0F0F0F07A
:1002B000F0F0F0F0F0F0F0F0F0F0F0E0000000000E
:1002C000000000FFFFFFFFE1C0C0C0C0C0C0C0C051
:1002D000C0C0C18100000000000000FFFFFFFF87D9
:1002E0000303030303030387FFFFFFFF0000000076
:1002F000000000070F0F0F0F0F0F0F0F0F0F0F0F43
:100300000F0F0F0700000000000000E0F0F0F0F019
:10031000F0F0F0F0F0F0F0F0F0F0F0E000000000AD
:1003200000000001010000000000000000000001CA
:10033000FFFFFFFF000000000000000000000000C1
:100340000000000000000000FFFFFFFF00000000B1
:100350000000000000000000000000000000000C91
:100360000F0F0F0700000000000000E0F0F0F0F0B9
:10037000F0F0F0F0F0F0F0F0F0F0F0E0000000004D
:100380000000007FFFFFFFE1C0C0C0C0C0C0C0E1EF
:10039000FFFFFF3F00000000000000FEFFFFFF879F
:1003A0000303030303030387FFFFFFFE00000000B6
:1003B000000000070F0F0F0F0F0F0F0F0F0F0F0F82
:1003C0000F0F0F0700000000000000E0F0F0F0F059
:1003D000F0F0F0F0F0F0F0F0F0F0F0E000000000ED
:1003E000000000FFFFFFFFE1C0C0C0C0C0C0C0E10F
:1003F000FFFFFFFF000000000000000103030303F4
:100400000303030303030307FFFFFFFF00000000D4
:100410000000000000000000000000000000000CD0
:100420000F0F0F0700000000000000000000000098
:1004300000000000000000000000000000000000BC
:100440000000000000000000003C7E7E7E7E3C003C
:10045000000000000000000000000000000000009C
:1004600000F0F8F8F8F8F0000000000000000000CC
:100470000000000000000000000001010101000078
:10048000000000000000000000000000000000006C
:10049000000000000000000000000000000000005C
:1004A000000000000000000000000000000000004C
:1004B000000000000000000000000000000000003C
:1004C00000C0C0C0C0C0C0000000000000000000AC
:1004D0000000000000000000000F0F0F0F0F0F00C2
:1004E000000000000000000000000000000000000C
:1004F00000000000000000000000000000000000FC
:1005000000000000000000000000000000000000EB
:1005100000000000000000000000000000000000DB
:1005200000000000000000000000000000000000CB
:1005300000000000000000000000000000000000BB
:1005400000000000000000000000000000000000AB
:10055000001F1111111F000000000000000000002A
:10056000000000000000000000000000000000008B
:10057000000000000000000000000000000000007B
:10058000000000000000000000000000000000006B
:10059000000000000000000000000000000000005B
:1005A000000000000000000000000000000000004B
:1005B000000000000000000000000000000000003B
:1005C000000000000000000000000000000000002B
:1005D000000000000000000000000000000000001B
:1005E000000000000000000000000000000000000B
:1005F00000000000000000000000000000000000FB
:10060000000000000000000011241FBECFEFD8E062
:10061000DEBFCDBF16E0A0E0B1E0E2E9F4E102C048
:1006200005900D92A232B107D9F726E0A2E2B6E01A
:1006300001C01D92A235B207E1F702D028C7E0CC75
:1006400015B814B818B817B880E68BB91AB83BD3E8
:100650004ED107D32FEF83ED90E32150804090409F
:10066000E1F700C00000CBD200E011E088E2E82E04
:1006700086E0F82E2FEF89E698E1215080409040E7
:10068000E1F700C0000060E080E0AAD0809127067A
:100690008F93809126068F931F930F93FF92EF9273
:1006A0001ED461E088E296E00DD261E080E098D04F
:1006B00066E071E088E296E00BD460E088E296E0C4
:1006C00001D2409126066EE680E03BD2C09126061C
:1006D000D09127062196D0932706C09326062DECAD
:1006E0003CEC4CEC5DE36091220670912306809116
:1006F0002406909125060FD34B015C010F900F90BB
:100700000F900F900F900F9026E636E64EE151E4E1
:10071000B7D318164CF08092220690922306A0922E
:100720002406B09225060CC08DEC9CECACECBDE32D
:100730008093220690932306A0932406B093250667
:100740002B9720F0109227061092260666E081E093
:1007500047D06EE071E088E296E0BAD361E088E2CB
:1007600096E0B0D167E080E03BD06AE171E088E2DA
:1007700096E0AED360E088E296E0A4D167E080E046
:100780002FD06AE171E088E296E0A2D360E088E2CF
:1007900096E098D16FCFCF93DF93D82FC62F99D201
:1007A0008CE390E0ACD28D2F90E09FD28C2F90E024
:1007B0009CD2DF91CF9195C2811102C066EA04C03C
:1007C000813019F467EA80E0E6CF0895811102C014
:1007D0006EEA04C0813019F46FEA80E0DCCF08953E
:1007E000CF93C82F8093500660935106605580E0E8
:1007F000D2DF6C2F6F7080E0CEDF6C2F62956F7050
:10080000606180E0CF91C7CFCF93C82F809350060F
:1008100060935106605580E0BEDF6C2F660F6E70EE
:1008200080E0B9DF6C2F606866956695669580E01C
:10083000CF91B1CF0F931F93CF93DF93EC0149D2A8
:100840008CE390E05CD280E490E04FD285E08C9F16
:1008500080018D9F100D11240F5D1E4FC0E0F80127
:1008600081918F0190E041D2CF5FC530C1F780E028
:1008700090E03BD236D280915006885F813818F4E0
:100880008093500602C0C0935006DF91CF911F9114
:100890000F910895EF92FF920F931F93CF93DF93E1
:1008A00060E080E09DDF00E014E0E12CF12CC0E08E
:1008B000D0E080E290E0BEDF2196C138D10540F063
:1008C0008FEFE81AF80A6E2D80E08ADFC0E0D0E0F2
:1008D0000150110971F785E080935006109251067E
:1008E000DF91CF911F910F91FF90EF90089580E0DD
:1008F0006DDF8FE39CE90197F1F700C000006EEA1D
:1009000080E049DF65ED80E046DF60E880E043DFBE
:1009100068EA80E040DF6FE380E03DDF63ED80E088
:100920003ADF60E080E037DF60E480E034DF6DE8EC
:1009300080E031DF64E180E02EDF60E280E02BDFE9
:1009400060E080E028DF61EA80E025DF68EC80E09D
:1009500022DF6AED80E01FDF62E180E01CDF61E8FA
:1009600080E019DF6FEC80E016DF69ED80E013DFD7
:1009700061EF80E010DF6BED80E00DDF60E480E090
:100980000ADF64EA80E007DF6FEA80E004DF80E0EE
:1009900013DF6FEA80E0FFDE7DDF60E080E020CFE4
:1009A000EF92FF920F931F93CF93DF93E090510646
:1009B0008E3239F0803239F0833439F0C0EDC80F0F
:1009C00005C0CBE003C0CCE001C0CDE082D18CE318
:1009D00090E095D180E490E088D180E6C89FE00166
:1009E000112400E010E0F12CFE01E00FF11FE859A6
:1009F000FF4F808190E079D186E18F1580F471D12D
:100A0000609151066F5F80915006EADE62D18CE3FF
:100A100090E075D180E490E068D1F12C01C0F394AE
:100A20000F5F1F4F00361105F9F65BD1809150061C
:100A3000895E809350066E2DD3DE809150068138FA
:100A400018F085E080935006DF91CF911F910F91B0
:100A5000FF90EF900895EF92FF920F931F93CF9323
:100A60008C0137D18CE390E04AD180E490E03DD115
:100A700025E0209FC001219F900D11249C012F5D36
:100A80003E4F7901C0E0F70101917F0110E0C801FC
:100A90002CD1C8012AD1CF5FC530A9F780E090E002
:100AA00024D11FD180915006855F813818F480933E
:100AB000500602C0C0935006CF911F910F91FF9036
:100AC000EF9008950F931F93CF93DF93FC01C62FF0
:100AD000D5E08081882381F1C1110EC0809150063C
:100AE00085508C3710F0D09350068F010F5F1F4F49
:100AF000808190E09FDE1EC0C13071F4809150066D
:100B000085508C3710F0D09350068F010F5F1F4F28
:100B1000808190E0A0DF0EC0C230D9F680915006EF
:100B20008851893610F0D09350068F010F5F1F4F08
:100B3000808136DFF801CDCFDF91CF911F910F91EA
:100B400008950F931F93CF93DF93D82F162F042F61
:100B5000682F8FEF810F58DE6FEF80E41CDE6FEFA0
:100B600080E419DE6D2F82E0810F4EDEC0E0CB30D5
:100B700058F40C1710F06DEB04C061E880E40BDE54
:100B800061E880E408DE07C0CB3029F46FEF80E431
:100B900002DE6FEF08C084EF8C0F823030F46CE31C
:100BA00080E4F9DD6CE380E4F6DD6D2F812F8C0F9E
:100BB0002BDECF5FCE30D9F6DF91CF911F910F9111
:100BC000089590E89093BB0094E89093BC009091B6
:100BD000BC0097FFFCCF8093BB0084E88093BC00EF
:100BE0008091BC0087FFFCCF08958093BB0084E810
:100BF0008093BC008091BC0087FFFCCF0895CF9309
:100C0000DF9367D08CE390E07AD080E290E0D9DF88
:100C100080E090E0D6DF81E290E0D3DF80E090E0FA
:100C2000D0DF8FE790E0CDDF82E290E0CADF80E0A6
:100C300090E0C7DF87E090E0C4DF80E48093BB00F2
:100C400084E88093BC008091BC0087FFFCCFC0E0AB
:100C5000D0E280E090E0C9DF2197D9F7DF91CF9112
:100C600040C0CF93DF9335D08CE390E048D080E252
:100C700090E0A7DF80E090E0A4DF81E290E0A1DFD8
:100C800080E090E09EDF8FE790E09BDF82E290E0E3
:100C900098DF80E090E095DF87E090E092DF80E4ED
:100CA0008093BB0084E88093BC008091BC0087FFE8
:100CB000FCCFC0E0D0E28FEF90E097DF2197D9F72B
:100CC000DF91CF910EC088E48093B8001092B900F4
:100CD000089584EA8093BC008091BC0087FFFCCF1C
:100CE000089584E98093BC0008958093BB0084E854
:100CF0008093BC008091BC0087FFFCCF0895880FD3
:100D00008093BB0084E88093BC008091BC0087FF87
:100D1000FCCF08955058BB27AA270ED077C068D0C3
:100D200030F06DD020F031F49F3F11F41EF45DC01F
:100D30000EF4E095E7FB53C0E92F79D080F3BA17A2
:100D4000620773078407950718F071F49EF591C048
:100D50000EF4E0950B2EBA2FA02D0B01B9019001D6
:100D60000C01CA01A0011124FF27591B99F0593F1A
:100D700050F4503E68F11A16F040A22F232F342F62
:100D80004427585FF3CF469537952795A795F040B0
:100D90005395C9F77EF41F16BA0B620B730B840BC5
:100DA000BAF09150A1F0FF0FBB1F661F771F881F7D
:100DB000C2F70EC0BA0F621F731F841F48F48795D5
:100DC00077956795B795F7959E3F08F0B3CF9395C4
:100DD000880F08F09927EE0F97958795089597F952
:100DE0009F6780E870E060E008959FEF80EC0895D1
:100DF00000240A94161617061806090608950024FA
:100E00000A9412161306140605060895092E039473
:100E1000000C11F4882352F0BB0F40F4BF2B11F4E7
:100E200060FF04C06F5F7F4F8F4F9F4F089557FD46
:100E30009058440F551F59F05F3F71F04795880F48
:100E400097FB991F61F09F3F79F0879508951216DF
:100E500013061406551FF2CF4695F1DF08C016168B
:100E600017061806991FF1CF86957105610508943C
:100E70000895E894BB2766277727CB0197F9089553
:100E800003D008F48FEF0895990F0008550FAA0BAF
:100E9000E0E8FEEF16161706E807F907C0F012168D
:100EA0001306E407F50798F0621B730B840B950B90
:100EB00039F40A2661F0232B242B252B21F40895E5
:100EC0000A2609F4A140A6958FEF811D811D089582
:100ED000FB01DC0101900D920020E1F70895AEE0E6
:100EE000B0E0E4E7F7E0AAC20D891E8986E08C83B2
:100EF0001A8309838FEF9FE79E838D83AE01475E40
:100F00005F4F6F89788DCE01019608D0EF81F8850B
:100F1000E00FF11F10822E96E4E0ACC2ABE0B0E02F
:100F2000E3E9F7E07DC26C017B018A01FC011782D5
:100F30001682838181FFBFC1CE0101963C01F6017B
:100F40009381F70193FD859193FF81917F01882320
:100F500009F4ADC1853239F493FD859193FF8191F8
:100F60007F01853221F4B60190E0C0D1E8CF912C09
:100F7000212C312CFFE1F315D8F08B3279F038F4C5
:100F8000803279F08332A1F4232D20611DC08D328F
:100F900061F0803369F4232D216016C0832D8260B7
:100FA000382EE32DE4603E2E2AC0F32DF8601DC0DC
:100FB00037FC2DC020ED280F2A3040F08E32B9F4D6
:100FC00036FC75C1232D2064322E19C036FE06C0B2
:100FD0008AE0989E200D1124922E11C0EAE02E9EE8
:100FE000200D1124222EF32DF0623F2E08C08C36E6
:100FF00021F4832D8068382E02C0883641F4F70131
:1010000093FD859193FF81917F018111B3CF982F3B
:101010009F7D9554933028F40C5F1F4F9FE3998375
:101020000DC0833631F0833771F0833509F055C038
:1010300020C0F801808189830E5F1F4F882483942C
:10104000912C530112C02801F2E04F0E511CF801FF
:10105000A080B18036FE03C0692D70E002C06FEF42
:101060007FEFC50138D14C018201F32DFF773F2E70
:1010700015C0280122E0420E511CF801A080B18069
:1010800036FE03C0692D70E002C06FEF7FEFC5012F
:1010900017D14C01F32DF0683F2E820133FC19C0AB
:1010A000822D90E088169906A0F4B60180E290E0C7
:1010B0001DD12A94F5CFF50137FC859137FE81913A
:1010C0005F01B60190E012D121102A9421E0821A2A
:1010D00091088114910479F7E1C0843611F08936C2
:1010E00039F5F80137FE07C06081718182819381F3
:1010F0000C5F1F4F08C060817181072E000C880BA8
:10110000990B0E5F1F4FF32DFF763F2E97FF09C0FF
:1011100090958095709561957F4F8F4F9F4FF068A8
:101120003F2E2AE030E0A3011DD1882E861844C04E
:10113000853731F4232D2F7EB22E2AE030E025C0F2
:10114000932D997FB92E8F36C1F018F4883579F038
:10115000AEC0803719F0883721F0A9C0E92FE061CF
:10116000BE2EB4FE0DC0FB2DF460BF2E09C034FEB0
:101170000AC0292F2660B22E06C028E030E005C044
:1011800020E130E002C020E132E0F801B7FE07C004
:1011900060817181828193810C5F1F4F06C06081E5
:1011A000718180E090E00E5F1F4FA301DBD0882E9D
:1011B0008618FB2DFF773F2E36FE0DC0232D2E7F88
:1011C000A22E891458F434FE0BC032FC09C0832DC2
:1011D0008E7EA82E05C0B82CA32C03C0B82C01C04D
:1011E000B92CA4FE0FC0FE01E80DF11D80818033F3
:1011F00021F49A2D997EA92E09C0A2FE06C0B394AF
:10120000B39404C08A2D867809F0B394A3FC10C06F
:10121000A0FE06C0B21480F4280C922C9B180DC0BE
:10122000B21458F4B60180E290E060D0B394F8CFE5
:10123000B21418F42B1802C0982C212CA4FE0FC055
:10124000B60180E390E052D0A2FE16C0A1FC03C01C
:1012500088E790E002C088E590E0B6010CC08A2DD6
:10126000867851F0A1FE02C08BE201C080E2A7FCAB
:101270008DE2B60190E03AD0891430F4B60180E3F3
:1012800090E034D09A94F8CF8A94F301E80DF11DE0
:101290008081B60190E02AD08110F6CF222009F497
:1012A0004ECEB60180E290E021D02A94F7CFF6012D
:1012B0008681978102C08FEF9FEF2B96E2E1CCC031
:1012C000FC010590615070400110D8F78095909511
:1012D0008E0F9F1F0895FC01615070400190011016
:1012E000D8F7809590958E0F9F1F08950F931F93A9
:1012F000CF93DF93FB01238121FD03C08FEF9FEF8D
:101300002CC022FF16C046815781248135814217A7
:10131000530744F4A081B1819D012F5F3F4F31837A
:1013200020838C93268137812F5F3F4F378326831D
:1013300014C08B01EC01FB010084F185E02D0995BF
:10134000892BE1F6D80116968D919C9117970196FD
:1013500017969C938E931697CE01DF91CF911F9194
:101360000F910895FA01AA27283051F1203181F117
:10137000E8946F936E7F6E5F7F4F8F4F9F4FAF4F9D
:10138000B1E03ED0B4E03CD0670F781F891F9A1FB0
:10139000A11D680F791F8A1F911DA11D6A0F711D64
:1013A000811D911DA11D20D009F468943F912AE070
:1013B000269F11243019305D3193DEF6CF01089558
:1013C000462F4770405D4193B3E00FD0C9F7F6CF89
:1013D000462F4F70405D4A3318F0495D31FD405251
:1013E000419302D0A9F7EACFB4E0A69597958795E7
:1013F00077956795BA95C9F70097610571050895C6
:101400009B01AC010A2E0694579547953795279571
:10141000BA95C9F7620F731F841F951FA01D089509
:101420002F923F924F925F926F927F928F929F92F4
:10143000AF92BF92CF92DF92EF92FF920F931F93E2
:10144000CF93DF93CDB7DEB7CA1BDB0B0FB6F89493
:10145000DEBF0FBECDBF09942A88398848885F84D3
:101460006E847D848C849B84AA84B984C884DF8044
:10147000EE80FD800C811B81AA81B981CE0FD11D28
:101480000FB6F894DEBF0FBECDBFED010895F894FE
:02149000FFCF8C
:10149200583D2569200053534431333036003132F0
:1014A2003334353637383931300074657374203847
:1014B20000000000000000005F00000007000700BD
:1014C200147F147F14242A7F2A122313086462369D
:1014D200495522500005030000001C224100004132
:1014E200221C0014083E081408083E080800503068
:1014F20000000808080808006060000020100804C6
:1015020002000000000000005F000000070007006A
:10151200147F147F14242A7F2A122313086462364C
:10152200495522500005030000001C2241000041E1
:10153200221C0014083E081408083E080800503017
:101542000000080808080800606000002010080475
:1015520002000000000000005F000000070007001A
:10156200147F147F14242A7F2A12231308646236FC
:10157200495522500005030000001C224100004191
:10158200221C0014083E081408083E0808005030C7
:101592000000080808080800606000002010080425
:1015A200023E5149453E00427F4000426151494658
:1015B2002141454B311814127F1027454545393CCE
:1015C2004A494930017109050336494949360649F4
:1015D20049291E0036360000005636000008142243
:1015E2004100141414141400412214080201510978
:1015F20006324979413E7E1111117E7F49494936B1
:101602003E414141227F4141221C7F494949417F5C
:10161200090909013E4149497A7F0808087F0041CA
:101622007F41002040413F017F081422417F40401A
:1016320040407F020C027F7F0408107F3E414141FF
:101642003E7F090909063E4151215E7F091929465B
:10165200464949493101017F01013F4040403F1F56
:101662002040201F3F4038403F631408146307089E
:101672007008076151494543007F41410002040857
:1016820010200041417F000402010204404040401A
:1016920040000102040020545454787F48444438E6
:1016A2003844444420384444487F38545454180839
:1016B2007E0901020C5252523E7F08040478004413
:1016C2007D40002040443D007F1028440000417FBF
:1016D20040007C041804787C0804047838444444AC
:1016E200387C14141408081414187C7C08040408A8
:1016F2000854545420043F4440203C4040207C1C69
:101702002040201C3C4030403C44281028440C50CF
:1017120050503C4464544C44000836410000007F61
:101722000000004136080010080810080000000000
:1017320000000000000000000000000000000000A7
:101742000000000000000000000000000000000097
:101752000000000000000000000000000000000087
:101762000000000000000000000000000000000077
:0219B200000033
:00000001FF
