S0130000535344313330365F4156522E7372656315
S113000003C300001CC300001AC3000018C300008F
S113001016C3000014C3000012C3000010C3000084
S11300200EC300000CC300000AC3000008C3000094
S113003006C3000004C3000002C3000000C30000A4
S1130040FEC20000FCC20000FAC20000F8C20000B8
S1130050F6C20000F4C20000F2C20000F0C20000C8
S1130060EEC20000ECC20000000000C0E0F0F0F0BE
S1130070F0F0F0F0F0F0F0F0F0F0F0E0C00000008C
S1130080000000FFFFFFFF0100000000000000006F
S113009001FFFFFFFF000000000000FFFFFFFF80E3
S11300A0000000000000000080FFFFFFFF000000D0
S11300B000000003070F0F0F0F0F0F0F0F0F0F0F8D
S11300C00F0F0F07030000000000000000000000F5
S11300D0000000000000E0F0F0E00000000000007C
S11300E00000000000000000000000000000FFFF0E
S11300F0FFFF0000000000000000000000000000FE
S1130100000000000000FFFFFFFF000000000000EF
S113011000000000000000000000000000000307D1
S11301200703000000000000000000E0F0F0F0F021
S1130130F0F0F0F0F0F0F0F0F0F0F0E0000000008B
S113014000000081C1C0C0C0C0C0C0C0C0C0C0E108
S1130150FFFFFFFF00000000000000FFFFFFFF871C
S11301600303030303030303030383810000000069
S1130170000000070F0F0F0F0F0F0F0F0F0F0F0FC0
S11301800F0F0F0700000000000000E0F0F0F0F097
S1130190F0F0F0F0F0F0F0F0F0F0F0E0000000002B
S11301A000000081C1C0C0C0C0C0C0C0C0C0C0E1A8
S11301B0FFFFFF7F000000000000008183030303B2
S11301C00303030303030387FFFFFFFE0000000094
S11301D0000000070F0F0F0F0F0F0F0F0F0F0F0F60
S11301E00F0F0F0700000000000000E0F0F0F030F7
S11301F00000000000000030F0F0F0E0000000001B
S1130200000000FFFFFFFFE0C0C0C0C0C0C0C0E0EE
S1130210FFFFFFFF000000000000000103030303D1
S11302200303030303030307FFFFFFFF00000000B2
S11302300000000000000000000000000000000CAE
S11302400F0F0F0700000000000000E0F0F0F0F0D6
S1130250F0F0F0F0F0F0F0F0F0F0F0E0000000006A
S1130260000000FFFFFFFFE1C0C0C0C0C0C0C0C0AD
S1130270C0C0C181000000000000008183030303AB
S11302800303030303030387FFFFFFFF00000000D2
S1130290000000070F0F0F0F0F0F0F0F0F0F0F0F9F
S11302A00F0F0F0700000000000000E0F0F0F0F076
S11302B0F0F0F0F0F0F0F0F0F0F0F0E0000000000A
S11302C0000000FFFFFFFFE1C0C0C0C0C0C0C0C04D
S11302D0C0C0C18100000000000000FFFFFFFF87D5
S11302E00303030303030387FFFFFFFF0000000072
S11302F0000000070F0F0F0F0F0F0F0F0F0F0F0F3F
S11303000F0F0F0700000000000000E0F0F0F0F015
S1130310F0F0F0F0F0F0F0F0F0F0F0E000000000A9
S113032000000001010000000000000000000001C6
S1130330FFFFFFFF000000000000000000000000BD
S11303400000000000000000FFFFFFFF00000000AD
S11303500000000000000000000000000000000C8D
S11303600F0F0F0700000000000000E0F0F0F0F0B5
S1130370F0F0F0F0F0F0F0F0F0F0F0E00000000049
S11303800000007FFFFFFFE1C0C0C0C0C0C0C0E1EB
S1130390FFFFFF3F00000000000000FEFFFFFF879B
S11303A00303030303030387FFFFFFFE00000000B2
S11303B0000000070F0F0F0F0F0F0F0F0F0F0F0F7E
S11303C00F0F0F0700000000000000E0F0F0F0F055
S11303D0F0F0F0F0F0F0F0F0F0F0F0E000000000E9
S11303E0000000FFFFFFFFE1C0C0C0C0C0C0C0E10B
S11303F0FFFFFFFF000000000000000103030303F0
S11304000303030303030307FFFFFFFF00000000D0
S11304100000000000000000000000000000000CCC
S11304200F0F0F0700000000000000000000000094
S113043000000000000000000000000000000000B8
S11304400000000000000000003C7E7E7E7E3C0038
S11304500000000000000000000000000000000098
S113046000F0F8F8F8F8F0000000000000000000C8
S11304700000000000000000000001010101000074
S11304800000000000000000000000000000000068
S11304900000000000000000000000000000000058
S11304A00000000000000000000000000000000048
S11304B00000000000000000000000000000000038
S11304C000C0C0C0C0C0C0000000000000000000A8
S11304D00000000000000000000F0F0F0F0F0F00BE
S11304E00000000000000000000000000000000008
S11304F000000000000000000000000000000000F8
S113050000000000000000000000000000000000E7
S113051000000000000000000000000000000000D7
S113052000000000000000000000000000000000C7
S113053000000000000000000000000000000000B7
S113054000000000000000000000000000000000A7
S1130550001F1111111F0000000000000000000026
S11305600000000000000000000000000000000087
S11305700000000000000000000000000000000077
S11305800000000000000000000000000000000067
S11305900000000000000000000000000000000057
S11305A00000000000000000000000000000000047
S11305B00000000000000000000000000000000037
S11305C00000000000000000000000000000000027
S11305D00000000000000000000000000000000017
S11305E00000000000000000000000000000000007
S11305F000000000000000000000000000000000F7
S1130600000000000000000011241FBECFEFD8E05E
S1130610DEBFCDBF16E0A0E0B1E0EAE1F5E102C043
S113062005900D92A232B107D9F726E0A2E2B6E016
S113063001C01D92A235B207E1F702D06CC7E0CC2D
S113064015B814B818B817B880E68BB91AB883D39C
S11306506AD14DD32FEF83ED90E321508040904039
S1130660E1F700C000000FD30F2EF0E0EF2EF1E011
S1130670FF2EF02DC8E2D6E00F2EF6E2CF2EF6E0E4
S1130680DF2EF02DEFEFF9E628E1E150F0402040B5
S1130690E1F700C0000060E080E0B6D0809127065A
S11306A08F93809126068F93FF92EF92DF93CF93DF
S11306B05AD461E0CE0130D261E080E0A5D088E078
S11306C0E6E0F1E0DE0101900D928A95E1F760E049
S11306D0CE0122D2F60140816EE680E05ED2009126
S11306E02606109127060F5F1F4F109327060093CD
S11306F026062DEC3CEC4CEC5DE3609122067091F7
S11307002306809124069091250650D34B015C0169
S11307100F900F900F900F900F900F9026E636E6F3
S11307204EE151E4F8D318164CF0809222069092D0
S11307302306A0922406B09225060CC08DEC9CECF6
S1130740ACECBDE38093220690932306A093240689
S1130750B09325060B30110520F010922706109255
S1130760260666E081E050D08CE0EEE0F1E0DE01A8
S113077001900D928A95E1F761E0CE01CDD167E059
S113078080E042D087E0EAE1F1E0DE0101900D92E1
S11307908A95E1F760E0CE01BFD167E080E034D014
S11307A087E0EAE1F1E0DE0101900D928A95E1F73C
S11307B060E0CE01B1D166CFCF93DF93D82FC62F9F
S11307C0D0D28CE390E0E5D28D2F90E0D7D28C2F5D
S11307D090E0D4D2CFD2DF91CF910895811103C09C
S11307E066EAEACF0895813019F467EA80E0E4CF3D
S11307F00895811103C06EEADFCF0895813019F4A2
S11308006FEA80E0D9CF0895CF93C82F8093500624
S113081060935106605580E0CFDF6C2F6F7080E0ED
S1130820CBDF6C2F62956F70606180E0C5DFCF9184
S11308300895CF93C82F8093500660935106605556
S113084080E0BADF6C2F660F6E7080E0B5DF6C2F2E
S1130850606866956695669580E0AEDFCF910895F1
S11308600F931F93CF93DF938C017BD28CE390E0A3
S113087090D280E490E082D2C801880F991F880F3B
S1130880991F080F191FE801CF5DDE4F0A5D1E4F47
S1130890899190E073D2C017D107D1F780E090E03E
S11308A06DD268D280915006885F813818F48093A5
S11308B0500603C085E080935006DF91CF911F91CD
S11308C00F910895EF92FF920F931F93CF93DF93AD
S11308D060E080E099DF80E290E0C2DF00E014E0B5
S11308E0E12CF12CC1E0D0E00FC080E290E0B8DF51
S11308F02196C138D10540F08FEFE81AF80A6E2D21
S113090080E082DFC0E0D0E00150110971F785E09A
S11309108093500610925106DF91CF911F910F9151
S1130920FF90EF90089580E064DF8FE39CE90197E6
S1130930F1F700C000006EEA80E03EDF65ED80E084
S11309403BDF60E880E038DF68EA80E035DF6FE3B2
S113095080E032DF63ED80E02FDF60E080E02CDFB9
S113096060E480E029DF6DE880E026DF64E180E078
S113097023DF60E280E020DF60E080E01DDF61EAE9
S113098080E01ADF68EC80E017DF6AED80E014DFB6
S113099062E180E011DF61E880E00EDF6FEC80E06F
S11309A00BDF69ED80E008DF61EF80E005DF6BEDD0
S11309B080E002DF60E480E0FFDE64EA80E0FCDEE9
S11309C06FEA80E0F9DE80E009DF81E012DF7ADFA0
S11309D060E080E019CF0895EF92FF920F931F9388
S11309E0CF93DF93009151068E3239F0803239F083
S11309F0833439F0C0EDC80F05C0CBE003C0CCE0B0
S1130A0001C0CDE0AED18CE390E0C3D180E490E0AE
S1130A10B5D18C2F90E040E6489FE001499FD00D6E
S1130A201124C859DF4F9C012F5F3F4F429FC001E3
S1130A30439F900D11249C0128593F4F790110E0E8
S1130A40899190E09BD1173180F094D16091510647
S1130A506F5F80915006D8DE84D18CE390E099D109
S1130A6080E490E08BD110E001C01F5FCE15DF055C
S1130A7039F780D180915006895E80935006602FAB
S1130A80C3DE80915006813818F085E080935006CB
S1130A90DF91CF911F910F91FF90EF900895EF9206
S1130AA0FF920F931F93CF93DF937C015AD18CE372
S1130AB090E06FD180E490E061D1C701880F991F65
S1130AC0880F991F8E0D9F1D8C010F5D1E4F9C0179
S1130AD02A5D3E4F7901F801C1918F01D0E0CE012A
S1130AE04DD1CE014BD10E151F05A9F780E090E042
S1130AF045D140D180915006855F813818F48093A8
S1130B00500603C085E080935006DF91CF911F917A
S1130B100F91FF90EF9008950F931F93CF93DF935E
S1130B20FC01C62FD5E031C0C1110FC08091500621
S1130B3085508C3710F0D09350068F010F5F1F4FF4
S1130B40808190E08DDEF80120C0C13079F480917D
S1130B50500685508C3710F0D09350068F010F5FEC
S1130B601F4F808190E09BDFF8010FC0C23069F411
S1130B70809150068851893610F0D09350068F0129
S1130B800F5F1F4F808128DFF80180818111CCCF56
S1130B90DF91CF911F910F9108950F931F93CF93DE
S1130BA0DF93182FD62F042F682F8FEF8D0F41DE80
S1130BB06FEF80E401DE6FEF80E4FEDD612F82E001
S1130BC08D0F37DEC0E0CB3060F40C1720F06DEBF6
S1130BD080E4F2DD06C061E880E4EEDD61E880E4F3
S1130BE0EBDDCB3039F46FEF80E4E6DD6FEF80E4CA
S1130BF0E3DD1BC0CC3061F46CE380E4DDDD6CE349
S1130C0080E4DADD612F8D2F8C0F13DECF5FDBCF15
S1130C10CD3059F46CE380E4CFDD6CE380E4CCDDCB
S1130C20612F8DE08D0F05DE08C0612F8D2F8C0F95
S1130C3000DECF5FCE3009F0C6CFDF91CF911F9198
S1130C400F91089590E89093BB0094E89093BC00B2
S1130C50ECEBF0E090819923ECF78093BB0084E8FF
S1130C608093BC00ECEBF0E080818823ECF70895DE
S1130C708093BB0084E88093BC00ECEBF0E08081BF
S1130C808823ECF70895CF93DF936BD08CE390E047
S1130C9080D080E290E0D6DF80E090E0D3DF81E294
S1130CA090E0D0DF80E090E0CDDF8FE790E0CADF16
S1130CB082E290E0C7DF80E090E0C4DF87E090E06C
S1130CC0C1DF80E48093BB0084E88093BC00ECEB3C
S1130CD0F0E080818823ECF7C0E0D0E280E090E08F
S1130CE0C7DF2197D9F746D0DF91CF910895CF93ED
S1130CF0DF9337D08CE390E04CD080E290E0A2DF29
S1130D0080E090E09FDF81E290E09CDF80E090E073
S1130D1099DF8FE790E096DF82E290E093DF80E056
S1130D2090E090DF87E090E08DDF80E48093BB006B
S1130D3084E88093BC00ECEBF0E080818823ECF73E
S1130D40C0E0D0E28FEF90E093DF2197D9F712D083
S1130D50DF91CF91089588E48093B8001092B90090
S1130D60089584EA8093BC00ECEBF0E08081882352
S1130D70ECF7089584E98093BC0008958093BB0048
S1130D8084E88093BC00ECEBF0E080818823ECF7EE
S1130D900895880F8093BB0084E88093BC00ECEB3B
S1130DA0F0E080818823ECF708955058BB27AA27E8
S1130DB00ED077C068D030F06DD020F031F49F3F72
S1130DC011F41EF45DC00EF4E095E7FB53C0E92F67
S1130DD079D080F3BA17620773078407950718F070
S1130DE071F49EF591C00EF4E0950B2EBA2FA02D50
S1130DF00B01B90190010C01CA01A0011124FF27C4
S1130E00591B99F0593F50F4503E68F11A16F040BE
S1130E10A22F232F342F4427585FF3CF46953795BD
S1130E202795A795F0405395C9F77EF41F16BA0B82
S1130E30620B730B840BBAF09150A1F0FF0FBB1F30
S1130E40661F771F881FC2F70EC0BA0F621F731F79
S1130E50841F48F4879577956795B795F7959E3FD6
S1130E6008F0B3CF9395880F08F09927EE0F979564
S1130E708795089597F99F6780E870E060E008958A
S1130E809FEF80EC089500240A941616170618069E
S1130E900906089500240A9412161306140605067A
S1130EA00895092E0394000C11F4882352F0BB0F0B
S1130EB040F4BF2B11F460FF04C06F5F7F4F8F4F6E
S1130EC09F4F089557FD9058440F551F59F05F3FA9
S1130ED071F04795880F97FB991F61F09F3F79F058
S1130EE087950895121613061406551FF2CF4695DA
S1130EF0F1DF08C0161617061806991FF1CF86955C
S1130F007105610508940895E894BB27662777273F
S1130F10CB0197F9089503D008F48FEF0895990F42
S1130F200008550FAA0BE0E8FEEF16161706E807AF
S1130F30F907C0F012161306E407F50798F0621BD0
S1130F40730B840B950B39F40A2661F0232B242BA5
S1130F50252B21F408950A2609F4A140A6958FEFC4
S1130F60811D811D0895AEE0B0E0E8EBF7E0AAC270
S1130F700D891E8986E08C831A8309838FEF9FE78E
S1130F809E838D83AE01475E5F4F6F89788DCE015E
S1130F90019608D0EF81F885E00FF11F10822E969C
S1130FA0E4E0ACC2ABE0B0E0E7EDF7E07DC26C0199
S1130FB07B018A01FC0117821682838181FFBFC1F4
S1130FC0CE0101963C01F6019381F70193FD8591D1
S1130FD093FF81917F01882309F4ADC1853239F4EF
S1130FE093FD859193FF81917F01853221F4B601B0
S1130FF090E0C0D1E8CF912C212C312CFFE1F315E6
S1131000D8F08B3279F038F4803279F08332A1F45D
S1131010232D20611DC08D3261F0803369F4232DAE
S1131020216016C0832D8260382EE32DE4603E2EAD
S11310302AC0F32DF8601DC037FC2DC020ED280F09
S11310402A3040F08E32B9F436FC75C1232D206469
S1131050322E19C036FE06C08AE0989E200D112457
S1131060922E11C0EAE02E9E200D1124222EF32D83
S1131070F0623F2E08C08C3621F4832D8068382E10
S113108002C0883641F4F70193FD859193FF819165
S11310907F018111B3CF982F9F7D9554933028F40D
S11310A00C5F1F4F9FE399830DC0833631F0833764
S11310B071F0833509F055C020C0F801808189831F
S11310C00E5F1F4F88248394912C530112C0280172
S11310D0F2E04F0E511CF801A080B18036FE03C02F
S11310E0692D70E002C06FEF7FEFC50138D14C016C
S11310F08201F32DFF773F2E15C0280122E0420E16
S1131100511CF801A080B18036FE03C0692D70E047
S113111002C06FEF7FEFC50117D14C01F32DF068CA
S11311203F2E820133FC19C0822D90E08816990667
S1131130A0F4B60180E290E01DD12A94F5CFF50128
S113114037FC859137FE81915F01B60190E012D1A1
S113115021102A9421E0821A91088114910479F7CC
S1131160E1C0843611F0893639F5F80137FE07C03D
S113117060817181828193810C5F1F4F08C06081FF
S11311807181072E000C880B990B0E5F1F4FF32DF6
S1131190FF763F2E97FF09C09095809570956195D5
S11311A07F4F8F4F9F4FF0683F2E2AE030E0A3011E
S11311B01DD1882E861844C0853731F4232D2F7E07
S11311C0B22E2AE030E025C0932D997FB92E8F36B8
S11311D0C1F018F4883579F0AEC0803719F088373B
S11311E021F0A9C0E92FE061BE2EB4FE0DC0FB2D95
S11311F0F460BF2E09C034FE0AC0292F2660B22E27
S113120006C028E030E005C020E130E002C020E163
S113121032E0F801B7FE07C0608171818281938159
S11312200C5F1F4F06C06081718180E090E00E5F0B
S11312301F4FA301DBD0882E8618FB2DFF773F2E8E
S113124036FE0DC0232D2E7FA22E891458F434FEB1
S11312500BC032FC09C0832D8E7EA82E05C0B82C8D
S1131260A32C03C0B82C01C0B92CA4FE0FC0FE01EE
S1131270E80DF11D8081803321F49A2D997EA92EE9
S113128009C0A2FE06C0B394B39404C08A2D867824
S113129009F0B394A3FC10C0A0FE06C0B21480F4FD
S11312A0280C922C9B180DC0B21458F4B60180E29D
S11312B090E060D0B394F8CFB21418F42B1802C0A5
S11312C0982C212CA4FE0FC0B60180E390E052D0EC
S11312D0A2FE16C0A1FC03C088E790E002C088E526
S11312E090E0B6010CC08A2D867851F0A1FE02C0B0
S11312F08BE201C080E2A7FC8DE2B60190E03AD017
S1131300891430F4B60180E390E034D09A94F8CF95
S11313108A94F301E80DF11D8081B60190E02AD092
S11313208110F6CF222009F44ECEB60180E290E07F
S113133021D02A94F7CFF6018681978102C08FEFDE
S11313409FEF2B96E2E1CCC0FC0105906150704008
S11313500110D8F7809590958E0F9F1F0895FC017A
S11313606150704001900110D8F7809590958E0FD0
S11313709F1F08950F931F93CF93DF93FB01238146
S113138021FD03C08FEF9FEF2CC022FF16C04681C2
S11313905781248135814217530744F4A081B181D8
S11313A09D012F5F3F4F318320838C9326813781AA
S11313B02F5F3F4F3783268314C08B01EC01FB0161
S11313C00084F185E02D0995892BE1F6D801169664
S11313D08D919C911797019617969C938E931697CF
S11313E0CE01DF91CF911F910F910895FA01AA27A1
S11313F0283051F1203181F1E8946F936E7F6E5F54
S11314007F4F8F4F9F4FAF4FB1E03ED0B4E03CD001
S1131410670F781F891F9A1FA11D680F791F8A1FE4
S1131420911DA11D6A0F711D811D911DA11D20D04B
S113143009F468943F912AE0269F11243019305D05
S11314403193DEF6CF010895462F4770405D4193F6
S1131450B3E00FD0C9F7F6CF462F4F70405D4A3343
S113146018F0495D31FD4052419302D0A9F7EACF0B
S1131470B4E0A6959795879577956795BA95C9F73A
S113148000976105710508959B01AC010A2E06942D
S11314905795479537952795BA95C9F7620F731FE6
S11314A0841F951FA01D08952F923F924F925F9223
S11314B06F927F928F929F92AF92BF92CF92DF9260
S11314C0EF92FF920F931F93CF93DF93CDB7DEB7C5
S11314D0CA1BDB0B0FB6F894DEBF0FBECDBF099459
S11314E02A88398848885F846E847D848C849B84B0
S11314F0AA84B984C884DF80EE80FD800C811B81BE
S1131500AA81B981CE0FD11D0FB6F894DEBF0FBEEC
S10D1510CDBFED010895F894FFCF5C
S113151A583D256920005353443133303600313263
S113152A33343536373839313000746573742038BA
S113153A00000000000000005F0000000700070030
S113154A147F147F14242A7F2A1223130864623610
S113155A495522500005030000001C2241000041A5
S113156A221C0014083E081408083E0808005030DB
S113157A0000080808080800606000002010080439
S113158A02000000000000005F00000007000700DE
S113159A147F147F14242A7F2A12231308646236C0
S11315AA495522500005030000001C224100004155
S11315BA221C0014083E081408083E08080050308B
S11315CA00000808080808006060000020100804E9
S11315DA02000000000000005F000000070007008E
S11315EA147F147F14242A7F2A1223130864623670
S11315FA495522500005030000001C224100004105
S113160A221C0014083E081408083E08080050303A
S113161A0000080808080800606000002010080498
S113162A023E5149453E00427F40004261514946CB
S113163A2141454B311814127F1027454545393C41
S113164A4A49493001710905033649494936064967
S113165A49291E00363600000056360000081422B6
S113166A41001414141414004122140802015109EB
S113167A06324979413E7E1111117E7F4949493624
S113168A3E414141227F4141221C7F494949417FD0
S113169A090909013E4149497A7F0808087F00413E
S11316AA7F41002040413F017F081422417F40408E
S11316BA40407F020C027F7F0408107F3E41414173
S11316CA3E7F090909063E4151215E7F09192946CF
S11316DA464949493101017F01013F4040403F1FCA
S11316EA2040201F3F4038403F6314081463070812
S11316FA7008076151494543007F414100020408CB
S113170A10200041417F000402010204404040408D
S113171A40000102040020545454787F4844443859
S113172A3844444420384444487F385454541808AC
S113173A7E0901020C5252523E7F08040478004486
S113174A7D40002040443D007F1028440000417F32
S113175A40007C041804787C08040478384444441F
S113176A387C14141408081414187C7C080404081B
S113177A0854545420043F4440203C4040207C1CDC
S113178A2040201C3C4030403C44281028440C5043
S113179A50503C4464544C44000836410000007FD5
S11317AA0000004136080010080810080000000074
S11317BA000000000000000000000000000000001B
S11317CA000000000000000000000000000000000B
S11317DA00000000000000000000000000000000FB
S11317EA00000000000000000000000000000000EB
S1051A3A0000A6
S9030000FC
