S0130000535344313330365F4156522E7372656315
S11300000C94B2090C94CE090C94CE090C94CE092C
S11300100C94CE090C94CE090C94CE090C94CE0900
S11300200C94CE090C94CE090C94CE090C94CE09F0
S11300300C94CE090C94CE090C94CE090C94CE09E0
S11300400C94CE090C94CE090C94CE090C94CE09D0
S11300500C94CE090C94CE090C94CE090C94CE09C0
S11300600C94CE090C94CE0908036F00207E100076
S11300700000001000000000050D1004F309000941
S1130080051004F20F000E0E1001F228000A0E10E3
S113009003F23A00080A1004F444000A0C1003F3B3
S11300A0530004041004F35500080C1004F3610019
S11300B0080C1004F36D000C0C1002F37F00080808
S11300C01004F5870004041004FC89000A021003DC
S11300D0F88C0003031005FC8E000C0C1003F3A035
S11300E0000A0C1003F3AF00090C1003F3BD000A5F
S11300F00C1003F3CC000A0C1003F3DB000A0C1001
S113010003F3EA000A0C1003F3F9000A0C1003F3DA
S113011008010B0C1003F319010A0C1003F3280156
S11301200A0C1003F3370103081006F53A01040919
S11301301005F53F01090E1003F24F010C061002E1
S1130140F65801090E1003F268010A0E1003F27A40
S1130150010B0E1003F28E010A0C1003F39D010A29
S11301600C1003F3AC010A0C1003F3BB010A0C10CE
S113017003F3CA010A0C1003F3D9010A0C1003F3A8
S1130180E8010A0C1003F3F701090C1003F305024C
S1130190070C1004F310020C0C1002F322020A0CD8
S11301A01003F331020A0C1003F340020B0C10038A
S11301B0F351020B0C1003F362020B0C1003F373E4
S11301C0020A0C1003F382020B0D1003F394020ACB
S11301D00C1003F3A3020A0C1003F3B2020B0C106D
S11301E003F3C302090C1003F3D102090C1003F347
S11301F0DF020B0C1003F3F002090C1003F3FE02F0
S1130200090C1003F30C030A0C1003F31B03070C73
S11302101005F326030D0C1003F33A03070C100525
S1130220F345030A051003F24C030F021001FF50BB
S11302300305041003F353030A081003F75D030ACC
S11302400C1003F36C0309081003F775030A0C1070
S113025003F3840309081003F78D03090C1003F357
S11302609B030A0A1003F7A8030A0C1003F3B7034D
S1130270090C1004F3C503090E1003F3D5030A0C8B
S11302801003F3E403090C1004F3F2030B08100346
S1130290F7FD0309081003F7060409081003F70F14
S11302A0040A0A1003F71C040A0A1002F729040AB4
S11302B0081003F7330409081003F73C04090B1072
S11302C003F449040A081003F7530409081003F758
S11302D05C040B081003F7670408081003F76F04A5
S11302E00A0A1003F77C0408081003F784040A0CB4
S11302F01003F39304030E1007F299040A0C10037D
S1130300F3A8040C041002F377FFFFFDCE001CE7F2
S113031000E3F1F8FC763018606181863FFFFFFC52
S113032061818606181863FFFFFFC6181860618094
S1130330120487FFFFD2348FF9FF12C4BFFFFE12ED
S11303400480E1E3E70E1C3870E7C78778330CC3F9
S113035030781E17CF3FC7B1CCF9F3777E0F1C3826
S113036070E0E0E0E070381C0FF0381C0E0707075F
S1130370070E1C38F00604622641F81F8FFFFFF1B8
S1130380F81F8264462060181818FFFF18181877A1
S11303907EFFFFF0FF8000100300700E01C03807DD
S11303A000E01C0380700E007FB87E3F9FE7FB7E59
S11303B0DFE7F9FC7E1DFE0C06071F8FC0E07038D6
S11303C01C0E071FF07F38EE1C070381C0E0703855
S11303D01C7E1FFF7F38EE1C07038781E00E01F8A7
S11303E07E39FC0703C1F0DC6731CFFFFF0701C092
S11303F0707FFFF80E0380E03FCFF80F01F87E39DD
S1130400FC1F0E070380E03FEFFF87E1F87E1DFE2F
S1130410FFFC1F83F0700E0380E0380E0380700E23
S1130420007FB87E1F87F9CFC3F39FE1F87E1DFEDE
S11304307FB87E1F87E1FFF7FC0701C0E070F8FF7B
S113044081FF77700777E00383838383838381C08D
S1130450701C0701C0701CFFFFFF000000FFFFFFBE
S1130460E0380E0380E0380E070707070707070088
S11304701E1FEF3F0701C0E070380E000000380E69
S113048003807FDC1F83F07E0FCFF9FF3FE7FC037F
S113049080700FF87F801E0FC73B87E1F87E1FFF37
S11304A0E1F87E1F87FF9C771DC771DFE7F9C771ED
S11304B0DC771FFE3F9C7E1F80E0380E0380E0380F
S11304C0771CFEFF1CE71DC771DC771DC771DC7745
S11304D03BFCFFDC3705C0719FE7F9C6701C170FA2
S11304E0FFFFDC3705C0719FE7F9C6701C0703E006
S11304F03F9C7E1F87E0380E039FE1F8771CFFE3E3
S1130500F1F8FC7E3FFFFFC7E3F1F8FC70FE70E1F9
S1130510C3870E1C3870E7F007F01C01C01C01C033
S11305201C01CE1CE1CE1CE1C3F8F1DC7739DC7E82
S11305301F07C1F8771CE71FC7F81C0701C0701C10
S11305400701C0705C371FFFE0FE3FEFFFFFFFDDD8
S1130550F93F07E0FC1F83F070E0FC1FC3FC7FCF72
S1130560DDF9FF1FE1FC1F83F0701F07F1C7707EE8
S11305700FC1F83F07E0EE38FE0F80FF9C771DC7E0
S113058071DFE7F9C0701C0703E01F0F79C7707EA5
S11305900FC1F83F1FE7EFF9FF00E07EFF9C771DD6
S11305A0C771DFE7F9CE71DC771FC77FB87E1F877D
S11305B0E01FC3F807E1F87E1DFEFFF9CE3887007F
S11305C0E01C0380700E01C0381FC0E3F1F8FC7E0C
S11305D03F1F8FC7E3F1F8EFE0E3F1F8FC7E3F1F24
S11305E08FC7E3BB8F8380E0FC1F83F07E0FC9F9C4
S11305F03F277FCFF8EE1DC0E3F1F8EEE3E0E070B3
S11306007C7771F8FC70E3F1F8FC7E3BB8F8381C99
S11306100E070FE0FFF87C1E0E070381C0E0707820
S11306203E1FFFFFC3870E1C3870E1C387F08006AE
S1130630003800E003800E003800E003800E00382C
S11306400070FE1C3870E1C3870E1C3FF00C07835A
S1130650F1CEE1C0FFFFFFFCE70E707F00E039FE42
S1130660E3B8EE39FBF01C0701C07F9C771DC7710E
S1130670DC771F7E7F71F8FC0E071F8EFE07C0E03B
S1130680380E7FB8EE3B8EE3B8EE39FB7F71F8FF8E
S1130690FE071F8EFE1F1DCEE70387FBFC70381C70
S11306A00E1FC07EF8EE3B8EE39FE3F80EE39FC07F
S11306B0F01C0701C0779E779DC771DC771FC71CAC
S11306C00E07000FC0E070381C0E071FF00381C036
S11306D0E001F81C0E070381C0FC7679F8F01C07D2
S11306E001C071DCE771F8771CE71FC7FC0E070334
S11306F081C0E070381C0E071FF0FFDC9F93F27E70
S11307004FC9F93F27FF71F8FC7E3F1F8FC77F71E8
S1130710F8FC7E3F1F8EFEDF9C771DC771DC77F9E6
S1130720C0703E007EF8EE3B8EE3B8E7F80E03811E
S1130730F0F79FF79DC0701C0703E07F70F86F818E
S1130740F61F0EFE080C0E1FF381C0E0703B9DC720
S1130750C0E3B8EE3B8EE3B8EE39FBE3F1F8FC7E80
S11307603BB8F838E0FC1F83F27E4EFF8EE1DCE7F5
S1130770E77E3C3C7EE7E771DC771DC771CFE1F093
S11307801C0E3F00FFC78E1C3871E3FF0FC701C06A
S11307907038380E00E01C0701C03FFFFFFFFFFF69
S11307A0C0FC0380E0380700701C1C0E0380E3F0DB
S11307B07C7EE7E77E3E560ABD07207E12000000DD
S11307C0000B00010000020B0B04F6030006050BEE
S11307D002F60700070C0B02F61200080C0B01F6D8
S11307E01E00070B0B02F62800070A0B02F7310064
S11307F003050B04F63300020D0B05F63700020D5A
S11308000B04F63B0007070B02F6420007070B0236
S1130810F8490003050B02FF4B0009010B01FB4DD6
S11308200002020B04FF4E00070D0B02F55A0007ED
S11308300B0B02F66400050B0B03F66B00070B0BA6
S113084002F67500080B0B01F68000060B0B03F68D
S11308508900070B0B02F69300070B0B02F69D00B1
S1130860070B0B02F6A700070B0B02F6B100070BF0
S11308700B02F6BB0002080B04F9BD00030B0B03CB
S1130880F9C20008080B01F8CA0009040B01FACFE9
S11308900009080B01F8D800070A0B02F7E1000869
S11308A00C0B02F6ED000B0A0B00F7FB00090A0B18
S11308B001F70701090A0B01F71301090A0B01F7F4
S11308C01F01090A0B01F72B01090A0B01F7370174
S11308D00A0A0B01F74401090A0B01F75001050A42
S11308E00B03F75701080A0B02F76101090A0B0110
S11308F0F76D01080A0B02F777010B0A0B00F78565
S113090001090A0B01F79101090A0B01F79D01087E
S11309100A0B01F7A701090D0B01F7B601090A0B30
S113092001F7C201070A0B02F7CB01090A0B01F711
S1130930D701090A0B01F7E3010B0A0B00F7F101D8
S11309400B0A0B00F7FF01090A0B01F70B02090A56
S11309500B01F71702070A0B02F72002020D0B0521
S1130960F62402070D0B02F53002020D0B04F634D7
S11309700207050B02F639020B010B00023B0203CE
S1130980030B03F53D0209080B01F94602090B0BA1
S113099001F6530207080B02F95A02090B0B01F680
S11309A0670208080B01F96F02060B0B03F67802C5
S11309B0090B0B01F98502090B0B01F69202070AD8
S11309C00B02F79B02050D0B03F7A402080B0B02A5
S11309D0F6AF02070B0B02F6B90209080B01F9C2C4
S11309E00209080B01F9CB0209080B01F9D4020929
S11309F00B0B01F9E102090B0B01F9EE0207080BDD
S1130A0003F9F50207080B02F9FC02080A0B02F7C6
S1130A10060308080B01F90E0309080B01F9170373
S1130A2009080B01F9200309080B01F92903090B33
S1130A300B01F9360307080B02F93D03030D0B0400
S1130A40F64203010D0B05F64403030D0B04F649AE
S1130A500307030B02FAAAA80CED24924824489138
S1130A602FE4897F28512240083E6240300E0181E4
S1130A70C3BE08087112238023B80E224470388143
S1130A8002061A6546C8ECE9245AAAA940A9555A8F
S1130A908010224BE3051100102047F10204006B83
S1130AA048FF00F002081060810408204102080099
S1130AB0388A0C183060C18288E0272842108421CB
S1130AC03E388A08102082086103F87C0602021C62
S1130AD006010101423C18A2928A28BF0821C07C69
S1130AE08103E44040810388E01E41040B98B0C1B7
S1130AF0C288E0FE040820408204082040388A0CA2
S1130B0014471141838CE0388A1C1868CE81041381
S1130B10C0F00F6C00D2D200030418606018040304
S1130B20FF80001FF040180300602060C0803D84F7
S1130B300830C2000000303C46828EB2A2A29F80E0
S1130B4080403C3C014028090110420FC104409EF2
S1130B503CFE21904867E209028141FF803EB0F0EB
S1130B60300804020080608F80FE219068140A051A
S1130B700283437F00FF20900887C221008140FF49
S1130B80C0FFA0500887C22100804078001E986CE6
S1130B900A008020F80B026087C0E3A0904827F287
S1130BA00904824171C0F90842108427C01F02025F
S1130BB00202028282C678E3A11109058321088416
S1130BC04170C0E04040404040414141FFE0EC19E9
S1130BD04528A4A494911202405C1CC3B0944A24F6
S1130BE09249148A4370801E319050180C06028278
S1130BF0630F00FE434141427C404040F01C319071
S1130C0050180C060282631F04079230FE2190489C
S1130C102423E110844170C03ACD0A030180C1C786
S1130C2078FFC462210080402010081F00E3A090D8
S1130C30482412090482220E00F1E81082104210A6
S1130C40220480500C0080F1E809112544A8550CB9
S1130C50A18C318430E3A088828080C090444171AB
S1130C60C0E3A088828140402010081F00FD0A20B4
S1130C708104102183FCEAAAAAC08081030204042F
S1130C80080810102020D55555C01051222820FFE7
S1130C90E088807E008047EC140A0CFBC020100B17
S1130CA0C61205028140B0B7803A8E0C0810109E1F
S1130CB003008047A4340A050281218F603C4381EC
S1130CC0FF8080613E3D043E410410410F803DA100
S1130CD0A0502814090C7A01018780C020100BC68B
S1130CE0320904824120B8E01001C08102040811D5
S1130CF0FC103E10842108423F00C040404F44583D
S1130D0070484442C7702040810204081023F8B799
S1130D10646231188C4623915E319048241209058F
S1130D20C73E31A030180C058C7CDE309028140AA4
S1130D300584BC402038003DA1A0502814090C7A39
S1130D40010080E0CEA1820408107C3A8D0B80F073
S1130D5070DE4040FC4040404040413EC341414180
S1130D604141433DE3A090844220A05010E3C0924F
S1130D704B2592A99844E331050101411105C7E3CC
S1130D80A090844240A0601010083E00FD0820821C
S1130D900810BF2924A24926FFF889248A492C6116
S1130DA024304210A90D207E10000000000800002D
S1130DB00000010E0803F1020004060802F1050018
S1130DC0060E0801F11000050E0801F11900060CC9
S1130DD00801F32200060E0801F12D0001060803A4
S1130DE0F12E00030E0801F13400030E0803F13A5A
S1130DF000050E0801F14300050A0801F34A000248
S1130E00060803F94C0006020801F74E0001020827
S1130E1003FD4F00060C0801F35800060E0801F10B
S1130E206300030E0803F16900060E0801F1740063
S1130E30060E0801F17F00060E0801F18A00060E75
S1130E400801F19500060E0801F1A000060E080144
S1130E50F1AB00060E0801F1B600060E0801F1C15F
S1130E600001060803F5C20002090803F5C50004E1
S1130E700E0802F1CC0006060801F5D100040E08A4
S1130E8002F1D80002040801F1D900060E0801F1AC
S1130E90E400060E0801F1EF00060E0801F1FA0065
S1130EA0060E0801F10501060E0801F11001060EF7
S1130EB00801F11B01060E0801F12601060E0801C6
S1130EC0F13101060E0801F13C01030E0802F14262
S1130ED001060E0801F14D01060E0801F158010644
S1130EE00E0801F16301060E0801F16E01060E08F9
S1130EF001F17901060E0801F18401060E0801F1E1
S1130F008F01060E0801F19A01060E0801F1A501F0
S1130F10060E0801F1B001050E0801F1B901060E33
S1130F200801F1C401060E0801F1CF01060E080103
S1130F30F1DA01060E0801F1E501050E0801F1EEF2
S1130F4001060E0801F1F901060E0801F10402067A
S1130F500C0801F30D02060E0801F118020506083B
S1130F6001F51C0206020801FD1E0203060802F137
S1130F702102060A0801F52902060E0801F13402CD
S1130F80060A0801F53C02060E0801F14702060AAA
S1130F900801F54F02060E0801F15A02060C080179
S1130FA0F56302060E0801F16E02030E0802F174E5
S1130FB00205100801F17E02060E0801F189020300
S1130FC00E0802F18F02060A0801F59702060A08C4
S1130FD001F59F02060A0801F5A702060C0801F5AF
S1130FE0B002060C0801F5B902060A0801F5C102AF
S1130FF0060A0801F5C902060E0801F1D402060A20
S11310000801F5DC02060A0801F5E402060A0801F3
S1131010F5EC02060A0801F5F402060C0801F5FDD8
S113102002060A0801F50503060E0801F110030182
S11310300E0803F11203060E0801F11D030506084C
S113104001F5FFCC999999492492FFF492FFF49207
S11310504920211EFA51CE297DE210C71CB210424C
S1131060084D38E36189249246189658A275D0FC3D
S1131070252924912240912249252900212B5738E2
S11310808473AB521021084FFC84210055A0FFF05B
S1131090C004108210420841082079E8618E3B6D3B
S11310A0C7186179E04B6492492FC079E861041351
S11310B08E410820FFF0FFF04108238E0418617967
S11310C0E008218628A492FFF0820820FFF820FB84
S11310D0E04104186179E03CF410820FBE86186187
S11310E079E0FFF041082104208208208079E8613A
S11310F086179E86186179E079E8618617DF041007
S113110082F3C0CC50558011224488442211FFF050
S113111000FFF0884422112244885A79E861965AE3
S1131120EB9A68207DF030C492861861FFF86186DE
S113113010FBE861861FBE861861FBE079E86182D6
S1131140082082086179E0FBE861861861861861ED
S1131150FBE0FFF820820FBE820820FFF0FFF8209A
S1131160820FBE82082082007DF8208208279E1804
S1131170617DF0861861861FFF8618618610FD2444
S113118092492FC004104104104104186179E0868B
S113119018A2924E389248A2861082082082082013
S11311A0820820FFF0861CF3B6DB6D86186186107A
S11311B0861C71A69B6D9658E3861079E8618618A3
S11311C06186186179E0FBE861861FBE820820828F
S11311D00079E8618618619658A275D0FBE86186AB
S11311E01FBE9248A2861079E86182079E041861A6
S11311F079E0FFC8421084210842108618618618DD
S11312006186186179E086186186186186149230C7
S1131210C0861861861B6DB6DCF38610861861499A
S1131220230C49286186108C6315288421084210F8
S1131230FFF04108230C410820FFF0FFFC30C30CF1
S113124030C30C30FFF0820410208104082041FFD9
S1131250F0C30C30C30C30C3FFF02114A8C4FFF05A
S113126091224079E0417DF8617DF0820820FBE81D
S113127061861861FBE07DF8208208207DF004106F
S1131280417DF8618618617DF079E861FFF8207D81
S1131290F038E451410FBE410410410079E8618601
S11312A017DF04179E820820FBE861861861861008
S11312B0480D92492FC0084007BC21084218C5CEEA
S11312C08208208618A2F3C8A28610D92492492F36
S11312D0C0CF3B6DB6DB6D8610FBE8618618618676
S11312E01079E86186186179E0FBE861861FBE82A7
S11312F008207DF8618617DF041041BEFC308208A7
S11313002082007DF82079E041FBE0208208FBE2A6
S11313100820824918608618618618E375D08618FB
S11313206186149230C0861861B6DB6DCF308614A6
S11313309230C49286108618618617DF04179EFFC8
S1131340F08230C410FFF01C730C30CE3830C30C64
S11313501C70FFFCE3830C30C1C730C30CE3804A2C
S11313606B59480011241FBECFEFD8E0DEBFCDBFBC
S113137011E0A0E0B1E0E4E4F8E202C005900D92CF
S1131380A432B107D9F725E0A4E2B1E001C01D926F
S1131390AA33B207E1F704D00C9420140C94000093
S11313A00E94E9123DD1EE24E39400E02AE030E00B
S11313B04FE050E06FE270E084E690E018D401E082
S11313C022EA3DE040E051E069E170E085E090E030
S11313D069D728E630E04AE051E06DE270E085E04C
S11313E090E060D726EB37E049E151E06CE370E030
S11313F08AE090E057D765D008E211E02FE784E84F
S11314009EE1215080409040E1F700C00000F801C7
S113141040816EE680E0DED7C0912801D091290199
S11314202196D0932901C09328012DEC3CEC4CEC7F
S11314305DE36091240170912501809126019091D2
S113144027010E9414136B017C0126E636E64EE167
S113145051E40E94C91318164CF0C0922401D09292
S11314602501E0922601F09227010CC08DEC9CEC42
S1131470ACECBDE38093240190932501A093260155
S1131480B09327012B9708F4B9CF10922901109239
S11314902801B4CFCF93DF93D82FC62F0E94EF1229
S11314A08CE390E00E9407138D2F90E00E94FC12C1
S11314B08C2F90E00E94FC120E94F812DF91CF91D1
S11314C008954F925F926F927F928F929F92AF9204
S11314D0BF92CF92DF92EF92FF920F931F93CF931D
S11314E0DF93CDB7DEB76DB67EB600E311E00F2E05
S11314F0F0EBAF2EB12CF02D6894442446F80E94F2
S1131500EF128CE390E00E94071380E090E00E94C9
S1131510FC12C5010E94FC120E94F8120E94EF12F4
S11315208CE390E00E94071380E090E00E94FC129C
S113153080E090E00E94FC120E94F8120E94EF12D8
S11315408CE390E00E94071380E090E00E94FC127C
S113155080E190E00E94FC120E94F8128DB69EB6C3
S11315608DB79EB7825891090FB6F8949EBF0FBEEF
S11315708DBF0196EDB7FEB741827C01FFEFEF1AF4
S1131580FF0A680121E8C20ED11CF80151908F01B5
S1131590F70151927F010E94EF128CE390E00E94C8
S11315A0071380E490E00E94FC12852D90E00E94D5
S11315B0FC120E94F8120C151D0539F70FB6F894A9
S11315C09EBE0FBE8DBEFFEFAF1ABF0A860128EB89
S11315D0A216B10409F093CF0FB6F8947EBE0FBEE5
S11315E06DBEDF91CF911F910F91FF90EF90DF902F
S11315F0CF90BF90AF909F908F907F906F905F90AF
S11316004F900895882319F06FEF70E002C060E0F6
S113161070E048E054E080E391E00C9419140895DC
S11316202FE78AE196E0215080409040E1F700C026
S11316300000D5D78CE390E0EAD780E090E0DCD7D7
S11316408EEA90E0D9D7D4D7CAD78CE390E0DFD71D
S113165080E090E0D1D785ED90E0CED7C9D7BFD751
S11316608CE390E0D4D780E090E0C6D780E890E0A7
S1131670C3D7BED7B4D78CE390E0C9D780E090E05D
S1131680BBD788EA90E0B8D7B3D7A9D78CE390E06A
S1131690BED780E090E0B0D78FE390E0ADD7A8D775
S11316A09ED78CE390E0B3D780E090E0A5D783ED9C
S11316B090E0A2D79DD793D78CE390E0A8D780E0A1
S11316C090E09AD780E090E097D792D788D78CE3C0
S11316D090E09DD780E090E08FD780E490E08CD7B5
S11316E087D77DD78CE390E092D780E090E084D7D1
S11316F08DE890E081D77CD772D78CE390E087D7D0
S113170080E090E079D784E190E076D771D767D70D
S11317108CE390E07CD780E090E06ED780E290E0AC
S11317206BD766D75CD78CE390E071D780E090E00C
S113173063D780E090E060D75BD751D78CE390E02B
S113174066D780E090E058D781EA90E055D750D72B
S113175046D78CE390E05BD780E090E04DD788ECEF
S113176090E04AD745D73BD78CE390E050D780E050
S113177090E042D78AED90E03FD73AD730D78CE358
S113178090E045D780E090E037D782E190E034D70D
S11317902FD725D78CE390E03AD780E090E02CD780
S11317A081E890E029D724D71AD78CE390E02FD78B
S11317B080E090E021D78FEC90E01ED719D70FD7A7
S11317C08CE390E024D780E090E016D789ED90E098
S11317D013D70ED704D78CE390E019D780E090E0BC
S11317E00BD781EF90E008D703D7F9D68CE390E0CC
S11317F00ED780E090E000D78BED90E0FDD6F8D6D0
S1131800EED68CE390E003D780E090E0F5D680E458
S113181090E0F2D6EDD6E3D68CE390E0F8D680E003
S113182090E0EAD684EA90E0E7D6E2D6D8D68CE314
S113183090E0EDD680E090E0DFD68FEA90E0DCD651
S1131840D7D680E0DFDE3DDEEAE2F1E011821082ED
S11318501382128281E0858308958138910508F00E
S113186050C06034710508F04CC020912E01222331
S113187021F021E0411120E0422F413009F59B0184
S1131880369527953695279536952795F901F6953A
S1131890FE2FEE27F795E795E20FF31F8E0F9F1F9C
S11318A0FC01E05DFE4F6770772781E090E002C0A5
S11318B0880F991F6A95E2F79081892B8083089598
S11318C0FB01F695E795F695E795F695E7959F0163
S11318D03695322F222737952795E20FF31F8E0F67
S11318E09F1FFC01E05DFE4F6770772781E090E069
S11318F002C0880F991F6A95E2F780959081892329
S1131900808308952F923F924F925F926F927F92BD
S11319108F929F92AF92BF92CF92DF92EF92FF92FB
S11319200F931F93CF93DF9300D000D01F92CDB7B6
S1131930DEB709838C018138910510F000E810E0CE
S1131940E42EF52E81E8E816F10420F06894EE24E4
S1131950E7F8F12C6C837D838C819D818034910523
S113196020F08FE390E09D838C83A22EB32E90E42D
S1131970A916B10428F00F2EFFE3AF2EB12CF02DE1
S11319800E151F0560F49701201B310B3B832A833E
S11319908C819D818A159B0508F4A8C017C0980105
S11319A02E193F093B832A838C819D818A159B05CF
S11319B068F46501C81AD90A0E151F05A8F488240D
S11319C08394912C66246394712C1BC0CC80DD809D
S11319D0CA18DB080E151F0570F488248394912C13
S11319E066246A94762C0DC088248A94982C6624E4
S11319F06394712C06C088248A94982C66246A9473
S1131A00762C2A813B81C216D30654F08827992765
S1131A108C199D090AF401961C013594279408C079
S1131A208A819B8199230CF401961C013594279497
S1131A308A819B81892BA9F42C813D81A216B3064E
S1131A4008F460C065C049816C817D81C70105DFF0
S1131A508C819D8101969D838C83A816B90698F785
S1131A6062C0C114D104C1F42C813D81A216B30615
S1131A7010F4BD82AC82E016F10608F44EC0498130
S1131A806C817D81C801E9DE0F5F1F4FE016F1060E
S1131A90B0F749C01C0105C04A805B805194419451
S1131AA0510849816C817D81C801D7DE0E151F055F
S1131AB029F48C819D818A159B05A9F14214530454
S1131AC034F4C1018C199D09080D191D01C0C1010F
S1131AD02C143D04FCF62A803B80280E391E2C81F0
S1131AE03D81260D371D3D832C83DBCF65018C8121
S1131AF09D81C81AD90A88248394912C66246394FE
S1131B00712C7FCF9C818D81BD82AC82A92EB82E91
S1131B100E151F0508F4780196CF902F812F8701A9
S1131B20E92EF82EACCF0F900F900F900F900F90DE
S1131B30DF91CF911F910F91FF90EF90DF90CF90A5
S1131B40BF90AF909F908F907F906F905F904F90D9
S1131B503F902F9008959F92AF92BF92CF92DF92C1
S1131B60EF92FF920F931F93CF93DF93EC016B01DE
S1131B705901902E8138910570F56034710558F53E
S1131B80CE01840F951F8138910520F041E850E083
S1131B904C1B5D0BC6018A0D9B1D80349105A0F082
S1131BA080E490E05C01AC18BD080EC06C0D7D1D96
S1131BB0092D9B01A701CE01A5DE1F5F612F70E0F7
S1131BC0A616B70698F707C060E070E010E07A0147
S1131BD0EC0EFD1EEBCFDF91CF911F910F91FF9083
S1131BE0EF90DF90CF90BF90AF909F9008952F9289
S1131BF03F924F925F926F927F928F929F92AF9299
S1131C00BF92CF92DF92EF92FF920F931F93CF93E5
S1131C10DF93CDB7DEB76B970FB6F894DEBF0FBE78
S1131C20CDBF2C013B011A016901EF86449FC0011D
S1131C30459F900D900D11249C01990F440B550B59
S1131C402F83388749875A87CC9CC001CD9C900D3F
S1131C50900D11249C01990F440B550B2B873C8745
S1131C604D875E878F819885A985BA85880F991FCE
S1131C70AA1FBB1F880F991FAA1FBB1F888B998B94
S1131C80AA8BBB8B220F331F441F551F220F331FF8
S1131C90441F551F2C8B3D8B4E8B5F8B002309F407
S1131CA001C1C601880F991FA1E0B0E0A81BB90BC0
S1131CB02F81388549855A8594D50B851C852D85BA
S1131CC03E85000F111F221F331F4B015C01800E44
S1131CD0911EA21EB31ED6012F81388549855A85CF
S1131CE080D599230CF460C006E010E0A0E0B0E0D9
S1131CF0B98FA88F78011F85012FB3016C197D0955
S1131D009B01E88DF98DE40DF51DFE83ED83AF0194
S1131D10C201A88DB98D8A1B9B0B9A838983F2DD3E
S1131D20B3016C0D7D1D9B014D815E8189819A817A
S1131D30E9DDBB2084F0A1E0B0E0AC19BD0928893D
S1131D4039894A895B894DD5860E971EA81EB91E0E
S1131D50B1E0CB1AD108D7012B853C854D855E8532
S1131D6040D5860E971EA81EB91EE88DF98D3196B2
S1131D70F98FE88FF4E0EF0EF11CA88DB98D31D501
S1131D8069837A838B839C83D6012F813885498527
S1131D905A8527D529813A814B815C816217730763
S1131DA0840795070CF0A8CFC101880F991FA1E003
S1131DB0B0E0A81BB90B2B853C854D855E8511D5FC
S1131DC00F81188529853A85000F111F221F331FA3
S1131DD04B015C01800E911EA21EB31ED1012B8506
S1131DE03C854D855E85FDD499230CF46CC146E099
S1131DF050E05A8349831E821D821F85012FB3013F
S1131E00AD81BE816A1B7B0B9B016201C20CD31C9A
S1131E10A6017201E218F308C70174DD6D817E81A9
S1131E20660D771D9B01A601C7016CDDBB2084F004
S1131E30A1E0B0E0A219B3092C893D894E895F89DC
S1131E40D0D4860E971EA81EB91EB1E02B1A3108F5
S1131E50A981BA812F81388549855A85C2D4860ED5
S1131E60971EA81EB91EED81FE813196FE83ED8377
S1131E709D012C5F3F4F3A832983DF012F813885F1
S1131E8049855A85AED46B017C01D1012B853C85F3
S1131E904D855E85A6D46C157D058E059F050CF0D9
S1131EA0ADCF11C1C601880F991FA1E0B0E0A81BF6
S1131EB0B90B2F81388549855A8593D40B851C85A8
S1131EC02D853E85000F111F221F331F4B015C011E
S1131ED0800E911EA21EB31ED6012F81388549851E
S1131EE05A857FD499230CF46BC046E050E05E839E
S1131EF04D8380E090E09B8F8A8F398E288E3F84BB
S1131F00432D83010C0D1D1DB801AA8DBB8DA40D9D
S1131F10B51DBA83A983CD01A0DC432DB80172019C
S1131F20EA8DFB8DEE1AFF0AC70197DC432D83016E
S1131F300C191D09B80189819A818FDC432DB801E0
S1131F40C7018BDCBB2084F0A1E0B0E0AC19BD0973
S1131F50288939894A895B8944D4860E971EA81E2C
S1131F60B91EF1E0CF1AD108AD81BE812B853C8525
S1131F704D855E8536D4860E971EA81EB91E2A8D01
S1131F803B8D2F5F3F4F3B8F2A8FAD014C5F5F4FDF
S1131F905E834D83D9012B853C854D855E8521D497
S1131FA07B018C01D6012F81388549855A8519D446
S1131FB06E157F05800791070CF0A2CF288C398C11
S1131FC0C101880F991FA1E0B0E0A81BB90B2B85B4
S1131FD03C854D855E8505D40F81188529853A8514
S1131FE0000F111F221F331F4B015C01800E911E35
S1131FF0A21EB31ED1012B853C854D855E85F1D390
S113200099230CF460C006E010E080E090E09E8329
S11320108D834F85ED80FE80E60CF71CB701D2015D
S1132020A20DB31DBA83A983CD0117DC4F85B70177
S11320306201C218D308C60110DC4F857301ED811B
S1132040FE81EE1AFF0AB70189819A8106DC4F8569
S1132050B701C60102DCBB2084F0A1E0B0E0A21904
S1132060B3092C893D894E895F89BBD3860E971E9F
S1132070A81EB91EF1E02F1A3108D8012F81388526
S113208049855A85AED3860E971EA81EB91E2D818A
S11320903E812F5F3F4F3E832D830C5F1F4FD9013D
S11320A02F81388549855A859CD36B017C01D101E8
S11320B02B853C854D855E8594D36C157D058E05F9
S11320C09F050CF0A6CF6B960FB6F894DEBF0FBE3B
S11320D0CDBFDF91CF911F910F91FF90EF90DF90D3
S11320E0CF90BF90AF909F908F907F906F905F90B4
S11320F04F903F902F9008952F923F924F925F926E
S11321006F927F928F929F92AF92BF92CF92DF9203
S1132110EF92FF920F931F93CF93DF9300D000D0E1
S1132120CDB7DEB75A834983D901AD90BC90FA018B
S1132130C080D180238121118BC09DC0512C80E0AF
S113214090E0832C912C111109C096012F5F3F4F11
S1132150F501EC0DFD1D4490690110E8242D2123A7
S113216011F0019636C00097A1F1E89EA001E99E06
S1132170500DF89E500D1124AB81BC8116962C9104
S11321801697F401E20FF11D27FDFA95EE9DB001BB
S1132190EF9D700DFE9D700D1124660D771D159633
S11321A0EC91252D30E02E0F311DE7FD3A95281BCB
S11321B0390B2E9DC0012F9D900D3E9D900D112435
S11321C0022D9701A981BA818A0F9B1FC4DC80E08C
S11321D090E016955394EB81FC812281521608F409
S11321E0B2CF009771F18E9DA0018F9D500D9E9DE1
S11321F0500D11246681232D30E0260F311D67FD1B
S11322003A952E9DB0012F9D700D3E9D700D1124A9
S1132210660D771DE581252D30E02E0F311DE7FD7C
S11322203A95281B390B2E9DC0012F9D900D3E9D84
S1132230900D1124022D9701A981BA818A0F9B1F49
S11322408ADC3394EB81FC818381381670F013C0EF
S11322502E2CA981BA81BC83AB833B019A838983E9
S1132260312C10E0412CE02EF12CEB81FC81828199
S1132270811164CFE6CF0F900F900F900F90DF91F4
S1132280CF911F910F91FF90EF90DF90CF90BF906F
S1132290AF909F908F907F906F905F904F903F9002
S11322A02F9008952F923F924F925F926F927F9258
S11322B08F929F92AF92BF92CF92DF92EF92FF9252
S11322C00F931F93CF93DF93CDB7DEB760970FB60D
S11322D0F894DEBF0FBECDBFC82ED92E5A01102FE1
S11322E0E88A8F87F92E662E772E47E050E0B901F1
S11322F0CE01019695D245012C2C3D2CC12CD12C1C
S1132300402E512C43C0F40181914F018A3059F47D
S11323102F81249DC001259D900D1124680E791EE6
S11323202F843F2C30C02D81821768F19E8198172D
S113233050F18D3041F190E0821B9109BC01660F90
S1132340771F660F771F660F771F681B790B8B81CA
S11323509C81680F791F47E050E0CE01089660D257
S1132360E888012F9E012F5F3F4FAE01485F5F4F0A
S1132370B301C101C1DE2C85249DC001259D900DB2
S11323801124280E391EFFEFCF1ADF0AF501019040
S11323900020E9F73197EA19FB09CE16DF0608F4A5
S11323A0B2CF60960FB6F894DEBF0FBECDBFDF91FB
S11323B0CF911F910F91FF90EF90DF90CF90BF903E
S11323C0AF909F908F907F906F905F904F903F90D1
S11323D02F900895CF92DF92EF92FF920F931F9365
S11323E0CF93DF93082FD62EC42ECFEFC60FC09302
S11323F0380580933905F3D08CE390E008D180E070
S113240090E0FAD080EB800FE82EF12CC701F4D0D5
S1132410EFD01C2F110FE3D08CE390E0F8D080E0D4
S113242090E0EAD0812F8E7090E0E6D0E1D0D7D052
S11324308CE390E0ECD080E090E0DED0C0688C2F9C
S113244086958695869590E0D7D0D2D0C8D08CE377
S113245090E0DDD080E490E0CFD08FEF90E0CCD05E
S1132460C7D0BDD08CE390E0D2D080E490E0C4D05B
S11324708FEF90E0C1D0BCD0C2E0CD0DC093380541
S113248000933905ACD08CE390E0C1D080E090E0BB
S1132490B3D0C701B1D0ACD0A2D08CE390E0B7D018
S11324A080E090E0A9D086E0810F8E7090E0A4D007
S11324B09FD095D08CE390E0AAD080E090E09CD0AF
S11324C0C0688C2F86958695869590E095D090D09F
S11324D01E5FC0E0CB3020F5CC1660F080D08CE3DA
S11324E090E095D080E490E087D08DEB90E084D0AC
S11324F07FD016C074D08CE390E089D080E490E063
S11325007BD081E890E078D073D069D08CE390E000
S11325107ED080E490E070D081E890E06DD068D007
S1132520CB3049F46FEF80E40E944A0A6FEF80E4F5
S11325300E944A0A15C0CC3049F46CE380E40E943E
S11325404A0A6CE380E40E944A0A0AC0CD3041F48E
S11325506CE380E40E944A0A6CE380E40E944A0A25
S1132560DD2DDC0FD09338050093390538D08CE38A
S113257090E04DD080E090E03FD0C7013DD038D00E
S11325802ED08CE390E043D080E090E035D0812FD2
S11325908E7090E031D02CD022D08CE390E037D0F4
S11325A080E090E029D0D0688D2F86958695869519
S11325B090E022D01DD0CF5F1E5FCE3009F08ACFCD
S11325C0DF91CF911F910F91FF90EF90DF90CF900B
S11325D008958CE58093B8001092B900089584EAB8
S11325E08093BC00ECEBF0E080818823ECF7089545
S11325F084E98093BC0008958093BB0084E88093B1
S1132600BC00ECEBF0E080818823ECF70895880FA0
S11326108093BB0084E88093BC00ECEBF0E0808105
S11326208823ECF708955058BB27AA270ED077C00B
S113263068D030F06DD020F031F49F3F11F41EF4D7
S11326405DC00EF4E095E7FB53C0E92F79D080F329
S1132650BA17620773078407950718F071F49EF59B
S113266091C00EF4E0950B2EBA2FA02D0B01B901E9
S113267090010C01CA01A0011124FF27591B99F0F4
S1132680593F50F4503E68F11A16F040A22F232F00
S1132690342F4427585FF3CF469537952795A79550
S11326A0F0405395C9F77EF41F16BA0B620B730BF7
S11326B0840BBAF09150A1F0FF0FBB1F661F771F68
S11326C0881FC2F70EC0BA0F621F731F841F48F41D
S11326D0879577956795B795F7959E3F08F0B3CFA3
S11326E09395880F08F09927EE0F9795879508958D
S11326F097F99F6780E870E060E008959FEF80ECB1
S1132700089500240A941616170618060906089553
S113271000240A9412161306140605060895092EB9
S11327200394000C11F4882352F0BB0F40F4BF2B28
S113273011F460FF04C06F5F7F4F8F4F9F4F089568
S113274057FD9058440F551F59F05F3F71F047955E
S1132750880F97FB991F61F09F3F79F08795089543
S1132760121613061406551FF2CF4695F1DF08C062
S1132770161617061806991FF1CF8695710561057F
S113278008940895E894BB2766277727CB0197F927
S1132790089503D008F48FEF0895990F0008550F9A
S11327A0AA0BE0E8FEEF16161706E807F907C0F0D3
S11327B012161306E407F50798F0621B730B840BDB
S11327C0950B39F40A2661F0232B242B252B21F4B5
S11327D008950A2609F4A140A6958FEF811D811D55
S11327E00895B7FF04C003D0821B930B089509D04A
S11327F0A59F900DB49F900DA49F800D911D112451
S11328000895A29FB001B39FC001A39F700D811DC5
S11328101124911DB29F700D811D1124911D0895E5
S1132820FB01DC0102C005900D9241505040D8F7E5
S11328300895DC0101C06D9341505040E0F70895C4
S1072840F894FFCF36
S11328444F4C4544205465737400444953504C41DF
S11328545920445249564552003031323320466F90
S10728646E7400008A
S9030000FC
