S00F0000484434343738302E7372656382
S11300000C943E000C945B000C945B000C945B001D
S11300100C945B000C945B000C945B000C945B00F0
S11300200C945B000C945B000C945B000C945B00E0
S11300300C945B000C945B000C945B000C945B00D0
S11300400C945B000C945B000C945B000C945B00C0
S11300500C945B000C945B000C945B000C945B00B0
S11300600C945B000C945B0057017A019E01C10162
S1130070E40109022C024F027402970211241FBEEC
S1130080CFEFD8E0DEBFCDBF11E0A0E0B1E0E2E306
S1130090F6E002C005900D92A836B107D9F721E029
S11300A0A8E6B1E001C01D92A936B207E1F70E94AB
S11300B0BD020C9417030C9400002BB130E1839F14
S11300C0C00111242F70822B8BB98BB1877F8BB920
S11300D08BB188608BB98BB1877F8BB98FEA94E041
S11300E00197F1F700C000000895CF93C82F66234D
S11300F021F08BB184608BB903C08BB18B7F8BB93A
S11301008C2F82958F700E945D008C2F0E945D0061
S1130110CF91089560E00E947500089561E00E9407
S11301207500089580916801982F946090936801F8
S11301308C600E948A00089581E00E948A008FE307
S11301409FE10197F1F700C0000008950F931F93FA
S1130150CF93DF938B01877090E0880F991F880FEE
S1130160991F880F991F80640E948A00C0E0D0E024
S113017007C0F801EC0FFD1F80810E948E002196BC
S1130180C830D105B4F380E80E948A00DF91CF9192
S11301901F910F910895CF938AB18C6F8AB98FE51F
S11301A09AEE0197F1F700C000008BB1837F8BB901
S11301B08FE090E40197F1F700C0000083E00E9413
S11301C05D008FE090E40197F1F700C0000083E048
S11301D00E945D008FE090E40197F1F700C00000F9
S11301E083E00E945D008FE090E40197F1F700C086
S11301F0000082E00E945D0088E20E948A00109262
S1130200680188E00E948A00C0E00EC06C2F70E094
S1130210660F771F660F771F660F771F60507F4F3B
S11302208C2F0E94A600CF5FC83080F30E949200FA
S11302300E949C00CF910895CF93DF93EC01E62FA9
S1130240F0E0E05CFE4F8081840F80680E948A00A9
S113025003C00E948E00219688818111FACFDF911C
S1130260CF910895CF93C82F611108C080E8840FFF
S11302700E948A008C2F0E948E0009C0613039F4DC
S113028080EC840F0E948A008C2F0E948E00CF91F4
S113029008951F93CF93DF9390E08A30910508F07F
S11302A068C1C62FFC01EC5CFF4F0C941103462F70
S11302B060E080E00E94320111E01C0F412F60E0F9
S11302C081E00E943201D2E0DC0F4D2F60E082E039
S11302D00E9432014C2F61E083E00E943201412FE1
S11302E061E084E00E9432014D2F61E085E00E94CC
S11302F032013FC1462F60E081E00E94320111E0EB
S11303001C0F412F60E082E00E943201D2E0DC0F3A
S11303104D2F60E083E691E00E941C014C2F61E0C8
S113032084E00E943201412F61E087E00E943201A3
S11303304D2F61E084E00E9432011BC1462F60E032
S113034086E00E94320111E01C0F412F60E086E03C
S11303500E943201D2E0DC0F4D2F60E082E00E9467
S113036032014C2F61E083E00E943201412F61E0B1
S113037084E00E9432014D2F61E084E00E9432014A
S1130380F8C0462F60E086E00E94320111E01C0FA5
S1130390412F60E086E00E943201D2E0DC0F4D2F55
S11303A060E082E00E9432014C2F61E084E00E9410
S11303B03201412F61E084E00E9432014D2F61E05F
S11303C085E00E943201D5C0462F60E083E00E94A0
S11303D0320111E01C0F412F60E084E00E943201E1
S11303E0D2E0DC0F4D2F60E087E00E9432014C2FF9
S11303F061E083E691E00E941C01412F61E083E605
S113040091E00E941C014D2F61E087E00E943201BF
S1130410B0C0462F60E083E00E94320111E01C0F5F
S1130420412F60E086E00E943201D2E0DC0F4D2FC4
S113043060E086E00E9432014C2F61E084E00E947B
S11304403201412F61E084E00E9432014D2F61E0CE
S113045085E00E9432018DC0462F60E080E00E945A
S1130460320111E01C0F412F60E086E00E9432014E
S1130470D2E0DC0F4D2F60E086E00E9432014C2F69
S113048061E083E00E943201412F61E084E00E9438
S113049032014D2F61E085E00E9432016AC0462F8F
S11304A060E081E00E94320111E01C0F412F60E006
S11304B081E00E943201D2E0DC0F4D2F60E082E047
S11304C00E9432014C2F61E083E691E00E941C01FE
S11304D0412F61E083E691E00E941C014D2F61E011
S11304E087E00E94320145C0462F60E080E00E9410
S11304F0320111E01C0F412F60E086E00E943201BE
S1130500D2E0DC0F4D2F60E082E00E9432014C2FDC
S113051061E083E00E943201412F61E084E00E94A7
S113052032014D2F61E085E00E94320122C0462F46
S113053060E080E00E94320111E01C0F412F60E076
S113054086E00E943201D2E0DC0F4D2F60E082E0B1
S11305500E9432014C2F61E084E00E943201412F5D
S113056061E084E00E9432014D2F61E085E00E9449
S11305703201DF91CF911F9108950E94CB0043E097
S113058060E084E491E00E941C0143E061E083E5C3
S113059091E00E941C012FEF8BE792E921508040EB
S11305A09040E1F700C000000E949C0060E081E000
S11305B00E94490164E082E00E94490169E084E00C
S11305C00E9449016DE085E00E94490147E060E036
S11305D082E691E00E941C0147E061E085E691E03B
S11305E00E941C012FEF83ED90E321508040904046
S11305F0E1F700C0000047E060E085E691E00E947A
S11306001C0147E061E082E691E00E941C012FEFAB
S113061083ED90E3215080409040E1F700C000005A
S1130620D5CFEE0FFF1F0590F491E02D0994F894B7
S1050630FFCFF6
S1130632070F1F1F1F1F1F1F1F1F1F000000000087
S11306421C1E1F1F1F1F1F1F1F1F1F1F1F1F0F07E0
S113065200000000001F1F1F1F1F1F1F1F1F1E1C43
S11306621F1F1F0000001F1F1F1F1F1F1F1F1F1FF1
S1130672004014544C434420535452494E472030B2
S11306822033004C434420535452494E47203120D6
S10B069233002A2000202A0095
S9030000FC
