S01200005354373733355F4156522E737265634D
S11300000C94AC0A0C94C00A0C94C00A0C94C00A58
S11300100C94C00A0C94C00A0C94C00A0C94C00A34
S11300200C94C00A0C94C00A0C94C00A0C94C00A24
S11300300C94C00A0C94C00A0C94C00A0C94C00A14
S11300400C94C00A0C94C00A0C94C00A0C94C00A04
S11300500C94C00A0C94C00A0C94C00A0C94C00AF4
S11300600C94C00A0C94C00A08036F00207E16008A
S11300700000000500010000030C0601F505000660
S1130080050A02F50900090D0900F41800080E0913
S113009001F426000E0C1202F53B000D0C0F01F5C5
S11300A04F0002050501F55100040F0601F5590042
S11300B0040F0601F5610007070902F56800090944
S11300C00C01F8730003060401FE76000402060125
S11300D0FC770003030401FE7900060D0500F58397
S11300E000090C0900F59100060C0901F59A0009B4
S11300F00C0900F5A800080C0900F5B400080C0967
S113010001F5C000080C0901F5CC00080C0901F543
S1130110D800090C0900F5E600080C0901F5F20005
S1130120090C0900F5000103090601F80401030C98
S11301300602F809010A0A0C01F716010A050C0166
S1130140FA1D010A0A0C01F82A01070C0901F53508
S1130150010D0C1102F549010D0C0D00F55D010BAB
S11301600C0C00F56E010B0C0D01F57F010B0C0D51
S113017001F590010B0C0C01F5A1010A0C0B01F522
S1130180B0010C0C0E01F5C2010C0C0E01F5D401EA
S1130190050C0701F5DC01080E0900F5EA010D0C58
S11301A00E01F5FE010B0C0C01F50F02100C1100F1
S11301B0F527020B0C0D01F538020C0C0E01F54A63
S11301C0020A0C0B01F559020C0F0E01F570020C1A
S11301D00C0D01F58202080C0A01F58E020C0C0CC0
S11301E000F5A0020B0C0D01F5B1020D0D0D00F58B
S11301F0C702120C1200F5E2020D0C0D00F5F60216
S11302000D0C0D00F50A030B0C0C01F51B03040F78
S11302100601F52303060D0500F52D03040F060161
S1130220F5350308070A01F53C0309010900033EFB
S11302300304030600F4400309090900F84B030A08
S11302400C0A00F55A0307090800F862030A0C0AAD
S113025000F5710308090800F87A03070C0700F594
S11302608503070D0901F891030A0C0A00F5A003A0
S1130270050C0500F5A80306100700F5B4030A0CE5
S11302800A00F5C303050C0500F5CB030F090F00A5
S1130290F8DC030A090A00F8E80309090900F8F37D
S11302A0030A0D0A00F804040A0D0A00F8150408EC
S11302B0090800F81E0405090701F82404060B06C2
S11302C000F62D040A090A00F8390409090900F89E
S11302D044040C090D00F8520409090900F85D04EE
S11302E0080D0900F86A0407090801F872040510EA
S11302F00700F47C04010D0401F57E0405100702D7
S1130300F4880408020901FCFFF4921FF0CF3CE3D7
S113031088130984C247F990C84CFF13090C86401E
S11303201038D692D2F07C3E179393D67C103C21A1
S1130330CF0E2430A0C50334E72640B904C42330CB
S11303408C841C0F00CC06603E00E78F189C8CE464
S1130350E3C79E3C72FDE0FF803244CCCCCCC46247
S1130360108422333333326480316BB18ED68C00E7
S1130370080402010FF84020100800DF9500FFFF79
S1130380800C218610C308618430C01C3398DC7E45
S11303903F1F8FC7E3B198C38008E38E38E38E38DC
S11303A0E3BF3C3F23C0E07030381818185FDFE02B
S11303B07C8E0E0E0C1E07030302E6F8060E0E3E9C
S11303C02E4E8E8EFFFF0E0E3F7E4040F8FC1E0622
S11303D00202E4F8071C3070FCE6E7E7E767663CD6
S11303E07F3FA0D040603010180C040603003CC6C8
S11303F0C6C6FC7C3ECFC7C7C67C3E33B8DC7E3F56
S11304001DCE7F07070F1C00FF803FE0FF8037E50C
S1130410400000707878783803803C03C030FFC017
S1130420000000FFC0C03C03C01C01C1E1E1E0E0EA
S113043000003D9F3E70E104080070E1C00F81831D
S113044018C4899C4CE4672239224FE3000C101F26
S11304500002003001C00E00B805C04F02383FE171
S113046007183DE3F0FF871CE39C739C7F0E71C764
S113047038E71CE77FC01F261DC1B01E01C0380726
S113048000E00E04E10FC0FF0E71C738770EE1DC07
S11304903B8770CE39C67F80FFCE19C1388730FEC6
S11304A01CC388702E0DC37FE0FFDC3705C4731FA7
S11304B0C731C4701C0703E01F230E706E02E00EE8
S11304C000E1FE0E60E70E38E0F8F9F70E70E70E73
S11304D070E7FE70E70E70E70E70EF9FFB9CE73944
S11304E0CE739DF01F0E0E0E0E0E0E0E0E0E0ECEC1
S11304F0CC78F9F3821C20E207203F01DC0E7073F4
S1130500C38F1C3DF3F0F80E01C0380700E01C0354
S113051080702E09C37FE0F80F3C1E3C1E2E2E2E49
S11305202E264E274E274E238E238E210E711FF02A
S1130530EE09E13E25E49E91D21E43C839037020A2
S11305401F830C70EE07E07E07E07E07E0770E3035
S1130550C1F8FF1CE71DC771DCE7F1C0701C07037D
S1130560E00F839C70E606E07E07E07E07E07606F7
S113057030C1980F007803E0FF073871C71C71C7BA
S1130580387E077077873C71EF8F3947C1C0F07CA4
S11305903E0F83C3C6BCFFFCE38E10E00E00E00EEA
S11305A000E00E00E00E01F0F8EE09C1382704E087
S11305B09C1382704E08E20F80FC7BC10E08708190
S11305C0C40E207A01D00E803801C004002000FD42
S11305D0FBDC38438710E1C438F2072E81D3A03402
S11305E0700E1C03870060801020FEF3C30F1039C7
S11305F000F003801E017009C08F083DF3F0FC7BFE
S1130600C18E083881E807401C00E007003801C0AB
S11306101F00FFD8721E4380E01C0701C0382E0F54
S1130620837FE0FCCCCCCCCCCCCCF0C1061820C36E
S1130630041860830CF3333333333333F0181C342E
S1130640266243C1FF80C6307C63B1C0E1F33B9DA9
S1130650CEFF80F01C0701DC7B9C771DC771DC7723
S1130660393C3CED9F0E1C38393C0780E038EE776E
S1130670B8EE3B8EE3B8E778EF3C66E6FEE0E0E0F8
S1130680723C3EEDC7C70E1C3870E1C7C031DFBFF6
S11306907EE79060FCFE0C17C0F01C0701DC7B9C1D
S11306A0E739CE739CE73BFF739DE739CE739DF02A
S11306B01C71CF1C71C71C71C71C7DBEF01C0701C7
S11306C0CE711C8741F8771CE71BEFF39CE739CE0A
S11306D0739DF0F738F7B9CE739CE739CE739CE776
S11306E039CEFFFEF71EE739CE739CE739CEFFC043
S11306F03E31B8FC7E3F1F8EC63E00F71EE71DC785
S113070071DC771DCE7F1C0701C0F8003C9CEE3BDA
S11307108EE3B8EE39CE3F80E0380E07C0F77B7029
S11307207070707070F87E73C78E39B010CF9C7182
S1130730C71C71D380F79CE739CE739CE739CE3F51
S1130740C0FBB88C8743C0E070100800F7B6317363
S1130750A33A3DA3DC18C1881080FBB88E8381C006
S1130760F098CEEF80F7627234343C1818101010F1
S1130770E0E0FF1C70E3871C71FE198C6318CC61E8
S11307808C6318C3FFF8C318C631863318C6319872
S1130790F08E320A9907207E07000000000600014F
S11307A0000001050200FC010003010400FC02003A
S11307B005050600FC060005050600FC0A00050503
S11307C00600FC0E0005050600FC120001010200F3
S11307D0FC130002050300FC150002050300FC17CE
S11307E00003030400FD190003030400FD1B0001C2
S11307F0020200001C0004010500FE1D00010102AC
S113080000001E0005050600FC220005050600FC8C
S1130810260001050200FC270005050600FC2B004C
S113082005050600FC2F0005050600FC3300050540
S11308300600FC370005050600FC3B000505060024
S1130840FC3F0005050600FC430005050600FC47C7
S11308500001040200FD480001040200FD490003F8
S1130860050400FC4B0004030500FD4D00030504D2
S113087000FC4F0005050600FC530005050600FCBE
S1130880570005050600FC5B0005050600FC5F003B
S113089005050600FC630005050600FC6700050568
S11308A00600FC6B0005050600FC6F00050506004C
S11308B0FC730005050600FC770005050600FC7BBB
S11308C00005050600FC7F0005050600FC83000505
S11308D0050600FC870005050600FC8B00050506DF
S11308E000FC8F0005050600FC930005050600FCCE
S11308F0970005050600FC9B0005050600FC9F000B
S113090005050600FCA30005050600FCA700050577
S11309100600FCAB0005050600FCAF00050506005B
S1130920FCB30005050600FCB70005050600FCBB8A
S11309300005050600FCBF0002050300FCC100051C
S1130940050600FCC50002050300FCC70003020401
S113095000FCC8000501060001C90001010200FCF9
S1130960CA0004040500FDCC0004050500FCCF000A
S113097004040500FDD10004050500FCD4000404B2
S11309800500FDD60003050400FCD800040505009D
S1130990FDDB0004050500FCDE0001040200FDDFB0
S11309A00002050300FDE10004050500FCE400016C
S11309B0050200FCE50005040600FDE8000404054A
S11309C000FDEA0004040500FDEC0004050500FD3B
S11309D0EF0004050500FDF20004040500FDF40029
S11309E004040500FDF60005050600FCFA000404F5
S11309F00500FDFC0004040500FDFE0005040600DE
S1130A00FD010104040500FD030104050500FD06C4
S1130A100104040500FD080103050400FC0A0101AA
S1130A20050200FC0B0103050400FC0D010503068F
S1130A3000FDE8A057D5F500FD3E5F8088888880DA
S1130A40F4BF2E80806A409580AA805D00C0F0804B
S1130A5008888800FC631F80F8F87F0F80F87E1FE9
S1130A60808C7E1080FC3E1F80FC3F1F80F842106B
S1130A7080FC7F1F80FC7E1F8090B02A22F0F088CB
S1130A80A8F84E0200FD6F0F80FC7F1880F47D1FD4
S1130A9000FC210F80F4631F00FC3F0F80FC3F0823
S1130AA000FC2F1F808C7F1880F9084F8078852FD9
S1130AB0808DB1688084210F80FD6B5A80FC63189F
S1130AC080FC631F80FC7F0800FC633F80FC7F295F
S1130AD000FC3E1F80F90842008C631F808C62A2D8
S1130AE000AD6B5F808A88A8808C544200F87F0F29
S1130AF080EAC082082080D5C054F880F1FF8F9925
S1130B00F0F88F1F99F0FF8F6BA4F99F108F9990C5
S1130B10F055C08AF990F8FD6310F999F99FF99F8F
S1130B2080F99F20F888471F27C84200999F99970A
S1130B308C6BF09669999F102E8F2B22F889A80F41
S1130B40E0DC10480B207E06000008010200FB01D7
S1130B500008050200FB060008020400FB08000868
S1130B60050400FB0D0008050400FB120008050441
S1130B7000FB170008050400FB1C0008020200FB30
S1130B801E0008050300FB230008050300FB2800E2
S1130B9008030400FB2B0008030400FC2E000802D9
S1130BA00300FE300008010400FD310008010200CA
S1130BB0FF320008050400FB370008050400FB3C75
S1130BC00008050300FB410008050400FB4600087B
S1130BD0050400FB4B0008050400FB500008050455
S1130BE000FB550008050400FB5A0008050400FB3F
S1130BF05F0008050400FB640008050400FB6900AD
S1130C0008030200FC6C0008040300FC70000805E3
S1130C100400FB750008030400FC780008050400C8
S1130C20FB7D0008050400FB820008050400FB8727
S1130C300008050400FB8C0008050400FB91000873
S1130C40050400FB960008050400FB9B000805044E
S1130C5000FBA00008050400FBA50008050400FB38
S1130C60AA0008050400FBAF0008050400FBB4005B
S1130C7008050400FBB90008050400FBBE000805D4
S1130C800400FBC30008050400FBC80008050400B9
S1130C90FBCD0008050400FBD20008050400FBD7C7
S1130CA00008050400FBDC0008050400FBE1000863
S1130CB0050400FBE60008050400FBEB000805043E
S1130CC000FBF00008050400FBF50008050400FB28
S1130CD0FA0008050400FBFF0008050400FB0401FA
S1130CE008050400FB090108050400FB0E010803C4
S1130CF00400FC110108050400FB160108020400AD
S1130D00FB180108010400FF190108020300FB1B82
S1130D100108040400FC1F0108050400FB24010869
S1130D20040400FC280108050400FB2D0108040448
S1130D3000FC310108050400FB360108050400FC31
S1130D403B0108050400FB400108050200FB4501C6
S1130D5008060400FB4B0108050400FB50010805CC
S1130D600400FB550108040400FC590108040400B4
S1130D70FC5D0108040400FC610108050400FC6634
S1130D800108050400FC6B0108040400FC6F010861
S1130D90040400FC730108050400FB780108040442
S1130DA000FC7C0108040400FC800108040400FC2D
S1130DB0840108040400FC880108050400FC8D017A
S1130DC008040400FC910108050400FB96010805D1
S1130DD00200FB9B0108050400FBA00108020400BB
S1130DE0FBA20108050200FBA70108050400FBACF7
S1130DF00108050400FBB10108050400FBB6010865
S1130E00050400FBBB0108050200FBC00108050442
S1130E1000FBC50108010400FBC60108030400FB34
S1130E20C90108050400FBCE0108030300FBD1013E
S1130E3008020400FCD30108010300FDD4010803E7
S1130E400400FBD70108010400FBD80108030400D7
S1130E50FBDB0108050400FBE00108030400FBE3DD
S1130E600108030400FBE60108020300FBE8010893
S1130E70050400FBED0108050400FBF2010803046E
S1130E8000FCF50108030400FDF80108030200FB5F
S1130E90FB0108050400FB000208030300FB030236
S1130EA008050400FB080208050400FB0D02080500
S1130EB00400FB120208050400FB170208050400E5
S1130EC0FB1C0208050400FB210208050400FB26A4
S1130ED00208050400FB2B0208050400FB3002088D
S1130EE0050400FB350208050400FB3A0208060469
S1130EF000FB400208050400FB450208050400FB52
S1130F004A0208050400FB4F0208050400FB5402D2
S1130F1008050400FB590208050400FB5E020805ED
S1130F200400FB630208050400FB680208050400D2
S1130F30FB6D0208050400FB720208050400FB7740
S1130F400208050400FB7C0208050400FB8102087A
S1130F50050400FB860208050400FB8B0208030459
S1130F6000FC8E0208050400FB930208050400FB44
S1130F70980208050400FB9D0208050400FBA20278
S1130F8008050400FBA70208050400FBAC020805E1
S1130F900400FBB10208060400FBB70208050400C4
S1130FA0FBBC0208050400FBC10208050400FBC6E3
S1130FB00208050400FBCB0208050400FBD002086C
S1130FC0050400FBD50208040400FCD9020805044A
S1130FD000FCDE0208050400FBE30208050400FB34
S1130FE0E80208050400FBED0208050400FBF20218
S1130FF008050300FBF70208050300FBFC020805D3
S11310000400FB010308050400FB060308050400B3
S1131010FB0B0308050400FB100308050400FB1583
S11310200308050400FB1A0308050400FB1F03085A
S1131030050400FB240308050400FB290308050438
S113104000FB2E0308040400FC320308050400FB23
S1131050370308050400FB3C0308050400FB4103B7
S113106008050400FB460308060400FB4C030805BE
S11310700400FC510308060400FB570308010200A6
S1131080FF580308050400FB5D0308040400FC6129
S11310900308050400FB660308050400FB6B030852
S11310A0050400FB700308050400FB750308050430
S11310B000FB7A0308010200FF7B0308010200FF22
S11310C07C0308010200FD7D0308010400FF7E0388
S11310D008050400FB830308050400FB00808080EE
S11310E00080A0A0A0E0A0E0A060C060C04080207C
S11310F0408020C0C0E0A06080804080808040802C
S113110040404080A040A040E0404080E08020205B
S113111040808060A0A0A0C040C0404040C02040AB
S113112080E0C0204020C0A0A0E02020E080C020BB
S1131130C06080E0A0E0E020408080E0A0E0A0E08B
S1131140E0A0E020C080008040004080204080403B
S113115020E000E08040204080E02040004040A0AB
S1131160E0806040A0E0A0A0C0A0C0A0C0608080DB
S11311708060C0A0A0A0C0E080E080E0E080E080CB
S1131180806080E0A060A0A0E0A0A0E0404040E03B
S1131190202020A040A0A0C0A0A080808080E0A04B
S11311A0E0E0A0A0A0E0E0E0A040A0A0A040C0A09B
S11311B0C0808040A0A0E060C0A0E0C0A0608040EB
S11311C020C0E040404040A0A0A0A060A0A0A0405B
S11311D040A0A0E0E0A0A0A040A0A0A0A04040406B
S11311E0E0204080E0E0808080E0804020E020201B
S11311F020E040A0E08040C060A0E080C0A0A0C08B
S1131200608080602060A0A06060A0C0602040E09A
S1131210404060A0E0204080C0A0A0A0800080806A
S11312208020002020A04080A0C0C0A0C04040403A
S1131230E0E0E0E0A0C0A0A0A040A0A040C0A0A02A
S1131240C08060A0A060206080808060C060C040DA
S1131250E0404060A0A0A060A0A0E040A0E0E0E0EA
S1131260A04040A0A0A0602040E060C0E0604080BA
S113127040608080008080C0402040C060C080000A
S113128080808040E080E0406040E040E0A040E0BA
S113129040A0A0A040E04080800080806040A0404A
S11312A0C0A060806060A0E000E0408040E020C01A
S11312B0C0C0A0E040A04040E04000E0C04060E08A
S11312C060E04080A0A0A0C08060A0606060E0E01A
S11312D0E04020C080808040A04000E080408080CA
S11312E080006020808000C060C0C000602040009A
S11312F04080E0402040E0A0408040E0A0E000408A
S1131300E0A060C040E0A0A040A0E0A0C0C0A0E079
S1131310A060C0E0C0E06080806020404020E0C069
S1131320E04080E0C0E0E000E0C0E0A000E0C0E019
S11313304020E040E04080E040E0E000E040E0A009
S113134000E040E0C0A0E0A0C0C060A0E0A0402059
S1131350E0A0E04080E0A0E0E000E0A0E0C060E0C9
S1131360A0E0A000E0A0E0A040A060A0E0A0C080B9
S113137040A0A0E02040A0A0E0E000A0A0E0A000E9
S1131380A0A0E02040A0E04080E0A0E08060A0C0F9
S1131390A0C080402060A0E0408060A0E0E0006049
S11313A0A0E060C060A0E0A00060A0E0606060A079
S11313B0E060E0E0C06080602040402060E0604089
S11313C08060E060E00060E060A00060E060804079
S11313D08080804080404040E000404040A0004089
S11313E0404060C060A060C060C0A0A0402040A099
S11313F040408040A040E00040A040C06040A04089
S1131400A00040A0404000E0004060E0A0C0804058
S1131410A0A0602040A0A060E000A0A060A000A068
S1131420A0602040A060204080C0A0C080A000A098
S11314306020400060C0E0C06060E0C0E0A060C028
S113144060C0A060C060C0A000A04040A0E060C038
S1131450E0A0E060C0E0000080A060E0E0C060E0E8
S1131460A0A0A0E004E010021C07123732292D29A5
S1131470252B3900010310E110031D07062E2C292A
S11314802D2E2E373F0000021013800A298064029B
S11314902A040000007F2B040000007F022A0400BD
S11314A000007F2B040000009F022A040002008138
S11314B02B04000100A00F0180961180FFB10301ED
S11314C02C2DB203012C2DB306012C2D012C2DB48F
S11314D00107C003A20284C101C5C2020A00C302FB
S11314E08A2AC4028AEEC5010E20003601C83A01D8
S11314F005120180321180FF3A81050AB18300068A
S1131500030A360108B6021502B40100C082027053
S11315100AC10105C2020102C5823C380AFC02115B
S113152015E01009160920211B131917151E2B0489
S113153005020EE1900B14081E221D181E1B1A240E
S11315402B0606020F0A2A04000200812B04000263
S1131550008113800A2980FF11241FBECFEFD8E039
S1131560DEBFCDBF11E0A0E0B1E0E4E7F0E302C0EC
S113157005900D92A833B107D9F704D00C9438180C
S11315800C94000063E082E00E949F17E12CF12C90
S11315908701EA9420E830E040EA50E060E070E03F
S11315A080E090E059D1E12CF12C87012EE730E066
S11315B04EE950E061E070E081E090E04DD12FEF22
S11315C088E09DE3215080409040E1F700C0000096
S11315D0C8E0D0E0C12CD12C7601DA9401E020E8F7
S11315E030E0AE0160E070E080E090E0D7D1289672
S11315F0C83AD10579F7C8E0D0E0C12CD12C7601E6
S1131600DA9401E09E0140EA50E060E070E080E09E
S113161090E0C4D12896C838D10579F7EFE3F2E415
S11316202FE0E150F0402040E1F700C00000C0E1AD
S1131630D0E00F2EF4E1AF2EB12CF02D6894662487
S113164066F8712C0F2EF0E58F2E912CF02D8C2F37
S11316508695B301681B71098A2D8695C12CDD24FA
S1131660DA94ED2CF12C02E09E01A501F401E81BB3
S1131670F109CF013ED2F4E1AF0EB11C6096C0393E
S1131680D10529F72FE382E49FE021508040904068
S1131690E1F700C00000E12CF12C8701EA9420E876
S11316A030E040EA50E060E070E080E090E0D4D0C8
S11316B0E12CF12C87012EE730E04EE950E061E0A7
S11316C070E081E090E0C8D0C12CDD24DA94ED2CE8
S11316D0F12C01E021E43BE040E051E068E270E0FD
S11316E085E090E00E946A15CC24CA94D12C76013E
S11316F024E130E049E850E064E170E087E190E003
S11317004DD1C12CD12C7601CA9425E130E049E8B1
S113171050E065E170E087E190E040D125E130E000
S113172049E850E065E170E087E190E037D1CC24EE
S1131730CA94D12C760122E937E04DE151E06AE008
S113174070E089E290E00E946A15C12CD12C7601E8
S1131750EA9428E630E04CE251E063E270E08DE286
S113176090E00E946A1520E04EE16AE570E088E2AC
S113177090E095D5C12CD12C7601CA9421E044E1A6
S11317806AE570E08DE290E08AD5812C912C5401B9
S11317908A946894CC24C1F80F2EF9E1EF2EF12C31
S11317A0F02D09E110E024E130E045E050E065E08F
S11317B070E085E090E0DCD1C12CD12C7601DA9484
S11317C002E024E130E04EE150E06DE270E08CE3B1
S11317D090E08FD1AA24AA94BA2CCA2CD12C0F2E13
S11317E0F3E0EF2EF02D0AE010E029E130E04CE3C5
S11317F050E066E470E080E590E074D7CC24CA94AD
S1131800DC2CEC2CF12C29E130E04CE350E064E6D4
S113181070E080E590E00E94FF14A12CBB24BA94F0
S1131820CB2CD12C6894EE24E1F800E024E130E0E4
S11318304EE150E064E670E08CE390E0E6D1EE2403
S1131840E39401E02FE030E049E150E06CE370E024
S11318508DE790E0DAD1FFCF8F929F92AF92BF9243
S1131860CF92DF92EF92FF920F931F93CF93DF9368
S11318706C01EB01F9019A01DF010E9410184B0180
S11318805C01C6010197480F591FCE010197E80F6B
S1131890F91F2C982B988AE28EBD0DB407FEFDCF5C
S11318A02C9A2C982B9ADEBC0DB407FEFDCFCEBC2F
S11318B00DB407FEFDCF2C9A2C982B9A5EBD0DB467
S11318C007FEFDCF4EBD0DB407FEFDCF2C9A2C981C
S11318D02B988BE28EBD0DB407FEFDCF2C9A2C986D
S11318E02B9ADEBD0DB407FEFDCFCEBD0DB407FEB1
S11318F0FDCF2C9A2C982B9AFEBD0DB407FEFDCF7C
S1131900EEBD0DB407FEFDCF2C9A2C982B988CE2DB
S11319108EBD0DB407FEFDCF2C9A81149104A10451
S1131920B10479F1E694E694E6948E2D90E0982F34
S11319308827990F990F990F0695069506959C018E
S1131940202BF694F69440E2F49EC0011124822BDD
S1131950932B392F282F80E090E0DC012C982B9AD0
S11319603EBD0DB407FEFDCF2EBD0DB407FEFDCF69
S11319702C9A0196A11DB11D88169906AA06BB06CC
S113198069F7DF91CF911F910F91FF90EF90DF9056
S1131990CF90BF90AF909F908F9008952F923F92D9
S11319A04F925F926F927F928F929F92AF92BF926B
S11319B0CF92DF92EF92FF920F931F93CF93DF9317
S11319C0CDB7DEB72E970FB6F894DEBF0FBECDBFEE
S11319D09E878D874B012A013C872B87CB82DC8233
S11319E0ED82FE82CA012D853E85821B930B6C011C
S11319F022F4CC24DD24C81AD90A2B853C85281965
S1131A003909C901992324F488279927821B930B48
S1131A1098878F834D855E854415550528F08FEF93
S1131A209FEF9A87898704C021E030E03A872987AD
S1131A304B855C858416950620F022242A94322C4A
S1131A4003C022242394312C56018F819885A81A2F
S1131A50B90A202F30E03A8329833C0171946194C0
S1131A607108EB80FC800D811E8129813A81A901D6
S1131A70B4018D859E85F0DE8D859E858415950542
S1131A8029F42B853C8582169306D1F0C501880F75
S1131A90991F6816790664F44F815885A41AB50A0B
S1131AA02D853E8549855A85240F351F3E872D8710
S1131AB08C159D05B4F6AC0CBD1C820C931CD1CFC7
S1131AC02E960FB6F894DEBF0FBECDBFDF91CF9137
S1131AD01F910F91FF90EF90DF90CF90BF90AF9048
S1131AE09F908F907F906F905F904F903F902F903A
S1131AF008952F923F924F925F926F927F928F92AE
S1131B009F92AF92BF92CF92DF92EF92FF920F9388
S1131B101F93CF93DF935C01EB0149011C01240E59
S1131B20351E9B01A1013ADF8C0E9D1E9401A1017B
S1131B30B401C50133DF9401A501BE01C5012EDF47
S1131B409401A101BE01C10129DFDF91CF911F9151
S1131B500F91FF90EF90DF90CF90BF90AF909F9048
S1131B608F907F906F905F904F903F902F9008954B
S1131B702F923F924F925F926F927F928F929F9299
S1131B80AF92BF92CF92DF92EF92FF920F931F9387
S1131B90CF93DF9300D000D000D0CDB7DEB79A83C7
S1131BA089831B013A0129011C830B83FE82ED8288
S1131BB01C2D75016401012FF1DE2D813E814B81C5
S1131BC05C81B201C301EADE910149815A816D81D0
S1131BD07E818B819C81E2DE26960FB6F894DEBF6F
S1131BE00FBECDBFDF91CF911F910F91FF90EF906A
S1131BF0DF90CF90BF90AF909F908F907F906F9029
S1131C005F904F903F902F9008952F923F924F9264
S1131C105F926F927F928F929F92AF92BF92CF9278
S1131C20DF92EF92FF920F931F93CF93DF93CDB781
S1131C30DEB7A5970FB6F894DEBF0FBECDBF3C014B
S1131C404B012A013A832983EBA2AB86BC86CD865D
S1131C50DE86449FC001459F900D900D11249C0188
S1131C60990F440B550B298B3A8B4B8B5C8B498119
S1131C705A81449FC001459F900D900D11249C01F1
S1131C80990F440B550B2D8B3E8B4F8B588F4989E5
S1131C905A896B897C89440F551F661F771F440F2F
S1131CA0551F661F771F4B8F5C8F6D8F7E8F6D89DD
S1131CB07E898F89988D660F771F881F991F660FFD
S1131CC0771F881F991F6F8F78A389A39AA3002376
S1131CD009F466C189819A81880F991FA1E0B0E057
S1131CE0A81BB90B29893A894B895C890E941F1862
S1131CF0CD88DE88EF88F88CCC0CDD1CEE1CFF1C34
S1131D009B01AC012C0D3D1D4E1D5F1D2F8338879B
S1131D1049875A87A981BA8129893A894B895C897B
S1131D200E941F1899230CF48DC00F2EF6E0AF2EDD
S1131D30B12CF02D212C312CC3013BA1831B910923
S1131D40AC014F5F5F4F5A8F498FB88BAF87132F0A
S1131D50CB84DC84ED84FE84012FB4018F859889C3
S1131D60681B790B9B01A98DBA8DA20DB31DBA8393
S1131D70A983AD01C301821993099E838D830EDE6D
S1131D80CB84DC84ED84FE846F857889680D791DAD
S1131D909B0149815A818D819E8100DE2F81388586
S1131DA049855A855523F4F0A1E0B0E04F85588960
S1131DB0A41BB50B2B8D3C8D4D8D5E8D0E941F1881
S1131DC02F81388549855A85260F371F481F591F8B
S1131DD02F83388749875A874F855889415051093D
S1131DE0588B4F87D5012D893E894F89588D0E9484
S1131DF01F182F81388549855A85260F371F481F9C
S1131E00591F2F83388749875A873FEF231A330A8C
S1131E1044E0A40EB11CD1012D893E894F89588D0F
S1131E200E941F186B017C01AF85B88929893A8902
S1131E304B895C890E941F186C157D058E059F05D2
S1131E400CF086CFC201880F991FA1E0B0E0A81B57
S1131E50B90B2D893E894F89588D0E941F18C98856
S1131E60DA88EB88FC88CC0CDD1CEE1CFF1C9B0183
S1131E70AC012C0D3D1D4E1D5F1D29833A834B8300
S1131E805C83D2012D893E894F89588D0E941F1889
S1131E9099230CF4EBC10F2EF6E0AF2EB12CF02DEC
S1131EA0212C312C5BA1452F50E0588B4F871BA16F
S1131EB0C301840D951D0196BC01AF85B8896A1BC9
S1131EC07B0B78876F83CB84DC84ED84FE84012FC5
S1131ED0B401621973099B014F815885C3018419A8
S1131EE095099E838D835ADDCB84DC84ED84FE8446
S1131EF0B401620D731D9B014F8158858D819E81B4
S1131F004DDD29813A814B815C815523CCF0A1E0E0
S1131F10B0E0A419B5092F8D38A149A15AA10E9496
S1131F201F1829813A814B815C81260F371F481F76
S1131F30591F29833A834B835C8331E0431A510848
S1131F40D50129893A894B895C890E941F18298106
S1131F503A814B815C81260F371F481F591F298303
S1131F603A834B835C833FEF231A330A44E0A40E85
S1131F70B11CD10129893A894B895C890E941F18B7
S1131F806B017C01D2012D893E894F89588D0E94B5
S1131F901F186C157D058E059F050CF089CF66C151
S1131FA089819A81880F991FA1E0B0E0A81BB90B21
S1131FB029893A894B895C890E941F18CD88DE885B
S1131FC0EF88F88CCC0CDD1CEE1CFF1C560167015D
S1131FD0A60EB71EC81ED91EA981BA810E941F1859
S1131FE099230CF48DC066E070E07A8F698F212C00
S1131FF0312C9BA1892F90E09E838D83BDA3ACA33C
S1132000EB84FC840D851E852D813E81A901ACA144
S1132010BDA1A80DB91DBA83A983BD01C101860D57
S1132020971D98878F8318DCEB84FC840D851E85AF
S11320302D813E81A90169817A81D301A219B30955
S1132040B88BAF87CD0108DCEB84FC840D851E853D
S11320502D813E81A901B4018CA19DA1681B790B3E
S11320607A8369838F819885F7DBEB84FC840D8503
S11320701E852D813E81A90169817A818F85988988
S1132080EBDBDD20ACF0A1E0B0E02CA13DA1A21B74
S1132090B30B2B8D3C8D4D8D5E8DD1D7A60EB71E07
S11320A0C81ED91E4CA15DA1415051095DA34CA38A
S11320B0A98DBA8D2D893E894F89588DC0D7A60E1A
S11320C0B71EC81ED91E5FEF251A350ABD016C5F05
S11320D07F4F7A8F698FD1012D893E894F89588D21
S11320E0AED77B018C01ACA1BDA129893A894B896A
S11320F05C89A5D76E157F05800791070CF080CF0A
S1132100C201880F991FA1E0B0E0A81BB90B2D896B
S11321103E894F89588D93D7C988DA88EB88FC8823
S1132120CC0CDD1CEE1CFF1C9B01AC012C0D3D1DD9
S11321304E1D5F1D2F83388749875A87D2012D8909
S11321403E894F89588D7BD799230CF48FC00F2E6D
S1132150F6E0AF2EB12CF02D212C312C5BA1452FB4
S113216050E0588B4F87EB84FC840D851E852F85AA
S11321703889A9016101C80CD91CB601C301840DB9
S1132180951D9E838D8368DBEB84FC840D851E8501
S11321902F853889A901B601D301A419B509BA83D9
S11321A0A983CD0159DBEB84FC840D851E852F8525
S11321B03889A9016401C218D308B6018D819E81B2
S11321C04BDBEB84FC840D851E852F853889A901A2
S11321D0B60189819A8140DB2F81388549855A85EA
S11321E05523C4F0A1E0B0E0A419B5092F8D38A19E
S11321F049A15AA124D72F81388549855A85260FAC
S1132200371F481F591F2F83388749875A8731E062
S1132210431A5108D50129893A894B895C890FD71A
S11322202F81388549855A85260F371F481F591F26
S11322302F83388749875A873FEF231A330A44E0AC
S1132240A40EB11CD10129893A894B895C89F7D63E
S11322506B017C01D2012D893E894F89588DEFD6BF
S11322606C157D058E059F050CF07DCFA5960FB6E8
S1132270F894DEBF0FBECDBFDF91CF911F910F91B8
S1132280FF90EF90DF90CF90BF90AF909F908F9092
S11322907F906F905F904F903F902F9008952F9272
S11322A03F924F925F926F927F928F929F92AF92E2
S11322B0BF92CF92DF92EF92FF920F931F93CF932F
S11322C0DF93CDB7DEB765970FB6F894DEBF0FBEC8
S11322D0CDBF5C012B012B8BCF82D886E986FA8691
S11322E0242E312C81E090E03C016218730821E037
S11322F030E0388B2F879E878D87C12CD12C802E80
S1132300912CBD8AAC8ADA8AC98A9B89913021F5DD
S1132310C101880F991F9C012F5F3F4F3C832B8382
S1132320EF80F88409851A854F855889B2016219AE
S113233073098C899D8990DAEF80F88409851A8560
S11323402F8538894B815C81B2016C197D09C501E7
S11323508219930981DA71C0EF80F88409851A859E
S11323609401A401C201820D931D9C838B83BC0143
S1132370C5018C0D9D1D9C878B876EDAEF80F884D8
S113238009851A859401A401C2018C0D9D1D9E83AB
S11323908D83BC01C501820D931D9A8389835CDA08
S11323A0EF80F88409851A859401A4016B817C81EE
S11323B08C899D8951DAEF80F88409851A85940106
S11323C0A4016D817E81C501821993099C838B834D
S11323D043DAEF80F88409851A859401A401C201C7
S11323E08C199D099E838D83BC0189819A8134DA7D
S11323F0EF80F88409851A859401A401C201821929
S113240093099A838983BC018B859C8525DAEF80A7
S1132410F88409851A859401A40169817A818C89DB
S11324209D891ADAEF80F88409851A859401A4013C
S11324306D817E818B819C810FDA77205CF493E03F
S1132440690E711CC601880F991F680E791E8D854F
S11324509E8510C025E0620E711C89899A898219B3
S11324609309880F991F680E791E8D859E8531E02A
S1132470231A31082FEFC21AD20A2D853E852F5F09
S11324803F4F3E872D872C893D89215031093D8B53
S11324902C8B2F8538892E5F3F4F388B2F8728163A
S11324A039060CF030CF65960FB6F894DEBF0FBE38
S11324B0CDBFDF91CF911F910F91FF90EF90DF90EF
S11324C0CF90BF90AF909F908F907F906F905F90D0
S11324D04F903F902F9008952F923F924F925F928A
S11324E06F927F928F929F92AF92BF92CF92DF9220
S11324F0EF92FF920F931F93CF93DF93CDB7DEB785
S11325002E970FB6F894DEBF0FBECDBF2C014B0142
S11325105A01CB82DC82ED82FE8281E090E06C0184
S1132520C41AD50A88279927841B950B3C01660C8D
S1132530771C141615060CF0BCC022242394312CED
S1132540922F94709987E02FF0E0FA83E983F22FB9
S1132550F270FA87822F88708B8721702C87E1E0D4
S1132560F0E0FE87ED87DD2044F0F1E0AF1AB1081A
S113257082E0680E711CC60CD71CED85FE85F887B9
S1132580EF83F2E02F0E311CC20CD31C8985882303
S1132590F1F0EB80FC800D811E8129813A81A90133
S11325A0B501680D791D8D859E85840D951D54D9C1
S11325B0EB80FC800D811E8129813A81A9016D8502
S11325C07E85680D791DC501840D951D45D99A85B3
S11325D09923F9F0EB80FC800D811E8129813A81D9
S11325E0A901B4016A197B098D859E85840D951D09
S11325F033D9EB80FC800D811E8129813A81A901A8
S1132600B401ED85FE856E1B7F0BC501840D951D00
S113261023D9FB85FF23F9F0EB80FC800D811E811B
S113262029813A81A9016D857E85680D791DC201D4
S11326308A199B0911D9EB80FC800D811E812981A7
S11326403A81A901B501680D791DC201ED85FE85A8
S11326508E1B9F0B01D9FC85FF2301F1EB80FC80CD
S11326600D811E8129813A81A901B4018D859E8540
S1132670681B790BC2018A199B09EED8EB80FC8098
S11326800D811E8129813A81A901B4016A197B094E
S1132690C201ED85FE858E1B9F0BDED88D859E8540
S11326A001969E878D87EF81F885EA15FB050CF46A
S11326B05ACF2E960FB6F894DEBF0FBECDBFDF9172
S11326C0CF911F910F91FF90EF90DF90CF90BF902B
S11326D0AF909F908F907F906F905F904F903F90BE
S11326E02F9008952F923F924F925F926F927F9214
S11326F08F929F92AF92BF92CF92DF92EF92FF920E
S11327000F931F93CF93DF93CDB7DEB72C970FB6FC
S1132710F894DEBF0FBECDBF98878F837A87698711
S1132720190148011E2DA982BA82CB82DC823C01A8
S1132730640E751E4E2C512CC20188199909860D00
S1132740971D9C878B878F819885880D991D9E8303
S11327508D8376016501012F9B014B855C851ED914
S1132760A984BA84A20CB31C150191E0291A31087A
S1132770C980DA80EB80FC8091014B855C85B101D6
S11327808D819E810BD9A418B508A818B90889852C
S11327909A85880D991D9A878987C980DA80EB808C
S11327A0FC8095014F815885BC01CA01F7D8C3014B
S11327B00197C980DA80EB80FC809501AC016985C2
S11327C07A85ECD8C980DA80EB80FC8021E0A40112
S11327D069857A858D819E817FDE5401A094B094B1
S11327E0A60CB71CC980DA80EB80FC8022E0A4012F
S11327F069857A85C50170DEC101881999099887B0
S11328008F83C980DA80EB80FC8024E0A401BC01C2
S1132810C50162DEC980DA80EB80FC8028E0A40177
S11328206F8178858D819E8157DE2C960FB6F89442
S1132830DEBF0FBECDBFDF91CF911F910F91FF90EF
S1132840EF90DF90CF90BF90AF909F908F907F904C
S11328506F905F904F903F902F9008952F923F92EA
S11328604F925F926F927F928F929F92AF92BF929C
S1132870CF92DF92EF92FF920F931F93CF93DF9348
S1132880CDB7DEB72F970FB6F894DEBF0FBECDBF1E
S11328904C013B015A011D870C87CF82D886E986FB
S11328A0FA8681E090E01C01241A350A88279927CA
S11328B0841B950BAC01440F551F5C834B831A1486
S11328C01B040CF083C0CB0101979A838983C80150
S11328D001962C01460E571E41E050E0122F117054
S11328E022702B875F874E87332054F051E0A51A5E
S11328F0B1088B819C8102969C838B83280E391EA0
S11329004E855F855E834D83CA01880F991F0196AA
S1132910280E391E112301F193012A0D3B1D8C85CC
S11329209D85280F391FCF80D884E984FA8401E07B
S1132930CA01880D991DAC01B3016A197B092ED80F
S1132940CF80D884E984FA849201C501880D991D49
S1132950AC0169817A8122D89B85992319F193016D
S11329602A0D3B1D4C855D85240F351FCF80D884EF
S1132970E984FA8401E0C4014E855F85841B950BCC
S1132980AC01B3016A197B0909D8CF80D884E984E2
S1132990FA849201C4018A199B09AC0169817A8184
S11329A00E94CE0C8E859F8501969F878E874981D4
S11329B05A81415051095A8349835FEF451A550A98
S11329C08D819E818A159B050CF48ECF2F960FB6B0
S11329D0F894DEBF0FBECDBFDF91CF911F910F9151
S11329E0FF90EF90DF90CF90BF90AF909F908F902B
S11329F07F906F905F904F903F902F9008952F920B
S1132A003F924F925F926F927F928F929F92AF927A
S1132A10BF92CF92DF92EF92FF920F931F93CF93C7
S1132A20DF9300D000D000D0CDB7DEB75C012B011E
S1132A301A0149011E830D83C982DA82EB82FC826A
S1132A406801CC0CDD1C3801680E791E4C195D0937
S1132A50E980FA800B811C81C3010E942C0C81E067
S1132A60881A91088C189D08ED81FE814E0E5F1E18
S1132A70C5010197820D931DC980DA80EB80FC802B
S1132A80840121E0AF01B2018E1B9F0BE7DEC980F8
S1132A90DA80EB80FC8022E04D815E81B201C301CB
S1132AA0DDDE26960FB6F894DEBF0FBECDBFDF91F4
S1132AB0CF911F910F91FF90EF90DF90CF90BF9037
S1132AC0AF909F908F907F906F905F904F903F90CA
S1132AD02F9008952F923F924F925F926F927F9220
S1132AE08F929F92AF92BF92CF92DF92EF92FF921A
S1132AF00F931F93CF93DF93CDB7DEB7A1970FB694
S1132B00F894DEBF0FBECDBFA82EB92E5D8B4C8BC3
S1132B10C88ED98EEA8EFB8E8E8F9F8F6A8B7B8BAD
S1132B2047E050E0B901CE01019699D22C893D8944
S1132B303F8B2E8BA88AB98A612C712C202E312CC4
S1132B400C8F3D8EF1C0EE89FF898191FF8BEE8B56
S1132B508A3089F42F81229DC001239D900D112478
S1132B602A893B89280F391F3B8B2A8B3E8D388B52
S1132B706F8D698BD6C02D81821708F4D2C09E81D7
S1132B80981708F4CEC08D3009F4CBC090E0821BB6
S1132B909109BC01660F771F660F771F660F771FB9
S1132BA0FB01E81BF90B6B817C816E0F7F1F47E0F3
S1132BB050E0CE01089653D289809A80C884D98483
S1132BC08B85811199C0A1C0A12C80E090E0FF8584
S1132BD04F2E512CB1100BC096012F5F3F4FF401C3
S1132BE0EC0DFD1D749069016894BB24B7F8272D82
S1132BF02B2111F0019639C00097B9F1289EA0014C
S1132C00299E500D389E500D11242E85B201620F5D
S1132C10711D27FD7A959B01229DB001239D700DA6
S1132C20329D700D1124EA89FB896E0F7F1FED859B
S1132C302A2D30E02E0F311DE7FD3A95281B390B64
S1132C40229DC001239D900D329D900D1124E88C8E
S1132C50F98C0A8D1B8D2C8D3D8DE889F9898E0F99
S1132C609F1F0E942C0C80E090E0B694A3942A85C8
S1132C70A21608F4AFCF0097B1F1289EA001299EB7
S1132C80500D389E500D11246E85FF852F2F30E096
S1132C90260F311D67FD3A95229DB001239D700DCD
S1132CA0329D700D11242A893B89620F731FED85B3
S1132CB02A2D30E02E0F311DE7FD3A95281B390BE4
S1132CC0229DC001239D900D329D900D1124E88C0E
S1132CD0F98C0A8D1B8D2C8D3D8DE889F9898E0F19
S1132CE09F1F0E942C0CFF85FF5FFF878B85F817C1
S1132CF040F068A079A009C01F86B12C79A268A20F
S1132D007B2C8A85811160CFEECF2C85229DC0015A
S1132D10239D900D112428893989280F391F398B57
S1132D20288B3FEF631A730AEC89FD890190002018
S1132D30E9F731976C897D89E61BF70B6E167F06E0
S1132D4008F401CFA1960FB6F894DEBF0FBECDBF35
S1132D50DF91CF911F910F91FF90EF90DF90CF9073
S1132D60BF90AF909F908F907F906F905F904F90A7
S1132D703F902F90089585B1886B85B984B1886B95
S1132D8084B98CB580658CBD8DB581608DBD089589
S1132D90289A209A2C98289A2FEB87E299E02150C0
S1132DA080409040E1F700C0000028982FEB87E2B4
S1132DB099E0215080409040E1F700C00000289A3B
S1132DC00895CF939C012F5F3F4FFC01B491BB2327
S1132DD009F454C060E0C9010196F90144912C98AA
S1132DE02B984EBD0DB407FEFDCF2C9A2E5F3F4F9E
S1132DF0FC018491782F70788F77B1F0C22FA32FC4
S1132E00815090E00196280F391FA901EC2FFA2F69
S1132E1084912C982B9A8EBD0DB407FEFDCF2C9A6D
S1132E2031964E175F07A1F7772329F1A9014F5F68
S1132E305F4FF90124912F3F31F030E01216130651
S1132E406CF09A0118C0FFE724E88EE1F1502040AD
S1132E508040E1F700C000009A010DC080E090E0DE
S1132E60E7EAF1E63197F1F700C000000596821712
S1132E709307B4F39A016F5FB613ADCFCF91089562
S1132E802C982B9896E39EBD0DB407FEFDCF2C9A8B
S1132E906130D1F028F0623059F16330E1F10895E6
S1132EA0833049F42C982B9A80EC8EBD0DB407FE28
S1132EB0FDCF2C9A08952C982B9A88EC8EBD0DB4D6
S1132EC007FEFDCF2C9A0895833049F42C982B9A51
S1132ED080EA8EBD0DB407FEFDCF2C9A08952C9880
S1132EE02B9A88EA8EBD0DB407FEFDCF2C9A089567
S1132EF0833041F42C982B9A1EBC0DB407FEFDCFF1
S1132F002C9A08952C982B9A88E08EBD0DB407FE58
S1132F10FDCF2C9A0895833049F42C982B9A80E69F
S1132F208EBD0DB407FEFDCF2C9A08952C982B9AD4
S1132F3088E68EBD0DB407FEFDCF2C9A0895EF925E
S1132F40FF920F931F93CF93DF93C82FD62F13DFD6
S1132F501FDFC230C9F028F4CC2341F0C13051F056
S1132F6040C0C330D9F0C43099F13BC081EF94E143
S1132F7028DF37C086EB94E124DF89EA94E121DF7E
S1132F8084E694E11EDF2DC086EB94E11ADF8CE920
S1132F9094E117DF84E694E114DF23C086EB94E127
S1132FA010DF8CE994E10DDF84E694E10ADF2C98CC
S1132FB02B9886E38EBD0DB407FEFDCF2C9A2C987A
S1132FC02B9A80EC8EBD0DB407FEFDCF2C9A09C060
S1132FD086EB94E1F6DE8FE894E1F3DE84E694E197
S1132FE0F0DE2C982B9889E28EBD0DB407FEFDCF40
S1132FF02C9A6D2F8C2F44DFE12CF12C870120EAD1
S113300030E040EA50E061E070E081E090E00E944E
S11330102C0CDF91CF911F910F91FF90EF900895A9
S1133020A29FB001B39FC001A39F700D811D112405
S1133030911DB29F700D811D1124911D0895B7FF3C
S113304004C003D0821B930B0895EADFA59F900D63
S1133050B49F900DA49F800D911D11240895FB0130
S1133060DC0102C005900D9241505040D8F70895FC
S1073070F894FFCFFE
S1133074546869732069730A206A75737420612023
S1133084546573740A5354373733350A005353441D
S113309431323839204452495645520053544D2054
S10B30A433322048414C0000C6
S9030000FC
