S0130000535344313238395F4156522E737265630B
S11300000C9436140C944A140C944A140C944A1408
S11300100C944A140C944A140C944A140C944A14E4
S11300200C944A140C944A140C944A140C944A14D4
S11300300C944A140C944A140C944A140C944A14C4
S11300400C944A140C944A140C944A140C944A14B4
S11300500C944A14F4025B00207E0600000801029E
S113006000FB010008050200FB060008020400FB77
S1130070080008050400FB0D0008050400FB12003D
S113008008050400FB170008050400FB1C00080217
S11300900200FB1E0008050300FB23000805030003
S11300A0FB280008030400FB2B0008030400FC2EBB
S11300B00008020300FE300008010400FD310008BE
S11300C0010200FF320008050400FB3700080504A4
S11300D000FB3C0008050300FB410008050400FB8D
S11300E0460008050400FB4B0008050400FB500013
S11300F008050400FB550008050400FB5A00080528
S11301000400FB5F0008050400FB6400080504000C
S1130110FB690008030200FC6C0008040300FC7087
S11301200008050400FB750008030400FC780008BF
S1130130050400FB7D0008050400FB82000805049B
S113014000FB870008050400FB8C0008050400FB85
S1130150910008050400FB960008050400FB9B00C1
S113016008050400FBA00008050400FBA500080521
S11301700400FBAA0008050400FBAF000805040006
S1130180FBB40008050400FBB90008050400FBBE2D
S11301900008050400FBC30008050400FBC80008B0
S11301A0050400FBCD0008050400FBD2000805048B
S11301B000FBD70008050400FBDC0008050400FB75
S11301C0E10008050400FBE60008050400FBEB0061
S11301D008050400FBF00008050400FBF500080511
S11301E00400FBFA0008050400FBFF0008050400F6
S11301F0FB040108050400FB090108050400FB0ECB
S11302000108030400FC110108050400FB160108A1
S1130210020400FB180108010400FF19010802038D
S113022000FB1B0108040400FC1F0108050400FB7B
S1130230240108040400FC280108050400FB2D0126
S113024008040400FC310108050400FB360108051C
S11302500400FC3B0108050400FB40010805020002
S1130260FB450108060400FB4B0108050400FB5094
S11302700108050400FB550108040400FC590108A9
S1130280040400FC5D0108040400FC610108050489
S113029000FC660108050400FC6B0108040400FC72
S11302A06F0108040400FC730108050400FB7801D5
S11302B008040400FC7C0108040400FC8001080418
S11302C00400FC840108040400FC880108050400FF
S11302D0FC8D0108040400FC910108050400FB9650
S11302E00108050200FB9B0108050400FBA00108AE
S11302F0020400FB008080800080A0A0A0E0A0E0B9
S1130300A060C060C0408020408020C0C0E0A060E9
S1130310808040808080408040404080A040A04059
S1130320E0404080E080202040808060A0A0A0C009
S113033040C0404040C0204080E0C0204020C0A0D9
S1130340A0E02020E080C020C06080E0A0E0E020A9
S1130350408080E0A0E0A0E0E0A0E020C080008039
S1130360400040802040804020E000E08040204069
S113037080E02040004040A0E0806040A0E0A0A0D9
S1130380C0A0C0A0C06080808060C0A0A0A0C0E069
S113039080E080E0E080E080806080E0A060A0A059
S11303A0E0A0A0E0404040E0202020A040A0A0C069
S11303B0A0A080808080E0A0E0E0A0A0A0E0E0E039
S11303C0A040A0A0A040C0A0C0808040A0A0E06049
S11303D0C0A0E0C0A060804020C0E040404040A0F9
S11303E0A0A0A060A0A0A04040A0A0E0E0A0A0A089
S11303F040A0A0A0A0404040E0204080E0E08080F9
S113040080E0804020E0202020E040A0E08040C048
S113041060A0E080C0A0A0C0608080602060A0A038
S11304206060A0C0602040E0404060A0E0204080C8
S1130430C0A0A0A0800080808020002020A0408058
S1130440A0C0C0A0C0404040E0E0E0E0A0C0A0A048
S1130450A040A0A040C0A0A0C08060A0A060206078
S113046080808060C060C040E0404060A0A0A06088
S1130470A0A0E040A0E0E0E0A04040A0A0A0602058
S113048040E060C0E060408040608080008080C0C8
S1130490402040C060C036079D04207E0700000055
S11304A000060001000001050200FC010003010434
S11304B000FC020005050600FC060005050600FC1C
S11304C00A0005050600FC0E0005050600FC1200E6
S11304D001010200FC130002050300FC15000205E3
S11304E00300FC170003030400FD190003030400C8
S11304F0FD1B0001020200001C0004010500FE1D9A
S11305000001010200001E0005050600FC22000592
S1130510050600FC260001050200FC27000505066F
S113052000FC2B0005050600FC2F0005050600FC59
S1130530330005050600FC370005050600FC3B00FA
S113054005050600FC3F0005050600FC4300050503
S11305500600FC470001040200FD480001040200FB
S1130560FD490003050400FC4B0004030500FD4D98
S11305700003050400FC4F0005050600FC530005BC
S1130580050600FC570005050600FC5B0005050692
S113059000FC5F0005050600FC630005050600FC81
S11305A0670005050600FC6B0005050600FC6F00EE
S11305B005050600FC730005050600FC770005052B
S11305C00600FC7B0005050600FC7F00050506000F
S11305D0FC830005050600FC870005050600FC8B6E
S11305E00005050600FC8F0005050600FC930005C8
S11305F0050600FC970005050600FC9B00050506A2
S113060000FC9F0005050600FCA30005050600FC90
S1130610A70005050600FCAB0005050600FCAF00BD
S113062005050600FCB30005050600FCB70005053A
S11306300600FCBB0005050600FCBF000205030024
S1130640FCC10005050600FCC50002050300FCC74B
S11306500003020400FCC8000501060001C90001F2
S1130660010200FCCA0004040500FDCC00040505D9
S113067000FCCF0004040500FDD10004050500FCC6
S1130680D40004040500FDD60003050400FCD800D2
S113069004050500FDDB0004050500FCDE00010483
S11306A00200FDDF0002050300FDE1000405050072
S11306B0FCE40001050200FCE50005040600FDE879
S11306C00004040500FDEA0004040500FDEC000438
S11306D0050500FDEF0004050500FDF20004040516
S11306E000FDF40004040500FDF60005050600FC09
S11306F0FA0004040500FDFC0004040500FDFE00EE
S113070005040600FD010104040500FD03010405C0
S11307100500FD060104040500FD080103050400AD
S1130720FC0A0101050200FC0B0103050400FC0D99
S11307300105030600FDE8A057D5F500FD3E5F80E6
S113074088888880F4BF2E80806A409580AA805D66
S113075000C0F08008888800FC631F80F8F87F0FD1
S113076080F87E1F808C7E1080FC3E1F80FC3F1F23
S113077080F8421080FC7F1F80FC7E1F8090B02A8E
S113078022F0F088A8F84E0200FD6F0F80FC7F185D
S113079080F47D1F00FC210F80F4631F00FC3F0FD9
S11307A080FC3F0800FC2F1F808C7F1880F9084FC5
S11307B08078852F808DB1688084210F80FD6B5AED
S11307C080FC631880FC631F80FC7F0800FC633F8F
S11307D080FC7F2900FC3E1F80F90842008C631FC7
S11307E0808C62A200AD6B5F808A88A8808C5442A2
S11307F000F87F0F80EAC082082080D5C054F880BA
S1130800F1FF8F99F0F88F1F99F0FF8F6BA4F99F78
S1130810108F9990F055C08AF990F8FD6310F999FA
S1130820F99FF99F80F99F20F888471F27C8420045
S1130830999F99978C6BF09669999F102E8F2B2214
S1130840F889A80FE092084C08303A3200001B2EB9
S11308502002D09C0006272017D3BA001B2E2002AA
S1130860D05601192E2004D0E6011B272002D36A9A
S1130870021B2E2002D006031B2E2002D0A2031737
S11308802A2006D01B041B2E2002D0B7041B2E20C6
S113089002D003FFF800FFFF803FFFF803FFFEC311
S11308A03FFFBCF0000FFF0001FFE0003FFC00072A
S11308B0FF8000FFF0001FFE0003FFC0007FF80070
S11308C00FFF0001FFE0003FFC0007FF8000FFF086
S11308D0001FFC0000FE00000700000040000004B0
S11308E0000000E000007F00003FF0001FFE000356
S11308F0FFC0007FF8000FFF0001FFE0003FFC0095
S113090007FF8000FFF0001FFE0003FFC0007FF818
S1130910000FFF0001FFE0003F780003C67FFF30B7
S11309201FFFF007FFFF007FFFC007FFF00031EF5C
S1130930FFFFFFFFFFFFFFFFFFFF3C30400033FFDF
S1130940FFFFFFFFFFFFFFFFFFFDE30003FFF800D2
S1130950FFFF803FFFF803FFFEC03FFFBC00000F16
S1130960C00001F800003F000007E00000FC0000A8
S11309701F800003F000007E00000FC00001F8009B
S1130980003F000007E00000FC00001F800000F0B2
S11309907FFF861FFFFC4FFFFFE4FFFFF8E7FFFC2C
S11309A01F000003F000007E00000FC00001F800EB
S11309B0003F000007E00000FC00001F800003F07F
S11309C000007E00000FC00001F800003F00000797
S11309D0E00000780000067FFF001FFFF007FFFF24
S11309E0007FFFC007FFF0000FFFE00FFFF80FFFCD
S11309F0FE03FFFEC0FFFEF00000FC00007E0000CE
S1130A003F00001F80000FC00007E00003F000015A
S1130A10F80000FC00007E00003F00001F80000F73
S1130A20C00007E00000F1FFFE19FFFFC7FFFFF859
S1130A30FFFFF81FFFF1800003C00007E00003F090
S1130A400001F80000FC00007E00003F00001F8051
S1130A50000FC00007E00003F00001F80000FC00F4
S1130A60007E00003F00000F07FFF307FFFC07FFB5
S1130A70FF01FFFF007FFF0000000186000079E016
S1130A80001FFE0003FFC0007FF8000FFF0001FFFE
S1130A90E0003FFC0007FF8000FFF0001FFE0003A2
S1130AA0FFC0007FF8000FFF0001FFE0003FF800E7
S1130AB001FCFFFF0E3FFFF89FFFFFC1FFFFF00F98
S1130AC0FFF8C000007800003F000007E00000FCD1
S1130AD000001F800003F000007E00000FC0000132
S1130AE0F800003F000007E00000FC00001F800049
S1130AF003F000007E0000078000006003FFF800A0
S1130B00FFFF803FFFF803FFFE033FFF80F000007C
S1130B103F000007E00000FC00001F800003F0001D
S1130B20007E00000FC00001F800003F000007E055
S1130B300000FC00001F800003F000007C00000E99
S1130B407FFF811FFFFC0FFFFFE0FFFFF807FFFCA3
S1130B506000003C00001F800003F000007E0000E5
S1130B600FC00001F800003F000007E00000FC0097
S1130B70001F800003F000007E00000FC00001F899
S1130B8000003F000003C07FFF301FFFF007FFFF9E
S1130B90007FFFC007FFF00003FFF800FFFF803F66
S1130BA0FFF803FFFE033FFF80F000003F00000753
S1130BB0E00000FC00001F800003F000007E000045
S1130BC00FC00001F800003F000007E00000FC0037
S1130BD0001F800003F000007C00000E7FFF811FD7
S1130BE0FFFC0FFFFFE4FFFFF8E7FFFC7F00003F7F
S1130BF0F0001FFE0003FFC0007FF8000FFF00019C
S1130C00FFE0003FFC0007FF8000FFF0001FFE0034
S1130C1003FFC0007FF8000FFF0001FFE0003F78F2
S1130C200003C67FFF301FFFF007FFFF007FFFC0F8
S1130C3007FFF0003FFF80FFFF83FFFF83FFFEC33A
S1130C40FFFBC0000FC0001F80003F00007E0000BB
S1130C50FC0001F80003F00007E0000FC0001F8053
S1130C60003F00007E0000FC0001F80000F00000DE
S1130C7060000040000000000000000600003C008E
S1130C8001F80003F00007E0000FC0001F80003FE0
S1130C9000007E0000FC0001F80003F00007E00003
S1130CA00FC0001F80003F00003C00003003FFF82D
S1130CB000FFFF803FFFF803FFFEC33FFFBCF000CF
S1130CC00FFF0001FFE0003FFC0007FF8000FFF082
S1130CD0001FFE0003FFC0007FF8000FFF0001FFAC
S1130CE0E0003FFC0007FF8000FFF0001FFC000055
S1130CF0FE7FFF871FFFFC4FFFFFE4FFFFF8E7FFC6
S1130D00FC7F00003FF0001FFE0003FFC0007FF8DF
S1130D10000FFF0001FFE0003FFC0007FF8000FF21
S1130D20F0001FFE0003FFC0007FF8000FFF00016A
S1130D30FFE0003F780003C67FFF301FFFF007FF8E
S1130D40FF007FFFC007FFF00003FFF800FFFF80F4
S1130D503FFFF803FFFEC33FFFBCF0000FFF00019D
S1130D60FFE0003FFC0007FF8000FFF0001FFE00D3
S1130D7003FFC0007FF8000FFF0001FFE0003FFC0D
S1130D800007FF8000FFF0001FFC0000FE7FFF87CC
S1130D901FFFFC4FFFFFE0FFFFF807FFFC600000B0
S1130DA03C00001F800003F000007E00000FC00024
S1130DB001F800003F000007E00000FC00001F8075
S1130DC00003F000007E00000FC00001F800003FA7
S1130DD0000003C07FFF301FFFF007FFFF007FFF0D
S1130DE0C007FFF0008510EC0D207E160000000007
S1130DF00500010000030C0601F5050006050A02C2
S1130E00F50900090D0900F41800080E0901F4267B
S1130E10000E0C1202F53B000D0C0F01F54F000201
S1130E20050501F55100040F0601F55900040F06EC
S1130E3001F5610007070902F5680009090C01F8CA
S1130E40730003060401FE760004020601FC770029
S1130E5003030401FE7900060D0500F58300090C67
S1130E600900F59100060C0901F59A00090C090026
S1130E70F5A800080C0900F5B400080C0901F5C038
S1130E8000080C0901F5CC00080C0901F5D800098B
S1130E900C0900F5E600080C0901F5F200090C093B
S1130EA000F5000103090601F80401030C0602F829
S1130EB009010A0A0C01F716010A050C01FA1D01C1
S1130EC00A0A0C01F82A01070C0901F535010D0C79
S1130ED01102F549010D0C0D00F55D010B0C0C0020
S1130EE0F56E010B0C0D01F57F010B0C0D01F59056
S1130EF0010B0C0C01F5A1010A0C0B01F5B0010C5E
S1130F000C0E01F5C2010C0C0E01F5D401050C0701
S1130F1001F5DC01080E0900F5EA010D0C0E01F5DE
S1130F20FE010B0C0C01F50F02100C1100F5270249
S1130F300B0C0D01F538020C0C0E01F54A020A0CDB
S1130F400B01F559020C0F0E01F570020C0C0D018A
S1130F50F58202080C0A01F58E020C0C0C00F5A0B7
S1130F60020B0C0D01F5B1020D0D0D00F5C70212B7
S1130F700C1200F5E2020D0C0D00F5F6020D0C0D3D
S1130F8000F50A030B0C0C01F51B03040F0601F515
S1130F902303060D0500F52D03040F0601F53503A3
S1130FA008070A01F53C0309010900033E03040391
S1130FB00600F4400309090900F84B030A0C0A006F
S1130FC0F55A0307090800F862030A0C0A00F571D0
S1130FD00308090800F87A03070C0700F5850307DE
S1130FE00D0901F891030A0C0A00F5A003050C058C
S1130FF000F5A80306100700F5B4030A0C0A00F56F
S1131000C303050C0500F5CB030F090F00F8DC033F
S11310100A090A00F8E80309090900F8F3030A0DAC
S11310200A00F804040A0D0A00F815040809080067
S1131030F81E0405090701F82404060B0600F62D22
S1131040040A090A00F8390409090900F844040CDF
S1131050090D00F8520409090900F85D04080D0996
S113106000F86A0407090801F8720405100700F47F
S11310707C04010D0401F57E0405100702F48804C4
S113108008020901FCFFF4921FF0CF3CE388130926
S113109084C247F990C84CFF13090C86401038D617
S11310A092D2F07C3E179393D67C103C21CF0E2431
S11310B030A0C50334E72640B904C423308C841C13
S11310C00F00CC06603E00E78F189C8CE4E3C79EBB
S11310D03C72FDE0FF803244CCCCCCC4621084224C
S11310E0333333326480316BB18ED68C0008040202
S11310F0010FF84020100800DF9500FFFF800C214D
S11311008610C308618430C01C3398DC7E3F1F8F77
S1131110C7E3B198C38008E38E38E38E38E3BF3C5D
S11311203F23C0E07030381818185FDFE07C8E0E63
S11311300E0C1E07030302E6F8060E0E3E2E4E8E1C
S11311408EFFFF0E0E3F7E4040F8FC1E060202E4B6
S1131150F8071C3070FCE6E7E7E767663C7F3FA0D2
S1131160D040603010180C040603003CC6C6C6FC10
S11311707C3ECFC7C7C67C3E33B8DC7E3F1DCE7FE6
S113118007070F1C00FF803FE0FF8037E5400000A9
S1131190707878783803803C03C030FFC0000000CA
S11311A0FFC0C03C03C01C01C1E1E1E0E000003D20
S11311B09F3E70E104080070E1C00F818318C48968
S11311C09C4CE4672239224FE3000C101F000200FC
S11311D03001C00E00B805C04F02383FE107183D8A
S11311E0E3F0FF871CE39C739C7F0E71C738E71CF8
S11311F0E77FC01F261DC1B01E01C0380700E00EE6
S113120004E10FC0FF0E71C738770EE1DC3B877035
S1131210CE39C67F80FFCE19C1388730FE1CC38803
S1131220702E0DC37FE0FFDC3705C4731FC731C4C4
S1131230701C0703E01F230E706E02E00E00E1FE37
S11312400E60E70E38E0F8F9F70E70E70E70E7FE6F
S113125070E70E70E70E70EF9FFB9CE739CE739D2D
S1131260F01F0E0E0E0E0E0E0E0E0E0ECECC78F9D4
S1131270F3821C20E207203F01DC0E7073C38F1C35
S11312803DF3F0F80E01C0380700E01C0380702E17
S113129009C37FE0F80F3C1E3C1E2E2E2E2E264E38
S11312A0274E274E238E238E210E711FF0EE09E167
S11312B03E25E49E91D21E43C8390370201F830C3F
S11312C070EE07E07E07E07E07E0770E30C1F8FF9E
S11312D01CE71DC771DCE7F1C0701C0703E00F8336
S11312E09C70E606E07E07E07E07E0760630C19853
S11312F00F007803E0FF073871C71C71C7387E07F9
S11313007077873C71EF8F3947C1C0F07C3E0F8303
S1131310C3C6BCFFFCE38E10E00E00E00E00E00E3E
S113132000E00E01F0F8EE09C1382704E09C1382B6
S1131330704E08E20F80FC7BC10E087081C40E2041
S11313407A01D00E803801C004002000FDFBDC3897
S1131350438710E1C438F2072E81D3A034700E1CE9
S113136003870060801020FEF3C30F103900F003E0
S1131370801E017009C08F083DF3F0FC7BC18E080C
S11313803881E807401C00E007003801C01F00FF57
S1131390D8721E4380E01C0701C0382E0F837FE003
S11313A0FCCCCCCCCCCCCCF0C1061820C304186047
S11313B0830CF3333333333333F0181C3426624352
S11313C0C1FF80C6307C63B1C0E1F33B9DCEFF809A
S11313D0F01C0701DC7B9C771DC771DC77393C3C32
S11313E0ED9F0E1C38393C0780E038EE77B8EE3BB1
S11313F08EE3B8E778EF3C66E6FEE0E0E0723C3E60
S1131400EDC7C70E1C3870E1C7C031DFBF7EE7905F
S113141060FCFE0C17C0F01C0701DC7B9CE739CE96
S1131420739CE73BFF739DE739CE739DF01C71CF2E
S11314301C71C71C71C71C7DBEF01C0701CE711C3A
S11314408741F8771CE71BEFF39CE739CE739DF0D7
S1131450F738F7B9CE739CE739CE739CE739CEFFE2
S1131460FEF71EE739CE739CE739CEFFC03E31B894
S1131470FC7E3F1F8EC63E00F71EE71DC771DC775A
S11314801DCE7F1C0701C0F8003C9CEE3B8EE3B8E8
S1131490EE39CE3F80E0380E07C0F77B7070707075
S11314A07070F87E73C78E39B010CF9C71C71C71F1
S11314B0D380F79CE739CE739CE739CE3FC0FBB8A5
S11314C08C8743C0E070100800F7B63173A33A3D2F
S11314D0A3DC18C1881080FBB88E8381C0F098CE3D
S11314E0EF80F7627234343C1818101010E0E0FFFB
S11314F01C70E3871C71FE198C6318CC618C631813
S1131500C3FFF8C318C631863318C63198F08EAFBE
S1131510171615207E2A00000000090001000004AF
S1131520180C05E90C0008090E03E9150011171140
S113153000EA46000D1B1102E8720019171D02EAA9
S1131540BA0019191B01E8090103090702E90D0191
S1131550091E0C02E92F01091E0C01EA51010C0EAF
S11315601203E9660110121402EF8A010409090248
S1131570FD8F0108020C01F8910104040902FD9396
S1131580010A180A00E9B10110181201E9E1010A7F
S1131590181203E9FF0110181101E92F020D1811A7
S11315A002E9560210171200EA84020D181102E92A
S11315B0AB0210181201E9DB020E171201EA040350
S11315C00C191202E82A03101A1101E85E0304112F
S11315D00902F0670305160902F0750312121401DB
S11315E0EF9E0312091401F4B30312121401EFDC89
S11315F0030D191002E8050418191E03E850041815
S1131600171901EA950414171601EACF04161817DE
S113161001E9110517171901EA540514171502EA0F
S11316208E0511171402EABF0517181901E90406FB
S113163016171902EA440609170B02EA5E060C178C
S11316400D00EA810617171902EAC40613171502DA
S1131650EAFB061D171F01EA4F0717171901EA9243
S11316600717181901E9D70712171401EA0B08170D
S11316701E1901E9620815171702EA9F08101813CA
S113168001E9CF0814171501EA090916171902EA26
S1131690490918171900EA8E0921172100EAED09F2
S11316A019171900EA350A18171901EA7A0A1517E1
S11316B01500EAB70A071C0C03EAD00A0A180A0044
S11316C0E9EE0A071C0C02EA070B0F0D1001EA20D1
S11316D00B1202110003250B08060901E92B0B0D5F
S11316E0100F02F1450B10191101E8770B0E1010C1
S11316F001F1930B10191101E8C50B0D101001F144
S1131700DF0B0D190D00E8080C10181001F1380C4E
S113171010191101E86A0C08180A00E9820C092062
S11317200C00E9A60C11191201E8DC0C08190900D7
S1131730E8F50C1A101B01F1290D10101101F149E3
S11317400D10101101F1690D10181101F1990D100E
S1131750181101F1C90D0B100C01F1DF0D0A100D68
S113176001F1F30D08130A02EE060E10101101F137
S1131770260E10101000F1460E18101800F1760E07
S113178011101100F1980E10181000F1C80E0E106F
S11317900F00F1E40E081E1103E9020F02180702FC
S11317A0E9080F081E1106EA260F10041101F66F4E
S11317B0FFFFFE6666666440006FF6E7E7E7E7E76B
S11317C0464242420306018300C18061C030C038F2
S11317D0601830FFFF7FFF8306018600C300C187C6
S11317E0FFFFFFFE18300C180618060C03060183D1
S11317F000C18060C002001003E064E623611B089E
S11318005842E203901F807E00FC01F00FC04E029C
S11318103810E087043C21E11BC9CFFC1F80100075
S1131820800780200FF0700F07D00F0218070118EF
S113183007008C03804C01804400C0260060220F06
S113184030331FCC731E37F18E19E18E04008602EB
S113185000C70100C3808061808060C04030604068
S11318603038E0300FE01803C0007800007E00003C
S11318706180006060003030001818000C0C000615
S11318800C00038E0001CE00007C3FC03807803E70
S1131890038077018073C080F0F0C0707CC0781E34
S11318A0403C07C01E01E00F00780FC0FF0DF0C7D9
S11318B0FC7FC1FC1F803C00FFFE924000808080C2
S11318C08080C0C0607030181C0E070381C0E070B7
S11318D0380C060380C060180C0300C0300C803044
S11318E00C0300C060180C070180C070381C0E0780
S11318F00381C0E0603038180C0C040404040400B4
S11319000C00C00C0C46E4F75E1F00C0178E4EE4BA
S1131910FCC60C00C00180018001800180018001AF
S11319208001800180FFFFFFFF01800180018001B1
S11319308001800180018001806FFF112480FFFFFE
S11319406FF600C06018060380C0301C060180E0FA
S1131950300C07018060380C0301C060180E0300CE
S113196003E00E701C38381C381C781E700EF00F03
S1131970F00FF00FF00FF00FF00FF00FF00FF00F6B
S1131980700E700E781E381C381C1C380C3003C0C6
S1131990060383E3380E0380E0380E0380E0380E3C
S11319A00380E0380E0380E0380E0381E1FF07C0B6
S11319B01FF03FF870F8603CC03C801C001C001C09
S11319C00018001800300030006000C000800100E2
S11319D002000400080110023FFE7FFCFFFC0FC060
S11319E0FF0C3C80E403001800C00400400400F82D
S11319F01FE00F001C00E003001800C00600600395
S1131A007873FF0FC000300030007000F000B001A8
S1131A103003300630043008301830103020306085
S1131A2030C030FFFFFFFF003000300030003000D6
S1131A3030003000007FC3FE1FE1800800C007C0F3
S1131A407F81FF00FC01E007801C00600300180098
S1131A50C0060060077873FF0FC0000E00F803C0D3
S1131A6007800F001E003C007C0079F07FFCF83CEE
S1131A70F01EF01FF00FF00FF00FF00F700F780F43
S1131A80780E3C1E1E3C0FF807E03FFDFFF7FFF009
S1131A90068018006003000C003001800600180066
S1131AA0E003000C0070018006003800C003001C35
S1131AB00060000F83FC70E607C03C03C03E037067
S1131AC0678C3D81F00F817C21E60EC07C03C03C15
S1131AD003C0360670E3FC0F8007C01FF03C783863
S1131AE03C781E701EF00EF00FF00FF00FF00FF0A8
S1131AF00FF80F780F3C3F1FEE0F9E001E003C00B6
S1131B0038007800F001E007801E0070006FF600D6
S1131B1000000006FF6067BCC0000000000019EF71
S1131B20784222200000C000F001F801F801F80119
S1131B30F003F003F000F0003E0007E0007E000335
S1131B40E0003E0003F0003F0003C00010FFFFFF71
S1131B50FFF00000000000000000000003FFFFFF92
S1131B60FFC080003C000FC000FC0007C0007C00E8
S1131B7007E0007E0007C000F000FC00FC00F80154
S1131B80F801F801F800F0003000001F81FF187D13
S1131B9081EC07F03F81E00F00700380380180087A
S1131BA000C0040020020010008000000003003C7C
S1131BB001E00700007F0001FFC00780F00F00383C
S1131BC01C001C38000C380006701E02703FE3F045
S1131BD071E1E0E0C1E0C0C1E0C1C1E181C1E181E6
S1131BE083E18382E1838671C78C70F9F838F0F061
S1131BF03C00001E000007807003FFE0007F00002F
S1131C001000003800003800003800007C00005C40
S1131C100000DE00008E00018F00018700030780B2
S1131C200303800203C00603C007FFC00FFFE00CDC
S1131C3001E01800F01800F03000783000787000EF
S1131C407CFC01FFFFFC03FFF81E0FC1E03C1E01FA
S1131C50E1E01E1E01E1E01E1E03C1E0781FFE014B
S1131C60FFF01E07C1E01E1E00F1E00F1E00F1E0B0
S1131C700F1E00F1E01E1E07E3FFF8FFFE0000FE4A
S1131C80080FFF60FC1F87C01E3C0038F00067800F
S1131C90019E0002F00003C0000F00003C0000F0B1
S1131CA00003C0000F00003C0000780001E00003C6
S1131CB0C0000F00021F00383F03807FFC003F80FC
S1131CC0FFFC007FFF00783F80F00F81E00F83C0AE
S1131CD00F07800F0F001E1E001E3C003C7800788A
S1131CE0F000F1E001E3C003C780078F001E1E006F
S1131CF03C3C00F07801E0F00F81E07E07FFF03F0C
S1131D00FF0000FFFF87FFF83C0183C0083C00830D
S1131D10C0003C0003C0003C0203C0603FFE03FF60
S1131D20E03C0603C0203C0003C0003C0003C001AB
S1131D303C0023C0063C01E7FFFEFFFFC0FFFFBFDE
S1131D40FFCF00678013C009E000F00078003C0278
S1131D501E030FFF87FFC3C061E010F00078003C52
S1131D60001E000F00078003C003F003FC0000FE08
S1131D700407FFB81F03F0F801E3E001C780019EE8
S1131D8000013C0000F00001E00003C000078007F0
S1131D90FF0007DE0007BC000F78001E78003CF04F
S1131DA00078F000F1F001E1F003C1F81F00FFFC3E
S1131DB0003F80FF03FDF807E3C00F0F003C3C0029
S1131DC0F0F003C3C00F0F003C3C00F0F003C3FF6E
S1131DD0FF0FFFFC3C00F0F003C3C00F0F003C3CBE
S1131DE000F0F003C3C00F0F003C3C00F1F807EF14
S1131DF0F03FC0FFBF0F0783C1E0F0783C1E0F0720
S1131E0083C1E0F0783C1E0F0783C3F3FE0FF07E1E
S1131E1003C03C03C03C03C03C03C03C03C03C03C0
S1131E20C03C03C03C03C03C03C638F38FF07C00C5
S1131E30FF07FCFC03C0F00701E01C03C06007813E
S1131E40800F06001E18003C6000798000FF00012E
S1131E50FF0003DF00078F000F0F001E0F003C0F71
S1131E6000780F00F01F01E01F03C01F0FC03F3FA9
S1131E70C1FF80FF000FC000F0001E0003C0007807
S1131E80000F0001E0003C00078000F0001E00038A
S1131E90C00078000F0001E0003C00078004F0015E
S1131EA01E0063C03CFFFFBFFFE0FC0003F9F0002D
S1131EB01F878001F83E000FC1F0005E0BC006F0E2
S1131EC05E00378278033C13C019E08F018F0478D9
S1131ED00C7821E0C3C10F061E083C60F041E30703
S1131EE08207B03C103D81E081F80F0407C07820E0
S1131EF03C03C100E01E1C0601FBF8101FE0FC00BF
S1131F00FE780070780040F80081F80102F80204BD
S1131F10F80408F00811F01021F02041F04081F09D
S1131F208101F10201E20403E40803E81003F02054
S1131F3003E04003C080038100070700063F8004DC
S1131F400000FE0007FF003E0F80F00783C00787F4
S1131F5080071E000F3C001EF0001FE0003FC00081
S1131F607F8000FF0001FE0003FC0007F8000F78EB
S1131F70003CF00078E001E1E003C1E00F01F07CF7
S1131F8000FFE0007F00FFF81FFF83C1F0F01E3C5C
S1131F9007CF00F3C03CF00F3C03CF01F3C078F04F
S1131FA07C3FFE0FFE03C000F0003C000F0003C0A6
S1131FB000F0003C001F000FF00000FE0007FF00CF
S1131FC03E0F80F00783C00787800F1E000F3C0080
S1131FD01EF0001DE0003FC0007F8000FF0001FEF6
S1131FE00003FC0007F8000F70001CF00079E0000B
S1131FF0F1E003C1C00701C01C01E0F0007F000054
S11320007C00007C00007C00007E00001F00000FAC
S1132010C0FFF003FFF00F07C0781E03C0781E0353
S1132020C0F01E0780F03C0781E0780F0F807FF836
S113203003FE001E7800F1E00787803C3C01E0F0DD
S11320400F03C0780F03C07C3F01F3FC07E0078453
S11320501FFC3C3E300E70067006700278007C0057
S11320603F001FC00FE003F800FC003E001F800F7C
S1132070800FC00FE00F701E783C4FF843F0FFFF55
S1132080FFFFFFE0F07C0F0380F0100F0000F00072
S11320900F0000F0000F0000F0000F0000F0000F30
S11320A00000F0000F0000F0000F0000F0000F002F
S11320B000F0001F8003FC00FF01FDF801C3C00213
S11320C00F00083C0020F00083C0020F00083C0011
S11320D020F00083C0020F00083C0020F00083C001
S11320E0020F00083C0020F00081E0040780300F5C
S11320F081801FFC001FC000FFC07F3E001E1E0029
S11321000C0E00180F0018070010078030078030ED
S113211003C06003C06001E04001E0C000F0C00003
S1132120F180007180007B00003B00003E00001E37
S113213000001E00000C00000C00000800FF9FF0CF
S11321403F9F03E0070780F00303C0780180E01E8F
S11321500080780F00C01C0380600F01E02007811D
S1132160F03001C0BC1800F0DE080078670C001ED7
S113217023C4000F31E60003907B0001F83D00000A
S1132180FC0F80003C07C0001E03C0000F00E000ED
S11321900300700001801000008008007FE0FF0F42
S11321A0C01E03E00E00F006003C06000F06000708
S11321B0860001E600007B00003F00000F000003E2
S11321C0C00003F000037800019E000187800183B2
S11321D0E00180F001803C01801F01C007C1E003E1
S11321E0F3FE0FFEFFC0FF7E001C1E00181F003010
S11321F00F006007806003C0C003E18001E180003C
S1132200F30000FE00007E00003C00003C00003CA7
S113221000003C00003C00003C00003C00003C008E
S1132220003C00007E0001FF803FFFF1FFFF9C00A7
S113223078C0078400380003C0003C0003C0001CC1
S11322400001E0001E0001E0000E0000F0000F009D
S113225000F000070000780047800678003380070C
S11322603FFFFBFFFFC0FF83060C183060C18306ED
S11322700C183060C183060C183060C18307F0C0AD
S113228018060180700C0300E0180601C0300C032E
S11322908060180700C0300E0180601C03FE0C181B
S11322A03060C183060C183060C183060C1830609E
S11322B0C183060C1FF003800F001F007600CE03BD
S11322C08C061C1C183030E0318067006C00C0FFA5
S11322D0FFFFFFF0C0E070180C031F038C3831C1FE
S11322E08E0C00600F019830C3863831C18E0C7893
S11322F0E5FBCF0C00003800F80038003800380047
S113230038003800380039F03BFC3C3E380E380FBA
S1132310380738073807380738073806380E380CB6
S11323203C1C1FF007E007E07FE387D80F601B0029
S11323300C003000C003000E003C017819FFC3FEFE
S113234003E00000001C007C001C001C001C001C9E
S1132350001C001C079C1FDC387C703C701C601C3B
S1132360E01CE01CE01CE01CE01CF01C701C7C3E2B
S11323703FDF0F900F81FF083C80E7FF7FFF0018CD
S113238000C007003803E037833FF0FF03F001F09B
S11323903FC38E1800C00E007003801C03FE1FF0A4
S11323A03801C00E007003801C00E007003801C033
S11323B00E007007C0FF800FC01FFF38FF707070E1
S11323C07070307030703038201C600F8010002026
S11323D00060007FE03FFC1FFE20064002C002C0F8
S11323E004F0187FF01F8000003800F8003800382F
S11323F000380038003800380038F03BF83E3C3CE8
S11324001C381C381C381C381C381C381C381C3828
S11324101C381C381C7C3EFE7F183C3C1800000015
S113242000043C7C1C1C1C1C1C1C1C1C1C1C1C3C7C
S1132430FF0303C1E060000000000083C3E07038C4
S11324401C0E070381C0E070381C0E070381C0E036
S113245070373BF8F800001C003E000700038001C1
S1132460C000E000700038001C3F8E0F0706038692
S113247001C400E4007E003F801DC00E70071C03F1
S11324808F01C3C0E0F0F83CFE7F80001C7C1C1C64
S11324901C1C1C1C1C1C1C1C1C1C1C1C1C1C1C1C78
S11324A01C1C3CFF38F07C3EFE7F83E3F0E0E070D0
S11324B01C381C070E0701C381C070E0701C381C57
S11324C0070E0701C381C070E0701C381C070E079B
S11324D001C381E073F9FC7F38F0FBF83E3C381C03
S11324E0381C381C381C381C381C381C381C381C48
S11324F0381C381C783CFE7F07E01FF83C7C783E93
S1132500701EF00FF00FF00FF00FF00FF80F780EB1
S11325107C1C3E3C0FF007C018F0FBFC3E1E380E3E
S1132520380F380738073807380738073806380EA1
S1132530380C3E1C3BF839E03800380038003800CD
S1132540380038007C00FF0007C41FEC3C3C701CC2
S1132550701C601CE01CE01CE01CE01CE01CF01C77
S1132560701C783C3FDC1F1C001C001C001C001C61
S1132570001C001C003E00FF19FF7CF39C038070CC
S11325800E01C0380700E01C0380701F07F03E589E
S11325907C0F03C07C0780F81F81F81E03C0F03E47
S11325A01A7C103070FEFE707070707070707070F5
S11325B07070797E3CF87C383C381C381C381C38E8
S11325C01C381C381C381C381C381C381C381C3C63
S11325D07C1FDF0F18FE1F7C0638041C041C0C0E25
S11325E0080E1807100710072003A003E001C0011C
S11325F0C000800080FC7F1F783C06381C04381C17
S1132600041C1C0C1C0E081C1E180E17100E371070
S11326100723300763A00743E003C1C00381C0015F
S113262080800100807F7E1E0C078C01C400760030
S11326303E000E00038003E00170011C018F018342
S11326408080E0C079F0FFFE0F7C0638061C041C75
S11326500C0E0C0E080F180710079003B003A0010E
S1132660E001E000C000C0008000800180010003A0
S1132670007E007C0078007FF9FFE607103800E058
S113268007003801E007003801E00701380DC03FBA
S1132690FFBFFE070E1C1818181818181818181859
S11326A030606010181818181818181818181C0E0C
S11326B007FFFFFFFFFFFFE07038181818181818FD
S11326C018181818080606081818181818181818CA
S11326D018183870E03E007F87E3FE007CCB27E4C7
S11326E02630500B0000090A0800F60C00090A08FD
S11326F000F61800090A0800F62400090A0800F682
S11327003000090A0800F63C00090A0800F64800EF
S1132710090A0800F65400090A0800F66000090ACC
S11327200800F66C00090A0800F67800040A0300A1
S1132730F60000000000000000000000000000009F
S11327400000000000000000000000000000000085
S113275000000000000000000000007D00090A08DD
S113276000F600000000000000000000000000006F
S11327700000000000000000000000000000000055
S11327800000000000000000000000000000000045
S11327900000000000000000000000000000000035
S11327A0000000000000000000000000000000899C
S11327B000090A0800F60000000000000000000004
S11327C0000000009500090A0800F6001F1FCC66EF
S11327D033198CFE3E000000030381C06030181ED4
S11327E00F0000003F1FC023F3F180FE7F000000B4
S11327F03F1FC0E3E1F01CFE7E0000003198CC676F
S1132800F3F80C06030000003F9FCC07E3F80CFE2E
S11328107E0000001F9FCC07E3F98CFE3E00000001
S11328203F9FC1C1C1C0E070380000001F1FCC63CE
S1132830E3F98CFE3E0000001F1FCC67F1F80CFE8C
S11328407E00000066006600001F1FCC67F3F98C51
S1132850C663000000319DCFE7F3598CC6630000C6
S1132860003F1FCC67F3F180C060000011241FBE3D
S1132870CFE5D8E0DEBFCDBF10E0A0E6B0E0E4E6EF
S1132880FCE402C005900D92AC3BB107D9F704D02B
S11328900C9430260C940000CF93DF9300D01F9249
S11328A0CDB7DEB70E94E6210E94C722EE24EA9447
S11328B0F12C870120EF30E040E451E060E070E06B
S11328C080E090E0A0D2E12CF12C87012EEE30E0E4
S11328D04EE351E061E070E081E090E094D22FE7B4
S11328E08AE196E0215080409040E1F700C000006A
S11328F020E830E040EA50E060E070E080E090E002
S113290082D26894AA24A3F8B12CC12CD12C7601CC
S1132910DA9401E020E830E0A50160E070E080E0B6
S113292090E067D3E8E0AE0EB11CF8EAAF16B1044C
S113293061F76894AA24A3F8B12CC12CD12C760198
S1132940DA9401E0950140EA50E060E070E080E054
S113295090E04FD328E0A20EB11C88E8A816B10479
S113296061F79FE7EAE1F6E09150E040F040E1F7DB
S113297000C000006894AA24A4F8B12C0F2EF4E13E
S11329808F2E912CF02D6894442446F8512C0F2E50
S1132990F0E56F2E712CF02D8A2D8695B201681BFF
S11329A07109882D8695C12CDD24DA94ED2CF12C47
S11329B002E09501A401F301E81BF109CF0111D450
S11329C0F4E18F0E911C20E1A20EB11C80E9A8163F
S11329D0B10411F79FE7EAE1F6E09150E040F040DE
S11329E0E1F700C00000E12CF12C8701EA9420E813
S11329F030E040EA50E060E070E080E090E003D234
S1132A00E12CF12C87012EE730E04EE950E061E043
S1132A1070E081E090E0F7D1C12CDD24DA94ED2C54
S1132A20F12C01E024E530E040E650E068E270E09B
S1132A3085E090E00E949520CC24CA94D12C7601A4
S1132A4024E130E049E850E064E170E087E190E09F
S1132A50D0D2C12CD12C7601CA9425E130E049E8CA
S1132A6050E065E170E087E190E0C3D225E130E019
S1132A7049E850E065E170E087E190E0BAD2CC2407
S1132A80CA94D12C760126E934E04DE750E06AE09F
S1132A9070E089E290E00E949520C12CD12C76014F
S1132AA0EA9425EE3DE04CE850E063E270E08DE20C
S1132AB090E00E94952020E04EE16AE570E088E213
S1132AC090E018D7C12CD12C7601CA9421E044E1BE
S1132AD06AE570E08DE290E00DD7812C912C5401D1
S1132AE08A946894CC24C1F80F2EF9E1EF2EF12CCE
S1132AF0F02D09E110E024E130E045E050E065E02C
S1132B0070E085E090E020D3C12CD12C7601DA94DA
S1132B1002E024E130E04EE150E06DE270E08CE34D
S1132B2090E05FD3AA24AA94BA2CCA2CD12C0F2EDD
S1132B30F3E0EF2EF02D0AE010E029E130E04CE361
S1132B4050E066E470E080E590E00E949D1ECC2495
S1132B50CA94DC2CEC2CF12C29E130E04CE350E05D
S1132B6064E670E080E590E00E942A20A12CBB245A
S1132B70BA94CB2CD12C6894EE24E1F800E024E143
S1132B8030E04EE150E064E670E08CE390E068D31E
S1132B90EE24E39401E02FE030E049E150E06CE3FF
S1132BA070E08DE790E05CD3C12CD12C7601EA94DF
S1132BB025E438E047E950E068EC70E080E090E01C
S1132BC00E9495202DED36E242EA50E06CED70E073
S1132BD08AE090E00E9495200F2EF7EB6F2EF0E034
S1132BE07F2EF02DCE0101964C01B299FECF0E94AA
S1132BF0F8226C010E9413235C01C114D104A9F3CF
S1132C00892B99F310EAE12EF12C00E010E02EE17B
S1132C1030E044EB50E06DEC70E082E090E0F3D003
S1132C202FEF3FEF4FEF50E0B501C60130D01982CE
S1132C301A821B82DF92CF927F926F929F928F9221
S1132C400E945823C12CD12C7601EA9401E02FE094
S1132C5035E1A40166EE70E08AE090E00E949520E0
S1132C60BF92AF927F926F929F928F920E9458234D
S1132C702FE035E1A40166EE70E084E690E00E9466
S1132C8095200FB6F894DEBF0FBECDBFAECFFC01CA
S1132C90932FBE2FAA27AE2BBF2BDB98D898DA9A96
S1132CA0DB9884E485BB12BAD9988DE08A95F1F754
S1132CB00000D99ADB9AD89ADA9ADB98A5BBB2BB02
S1132CC0D9988DE08A95F1F70000D99ADB9ADB9ABE
S1132CD0DB98D898DA9ADB9885E485BB12BAD99840
S1132CE08DE08A95F1F70000D99ADB9AD89ADA9A9E
S1132CF0DB9865BB72BBD9988DE08A95F1F700002B
S1132D00D99ADB9ADB9ADB98D898DA9ADB9886E42E
S1132D1085BB12BAD9988DE08A95F1F70000D99A4B
S1132D20DB9AD89ADA9ADB9865BB72BBD9988DE0A6
S1132D308A95F1F70000D99ADB9ADB9ADB98D89848
S1132D40DA9ADB988EE485BB12BAD9988DE08A951D
S1132D50F1F70000D99ADB9AD89ADA9ADB98E5BBA6
S1132D60F2BBD9988DE08A95F1F70000D99ADB9AE5
S1132D70DB9ADB98D898DA9ADB988FE485BB12BA91
S1132D80D9988DE08A95F1F70000D99ADB9AD89A00
S1132D90DA9ADB9865BB72BBD9988DE08A95F1F716
S1132DA00000D99ADB9ADB9AD898DA9ADB9882E207
S1132DB085BB12BAD9988DE08A95F1F70000D99AAB
S1132DC0DB9A26952695269530E0322F2227330F5D
S1132DD0330F330F469546954695242B9695969535
S1132DE040E2949FC0011124282B392BD89ADA9AF7
S1132DF0DB9825BB32BBD9988DE08A95F1F70000AA
S1132E00D99ADB9A08959F92AF92BF92CF92DF92A4
S1132E10EF92FF920F931F93CF93DF93EC015B012B
S1132E20F9011E2D9F2C9A01DF010E9430236B01B2
S1132E307C01CE010197480F591FC5010197E80F86
S1132E40F91FFE2FEE27EA29FB29DB98D898DA9A96
S1132E50DB9884E485BB12BAD9988DE08A95F1F7A2
S1132E600000D99ADB9AD89ADA9ADB98E5BBF2BBD0
S1132E70D9988DE08A95F1F70000D99ADB9ADB9A0C
S1132E80DB98D898DA9ADB9885E485BB12BAD9988E
S1132E908DE08A95F1F70000D99ADB9AD89ADA9AEC
S1132EA0DB98C5BBD2BBD9988DE08A95F1F70000B9
S1132EB0D99ADB9ADB9ADB98D898DA9ADB9886E47D
S1132EC085BB12BAD9988DE08A95F1F70000D99A9A
S1132ED0DB9AD89ADA9ADB9845BB52BBD9984DE075
S1132EE04A95F1F70000D99ADB9ADB9ADB98D898D7
S1132EF0DA9ADB988EE485BB12BAD9988DE08A956C
S1132F00F1F70000D99ADB9AD89ADA9ADB98A5BA35
S1132F10B2BAD9984DE04A95F1F70000D99ADB9AF4
S1132F20DB9ADB98D898DA9ADB988FE485BB12BADF
S1132F30D9988DE08A95F1F70000D99ADB9AD89A4E
S1132F40DA9ADB98C5BBD2BBD9984DE04A95F1F724
S1132F500000D99ADB9ADB9AD898DA9ADB9882E255
S1132F6085BB12BAD9988DE08A95F1F70000D99AF9
S1132F70DB9AC114D104E104F10479F11695169594
S1132F801695812F90E0982F8827990F990F990F04
S1132F90069506950695802B9694969440E2949E09
S1132FA090011124822B932B382F292F80E090E05D
S1132FB0DC01D89ADA9ADB9835BB22BBD9984DE06C
S1132FC04A95F1F70000D99ADB9A0196A11DB11D2B
S1132FD0C816D906EA06FB0661F7DF91CF911F9167
S1132FE00F91FF90EF90DF90CF90BF90AF909F90A4
S1132FF008952F923F924F925F926F927F928F9299
S11330009F92AF92BF92CF92DF92EF92FF920F9373
S11330101F93CF93DF93CDB7DEB72E970FB6F894F7
S1133020DEBF0FBECDBF9E878D874B012A013C8733
S11330302B87CB82DC82ED82FE82CA012D853E8500
S1133040821B930B6C0122F4CC24DD24C81AD90A08
S11330502B853C8528193909C901992324F488272B
S11330609927821B930B98878F834D855E85441522
S1133070550528F08FEF9FEF9A87898704C021E0D8
S113308030E03A8729874B855C858416950620F0C5
S113309022242A94322C03C022242394312C560156
S11330A08F819885A81AB90A202F30E03A832983A2
S11330B03C01719461947108EB80FC800D811E8148
S11330C029813A81A901B4018D859E859CDE8D8577
S11330D09E858415950529F42B853C8582169306D7
S11330E0D1F0C501880F991F6816790664F44F81E1
S11330F05885A41AB50A2D853E8549855A85240F1D
S1133100351F3E872D878C159D05B4F6AC0CBD1C70
S1133110820C931CD1CF2E960FB6F894DEBF0FBE4F
S1133120CDBFDF91CF911F910F91FF90EF90DF9072
S1133130CF90BF90AF909F908F907F906F905F9053
S11331404F903F902F9008952F923F924F925F920D
S11331506F927F928F929F92AF92BF92CF92DF92A3
S1133160EF92FF920F931F93CF93DF9300D000D081
S113317000D0CDB7DEB79A8389831B013A012901B8
S11331801C830B83FE82ED821C2D75016401012FCB
S113319030DF2D813E814B815C81B201C30129DF87
S11331A0910149815A816D817E818B819C8121DFCE
S11331B026960FB6F894DEBF0FBECDBFDF91CF9138
S11331C01F910F91FF90EF90DF90CF90BF90AF9041
S11331D09F908F907F906F905F904F903F902F9033
S11331E008952F923F924F925F926F927F928F92A7
S11331F09F92AF92BF92CF92DF92EF92FF920F9382
S11332001F93CF93DF935C01EB0149011C01240E52
S1133210351E9B01A101EDDE8C0E9D1E9401A101C2
S1133220B401C501E6DE9401A501BE01C501E1DEDC
S11332309401A101BE01C101DCDEDF91CF911F9198
S11332400F91FF90EF90DF90CF90BF90AF909F9041
S11332508F907F906F905F904F903F902F90089544
S11332602F923F924F925F926F927F928F929F9292
S1133270AF92BF92CF92DF92EF92FF920F931F9380
S1133280CF93DF93CDB7DEB7A5970FB6F894DEBF23
S11332900FBECDBF3C014B012A013A832983EBA227
S11332A0AB86BC86CD86DE86449FC001459F900DCB
S11332B0900D11249C01990F440B550B298B3A8BCB
S11332C04B8B5C8B49815A81449FC001459F900D73
S11332D0900D11249C01990F440B550B2D8B3E8BA3
S11332E04F8B588F49895A896B897C89440F551FA4
S11332F0661F771F440F551F661F771F4B8F5C8F08
S11333006D8F7E8F6D897E898F89988D660F771F6B
S1133310881F991F660F771F881F991F6F8F78A3C7
S113332089A39AA3002309F466C189819A81880F2D
S1133330991FA1E0B0E0A81BB90B29893A894B89F0
S11333405C890E943F23CD88DE88EF88F88CCC0C02
S1133350DD1CEE1CFF1C9B01AC012C0D3D1D4E1D04
S11333605F1D2F83388749875A87A981BA812989A4
S11333703A894B895C890E943F2399230CF48DC0C0
S11333800F2EF6E0AF2EB12CF02D212C312CC301E1
S11333903BA1831B9109AC014F5F5F4F5A8F498F4B
S11333A0B88BAF87132FCB84DC84ED84FE84012F8C
S11333B0B4018F859889681B790B9B01A98DBA8DFF
S11333C0A20DB31DBA83A983AD01C3018219930968
S11333D09E838D830EDECB84DC84ED84FE846F8536
S11333E07889680D791D9B0149815A818D819E815F
S11333F000DE2F81388549855A855523F4F0A1E0F4
S1133400B0E04F855889A41BB50B2B8D3C8D4D8D99
S11334105E8D0E943F232F81388549855A85260F6A
S1133420371F481F591F2F83388749875A874F856D
S1133430588941505109588B4F87D5012D893E89B0
S11334404F89588D0E943F232F81388549855A859D
S1133450260F371F481F591F2F83388749875A87DC
S11334603FEF231A330A44E0A40EB11CD1012D8985
S11334703E894F89588D0E943F236B017C01AF85A3
S1133480B88929893A894B895C890E943F236C1544
S11334907D058E059F050CF086CFC201880F991F0C
S11334A0A1E0B0E0A81BB90B2D893E894F89588D46
S11334B00E943F23C988DA88EB88FC88CC0CDD1C89
S11334C0EE1CFF1C9B01AC012C0D3D1D4E1D5F1D10
S11334D029833A834B835C83D2012D893E894F89AA
S11334E0588D0E943F2399230CF4EBC10F2EF6E074
S11334F0AF2EB12CF02D212C312C5BA1452F50E0A7
S1133500588B4F871BA1C301840D951D0196BC01E7
S1133510AF85B8896A1B7B0B78876F83CB84DC8487
S1133520ED84FE84012FB401621973099B014F815C
S11335305885C301841995099E838D835ADDCB84F4
S1133540DC84ED84FE84B401620D731D9B014F8104
S113355058858D819E814DDD29813A814B815C8125
S11335605523CCF0A1E0B0E0A419B5092F8D38A102
S113357049A15AA10E943F2329813A814B815C8150
S1133580260F371F481F591F29833A834B835C83B7
S113359031E0431A5108D50129893A894B895C895C
S11335A00E943F2329813A814B815C81260F371F7A
S11335B0481F591F29833A834B835C833FEF231AA7
S11335C0330A44E0A40EB11CD10129893A894B89FC
S11335D05C890E943F236B017C01D2012D893E89C5
S11335E04F89588D0E943F236C157D058E059F05DC
S11335F00CF089CF66C189819A81880F991FA1E057
S1133600B0E0A81BB90B29893A894B895C890E94CF
S11336103F23CD88DE88EF88F88CCC0CDD1CEE1CB3
S1133620FF1C56016701A60EB71EC81ED91EA9812C
S1133630BA810E943F2399230CF48DC066E070E0A8
S11336407A8F698F212C312C9BA1892F90E09E8346
S11336508D83BDA3ACA3EB84FC840D851E852D81D5
S11336603E81A901ACA1BDA1A80DB91DBA83A9834E
S1133670BD01C101860D971D98878F83C4DBEB8440
S1133680FC840D851E852D813E81A90169817A8185
S1133690D301A219B309B88BAF87CD01B4DBEB8496
S11336A0FC840D851E852D813E81A901B4018CA168
S11336B09DA1681B790B7A8369838F819885A3DB2D
S11336C0EB84FC840D851E852D813E81A9016981D1
S11336D07A818F85988997DBDD20ACF0A1E0B0E09A
S11336E02CA13DA1A21BB30B2B8D3C8D4D8D5E8D6A
S11336F0C6D7A60EB71EC81ED91E4CA15DA1415047
S113370051095DA34CA3A98DBA8D2D893E894F899A
S1133710588DB5D7A60EB71EC81ED91E5FEF251A41
S1133720350ABD016C5F7F4F7A8F698FD1012D8976
S11337303E894F89588DA3D77B018C01ACA1BDA1D3
S113374029893A894B895C899AD76E157F05800748
S113375091070CF080CFC201880F991FA1E0B0E05F
S1133760A81BB90B2D893E894F89588D88D7C988E4
S1133770DA88EB88FC88CC0CDD1CEE1CFF1C9B015A
S1133780AC012C0D3D1D4E1D5F1D2F8338874987CD
S11337905A87D2012D893E894F89588D70D7992334
S11337A00CF48FC00F2EF6E0AF2EB12CF02D212C8F
S11337B0312C5BA1452F50E0588B4F87EB84FC8460
S11337C00D851E852F853889A9016101C80CD91C76
S11337D0B601C301840D951D9E838D8314DBEB8498
S11337E0FC840D851E852F853889A901B601D30176
S11337F0A419B509BA83A983CD0105DBEB84FC8444
S11338000D851E852F853889A9016401C218D30846
S1133810B6018D819E81F7DAEB84FC840D851E85CB
S11338202F853889A901B60189819A81ECDA2F8123
S1133830388549855A855523C4F0A1E0B0E0A41920
S1133840B5092F8D38A149A15AA119D72F813885DF
S113385049855A85260F371F481F591F2F833887DC
S113386049875A8731E0431A5108D50129893A8991
S11338704B895C8904D72F81388549855A85260F61
S1133880371F481F591F2F83388749875A873FEFAF
S1133890231A330A44E0A40EB11CD10129893A89C0
S11338A04B895C89ECD66B017C01D2012D893E8960
S11338B04F89588DE4D66C157D058E059F050CF057
S11338C07DCFA5960FB6F894DEBF0FBECDBFDF91B6
S11338D0CF911F910F91FF90EF90DF90CF90BF9009
S11338E0AF909F908F907F906F905F904F903F909C
S11338F02F9008952F923F924F925F926F927F92F2
S11339008F929F92AF92BF92CF92DF92EF92FF92EB
S11339100F931F93CF93DF93CDB7DEB765970FB6A1
S1133920F894DEBF0FBECDBF5C012B012B8BCF8281
S1133930D886E986FA86242E312C81E090E03C0179
S11339406218730821E030E0388B2F879E878D87BB
S1133950C12CD12C802E912CBD8AAC8ADA8AC98ADA
S11339609B89913021F5C101880F991F9C012F5F1C
S11339703F4F3C832B83EF80F88409851A854F855C
S11339805889B201621973098C899D893CDAEF80E8
S1133990F88409851A852F8538894B815C81B201A9
S11339A06C197D09C501821993092DDA71C0EF8064
S11339B0F88409851A859401A401C201820D931D1E
S11339C09C838B83BC01C5018C0D9D1D9C878B87BB
S11339D01ADAEF80F88409851A859401A401C201DA
S11339E08C0D9D1D9E838D83BC01C501820D931D8D
S11339F09A83898308DAEF80F88409851A8594010B
S1133A00A4016B817C818C899D89FDD9EF80F88428
S1133A1009851A859401A4016D817E81C5018219ED
S1133A2093099C838B83EFD9EF80F88409851A85E9
S1133A309401A401C2018C199D099E838D83BC014C
S1133A4089819A81E0D9EF80F88409851A859401E7
S1133A50A401C201821993099A838983BC018B85CD
S1133A609C85D1D9EF80F88409851A859401A40135
S1133A7069817A818C899D89C6D9EF80F88409850A
S1133A801A859401A4016D817E818B819C81BBD9AF
S1133A9077205CF493E0690E711CC601880F991FAE
S1133AA0680E791E8D859E8510C025E0620E711CFE
S1133AB089899A8982199309880F991F680E791E3A
S1133AC08D859E8531E0231A31082FEFC21AD20A60
S1133AD02D853E852F5F3F4F3E872D872C893D895D
S1133AE0215031093D8B2C8B2F8538892E5F3F4F18
S1133AF0388B2F87281639060CF030CF65960FB611
S1133B00F894DEBF0FBECDBFDF91CF911F910F910F
S1133B10FF90EF90DF90CF90BF90AF909F908F90E9
S1133B207F906F905F904F903F902F9008952F92C9
S1133B303F924F925F926F927F928F929F92AF9239
S1133B40BF92CF92DF92EF92FF920F931F93CF9386
S1133B50DF93CDB7DEB72E970FB6F894DEBF0FBE56
S1133B60CDBF2C014B015A01CB82DC82ED82FE8257
S1133B7081E090E06C01C41AD50A88279927841B38
S1133B80950B3C01660C771C141615060CF0BCC092
S1133B9022242394312C922F94709987E02FF0E003
S1133BA0FA83E983F22FF270FA87822F88708B8769
S1133BB021702C87E1E0F0E0FE87ED87DD2044F002
S1133BC0F1E0AF1AB10882E0680E711CC60CD71C74
S1133BD0ED85FE85F887EF83F2E02F0E311CC20CD1
S1133BE0D31C89858823F1F0EB80FC800D811E8134
S1133BF029813A81A901B501680D791D8D859E85BC
S1133C00840D951D00D9EB80FC800D811E812981D6
S1133C103A81A9016D857E85680D791DC501840DE4
S1133C20951DF1D89A859923F9F0EB80FC800D81DC
S1133C301E8129813A81A901B4016A197B098D8504
S1133C409E85840D951DDFD8EB80FC800D811E813F
S1133C5029813A81A901B401ED85FE856E1B7F0B94
S1133C60C501840D951DCFD8FB85FF23F9F0EB80AA
S1133C70FC800D811E8129813A81A9016D857E8593
S1133C80680D791DC2018A199B09BDD8EB80FC809F
S1133C900D811E8129813A81A901B501680D791D23
S1133CA0C201ED85FE858E1B9F0BADD8FC85FF23DD
S1133CB001F1EB80FC800D811E8129813A81A901EB
S1133CC0B4018D859E85681B790BC2018A199B09F5
S1133CD09AD8EB80FC800D811E8129813A81A9014B
S1133CE0B4016A197B09C201ED85FE858E1B9F0B09
S1133CF08AD88D859E8501969E878D87EF81F8856C
S1133D00EA15FB050CF45ACF2E960FB6F894DEBFD5
S1133D100FBECDBFDF91CF911F910F91FF90EF9018
S1133D20DF90CF90BF90AF909F908F907F906F90D7
S1133D305F904F903F902F9008952F923F924F9213
S1133D405F926F927F928F929F92AF92BF92CF9227
S1133D50DF92EF92FF920F931F93CF93DF93CDB730
S1133D60DEB72C970FB6F894DEBF0FBECDBF988791
S1133D708F837A876987190148011E2DA982BA8227
S1133D80CB82DC823C01640E751E4E2C512CC20188
S1133D9088199909860D971D9C878B878F81988533
S1133DA0880D991D9E838D8376016501012F9B01EA
S1133DB04B855C851ED9A984BA84A20CB31C150159
S1133DC091E0291A3108C980DA80EB80FC809101E6
S1133DD04B855C85B1018D819E810BD9A418B508F2
S1133DE0A818B90889859A85880D991D9A878987A5
S1133DF0C980DA80EB80FC8095014F815885BC0135
S1133E00CA01F7D8C3010197C980DA80EB80FC802E
S1133E109501AC0169857A85ECD8C980DA80EB809C
S1133E20FC8021E0A40169857A858D819E817FDEF5
S1133E305401A094B094A60CB71CC980DA80EB801E
S1133E40FC8022E0A40169857A85C50170DEC10188
S1133E508819990998878F83C980DA80EB80FC8060
S1133E6024E0A401BC01C50162DEC980DA80EB80D4
S1133E70FC8028E0A4016F8178858D819E8157DEC6
S1133E802C960FB6F894DEBF0FBECDBFDF91CF9155
S1133E901F910F91FF90EF90DF90CF90BF90AF9064
S1133EA09F908F907F906F905F904F903F902F9056
S1133EB008952F923F924F925F926F927F928F92CA
S1133EC09F92AF92BF92CF92DF92EF92FF920F93A5
S1133ED01F93CF93DF93CDB7DEB72F970FB6F89428
S1133EE0DEBF0FBECDBF4C013B015A011D870C87BD
S1133EF0CF82D886E986FA8681E090E01C01241AF4
S1133F00350A88279927841B950BAC01440F551F4C
S1133F105C834B831A141B040CF083C0CB01019700
S1133F209A838983C80101962C01460E571E41E0ED
S1133F3050E0122F117022702B875F874E87332039
S1133F4054F051E0A51AB1088B819C8102969C83A0
S1133F508B83280E391E4E855F855E834D83CA018F
S1133F60880F991F0196280E391E112301F1930120
S1133F702A0D3B1D8C859D85280F391FCF80D88441
S1133F80E984FA8401E0CA01880D991DAC01B301EA
S1133F906A197B092ED8CF80D884E984FA849201E7
S1133FA0C501880D991DAC0169817A8122D89B8550
S1133FB0992319F193012A0D3B1D4C855D85240F2E
S1133FC0351FCF80D884E984FA8401E0C4014E858A
S1133FD05F85841B950BAC01B3016A197B0909D871
S1133FE0CF80D884E984FA849201C4018A199B0998
S1133FF0AC0169817A810E94F9178E859F850196AB
S11340009F878E8749815A81415051095A83498338
S11340105FEF451A550A8D819E818A159B050CF424
S11340208ECF2F960FB6F894DEBF0FBECDBFDF91B3
S1134030CF911F910F91FF90EF90DF90CF90BF90A1
S1134040AF909F908F907F906F905F904F903F9034
S11340502F9008952F923F924F925F926F927F928A
S11340608F929F92AF92BF92CF92DF92EF92FF9284
S11340700F931F93CF93DF9300D000D000D0CDB720
S1134080DEB75C012B011A0149011E830D83C9822D
S1134090DA82EB82FC826801CC0CDD1C3801680EEC
S11340A0791E4C195D09E980FA800B811C81C301DA
S11340B00E94031781E0881A91088C189D08ED81ED
S11340C0FE814E0E5F1EC5010197820D931DC980AE
S11340D0DA80EB80FC80840121E0AF01B2018E1B09
S11340E09F0BE7DEC980DA80EB80FC8022E04D8103
S11340F05E81B201C301DDDE26960FB6F894DEBF01
S11341000FBECDBFDF91CF911F910F91FF90EF9024
S1134110DF90CF90BF90AF909F908F907F906F90E3
S11341205F904F903F902F9008952F923F924F921F
S11341305F926F927F928F929F92AF92BF92CF9233
S1134140DF92EF92FF920F931F93CF93DF93CDB73C
S1134150DEB7A1970FB6F894DEBF0FBECDBFA82E71
S1134160B92E5D8B4C8BC88ED98EEA8EFB8E8E8FCA
S11341709F8F6A8B7B8B47E050E0B901CE0101969B
S11341808ED22C893D893F8B2E8BA88AB98A612CCB
S1134190712C202E312C0C8F3D8EF1C0EE89FF89BD
S11341A08191FF8BEE8B8A3089F42F81229DC0018F
S11341B0239D900D11242A893B89280F391F3B8B9D
S11341C02A8B3E8D388B6F8D698BD6C02D818217DB
S11341D008F4D2C09E81981708F4CEC08D3009F43B
S11341E0CBC090E0821B9109BC01660F771F660F5C
S11341F0771F660F771FFB01E81BF90B6B817C812E
S11342006E0F7F1F47E050E0CE01089648D28980A8
S11342109A80C884D9848B85811199C0A1C0A12CAE
S113422080E090E0FF854F2E512CB1100BC0960119
S11342302F5F3F4FF401EC0DFD1D749069016894EC
S1134240BB24B7F8272D2B2111F0019639C0009714
S1134250B9F1289EA001299E500D389E500D1124BD
S11342602E85B201620F711D27FD7A959B01229D57
S1134270B001239D700D329D700D1124EA89FB89D4
S11342806E0F7F1FED852A2D30E02E0F311DE7FDC7
S11342903A95281B390B229DC001239D900D329D18
S11342A0900D1124E88CF98C0A8D1B8D2C8D3D8D7D
S11342B0E889F9898E0F9F1F0E94031780E090E020
S11342C0B694A3942A85A21608F4AFCF0097B1F14F
S11342D0289EA001299E500D389E500D11246E85F4
S11342E0FF852F2F30E0260F311D67FD3A95229D63
S11342F0B001239D700D329D700D11242A893B89D4
S1134300620F731FED852A2D30E02E0F311DE7FD5E
S11343103A95281B390B229DC001239D900D329D97
S1134320900D1124E88CF98C0A8D1B8D2C8D3D8DFC
S1134330E889F9898E0F9F1F0E940317FF85FF5F8D
S1134340FF878B85F81740F068A079A009C01F8605
S1134350B12C79A268A27B2C8A85811160CFEECF23
S11343602C85229DC001239D900D11242889398913
S1134370280F391F398B288B3FEF631A730AEC8996
S1134380FD8901900020E9F731976C897D89E61B4E
S1134390F70B6E167F0608F401CFA1960FB6F894BA
S11343A0DEBF0FBECDBFDF91CF911F910F91FF9064
S11343B0EF90DF90CF90BF90AF909F908F907F90C1
S11343C06F905F904F903F902F9008958FEF84BB34
S11343D081BB8ABB2FEF80E792E021508040904060
S11343E0E1F700C00000DC9ADB98D898DA9ADB98F1
S11343F087E085BB12BAD998EDE0EA95F1F70000A1
S1134400D99ADB9AD89ADA9ADB9891E295BB12BAD8
S1134410D998FDE0FA95F1F70000D99ADB9ADB9A76
S1134420DB98D898DA9ADB9815BA12BAD9982DE0A5
S11344302A95F1F70000D99ADB9AD89ADA9ADB9890
S113444091E095BB12BAD9989DE09A95F1F70000D6
S1134450D99ADB9ADB9ADB98D898DA9ADB9885BBF1
S113446012BAD998EDE0EA95F1F70000D99ADB9AEF
S1134470D89ADA9ADB9893E295BB12BAD998FDE000
S1134480FA95F1F70000D99ADB9ADB9ADB98D89871
S1134490DA9ADB9890E195BB12BAD9982DE02A9567
S11344A0F1F70000D99ADB9AD89ADA9ADB9815BA10
S11344B012BAD9989DE09A95F1F70000D99ADB9A3F
S11344C0DB9AEFE5FAEE3197F1F700C00000DB98D4
S11344D0D898DA9ADB9885BB12BAD998FDE0FA9598
S11344E0F1F70000D99ADB9AD89ADA9ADB9883E339
S11344F085BB12BAD9982DE02A95F1F70000D99A14
S1134500DB9ADB9ADB98D898DA9ADB9881E185BB51
S113451012BAD9988DE08A95F1F70000D99ADB9AFE
S1134520D89ADA9ADB9888E385BB88E682BBD99867
S11345309DE09A95F1F70000D99ADB9ADB9ADB9813
S1134540D898DA9ADB9882E085BB12BAD998EDE064
S1134550EA95F1F70000D99ADB9AD89ADA9ADB98AF
S113456015BA86E082BBD998FDE0FA95F1F7000010
S1134570D99ADB9ADB9A8FE19EE40197F1F700C0A8
S1134580000008958FB9779BFECF8FB1089588B34B
S1134590806E88BB87B3806E87BBC49ABC9A88B38D
S11345A088BB87B387BB8DB180658DB9709AC49879
S11345B080E8E8DF80E0E6DF80E0E4DFC49A089585
S11345C0CF93C498DFDF80E0DDDFC82F80E0DADF3F
S11345D0C49A2C2F30E0322F2227A901482BCA017C
S11345E0969587959695879596958795CF910895F5
S11345F080EDE6DF9C012D5231402B3A3D4080F4A2
S11346008C5291409C0136952795A5E2B9E428D0B7
S11346109C01369527958FEE90E0821B930B0895AD
S113462080E090E0089580E9CBDF9C01215931407E
S113463027344DE0340788F42F5F3F4FADECBCECDA
S11346400FD09C0136952795369527953695279555
S11346508FE391E0821B930B089580E090E008952E
S1134660A29FB001B39FC001A39F700D811D1124AF
S1134670911DB29F700D811D1124911D0895B7FFE6
S113468004C003D0821B930B0895EADFA59F900D0D
S1134690B49F900DA49F800D911D11240895FB01DA
S11346A0DC0102C005900D9241505040D8F70895A6
S11346B0AEE0B0E0EDE5F3E2AAC20D891E8986E022
S11346C08C831A8309838FEF9FE79E838D83AE01CA
S11346D0475E5F4F6F89788DCE01019608D0EF81D8
S11346E0F885E00FF11F10822E96E4E0ACC2ABE037
S11346F0B0E0ECE7F3E27DC26C017B018A01FC01CE
S113470017821682838181FFBFC1CE0101963C01CD
S1134710F6019381F70193FD859193FF81917F01C8
S1134720882309F4ADC1853239F493FD859193FF53
S113473081917F01853221F4B60190E0C0D1E8CFA8
S1134740912C212C312CFFE1F315D8F08B3279F028
S113475038F4803279F08332A1F4232D20611DC016
S11347608D3261F0803369F4232D216016C0832DCE
S11347708260382EE32DE4603E2E2AC0F32DF860CB
S11347801DC037FC2DC020ED280F2A3040F08E329A
S1134790B9F436FC75C1232D2064322E19C036FEBF
S11347A006C08AE0989E200D1124922E11C0EAE0E2
S11347B02E9E200D1124222EF32DF0623F2E08C0D0
S11347C08C3621F4832D8068382E02C0883641F45B
S11347D0F70193FD859193FF81917F018111B3CFFF
S11347E0982F9F7D9554933028F40C5F1F4F9FE3BF
S11347F099830DC0833631F0833771F0833509F026
S113480055C020C0F801808189830E5F1F4F882422
S11348108394912C530112C02801F2E04F0E511CD5
S1134820F801A080B18036FE03C0692D70E002C09B
S11348306FEF7FEFC50138D14C018201F32DFF7773
S11348403F2E15C0280122E0420E511CF801A08021
S1134850B18036FE03C0692D70E002C06FEF7FEFB8
S1134860C50117D14C01F32DF0683F2E820133FCB2
S113487019C0822D90E088169906A0F4B60180E252
S113488090E01DD12A94F5CFF50137FC859137FED0
S113489081915F01B60190E012D121102A9421E0A8
S11348A0821A91088114910479F7E1C0843611F0D9
S11348B0893639F5F80137FE07C06081718182813C
S11348C093810C5F1F4F08C060817181072E000C1B
S11348D0880B990B0E5F1F4FF32DFF763F2E97FF2A
S11348E009C090958095709561957F4F8F4F9F4F2C
S11348F0F0683F2E2AE030E0A3011DD1882E8618EF
S113490044C0853731F4232D2F7EB22E2AE030E0C7
S113491025C0932D997FB92E8F36C1F018F48835B0
S113492079F0AEC0803719F0883721F0A9C0E92F9B
S1134930E061BE2EB4FE0DC0FB2DF460BF2E09C095
S113494034FE0AC0292F2660B22E06C028E030E0CB
S113495005C020E130E002C020E132E0F801B7FEFA
S113496007C060817181828193810C5F1F4F06C0F3
S11349706081718180E090E00E5F1F4FA301DBD066
S1134980882E8618FB2DFF773F2E36FE0DC0232D73
S11349902E7FA22E891458F434FE0BC032FC09C0B9
S11349A0832D8E7EA82E05C0B82CA32C03C0B82C52
S11349B001C0B92CA4FE0FC0FE01E80DF11D8081D9
S11349C0803321F49A2D997EA92E09C0A2FE06C037
S11349D0B394B39404C08A2D867809F0B394A3FCED
S11349E010C0A0FE06C0B21480F4280C922C9B18B0
S11349F00DC0B21458F4B60180E290E060D0B394D4
S1134A00F8CFB21418F42B1802C0982C212CA4FE51
S1134A100FC0B60180E390E052D0A2FE16C0A1FC04
S1134A2003C088E790E002C088E590E0B6010CC0BE
S1134A308A2D867851F0A1FE02C08BE201C080E28B
S1134A40A7FC8DE2B60190E03AD0891430F4B601A7
S1134A5080E390E034D09A94F8CF8A94F301E80D7F
S1134A60F11D8081B60190E02AD08110F6CF22207A
S1134A7009F44ECEB60180E290E021D02A94F7CF1B
S1134A80F6018681978102C08FEF9FEF2B96E2E1BA
S1134A90CCC0FC010590615070400110D8F780959E
S1134AA090958E0F9F1F0895FC01615070400190F6
S1134AB00110D8F7809590958E0F9F1F08950F933E
S1134AC01F93CF93DF93FB01238121FD03C08FEF5D
S1134AD09FEF2CC022FF16C0468157812481358167
S1134AE04217530744F4A081B1819D012F5F3F4FCA
S1134AF0318320838C93268137812F5F3F4F378307
S1134B00268314C08B01EC01FB010084F185E02DA8
S1134B100995892BE1F6D80116968D919C911797EA
S1134B20019617969C938E931697CE01DF91CF91A1
S1134B301F910F910895FA01AA27283051F12031CD
S1134B4081F1E8946F936E7F6E5F7F4F8F4F9F4F1D
S1134B50AF4FB1E03ED0B4E03CD0670F781F891F5F
S1134B609A1FA11D680F791F8A1F911DA11D6A0F2D
S1134B70711D811D911DA11D20D009F468943F91E0
S1134B802AE0269F11243019305D3193DEF6CF01DF
S1134B900895462F4770405D4193B3E00FD0C9F7A5
S1134BA0F6CF462F4F70405D4A3318F0495D31FD12
S1134BB04052419302D0A9F7EACFB4E0A695979565
S1134BC0879577956795BA95C9F70097610571053B
S1134BD008959B01AC010A2E069457954795379585
S1134BE02795BA95C9F7620F731F841F951FA01DDF
S1134BF008952F923F924F925F926F927F928F927D
S1134C009F92AF92BF92CF92DF92EF92FF920F9357
S1134C101F93CF93DF93CDB7DEB7CA1BDB0B0FB661
S1134C20F894DEBF0FBECDBF09942A88398848881E
S1134C305F846E847D848C849B84AA84B984C884B4
S1134C40DF80EE80FD800C811B81AA81B981CE0FAB
S1134C50D11D0FB6F894DEBF0FBECDBFED01089590
S1074C60F894FFCFF2
S1134C64546869732069730A206A75737420612017
S1134C74546573740A5354373733350A0053534411
S1134C8431323839204452495645520053544D2048
S1134C9433322048414C00313233343536373839D5
S1134CA430003132333435363738393020544553B3
S10F4CB45420464F4E5400252E3364005B
S9030000FC
