:100000000C944F0B0C94630B0C94630B0C94630BCC
:100010000C94630B0C94630B0C94630B0C94630BA8
:100020000C94630B0C94630B0C94630B0C94630B98
:100030000C94630B0C94630B0C94630B0C94630B88
:100040000C94630B0C94630B0C94630B0C94630B78
:100050000C94630BF4025B00207E06000008010292
:1000600000FB010008050200FB060008020400FB7B
:10007000080008050400FB0D0008050400FB120041
:1000800008050400FB170008050400FB1C0008021B
:100090000200FB1E0008050300FB23000805030007
:1000A000FB280008030400FB2B0008030400FC2EBF
:1000B0000008020300FE300008010400FD310008C2
:1000C000010200FF320008050400FB3700080504A8
:1000D00000FB3C0008050300FB410008050400FB91
:1000E000460008050400FB4B0008050400FB500017
:1000F00008050400FB550008050400FB5A0008052C
:100100000400FB5F0008050400FB64000805040010
:10011000FB690008030200FC6C0008040300FC708B
:100120000008050400FB750008030400FC780008C3
:10013000050400FB7D0008050400FB82000805049F
:1001400000FB870008050400FB8C0008050400FB89
:10015000910008050400FB960008050400FB9B00C5
:1001600008050400FBA00008050400FBA500080525
:100170000400FBAA0008050400FBAF00080504000A
:10018000FBB40008050400FBB90008050400FBBE31
:100190000008050400FBC30008050400FBC80008B4
:1001A000050400FBCD0008050400FBD2000805048F
:1001B00000FBD70008050400FBDC0008050400FB79
:1001C000E10008050400FBE60008050400FBEB0065
:1001D00008050400FBF00008050400FBF500080515
:1001E0000400FBFA0008050400FBFF0008050400FA
:1001F000FB040108050400FB090108050400FB0ECF
:100200000108030400FC110108050400FB160108A5
:10021000020400FB180108010400FF190108020391
:1002200000FB1B0108040400FC1F0108050400FB7F
:10023000240108040400FC280108050400FB2D012A
:1002400008040400FC310108050400FB3601080520
:100250000400FC3B0108050400FB40010805020006
:10026000FB450108060400FB4B0108050400FB5098
:100270000108050400FB550108040400FC590108AD
:10028000040400FC5D0108040400FC61010805048D
:1002900000FC660108050400FC6B0108040400FC76
:1002A0006F0108040400FC730108050400FB7801D9
:1002B00008040400FC7C0108040400FC800108041C
:1002C0000400FC840108040400FC88010805040003
:1002D000FC8D0108040400FC910108050400FB9654
:1002E0000108050200FB9B0108050400FBA00108B2
:1002F000020400FB008080800080A0A0A0E0A0E0BD
:10030000A060C060C0408020408020C0C0E0A060ED
:10031000808040808080408040404080A040A0405D
:10032000E0404080E080202040808060A0A0A0C00D
:1003300040C0404040C0204080E0C0204020C0A0DD
:10034000A0E02020E080C020C06080E0A0E0E020AD
:10035000408080E0A0E0A0E0E0A0E020C08000803D
:10036000400040802040804020E000E0804020406D
:1003700080E02040004040A0E0806040A0E0A0A0DD
:10038000C0A0C0A0C06080808060C0A0A0A0C0E06D
:1003900080E080E0E080E080806080E0A060A0A05D
:1003A000E0A0A0E0404040E0202020A040A0A0C06D
:1003B000A0A080808080E0A0E0E0A0A0A0E0E0E03D
:1003C000A040A0A0A040C0A0C0808040A0A0E0604D
:1003D000C0A0E0C0A060804020C0E040404040A0FD
:1003E000A0A0A060A0A0A04040A0A0E0E0A0A0A08D
:1003F00040A0A0A0A0404040E0204080E0E08080FD
:1004000080E0804020E0202020E040A0E08040C04C
:1004100060A0E080C0A0A0C0608080602060A0A03C
:100420006060A0C0602040E0404060A0E0204080CC
:10043000C0A0A0A0800080808020002020A040805C
:10044000A0C0C0A0C0404040E0E0E0E0A0C0A0A04C
:10045000A040A0A040C0A0A0C08060A0A06020607C
:1004600080808060C060C040E0404060A0A0A0608C
:10047000A0A0E040A0E0E0E0A04040A0A0A060205C
:1004800040E060C0E060408040608080008080C0CC
:10049000402040C060C036079D04207E0700000059
:1004A00000060001000001050200FC010003010438
:1004B00000FC020005050600FC060005050600FC20
:1004C0000A0005050600FC0E0005050600FC1200EA
:1004D00001010200FC130002050300FC15000205E7
:1004E0000300FC170003030400FD190003030400CC
:1004F000FD1B0001020200001C0004010500FE1D9E
:100500000001010200001E0005050600FC22000596
:10051000050600FC260001050200FC270005050673
:1005200000FC2B0005050600FC2F0005050600FC5D
:10053000330005050600FC370005050600FC3B00FE
:1005400005050600FC3F0005050600FC4300050507
:100550000600FC470001040200FD480001040200FF
:10056000FD490003050400FC4B0004030500FD4D9C
:100570000003050400FC4F0005050600FC530005C0
:10058000050600FC570005050600FC5B0005050696
:1005900000FC5F0005050600FC630005050600FC85
:1005A000670005050600FC6B0005050600FC6F00F2
:1005B00005050600FC730005050600FC770005052F
:1005C0000600FC7B0005050600FC7F000505060013
:1005D000FC830005050600FC870005050600FC8B72
:1005E0000005050600FC8F0005050600FC930005CC
:1005F000050600FC970005050600FC9B00050506A6
:1006000000FC9F0005050600FCA30005050600FC94
:10061000A70005050600FCAB0005050600FCAF00C1
:1006200005050600FCB30005050600FCB70005053E
:100630000600FCBB0005050600FCBF000205030028
:10064000FCC10005050600FCC50002050300FCC74F
:100650000003020400FCC8000501060001C90001F6
:10066000010200FCCA0004040500FDCC00040505DD
:1006700000FCCF0004040500FDD10004050500FCCA
:10068000D40004040500FDD60003050400FCD800D6
:1006900004050500FDDB0004050500FCDE00010487
:1006A0000200FDDF0002050300FDE1000405050076
:1006B000FCE40001050200FCE50005040600FDE87D
:1006C0000004040500FDEA0004040500FDEC00043C
:1006D000050500FDEF0004050500FDF2000404051A
:1006E00000FDF40004040500FDF60005050600FC0D
:1006F000FA0004040500FDFC0004040500FDFE00F2
:1007000005040600FD010104040500FD03010405C4
:100710000500FD060104040500FD080103050400B1
:10072000FC0A0101050200FC0B0103050400FC0D9D
:100730000105030600FDE8A057D5F500FD3E5F80EA
:1007400088888880F4BF2E80806A409580AA805D6A
:1007500000C0F08008888800FC631F80F8F87F0FD5
:1007600080F87E1F808C7E1080FC3E1F80FC3F1F27
:1007700080F8421080FC7F1F80FC7E1F8090B02A92
:1007800022F0F088A8F84E0200FD6F0F80FC7F1861
:1007900080F47D1F00FC210F80F4631F00FC3F0FDD
:1007A00080FC3F0800FC2F1F808C7F1880F9084FC9
:1007B0008078852F808DB1688084210F80FD6B5AF1
:1007C00080FC631880FC631F80FC7F0800FC633F93
:1007D00080FC7F2900FC3E1F80F90842008C631FCB
:1007E000808C62A200AD6B5F808A88A8808C5442A6
:1007F00000F87F0F80EAC082082080D5C054F880BE
:10080000F1FF8F99F0F88F1F99F0FF8F6BA4F99F7C
:10081000108F9990F055C08AF990F8FD6310F999FE
:10082000F99FF99F80F99F20F888471F27C8420049
:10083000999F99978C6BF09669999F102E8F2B2218
:10084000F889A80FE092084C08303A3200001B2EBD
:100850002002D09C0006272017D3BA001B2E2002AE
:10086000D05601192E2004D0E6011B272002D36A9E
:10087000021B2E2002D006031B2E2002D0A203173B
:100880002A2006D01B041B2E2002D0B7041B2E20CA
:1008900002D003FFF800FFFF803FFFF803FFFEC315
:1008A0003FFFBCF0000FFF0001FFE0003FFC00072E
:1008B000FF8000FFF0001FFE0003FFC0007FF80074
:1008C0000FFF0001FFE0003FFC0007FF8000FFF08A
:1008D000001FFC0000FE00000700000040000004B4
:1008E000000000E000007F00003FF0001FFE00035A
:1008F000FFC0007FF8000FFF0001FFE0003FFC0099
:1009000007FF8000FFF0001FFE0003FFC0007FF81C
:10091000000FFF0001FFE0003F780003C67FFF30BB
:100920001FFFF007FFFF007FFFC007FFF00031EF60
:10093000FFFFFFFFFFFFFFFFFFFF3C30400033FFE3
:10094000FFFFFFFFFFFFFFFFFFFDE30003FFF800D6
:10095000FFFF803FFFF803FFFEC03FFFBC00000F1A
:10096000C00001F800003F000007E00000FC0000AC
:100970001F800003F000007E00000FC00001F8009F
:10098000003F000007E00000FC00001F800000F0B6
:100990007FFF861FFFFC4FFFFFE4FFFFF8E7FFFC30
:1009A0001F000003F000007E00000FC00001F800EF
:1009B000003F000007E00000FC00001F800003F083
:1009C00000007E00000FC00001F800003F0000079B
:1009D000E00000780000067FFF001FFFF007FFFF28
:1009E000007FFFC007FFF0000FFFE00FFFF80FFFD1
:1009F000FE03FFFEC0FFFEF00000FC00007E0000D2
:100A00003F00001F80000FC00007E00003F000015E
:100A1000F80000FC00007E00003F00001F80000F77
:100A2000C00007E00000F1FFFE19FFFFC7FFFFF85D
:100A3000FFFFF81FFFF1800003C00007E00003F094
:100A40000001F80000FC00007E00003F00001F8055
:100A5000000FC00007E00003F00001F80000FC00F8
:100A6000007E00003F00000F07FFF307FFFC07FFB9
:100A7000FF01FFFF007FFF0000000186000079E01A
:100A8000001FFE0003FFC0007FF8000FFF0001FF02
:100A9000E0003FFC0007FF8000FFF0001FFE0003A6
:100AA000FFC0007FF8000FFF0001FFE0003FF800EB
:100AB00001FCFFFF0E3FFFF89FFFFFC1FFFFF00F9C
:100AC000FFF8C000007800003F000007E00000FCD5
:100AD00000001F800003F000007E00000FC0000136
:100AE000F800003F000007E00000FC00001F80004D
:100AF00003F000007E0000078000006003FFF800A4
:100B0000FFFF803FFFF803FFFE033FFF80F0000080
:100B10003F000007E00000FC00001F800003F00021
:100B2000007E00000FC00001F800003F000007E059
:100B30000000FC00001F800003F000007C00000E9D
:100B40007FFF811FFFFC0FFFFFE0FFFFF807FFFCA7
:100B50006000003C00001F800003F000007E0000E9
:100B60000FC00001F800003F000007E00000FC009B
:100B7000001F800003F000007E00000FC00001F89D
:100B800000003F000003C07FFF301FFFF007FFFFA2
:100B9000007FFFC007FFF00003FFF800FFFF803F6A
:100BA000FFF803FFFE033FFF80F000003F00000757
:100BB000E00000FC00001F800003F000007E000049
:100BC0000FC00001F800003F000007E00000FC003B
:100BD000001F800003F000007C00000E7FFF811FDB
:100BE000FFFC0FFFFFE4FFFFF8E7FFFC7F00003F83
:100BF000F0001FFE0003FFC0007FF8000FFF0001A0
:100C0000FFE0003FFC0007FF8000FFF0001FFE0038
:100C100003FFC0007FF8000FFF0001FFE0003F78F6
:100C20000003C67FFF301FFFF007FFFF007FFFC0FC
:100C300007FFF0003FFF80FFFF83FFFF83FFFEC33E
:100C4000FFFBC0000FC0001F80003F00007E0000BF
:100C5000FC0001F80003F00007E0000FC0001F8057
:100C6000003F00007E0000FC0001F80000F00000E2
:100C700060000040000000000000000600003C0092
:100C800001F80003F00007E0000FC0001F80003FE4
:100C900000007E0000FC0001F80003F00007E00007
:100CA0000FC0001F80003F00003C00003003FFF831
:100CB00000FFFF803FFFF803FFFEC33FFFBCF000D3
:100CC0000FFF0001FFE0003FFC0007FF8000FFF086
:100CD000001FFE0003FFC0007FF8000FFF0001FFB0
:100CE000E0003FFC0007FF8000FFF0001FFC000059
:100CF000FE7FFF871FFFFC4FFFFFE4FFFFF8E7FFCA
:100D0000FC7F00003FF0001FFE0003FFC0007FF8E3
:100D1000000FFF0001FFE0003FFC0007FF8000FF25
:100D2000F0001FFE0003FFC0007FF8000FFF00016E
:100D3000FFE0003F780003C67FFF301FFFF007FF92
:100D4000FF007FFFC007FFF00003FFF800FFFF80F8
:100D50003FFFF803FFFEC33FFFBCF0000FFF0001A1
:100D6000FFE0003FFC0007FF8000FFF0001FFE00D7
:100D700003FFC0007FF8000FFF0001FFE0003FFC11
:100D80000007FF8000FFF0001FFC0000FE7FFF87D0
:100D90001FFFFC4FFFFFE0FFFFF807FFFC600000B4
:100DA0003C00001F800003F000007E00000FC00028
:100DB00001F800003F000007E00000FC00001F8079
:100DC0000003F000007E00000FC00001F800003FAB
:100DD000000003C07FFF301FFFF007FFFF007FFF11
:100DE000C007FFF0008510EC0D207E16000000000B
:100DF0000500010000030C0601F5050006050A02C6
:100E0000F50900090D0900F41800080E0901F4267F
:100E1000000E0C1202F53B000D0C0F01F54F000205
:100E2000050501F55100040F0601F55900040F06F0
:100E300001F5610007070902F5680009090C01F8CE
:100E4000730003060401FE760004020601FC77002D
:100E500003030401FE7900060D0500F58300090C6B
:100E60000900F59100060C0901F59A00090C09002A
:100E7000F5A800080C0900F5B400080C0901F5C03C
:100E800000080C0901F5CC00080C0901F5D800098F
:100E90000C0900F5E600080C0901F5F200090C093F
:100EA00000F5000103090601F80401030C0602F82D
:100EB00009010A0A0C01F716010A050C01FA1D01C5
:100EC0000A0A0C01F82A01070C0901F535010D0C7D
:100ED0001102F549010D0C0D00F55D010B0C0C0024
:100EE000F56E010B0C0D01F57F010B0C0D01F5905A
:100EF000010B0C0C01F5A1010A0C0B01F5B0010C62
:100F00000C0E01F5C2010C0C0E01F5D401050C0705
:100F100001F5DC01080E0900F5EA010D0C0E01F5E2
:100F2000FE010B0C0C01F50F02100C1100F527024D
:100F30000B0C0D01F538020C0C0E01F54A020A0CDF
:100F40000B01F559020C0F0E01F570020C0C0D018E
:100F5000F58202080C0A01F58E020C0C0C00F5A0BB
:100F6000020B0C0D01F5B1020D0D0D00F5C70212BB
:100F70000C1200F5E2020D0C0D00F5F6020D0C0D41
:100F800000F50A030B0C0C01F51B03040F0601F519
:100F90002303060D0500F52D03040F0601F53503A7
:100FA00008070A01F53C0309010900033E03040395
:100FB0000600F4400309090900F84B030A0C0A0073
:100FC000F55A0307090800F862030A0C0A00F571D4
:100FD0000308090800F87A03070C0700F5850307E2
:100FE0000D0901F891030A0C0A00F5A003050C0590
:100FF00000F5A80306100700F5B4030A0C0A00F573
:10100000C303050C0500F5CB030F090F00F8DC0343
:101010000A090A00F8E80309090900F8F3030A0DB0
:101020000A00F804040A0D0A00F81504080908006B
:10103000F81E0405090701F82404060B0600F62D26
:10104000040A090A00F8390409090900F844040CE3
:10105000090D00F8520409090900F85D04080D099A
:1010600000F86A0407090801F8720405100700F483
:101070007C04010D0401F57E0405100702F48804C8
:1010800008020901FCFFF4921FF0CF3CE38813092A
:1010900084C247F990C84CFF13090C86401038D61B
:1010A00092D2F07C3E179393D67C103C21CF0E2435
:1010B00030A0C50334E72640B904C423308C841C17
:1010C0000F00CC06603E00E78F189C8CE4E3C79EBF
:1010D0003C72FDE0FF803244CCCCCCC46210842250
:1010E000333333326480316BB18ED68C0008040206
:1010F000010FF84020100800DF9500FFFF800C2151
:101100008610C308618430C01C3398DC7E3F1F8F7B
:10111000C7E3B198C38008E38E38E38E38E3BF3C61
:101120003F23C0E07030381818185FDFE07C8E0E67
:101130000E0C1E07030302E6F8060E0E3E2E4E8E20
:101140008EFFFF0E0E3F7E4040F8FC1E060202E4BA
:10115000F8071C3070FCE6E7E7E767663C7F3FA0D6
:10116000D040603010180C040603003CC6C6C6FC14
:101170007C3ECFC7C7C67C3E33B8DC7E3F1DCE7FEA
:1011800007070F1C00FF803FE0FF8037E5400000AD
:10119000707878783803803C03C030FFC0000000CE
:1011A000FFC0C03C03C01C01C1E1E1E0E000003D24
:1011B0009F3E70E104080070E1C00F818318C4896C
:1011C0009C4CE4672239224FE3000C101F00020000
:1011D0003001C00E00B805C04F02383FE107183D8E
:1011E000E3F0FF871CE39C739C7F0E71C738E71CFC
:1011F000E77FC01F261DC1B01E01C0380700E00EEA
:1012000004E10FC0FF0E71C738770EE1DC3B877039
:10121000CE39C67F80FFCE19C1388730FE1CC38807
:10122000702E0DC37FE0FFDC3705C4731FC731C4C8
:10123000701C0703E01F230E706E02E00E00E1FE3B
:101240000E60E70E38E0F8F9F70E70E70E70E7FE73
:1012500070E70E70E70E70EF9FFB9CE739CE739D31
:10126000F01F0E0E0E0E0E0E0E0E0E0ECECC78F9D8
:10127000F3821C20E207203F01DC0E7073C38F1C39
:101280003DF3F0F80E01C0380700E01C0380702E1B
:1012900009C37FE0F80F3C1E3C1E2E2E2E2E264E3C
:1012A000274E274E238E238E210E711FF0EE09E16B
:1012B0003E25E49E91D21E43C8390370201F830C43
:1012C00070EE07E07E07E07E07E0770E30C1F8FFA2
:1012D0001CE71DC771DCE7F1C0701C0703E00F833A
:1012E0009C70E606E07E07E07E07E0760630C19857
:1012F0000F007803E0FF073871C71C71C7387E07FD
:101300007077873C71EF8F3947C1C0F07C3E0F8307
:10131000C3C6BCFFFCE38E10E00E00E00E00E00E42
:1013200000E00E01F0F8EE09C1382704E09C1382BA
:10133000704E08E20F80FC7BC10E087081C40E2045
:101340007A01D00E803801C004002000FDFBDC389B
:10135000438710E1C438F2072E81D3A034700E1CED
:1013600003870060801020FEF3C30F103900F003E4
:10137000801E017009C08F083DF3F0FC7BC18E0810
:101380003881E807401C00E007003801C01F00FF5B
:10139000D8721E4380E01C0701C0382E0F837FE007
:1013A000FCCCCCCCCCCCCCF0C1061820C30418604B
:1013B000830CF3333333333333F0181C3426624356
:1013C000C1FF80C6307C63B1C0E1F33B9DCEFF809E
:1013D000F01C0701DC7B9C771DC771DC77393C3C36
:1013E000ED9F0E1C38393C0780E038EE77B8EE3BB5
:1013F0008EE3B8E778EF3C66E6FEE0E0E0723C3E64
:10140000EDC7C70E1C3870E1C7C031DFBF7EE79063
:1014100060FCFE0C17C0F01C0701DC7B9CE739CE9A
:10142000739CE73BFF739DE739CE739DF01C71CF32
:101430001C71C71C71C71C7DBEF01C0701CE711C3E
:101440008741F8771CE71BEFF39CE739CE739DF0DB
:10145000F738F7B9CE739CE739CE739CE739CEFFE6
:10146000FEF71EE739CE739CE739CEFFC03E31B898
:10147000FC7E3F1F8EC63E00F71EE71DC771DC775E
:101480001DCE7F1C0701C0F8003C9CEE3B8EE3B8EC
:10149000EE39CE3F80E0380E07C0F77B7070707079
:1014A0007070F87E73C78E39B010CF9C71C71C71F5
:1014B000D380F79CE739CE739CE739CE3FC0FBB8A9
:1014C0008C8743C0E070100800F7B63173A33A3D33
:1014D000A3DC18C1881080FBB88E8381C0F098CE41
:1014E000EF80F7627234343C1818101010E0E0FFFF
:1014F0001C70E3871C71FE198C6318CC618C631817
:10150000C3FFF8C318C631863318C63198F08EFD74
:1015100015161530500B0000090A0800F60C0009DA
:101520000A0800F61800090A0800F62400090A084B
:1015300000F63000090A0800F63C00090A0800F627
:101540004800090A0800F65400090A0800F660007D
:10155000090A0800F66C00090A0800F67800040A77
:101560000300F60000000000000000000000000082
:10157000000000000000000000000000000000006B
:10158000000000000000000000000000007D0009D5
:101590000A0800F600000000000000000000000043
:1015A000000000000000000000000000000000003B
:1015B000000000000000000000000000000000002B
:1015C000000000000000000000000000000000001B
:1015D000000000000000000000000000000000000B
:1015E000008900090A0800F6000000000000000061
:1015F0000000000000009500090A0800F6001F1F07
:10160000CC6633198CFE3E000000030381C06030BD
:10161000181E0F0000003F1FC023F3F180FE7F0063
:1016200000003F1FC0E3E1F01CFE7E000000319887
:10163000CC67F3F80C06030000003F9FCC07E3F8EB
:101640000CFE7E0000001F9FCC07E3F98CFE3E00DD
:1016500000003F9FC1C1C1C0E070380000001F1FE3
:10166000CC63E3F98CFE3E0000001F1FCC67F1F84D
:101670000CFE7E00000066006600001F1FCC67F3B2
:10168000F98CC663000000319DCFE7F3598CC66327
:101690000000003F1FCC67F3F180C0600000112400
:1016A0001FBECFE5D8E0DEBFCDBF10E0A0E6B0E0C2
:1016B000EAEBF1E302C005900D92A83BB107D9F720
:1016C00004D00C94DB180C9400000E94D4172FEF68
:1016D00081EE94E0215080409040E1F700C000008E
:1016E000EE24EA94F12C870120EF30E040E451E051
:1016F00060E070E080E090E07AD1E12CF12C87018D
:101700002EEE30E04EE351E061E070E081E090E0E9
:101710006ED1EFEFF4E32CE0E150F0402040E1F730
:1017200000C0000020E830E040EA50E060E070E0F7
:1017300080E090E05CD1C8E0D0E0C12CD12C7601F3
:10174000DA9401E020E830E0AE0160E070E080E093
:1017500090E043D22896C83AD10579F7C8E0D0E0A6
:10176000C12CD12C7601DA9401E09E0140EA50E0D0
:1017700060E070E080E090E030D22896C838D10573
:1017800079F78FEF94E3ECE081509040E040E1F78F
:1017900000C00000C0E1D0E00F2EF4E1AF2EB12C6C
:1017A000F02D6894662466F8712C0F2EF0E58F2ECC
:1017B000912CF02D8C2F8695B301681B71098A2D11
:1017C0008695C12CDD24DA94ED2CF12C02E09E01EB
:1017D000A501F401E81BF109CF01F7D2F4E1AF0E46
:1017E000B11C6096C039D10529F72FEF84E39CE046
:1017F000215080409040E1F700C00000E12CF12C26
:101800008701EA9420E830E040EA50E060E070E0D0
:1018100080E090E0ECD0E12CF12C87012EE730E065
:101820004EE950E061E070E081E090E0E0D0C12C52
:10183000DD24DA94ED2CF12C01E024E530E040E6E3
:1018400050E068E270E085E090E00E948316CC24CE
:10185000CA94D12C760124E130E049E850E064E1FB
:1018600070E087E190E0B9D1C12CD12C7601CA9407
:1018700025E130E049E850E065E170E087E190E083
:10188000ACD125E130E049E850E065E170E087E166
:1018900090E0A3D1CC24CA94D12C760126E934E07F
:1018A0004DE750E06AE070E089E290E00E94831624
:1018B000C12CD12C7601EA9425EE3DE04CE850E0B5
:1018C00063E270E08DE290E00E94831620E04EE13A
:1018D0006AE570E088E290E0FCD5C12CD12C76015D
:1018E000CA9421E044E16AE570E08DE290E0F1D530
:1018F000812C912C54018A946894CC24C1F80F2E29
:10190000F9E1EF2EF12CF02D09E110E024E130E0B7
:1019100045E050E065E070E085E090E009D2C12C40
:10192000D12C7601DA9402E024E130E04EE150E07F
:101930006DE270E08CE390E048D2AA24AA94BA2C1D
:10194000CA2CD12C0F2EF3E0EF2EF02D0AE010E080
:1019500029E130E04CE350E066E470E080E590E09F
:10196000DBD7CC24CA94DC2CEC2CF12C29E130E020
:101970004CE350E064E670E080E590E00E941816C9
:10198000A12CBB24BA94CB2CD12C6894EE24E1F882
:1019900000E024E130E04EE150E064E670E08CE3EA
:1019A00090E052D2EE24E39401E02FE030E049E1F0
:1019B00050E06CE370E08DE790E046D2C12CD12C72
:1019C0007601EA9425E438E047E950E068EC70E0FD
:1019D00080E090E00E9483162FE035E142EA50E07B
:1019E0006CED70E08AE090E00E948316FFCF9F923A
:1019F000AF92BF92CF92DF92EF92FF920F931F931D
:101A0000CF93DF93EC015B01F9011E2D9F2C9A010E
:101A1000DF010E94B3186B017C01CE010197480FD2
:101A2000591FC5010197E80FF91FFE2FEE27EA297C
:101A3000FB29DB98D898DA9ADB9884E485BB12BA44
:101A4000D9988AE18A95F1F700C0D99ADB9AD89A99
:101A5000DA9ADB98E5BBF2BBD9988AE18A95F1F76F
:101A600000C0D99ADB9ADB9ADB98D898DA9ADB988F
:101A700085E485BB12BAD9988AE18A95F1F700C04E
:101A8000D99ADB9AD89ADA9ADB98C5BBD2BBD99897
:101A90008AE18A95F1F700C0D99ADB9ADB9ADB9844
:101AA000D898DA9ADB9886E485BB12BAD9988AE18D
:101AB0008A95F1F700C0D99ADB9AD89ADA9ADB981E
:101AC00045BB52BBD9984AE14A95F1F700C0D99A73
:101AD000DB9ADB9ADB98D898DA9ADB988EE485BBA0
:101AE00012BAD9988AE18A95F1F700C0D99ADB9A9F
:101AF000D89ADA9ADB98A5BAB2BAD9984AE14A9547
:101B0000F1F700C0D99ADB9ADB9ADB98D898DA9A79
:101B1000DB988FE485BB12BAD9988AE18A95F1F7F0
:101B200000C0D99ADB9AD89ADA9ADB98C5BBD2BBA7
:101B3000D9984AE14A95F1F700C0D99ADB9ADB9A25
:101B4000D898DA9ADB9882E285BB12BAD9988AE1F2
:101B50008A95F1F700C0D99ADB9AC114D104E10447
:101B6000F10479F1169516951695812F90E0982F2E
:101B70008827990F990F990F069506950695802B42
:101B80009694969440E2949E90011124822B932B7C
:101B9000382F292F80E090E0DC01D89ADA9ADB9880
:101BA00035BB22BBD9984AE14A95F1F700C0D99AD2
:101BB000DB9A0196A11DB11DC816D906EA06FB06DF
:101BC00061F7DF91CF911F910F91FF90EF90DF9020
:101BD000CF90BF90AF909F9008952F923F924F92D9
:101BE0005F926F927F928F929F92AF92BF92CF92AD
:101BF000DF92EF92FF920F931F93CF93DF93CDB7B6
:101C0000DEB72E970FB6F894DEBF0FBECDBF9E870E
:101C10008D874B012A013C872B87CB82DC82ED82AA
:101C2000FE82CA012D853E85821B930B6C0122F436
:101C3000CC24DD24C81AD90A2B853C8528193909FA
:101C4000C901992324F488279927821B930B98872D
:101C50008F834D855E854415550528F08FEF9FEFE6
:101C60009A87898704C021E030E03A8729874B852D
:101C70005C858416950620F022242A94322C03C019
:101C800022242394312C56018F819885A81AB90AF1
:101C9000202F30E03A8329833C01719461947108CC
:101CA000EB80FC800D811E8129813A81A901B4015C
:101CB0008D859E859CDE8D859E858415950529F4F0
:101CC0002B853C8582169306D1F0C501880F991F9C
:101CD0006816790664F44F815885A41AB50A2D85D3
:101CE0003E8549855A85240F351F3E872D878C15E3
:101CF0009D05B4F6AC0CBD1C820C931CD1CF2E9666
:101D00000FB6F894DEBF0FBECDBFDF91CF911F910C
:101D10000F91FF90EF90DF90CF90BF90AF909F908A
:101D20008F907F906F905F904F903F902F9008958D
:101D30002F923F924F925F926F927F928F929F92DB
:101D4000AF92BF92CF92DF92EF92FF920F931F93C9
:101D5000CF93DF9300D000D000D0CDB7DEB79A8309
:101D600089831B013A0129011C830B83FE82ED82CA
:101D70001C2D75016401012F30DF2D813E814B81C7
:101D80005C81B201C30129DF910149815A816D81D2
:101D90007E818B819C8121DF26960FB6F894DEBF71
:101DA0000FBECDBFDF91CF911F910F91FF90EF90AC
:101DB000DF90CF90BF90AF909F908F907F906F906B
:101DC0005F904F903F902F9008952F923F924F92A7
:101DD0005F926F927F928F929F92AF92BF92CF92BB
:101DE000DF92EF92FF920F931F93CF93DF935C01EB
:101DF000EB0149011C01240E351E9B01A101EDDE02
:101E00008C0E9D1E9401A101B401C501E6DE940172
:101E1000A501BE01C501E1DE9401A101BE01C10120
:101E2000DCDEDF91CF911F910F91FF90EF90DF905B
:101E3000CF90BF90AF909F908F907F906F905F906A
:101E40004F903F902F9008952F923F924F925F9224
:101E50006F927F928F929F92AF92BF92CF92DF92BA
:101E6000EF92FF920F931F93CF93DF93CDB7DEB71F
:101E7000A5970FB6F894DEBF0FBECDBF3C014B0156
:101E80002A013A832983EBA2AB86BC86CD86DE8607
:101E9000449FC001459F900D900D11249C01990F06
:101EA000440B550B298B3A8B4B8B5C8B49815A81A8
:101EB000449FC001459F900D900D11249C01990FE6
:101EC000440B550B2D8B3E8B4F8B588F49895A896C
:101ED0006B897C89440F551F661F771F440F551F60
:101EE000661F771F4B8F5C8F6D8F7E8F6D897E890C
:101EF0008F89988D660F771F881F991F660F771F30
:101F0000881F991F6F8F78A389A39AA3002309F4D0
:101F100063C189819A81880F991FA1E0B0E0A81B55
:101F2000B90B29893A894B895C890E94C218CD88EE
:101F3000DE88EF88F88CCC0CDD1CEE1CFF1C9B01AE
:101F4000AC012C0D3D1D4E1D5F1D2F833887498729
:101F50005A87A981BA8129893A894B895C890E946B
:101F6000C21899230CF48DC00F2EF6E0AF2EB12CC1
:101F7000F02D212C312CC3013BA1831B9109AC0115
:101F80004F5F5F4F5A8F498FB88BAF87132FCB842A
:101F9000DC84ED84FE84012FB4018F859889681B51
:101FA000790B9B01A98DBA8DA20DB31DBA83A983AC
:101FB000AD01C301821993099E838D830EDECB840C
:101FC000DC84ED84FE846F857889680D791D9B0122
:101FD00049815A818D819E8100DE2F813885498516
:101FE0005A855523F4F0A1E0B0E04F855889A41B31
:101FF000B50B2B8D3C8D4D8D5E8D0E94C2182F81AF
:10200000388549855A85260F371F481F591F2F834A
:10201000388749875A874F85588941505109588BCD
:102020004F87D5012D893E894F89588D0E94C2184E
:102030002F81388549855A85260F371F481F591F1C
:102040002F83388749875A873FEF231A330A44E0A2
:10205000A40EB11CD1012D893E894F89588D0E9453
:10206000C2186B017C01AF85B88929893A894B89EF
:102070005C890E94C2186C157D058E059F050CF0C9
:1020800086CFC201880F991FA1E0B0E0A81BB90B51
:102090002D893E894F89588D0E94C218C988DA88D7
:1020A000EB88FC88CC0CDD1CEE1CFF1C9B01AC01FA
:1020B0002C0D3D1D4E1D5F1D29833A834B835C8390
:1020C000D2012D893E894F89588D0E94C2189923CB
:1020D0000CF4E6C10F2EF6E0AF2EB12CF02D212C22
:1020E000312C5BA1452F50E0588B4F871BA1C301BA
:1020F000840D951D0196BC01AF85B8896A1B7B0BC9
:1021000078876F83CB84DC84ED84FE84012FB40157
:10211000621973099B014F815885C3018419950980
:102120009E838D835ADDCB84DC84ED84FE84B401F0
:10213000620D731D9B014F8158858D819E814DDD00
:1021400029813A814B815C815523CCF0A1E0B0E03C
:10215000A419B5092F8D38A149A15AA10E94C2180E
:1021600029813A814B815C81260F371F481F591FF7
:1021700029833A834B835C8331E0431A5108D501AC
:1021800029893A894B895C89FDD729813A814B811C
:102190005C81260F371F481F591F29833A834B83C1
:1021A0005C833FEF231A330A44E0A40EB11CD10133
:1021B00029893A894B895C89E5D76B017C01D20179
:1021C0002D893E894F89588DDDD76C157D058E058B
:1021D0009F050CF08CCF64C189819A81880F991F6B
:1021E000A1E0B0E0A81BB90B29893A894B895C8929
:1021F000C9D7CD88DE88EF88F88CCC0CDD1CEE1CAE
:10220000FF1C56016701A60EB71EC81ED91EA98164
:10221000BA81B8D799230CF48DC066E070E07A8F4C
:10222000698F212C312C9BA1892F90E09E838D8377
:10223000BDA3ACA3EB84FC840D851E852D813E815E
:10224000A901ACA1BDA1A80DB91DBA83A983BD0187
:10225000C101860D971D98878F83C9DBEB84FC84B1
:102260000D851E852D813E81A90169817A81D30169
:10227000A219B309B88BAF87CD01B9DBEB84FC841D
:102280000D851E852D813E81A901B4018CA19DA1E2
:10229000681B790B7A8369838F819885A8DBEB842F
:1022A000FC840D851E852D813E81A90169817A817D
:1022B0008F8598899CDBDD20ACF0A1E0B0E02CA1FB
:1022C0003DA1A21BB30B2B8D3C8D4D8D5E8D5AD73E
:1022D000A60EB71EC81ED91E4CA15DA141505109C2
:1022E0005DA34CA3A98DBA8D2D893E894F89588D48
:1022F00049D7A60EB71EC81ED91E5FEF251A350A8C
:10230000BD016C5F7F4F7A8F698FD1012D893E8926
:102310004F89588D37D77B018C01ACA1BDA129898C
:102320003A894B895C892ED76E157F058007910706
:102330000CF080CFC201880F991FA1E0B0E0A81B6C
:10234000B90B2D893E894F89588D1CD7C988DA88E9
:10235000EB88FC88CC0CDD1CEE1CFF1C9B01AC0147
:102360002C0D3D1D4E1D5F1D2F83388749875A87D1
:10237000D2012D893E894F89588D04D799230CF4B9
:102380008FC00F2EF6E0AF2EB12CF02D212C312C6A
:102390005BA1452F50E0588B4F87EB84FC840D8563
:1023A0001E852F853889A9016101C80CD91CB60189
:1023B000C301840D951D9E838D8319DBEB84FC8402
:1023C0000D851E852F853889A901B601D301A41971
:1023D000B509BA83A983CD010ADBEB84FC840D85A2
:1023E0001E852F853889A9016401C218D308B6015A
:1023F0008D819E81FCDAEB84FC840D851E852F8502
:102400003889A901B60189819A81F1DA2F8138854D
:1024100049855A855523C4F0A1E0B0E0A419B50957
:102420002F8D38A149A15AA1ADD62F813885498574
:102430005A85260F371F481F591F2F833887498712
:102440005A8731E0431A5108D50129893A894B89C5
:102450005C8998D62F81388549855A85260F371F84
:10246000481F591F2F83388749875A873FEF231A00
:10247000330A44E0A40EB11CD10129893A894B8961
:102480005C8980D66B017C01D2012D893E894F8900
:10249000588D78D66C157D058E059F050CF07DCF87
:1024A000A5960FB6F894DEBF0FBECDBFDF91CF91DA
:1024B0001F910F91FF90EF90DF90CF90BF90AF9062
:1024C0009F908F907F906F905F904F903F902F9054
:1024D00008952F923F924F925F926F927F928F92C8
:1024E0009F92AF92BF92CF92DF92EF92FF920F93A3
:1024F0001F93CF93DF93CDB7DEB765970FB6F894F0
:10250000DEBF0FBECDBF5C012B012B8BCF82D886E7
:10251000E986FA86242E312C81E090E03C01621895
:10252000730821E030E0388B2F879E878D87C12C80
:10253000D12C802E912CBD8AAC8ADA8AC98A9B89DB
:10254000913021F5C101880F991F9C012F5F3F4FEA
:102550003C832B83EF80F88409851A854F85588941
:10256000B201621973098C899D8941DAEF80F88480
:1025700009851A852F8538894B815C81B2016C19D8
:102580007D09C5018219930932DA71C0EF80F884A0
:1025900009851A859401A401C201820D931D9C83B3
:1025A0008B83BC01C5018C0D9D1D9C878B871FDA19
:1025B000EF80F88409851A859401A401C2018C0D6D
:1025C0009D1D9E838D83BC01C501820D931D9A8341
:1025D00089830DDAEF80F88409851A859401A401B6
:1025E0006B817C818C899D8902DAEF80F884098572
:1025F0001A859401A4016D817E81C5018219930918
:102600009C838B83F4D9EF80F88409851A85940123
:10261000A401C2018C199D099E838D83BC0189810F
:102620009A81E5D9EF80F88409851A859401A4017F
:10263000C201821993099A838983BC018B859C8589
:10264000D6D9EF80F88409851A859401A40169819F
:102650007A818C899D89CBD9EF80F88409851A8588
:102660009401A4016D817E818B819C81C0D97720EA
:102670005CF493E0690E711CC601880F991F680E07
:10268000791E8D859E8510C025E0620E711C89899A
:102690009A8982199309880F991F680E791E8D8572
:1026A0009E8531E0231A31082FEFC21AD20A2D85F8
:1026B0003E852F5F3F4F3E872D872C893D892150D6
:1026C00031093D8B2C8B2F8538892E5F3F4F388BFE
:1026D0002F87281639060CF030CF65960FB6F89480
:1026E000DEBF0FBECDBFDF91CF911F910F91FF9045
:1026F000EF90DF90CF90BF90AF909F908F907F90A2
:102700006F905F904F903F902F9008952F923F923F
:102710004F925F926F927F928F929F92AF92BF92F1
:10272000CF92DF92EF92FF920F931F93CF93DF939D
:10273000CDB7DEB72E970FB6F894DEBF0FBECDBF74
:102740002C014B015A01CB82DC82ED82FE8281E0BA
:1027500090E06C01C41AD50A88279927841B950B31
:102760003C01660C771C141615060CF0BCC0222424
:102770002394312C922F94709987E02FF0E0FA8304
:10278000E983F22FF270FA87822F88708B8721708D
:102790002C87E1E0F0E0FE87ED87DD2044F0F1E0FA
:1027A000AF1AB10882E0680E711CC60CD71CED850B
:1027B000FE85F887EF83F2E02F0E311CC20CD31C8C
:1027C00089858823F1F0EB80FC800D811E812981B1
:1027D0003A81A901B501680D791D8D859E85840D0D
:1027E000951D05D9EB80FC800D811E8129813A81E0
:1027F000A9016D857E85680D791DC501840D951D26
:10280000F6D89A859923F9F0EB80FC800D811E8122
:1028100029813A81A901B4016A197B098D859E85B8
:10282000840D951DE4D8EB80FC800D811E812981EB
:102830003A81A901B401ED85FE856E1B7F0BC501B0
:10284000840D951DD4D8FB85FF23F9F0EB80FC8027
:102850000D811E8129813A81A9016D857E85680DD2
:10286000791DC2018A199B09C2D8EB80FC800D81B9
:102870001E8129813A81A901B501680D791DC20126
:10288000ED85FE858E1B9F0BB2D8FC85FF2301F1E1
:10289000EB80FC800D811E8129813A81A901B40160
:1028A0008D859E85681B790BC2018A199B099FD86B
:1028B000EB80FC800D811E8129813A81A901B40140
:1028C0006A197B09C201ED85FE858E1B9F0B8FD88F
:1028D0008D859E8501969E878D87EF81F885EA1507
:1028E000FB050CF45ACF2E960FB6F894DEBF0FBE40
:1028F000CDBFDF91CF911F910F91FF90EF90DF90AF
:10290000CF90BF90AF909F908F907F906F905F908F
:102910004F903F902F9008952F923F924F925F9249
:102920006F927F928F929F92AF92BF92CF92DF92DF
:10293000EF92FF920F931F93CF93DF93CDB7DEB744
:102940002C970FB6F894DEBF0FBECDBF98878F834C
:102950007A876987190148011E2DA982BA82CB8224
:10296000DC823C01640E751E4E2C512CC20188196C
:102970009909860D971D9C878B878F819885880D77
:10298000991D9E838D8376016501012F9B014B85E7
:102990005C8523D9A984BA84A20CB31C150191E0EB
:1029A000291A3108C980DA80EB80FC8091014B85BF
:1029B0005C85B1018D819E8110D9A418B508A81835
:1029C000B90889859A85880D991D9A878987C98054
:1029D000DA80EB80FC8095014F815885BC01CA01EB
:1029E000FCD8C3010197C980DA80EB80FC80950197
:1029F000AC0169857A85F1D8C980DA80EB80FC80EA
:102A000021E0A40169857A858D819E817FDE540154
:102A1000A094B094A60CB71CC980DA80EB80FC802F
:102A200022E0A40169857A85C50170DEC10188199B
:102A3000990998878F83C980DA80EB80FC8024E035
:102A4000A401BC01C50162DEC980DA80EB80FC8094
:102A500028E0A4016F8178858D819E8157DE2C96B8
:102A60000FB6F894DEBF0FBECDBFDF91CF911F919F
:102A70000F91FF90EF90DF90CF90BF90AF909F901D
:102A80008F907F906F905F904F903F902F90089520
:102A90002F923F924F925F926F927F928F929F926E
:102AA000AF92BF92CF92DF92EF92FF920F931F935C
:102AB000CF93DF93CDB7DEB72F970FB6F894DEBF75
:102AC0000FBECDBF4C013B015A011D870C87CF8241
:102AD000D886E986FA8681E090E01C01241A350A3E
:102AE00088279927841B950BAC01440F551F5C83E5
:102AF0004B831A141B040CF082C0CB0101979A83FC
:102B00008983C80101962C01460E571E41E050E012
:102B1000122F117022702B875F874E87332054F05D
:102B200051E0A51AB1088B819C8102969C838B830E
:102B3000280E391E4E855F855E834D83CA01880F3E
:102B4000991F0196280E391E112301F193012A0DB8
:102B50003B1D8C859D85280F391FCF80D884E98443
:102B6000FA8401E0CA01880D991DAC01B3016A190C
:102B70007B0933D8CF80D884E984FA849201C501D7
:102B8000880D991DAC0169817A8127D89B8599238D
:102B900011F193012A0D3B1D4C855D85240F351FD6
:102BA000CF80D884E984FA8401E0C4014E855F8532
:102BB000841B950BAC01B3016A197B090ED8CF8039
:102BC000D884E984FA849201C4018A199B09AC0172
:102BD00069817A8102D88E859F8501969F878E872D
:102BE00049815A81415051095A8349835FEF451AFF
:102BF000550A8D819E818A159B050CF48FCF2F96E7
:102C00000FB6F894DEBF0FBECDBFDF91CF911F91FD
:102C10000F91FF90EF90DF90CF90BF90AF909F907B
:102C20008F907F906F905F904F903F902F9008957E
:102C30002F923F924F925F926F927F928F929F92CC
:102C4000AF92BF92CF92DF92EF92FF920F931F93BA
:102C5000CF93DF9300D000D000D0CDB7DEB75C01BA
:102C60002B011A0149011E830D83C982DA82EB828E
:102C7000FC826801CC0CDD1C3801680E791E4C19F1
:102C80005D09E980FA800B811C81C3010E94F70C69
:102C900081E0881A91088C189D08ED81FE814E0E06
:102CA0005F1EC5010197820D931DC980DA80EB80FC
:102CB000FC80840121E0AF01B2018E1B9F0BE8DE96
:102CC000C980DA80EB80FC8022E04D815E81B20118
:102CD000C301DEDE26960FB6F894DEBF0FBECDBF71
:102CE000DF91CF911F910F91FF90EF90DF90CF90E8
:102CF000BF90AF909F908F907F906F905F904F901C
:102D00003F902F9008952F923F924F925F926F9233
:102D10007F928F929F92AF92BF92CF92DF92EF926B
:102D2000FF920F931F93CF93DF93CDB7DEB7A19799
:102D30000FB6F894DEBF0FBECDBFA82EB92E5D8BA7
:102D40004C8BC88ED98EEA8EFB8E8E8F9F8F6A8BAE
:102D50007B8B47E050E0B901CE01019623D22C894C
:102D60003D893F8B2E8BA88AB98A612C712C202E2D
:102D7000312C0C8F3D8EF1C0EE89FF898191FF8B44
:102D8000EE8B8A3089F42F81229DC001239D900D06
:102D900011242A893B89280F391F3B8B2A8B3E8DB2
:102DA000388B6F8D698BD6C02D81821708F4D2C005
:102DB0009E81981708F4CEC08D3009F4CBC090E006
:102DC000821B9109BC01660F771F660F771F660F84
:102DD000771FFB01E81BF90B6B817C816E0F7F1F56
:102DE00047E050E0CE010896DDD189809A80C88402
:102DF000D9848B85811199C0A1C0A12C80E090E07D
:102E0000FF854F2E512CB1100BC096012F5F3F4F05
:102E1000F401EC0DFD1D749069016894BB24B7F8B2
:102E2000272D2B2111F0019639C00097B9F1289E6A
:102E3000A001299E500D389E500D11242E85B201FF
:102E4000620F711D27FD7A959B01229DB001239D84
:102E5000700D329D700D1124EA89FB896E0F7F1F62
:102E6000ED852A2D30E02E0F311DE7FD3A95281B08
:102E7000390B229DC001239D900D329D900D112490
:102E8000E88CF98C0A8D1B8D2C8D3D8DE889F98994
:102E90008E0F9F1F0E94F70C80E090E0B694A394E1
:102EA0002A85A21608F4AFCF0097B1F1289EA001A1
:102EB000299E500D389E500D11246E85FF852F2FB1
:102EC00030E0260F311D67FD3A95229DB001239D0C
:102ED000700D329D700D11242A893B89620F731F7A
:102EE000ED852A2D30E02E0F311DE7FD3A95281B88
:102EF000390B229DC001239D900D329D900D112410
:102F0000E88CF98C0A8D1B8D2C8D3D8DE889F98913
:102F10008E0F9F1F0E94F70CFF85FF5FFF878B8539
:102F2000F81740F068A079A009C01F86B12C79A2DB
:102F300068A27B2C8A85811160CFEECF2C85229DE3
:102F4000C001239D900D112428893989280F391F2C
:102F5000398B288B3FEF631A730AEC89FD89019046
:102F60000020E9F731976C897D89E61BF70B6E1617
:102F70007F0608F401CFA1960FB6F894DEBF0FBE0E
:102F8000CDBFDF91CF911F910F91FF90EF90DF9018
:102F9000CF90BF90AF909F908F907F906F905F90F9
:102FA0004F903F902F9008958FEF84BB81BB8ABBD9
:102FB0002FEF31EE84E0215030408040E1F700C037
:102FC0000000DC9ADB98D898DA9ADB9887E085BB1A
:102FD00012BAD9989AE19A95F1F700C0D99ADB9A7A
:102FE000D89ADA9ADB9891E295BB12BAD9982AE17D
:102FF0002A95F1F700C0D99ADB9ADB9ADB98D8982A
:10300000DA9ADB9815BA12BAD9983AE13A95F1F7FB
:1030100000C0D99ADB9AD89ADA9ADB9891E095BBEE
:1030200012BAD9989AE19A95F1F700C0D99ADB9A29
:10303000DB9ADB98D898DA9ADB9885BB12BAD998D4
:103040002AE12A95F1F700C0D99ADB9AD89ADA9A40
:10305000DB9893E295BB12BAD9983AE13A95F1F729
:1030600000C0D99ADB9ADB9ADB98D898DA9ADB9879
:1030700090E195BB12BAD9989AE19A95F1F700C000
:10308000D99ADB9AD89ADA9ADB9815BA12BAD998F3
:103090002AE12A95F1F700C0D99ADB9ADB9A3FEF33
:1030A00096E721E0315090402040E1F700C0000059
:1030B000DB98D898DA9ADB9885BB12BAD9983AE1AE
:1030C0003A95F1F700C0D99ADB9AD89ADA9ADB9848
:1030D00083E385BB12BAD9988AE18A95F1F700C0DB
:1030E000D99ADB9ADB9ADB98D898DA9ADB9881E157
:1030F00085BB12BAD9989AE19A95F1F700C0D99A8E
:10310000DB9AD89ADA9ADB9888E385BB88E682BB9B
:10311000D9982AE12A95F1F700C0D99ADB9ADB9A6F
:10312000DB98D898DA9ADB9882E085BB12BAD998F6
:103130003AE13A95F1F700C0D99ADB9AD89ADA9A2F
:10314000DB9815BA86E082BBD9988AE18A95F1F7B7
:1031500000C0D99ADB9ADB9A8FE39CE90197F1F7DB
:1031600000C000000895A29FB001B39FC001A39FBB
:10317000700D811D1124911DB29F700D811D1124B0
:10318000911D0895B7FF04C003D0821B930B0895CF
:10319000EADFA59F900DB49F900DA49F800D911D17
:1031A00011240895FB01DC0102C005900D924150ED
:0A31B0005040D8F70895F894FFCFBF
:1031BA00546869732069730A206A757374206120E0
:1031CA00546573740A5354373733350A00535344DA
:1031DA0031323839204452495645520053544D2011
:1031EA0033322048414C003132333435363738399E
:1031FA00300031323334353637383930205445537C
:08320A005420464F4E54000011
:00000001FF
