:100000000C94350A0C944A0A0C944A0A0C944A0A35
:100010000C944A0A0C944A0A0C944A0A0C944A0A10
:100020000C944A0A0C944A0A0C944A0A0C944A0A00
:100030000C944A0A0C944A0A0C944A0A0C944A0AF0
:100040000C944A0A0C944A0A0C944A0A0C944A0AE0
:100050000C944A0A0C944A0A0C944A0A0C944A0AD0
:100060000C944A0A0C944A0A08036F00207E180078
:100070000000000E00010000030F0E06F20600084B
:10008000070E03F20D000A100E02F221000A110EF3
:1000900002F237000A0F0E02F24A00090C0E03F5B5
:1000A000580003070E05F25B0003120E07F2620010
:1000B00003120E04F2690009090E03F27400090B21
:1000C0000E03F5810005070E03FD86000B010E02ED
:1000D000FA880003030E05FE8A0009120E03F19F41
:1000E00000090F0E03F2B000070E0E04F3BD000965
:1000F0000F0E02F2CE000A0F0E02F2E100080F0E00
:1001000003F2F000090F0E03F20101090F0E03F2D2
:100110001201080F0E03F22101090F0E03F2320142
:10012000090F0E03F24301030A0E05F74701050DFF
:100130000E03F750010B0B0E02F560010C040E01CB
:10014000F866010B0B0E02F57601090E0E03F3861D
:100150000109100E03F298010E0E0E00F3B1010B0F
:100160000E0E02F3C5010A0E0E02F3D7010A0E0E9F
:1001700002F3E9010B0E0E02F3FD010B0E0E02F36A
:1001800011020B0E0E02F325020A0E0E02F33702C5
:10019000070E0E04F344020B0E0E02F358020C0E6F
:1001A0000E02F36D020B0E0E02F381020D0E0E0114
:1001B000F398020C0E0E01F3AD020C0E0E01F3C209
:1001C000020A0E0E02F3D4020C110E01F3EE020C21
:1001D0000E0E02F303030A0E0E02F315030B0E0EAE
:1001E00002F329030C0E0E01F33E030E0E0E00F374
:1001F00057030E0E0E00F370030C0E0E01F3850371
:100200000C0E0E01F39A03090E0E03F3AA03031258
:100210000E07F2B10309120E03F1C60303120E0515
:10022000F2CD0309060E03F2D4030E010E0003D62D
:100230000304040E04F1D8030A0A0E02F7E5030DC5
:100240000F0E00F2FE030B0A0E02F70C040B0F0E4A
:1002500002F221040A0A0E02F72E04090F0E04F21C
:100260003F040B0E0E02F753040A0F0E02F266044F
:10027000090F0E03F2770407130E03F288040C0F24
:100280000E01F29F04090F0E03F2B0040D0A0E01D5
:10029000F7C1040C0A0E01F7D0040B0A0E02F7DEB8
:1002A000040C0E0E01F7F3040B0E0E02F707050AFD
:1002B0000A0E03F714050A0A0E02F721050B0E0EAB
:1002C00001F335050B0A0E02F743050D0A0E01F77F
:1002D00054050D0A0E01F765050C0A0E01F77405A9
:1002E0000C0E0E01F78905090A0E03F79505051294
:1002F0000E05F2A10501120E07F2A40505120E0566
:10030000F2B0050A030E02F94924924801F8E7E722
:1003100067424242420902411044111FF1104C123F
:100320003FE1204812048120480407A2190240102E
:1003300003003C0080100601E0A7C0401004003C10
:1003400019842108660F000C1C7801E0CC210843B9
:1003500030783E30100802030347148A43118F603F
:10036000FDA4900525249248922411248924929278
:10037000900004021107F0C0504842000804020136
:100380000087FC2010080402003B9CCE6200FFE0C6
:10039000FF800080C04020201010080804040202E2
:1003A000010100808040001C319058380C06030188
:1003B00080C060303413187030E1448102040810AA
:1003C0002040811FC01E10906810080C0404040611
:1003D0000606060E07FE3E10400802008040E004BC
:1003E000008010040100D863E0060A0A12222242AB
:1003F000428282FF0202020F7F2010080402F18C69
:100400000300804020181618F00F8C08080404021E
:100410007946C1E0602814190878FF818102020240
:100420000204040404080808083E31B070180C05E2
:100430008C3863406030181B18F83C313050280C61
:100440000F06853C804040202063E0FF8007FC3998
:10045000CE0000063398C40000C060180C0601806E
:100460000C00600300300100FFF000000FFFC00629
:1004700000300180180180C030180C0200003E607E
:10048000A02010080818100800000001C0E01C316E
:10049000105028143A2522914CA3F0080201807CC8
:1004A0003F000C00480120044021008404081FE0A4
:1004B00040820108042013E1F0FF08110120240408
:1004C000811FC20640680500A01405FF001E487485
:1004D0000501802008020080200401013087C0FE51
:1004E0001044090240501405014050140D02413FD0
:1004F00080FFC80901200400881F02204008010075
:10050000A01403FFC0FFE80500A00400881F02201C
:1005100040080100200401F0001F46190160280175
:100520000020040083F00B0120230C3E00E1D024C6
:100530000902409027F902409024090240B870FE59
:10054000204081020408102040811FC00FE01002EB
:10055000004008010020048090120240C6307C0058
:10056000F1E40C4104204404805C06604304104024
:10057000840840CF07F80400801002004008010002
:1005800020040480901203FFC0E03B019414A0A457
:100590008924491448A24512109004802401783C13
:1005A000E0F6025025024824C2442422432412408B
:1005B000A40A406F060F030C6064028018018018C3
:1005C0000180180140260630C0F0FF10640501408C
:1005D000503419FC4010040100403E000F030C6031
:1005E000640280180180180180180140260630C17D
:1005F000F00C01F130E0FF041840C40440440C4109
:1006000087E0430410408404404F031F4834050131
:10061000400801C00E0040180601E1A7C0FFF086A7
:100620001082004008010020040080100200407F7A
:1006300000F0F4024024024024024024024024023C
:1006400040220430C0F0F87C8022010404102040D5
:1006500080820210084011004801A003000C00F83D
:100660007C80220088C223108E4229092424909184
:100670004185061418706080F0F206304108098048
:10068000500600600D008810C204602F0FF0F202C7
:1006900010410408805005002002002002002002C2
:1006A00001FCFF40A0904040402020201050301816
:1006B0000FFCF249249249249C806010080201003A
:1006C0004020080401008020100402008040E492D1
:1006D000492492493C080C090C4C1404FFFC842169
:1006E0003E006008023F98280A02C39F30E00100E4
:1006F000080040020013E0A08602200900480240E2
:100700001301141B9F001F4C1901402801002002F7
:10071000006043F000C008010020043C98520680AD
:10072000500A0140240CC287983F18680601FFE078
:1007300008030060C7C00F9808040207F880402033
:10074000100804020103F81E6C390340280500A0BC
:1007500012066143C8010020083E00C010040100D9
:100760004013871182409024090240902E1C0804F7
:1007700002000003C0201008040201008043FE04B0
:100780000810001FC08102040810204081020BE005
:10079000E0020020020020023C2102602C038024A1
:1007A0000220210208E1F0780402010080402010BC
:1007B00008040201008043FEDCE3199084842421B4
:1007C0002109084842421718C0678384202202206A
:1007D0002202202202202F071F04110140180300CB
:1007E000600A022083E0CF850660240140140140A6
:1007F00016025044F8400400400F001E6C3B0340BA
:10080000280500A012066143C80100200403C0E3CC
:100810008B1380802008020080203F801F58340501
:10082000801E00600601C0AFC020040080100FF0E1
:1008300040080100200400801003043F00C1C809E3
:10084000012024048090120261C7CCF8F90108103D
:10085000608108084022012005003000F07A011074
:10086000088C42621290A5051828C0860078F3040F
:100870001880D006007009810C206F8FF0F20220E2
:100880004104108088090050060020040040080F31
:10089000E0FF410080808080808040BFC019084216
:1008A0001084641842108420C0FFFFC0C1084210A9
:1008B00084104C4210842600381338385C0BC3086F
:1008C000207E12000000000B00010000020B0B0450
:1008D000F6030006050B02F60700070C0B02F612E2
:1008E00000080C0B01F61E00070B0B02F628000790
:1008F0000A0B02F7310003050B04F63300020D0B5F
:1009000005F63700020D0B04F63B0007070B02F655
:10091000420007070B02F8490003050B02FF4B00DA
:1009200009010B01FB4D0002020B04FF4E00070DF5
:100930000B02F55A00070B0B02F66400050B0B03C4
:10094000F66B00070B0B02F67500080B0B01F68027
:1009500000060B0B03F68900070B0B02F69300074A
:100960000B0B02F69D00070B0B02F6A700070B0B03
:1009700002F6B100070B0B02F6BB0002080B04F9EC
:10098000BD00030B0B03F9C20008080B01F8CA00F5
:1009900009040B01FACF0009080B01F8D800070A77
:1009A0000B02F7E100080C0B02F6ED000B0A0B003E
:1009B000F7FB00090A0B01F70701090A0B01F713FE
:1009C00001090A0B01F71F01090A0B01F72B0109A5
:1009D0000A0B01F737010A0A0B01F74401090A0B58
:1009E00001F75001050A0B03F75701080A0B02F73C
:1009F0006101090A0B01F76D01080A0B02F7770183
:100A00000B0A0B00F78501090A0B01F79101090A8E
:100A10000B01F79D01080A0B01F7A701090D0B0156
:100A2000F7B601090A0B01F7C201070A0B02F7CB5F
:100A300001090A0B01F7D701090A0B01F7E3010BC2
:100A40000A0B00F7F1010B0A0B00F7FF01090A0B73
:100A500001F70B02090A0B01F71702070A0B02F74D
:100A60002002020D0B05F62402070D0B02F53002E1
:100A7000020D0B04F6340207050B02F639020B01D6
:100A80000B00023B0203030B03F53D0209080B01B7
:100A9000F94602090B0B01F6530207080B02F95A3B
:100AA00002090B0B01F6670208080B01F96F020639
:100AB0000B0B03F67802090B0B01F98502090B0BEE
:100AC00001F69202070A0B02F79B02050D0B03F7D2
:100AD000A402080B0B02F6AF02070B0B02F6B902D9
:100AE00009080B01F9C20209080B01F9CB02090838
:100AF0000B01F9D402090B0B01F9E102090B0B01FF
:100B0000F9EE0207080B03F9F50207080B02F9FCDE
:100B100002080A0B02F7060308080B01F90E030985
:100B2000080B01F9170309080B01F9200309080B49
:100B300001F92903090B0B01F9360307080B02F928
:100B40003D03030D0B04F64203010D0B05F64403B0
:100B5000030D0B04F6490307030B02FAAAA80CEDD8
:100B60002492482448912FE4897F28512240083E4E
:100B70006240300E0181C3BE08087112238023B881
:100B80000E224470388102061A6546C8ECE9245AE0
:100B9000AAA940A9555A8010224BE3051100102044
:100BA00047F10204006B48FF00F002081060810466
:100BB000082041020800388A0C183060C18288E0A1
:100BC0002728421084213E388A08102082086103B9
:100BD000F87C0602021C06010101423C18A2928A1E
:100BE00028BF0821C07C8103E44040810388E01EC7
:100BF00041040B98B0C1C288E0FE04082040820482
:100C0000082040388A0C14471141838CE0388A1C34
:100C10001868CE810413C0F00F6C00D2D200030418
:100C2000186060180403FF80001FF0401803006084
:100C30002060C0803D840830C2000000303C468205
:100C40008EB2A2A29F8080403C3C01402809011046
:100C5000420FC104409E3CFE21904867E209028198
:100C600041FF803EB0F0300804020080608F80FEBB
:100C7000219068140A050283437F00FF20900887B3
:100C8000C221008140FFC0FFA0500887C221008020
:100C90004078001E986C0A008020F80B026087C024
:100CA000E3A0904827F20904824171C0F90842107C
:100CB0008427C01F02020202028282C678E3A111C9
:100CC0000905832108844170C0E040404040404114
:100CD0004141FFE0EC194528A4A494911202405C24
:100CE0001CC3B0944A249249148A4370801E3190E8
:100CF00050180C060282630F00FE434141427C40C3
:100D00004040F01C319050180C060282631F04070B
:100D10009230FE2190482423E110844170C03ACDE6
:100D20000A030180C1C778FFC462210080402010FF
:100D3000081F00E3A090482412090482220E00F14B
:100D4000E81082104210220480500C0080F1E80963
:100D5000112544A8550CA18C318430E3A0888280F1
:100D600080C090444171C0E3A0888281404020103F
:100D7000081F00FD0A208104102183FCEAAAAAC0F2
:100D8000808103020404080810102020D55555C0A6
:100D90001051222820FFE088807E008047EC140A52
:100DA0000CFBC020100BC61205028140B0B7803A80
:100DB0008E0C0810109E03008047A4340A0502819F
:100DC000218F603C4381FF8080613E3D043E4104B1
:100DD00010410F803DA1A0502814090C7A01018711
:100DE00080C020100BC6320904824120B8E01001F7
:100DF000C08102040811FC103E10842108423F000B
:100E0000C040404F445870484442C770204081025F
:100E100004081023F8B7646231188C4623915E31C0
:100E2000904824120905C73E31A030180C058C7C6F
:100E3000DE309028140A0584BC402038003DA1A073
:100E4000502814090C7A010080E0CEA18204081019
:100E50007C3A8D0B80F070DE4040FC4040404040CA
:100E6000413EC34141414141433DE3A09084422082
:100E7000A05010E3C0924B2592A99844E33105019C
:100E800001411105C7E3A090844240A06010100802
:100E90003E00FD0820820810BF2924A24926FFF841
:100EA00089248A492C6124304811AF0E207E10001D
:100EB0000000000800000000010E0803F102000419
:100EC000060802F10500060E0801F11000050E08E3
:100ED00001F11900060C0801F32200060E0801F1C9
:100EE0002D0001060803F12E00030E0801F1340065
:100EF000030E0803F13A00050E0801F14300050A4C
:100F00000801F34A0002060803F94C000602080132
:100F1000F74E0001020803FD4F00060C0801F358CC
:100F200000060E0801F16300030E0803F1690006D4
:100F30000E0801F17400060E0801F17F00060E088C
:100F400001F18A00060E0801F19500060E0801F174
:100F5000A000060E0801F1AB00060E0801F1B60074
:100F6000060E0801F1C10001060803F5C2000209DE
:100F70000803F5C500040E0802F1CC0006060801BE
:100F8000F5D100040E0802F1D80002040801F1D9DD
:100F900000060E0801F1E400060E0801F1EF00065C
:100FA0000E0801F1FA00060E0801F10501060E080F
:100FB00001F11001060E0801F11B01060E0801F1F6
:100FC0002601060E0801F13101060E0801F13C016F
:100FD000030E0802F14201060E0801F14D01060E52
:100FE0000801F15801060E0801F16301060E08011F
:100FF000F16E01060E0801F17901060E0801F18477
:1010000001060E0801F18F01060E0801F19A010692
:101010000E0801F1A501060E0801F1B001050E0848
:1010200001F1B901060E0801F1C401060E0801F133
:10103000CF01060E0801F1DA01060E0801F1E50103
:10104000050E0801F1EE01060E0801F1F901060E88
:101050000801F10402060C0801F30D02060E080156
:10106000F1180205060801F51C0206020801FD1E22
:101070000203060802F12102060A0801F529020608
:101080000E0801F13402060A0801F53C02060E08BA
:1010900001F14702060A0801F54F02060E0801F1A8
:1010A0005A02060C0801F56302060E0801F16E02F1
:1010B000030E0802F1740205100801F17E02060E0B
:1010C0000801F18902030E0802F18F02060A0801E5
:1010D000F59702060A0801F59F02060A0801F5A71E
:1010E00002060C0801F5B002060C0801F5B902066B
:1010F0000A0801F5C102060A0801F5C902060E0830
:1011000001F1D402060A0801F5DC02060A0801F51D
:10111000E402060A0801F5EC02060A0801F5F402E9
:10112000060C0801F5FD02060A0801F50503060E86
:101130000801F11003010E0803F11203060E080165
:10114000F11D0305060801F5FFCC999999492492F0
:10115000FFF492FFF4924920211EFA51CE297DE23C
:1011600010C71CB21042084D38E36189249246181A
:101170009658A275D0FC2529249122409122492518
:101180002900212B57388473AB521021084FFC845F
:10119000210055A0FFF0C004108210420841082031
:1011A00079E8618E3B6DC7186179E04B6492492FF5
:1011B000C079E86104138E410820FFF0FFF0410878
:1011C000238E04186179E008218628A492FFF0821A
:1011D0000820FFF820FBE04104186179E03CF4109E
:1011E000820FBE86186179E0FFF041082104208259
:1011F00008208079E86186179E86186179E079E891
:10120000618617DF041082F3C0CC50558011224450
:1012100088442211FFF000FFF08844221122448804
:101220005A79E861965AEB9A68207DF030C492862C
:101230001861FFF8618610FBE861861FBE861861A1
:10124000FBE079E86182082082086179E0FBE861CF
:10125000861861861861FBE0FFF820820FBE8208C5
:1012600020FFF0FFF820820FBE82082082007DF868
:10127000208208279E18617DF0861861861FFF86F0
:1012800018618610FD2492492FC0041041041041BA
:1012900004186179E08618A2924E389248A286100E
:1012A000820820820820820820FFF0861CF3B6DB2B
:1012B0006D8618618610861C71A69B6D9658E38614
:1012C0001079E86186186186186179E0FBE861862B
:1012D0001FBE820820820079E8618618619658A2B4
:1012E00075D0FBE861861FBE9248A2861079E8613E
:1012F00082079E04186179E0FFC8421084210842E9
:101300001086186186186186186179E086186186F2
:10131000186186149230C0861861861B6DB6DCF3A6
:10132000861086186149230C49286186108C631544
:10133000288421084210FFF04108230C410820FFB7
:10134000F0FFFC30C30C30C30C30FFF082041020DF
:101350008104082041FFF0C30C30C30C30C3FFF000
:101360002114A8C4FFF091224079E0417DF8617D0D
:10137000F0820820FBE861861861FBE07DF820829E
:1013800008207DF00410417DF8618618617DF079B8
:10139000E861FFF8207DF038E451410FBE410410B0
:1013A000410079E8618617DF04179E820820FBE878
:1013B000618618618610480D92492FC0084007BC0D
:1013C00021084218C5CE8208208618A2F3C8A2863A
:1013D00010D92492492FC0CF3B6DB6DB6D8610FB30
:1013E000E861861861861079E86186186179E0FB0A
:1013F000E861861FBE8208207DF8618617DF041031
:1014000041BEFC3082082082007DF82079E041FB5B
:10141000E0208208FBE20820824918608618618675
:1014200018E375D086186186149230C0861861B6AC
:10143000DB6DCF3086149230C49286108618618698
:1014400017DF04179EFFF08230C410FFF01C730CEE
:1014500030CE3830C30C1C70FFFCE3830C30C1C7A6
:1014600030C30CE3804A6B59480011241FBECFEFF4
:10147000D8E0DEBFCDBF11E0A0E0B1E0ECE0F0E2EB
:1014800002C005900D92A631B107D9F70E944C0A0F
:101490000C9404100C9400008FEF84B985B90E945D
:1014A000D50EC12CD12C7601CA9401E020E045E094
:1014B00060E270E080E390E00E94DE0BC12CDD244E
:1014C000DA94ED2CF12C20E04AE060E270E080E359
:1014D00090E00E94DE0BC12CD12C7601CA9420E052
:1014E0004FE060E270E080E390E00E94DE0BC12CF0
:1014F000DD24DA94ED2CF12C20E044E160E270E090
:1015000080E390E00E94DE0BC12CD12C7601CA94BE
:1015100020E049E160E270E080E390E00E94DE0BB1
:10152000C12CDD24DA94ED2CF12C20E04EE160E2B8
:1015300070E080E390E00E94DE0B2FEF88E09DE3F7
:10154000215080409040E1F700C00000A12CB12C58
:101550006501E12CF12C8701EA942FE330E04FE59F
:1015600050E060E070E080E090E00E94FB0A87E8D5
:1015700093E10197F1F700C00000C12CD12C760156
:10158000EA9401E028EA3EE040E051E069E170E0E1
:1015900085E090E00E94050DC12CD12C7601DA94F3
:1015A00028E630E048E051E06DE270E085E090E050
:1015B0000E94050DC12CD12C7601CA942CEB38E089
:1015C0004DE051E06CE370E08AE090E00E94050D90
:1015D0009FEF28E08DE3915020408040E1F700C06C
:1015E000000021E040E460E080E00E94780E81E0AD
:1015F0000E94B60EFFCF4F925F926F927F92AF9292
:10160000BF92CF92DF92EF92FF920F931F932A988F
:1016100096E29EBD0DB407FEFDCF2A9A2A9891E06E
:101620009EBD0DB407FEFDCF2A9A2A9892E29EBD78
:101630000DB407FEFDCF2A9A2A988EBD0DB407FE81
:10164000FDCF2A9A2A986EBD0DB407FEFDCF2A9AC7
:101650002A984EBD0DB407FEFDCF2A9A2A982EBDBA
:101660000DB407FEFDCF2A9A069506950695402FE4
:1016700050E0542F4427550F550F550FF694F6940C
:1016800020E2F29EC0011124482B592BE694E694E7
:10169000E6944E292A01612C712CC694C694C694F6
:1016A0008C2D90E0982F8827990F990F990FB69459
:1016B000B69460E2B69E90011124822B932BA694DF
:1016C000A694A6948A298C0120E030E0730162017F
:1016D0000B2EBBE0F694E794D794C794BA95D1F754
:1016E000B02D6C2D6F712A986EBD0DB407FEFDCF25
:1016F0002A9A689414F876946794579447941694A9
:10170000D1F7642D6F732A986EBD0DB407FEFDCF1F
:101710002A9A4F712A984EBD0DB407FEFDCF2A9A22
:10172000B901A801032E3BE076956795579547953B
:101730003A95D1F7302D4F712A984EBD0DB407FE62
:10174000FDCF2A9A689414F8369527951795079532
:101750001694D1F70F732A980EBD0DB407FEFDCF76
:101760002A9A8F712A988EBD0DB407FEFDCF2A9A52
:101770001F910F91FF90EF90DF90CF90BF90AF90AF
:101780007F906F905F904F900895AF92BF92CF92ED
:10179000DF92EF92FF920F931F93260F371F480F90
:1017A000591F570168010E94FB0A1F910F91FF907A
:1017B000EF90DF90CF90BF90AF9008952F923F921F
:1017C0004F925F926F927F928F929F92AF92BF9251
:1017D000CF92DF92EF92FF920F931F93CF93DF93FD
:1017E000CDB7DEB765970FB6F894DEBF0FBECDBF9D
:1017F0005C012B012B8BCF82D886E986FA86242EBA
:10180000312C81E090E03C016218730821E030E067
:10181000388B2F879E878D87C12CD12C802E912CC1
:10182000BD8AAC8ADA8AC98A9B89913031F5C101B7
:10183000880F991F9C012F5F3F4F3C832B83EF80C4
:10184000F88409851A854F855889B2016219730990
:101850008C899D890E94C50BEF80F88409851A85C3
:101860002F8538894B815C81B2016C197D09C501D6
:10187000821993090E94C50B79C0EF80F88409850D
:101880001A859401A401C201820D931D9C838B8350
:10189000BC01C5018C0D9D1D9C878B870E94C50BCB
:1018A000EF80F88409851A859401A401C2018C0D8A
:1018B0009D1D9E838D83BC01C501820D931D9A835E
:1018C00089830E94C50BEF80F88409851A859401ED
:1018D000A4016B817C818C899D890E94C50BEF805E
:1018E000F88409851A859401A4016D817E81C50162
:1018F000821993099C838B830E94C50BEF80F88427
:1019000009851A859401A401C2018C199D099E8341
:101910008D83BC0189819A810E94C50BEF80F88478
:1019200009851A859401A401C201821993099A8339
:101930008983BC018B859C850E94C50BEF80F88450
:1019400009851A859401A40169817A818C899D8910
:101950000E94C50BEF80F88409851A859401A401C3
:101960006D817E818B819C810E94C50B77205CF408
:1019700093E0690E711CC601880F991F680E791ECD
:101980008D859E8510C025E0620E711C89899A891B
:1019900082199309880F991F680E791E8D859E857F
:1019A00031E0231A31082FEFC21AD20A2D853E8565
:1019B0002F5F3F4F3E872D872C893D89215031096C
:1019C0003D8B2C8B2F8538892E5F3F4F388B2F878F
:1019D000281639060CF026CF65960FB6F894DEBFB0
:1019E0000FBECDBFDF91CF911F910F91FF90EF9070
:1019F000DF90CF90BF90AF909F908F907F906F902F
:101A00005F904F903F902F9008952F923F924F926A
:101A10005F926F927F928F929F92AF92BF92CF927E
:101A2000DF92EF92FF920F931F93CF93DF93CDB787
:101A3000DEB7A1970FB6F894DEBF0FBECDBFA82EBC
:101A4000B92E5D8B4C8BC88ED98EEA8EFB8E8E8F15
:101A50009F8F6A8B7B8B47E050E0B901CE010196E6
:101A60000E94FB0F2C893D893F8B2E8BA88AB98A57
:101A7000612C712C202E312C0C8F3D8EF2C0EE8902
:101A8000FF898191FF8BEE8B8A3089F42F81229D13
:101A9000C001239D900D11242A893B89280F391FED
:101AA0003B8B2A8B3E8D388B6F8D698BD7C02D81F8
:101AB000821708F4D3C09E81981708F4CFC08D30E8
:101AC00009F4CCC090E0821B9109BC01660F771F1E
:101AD000660F771F660F771FFB01E81BF90B6B8101
:101AE0007C816E0F7F1F47E050E0CE0108960E9478
:101AF000FB0F89809A80C884D9848B85811199C015
:101B0000A1C0A12C80E090E0FF854F2E512CB11098
:101B10000BC096012F5F3F4FF401EC0DFD1D74903B
:101B200069016894BB24B7F8272D2B2111F0019689
:101B300039C00097B9F1289EA001299E500D389E0A
:101B4000500D11242E85B201620F711D27FD7A956B
:101B50009B01229DB001239D700D329D700D1124BB
:101B6000EA89FB896E0F7F1FED852A2D30E02E0F4D
:101B7000311DE7FD3A95281B390B229DC001239D9D
:101B8000900D329D900D1124E88CF98C0A8D1B8DDF
:101B90002C8D3D8DE889F9898E0F9F1F0E94C50B02
:101BA00080E090E0B694A3942A85A21608F4AFCF03
:101BB0000097B1F1289EA001299E500D389E500D2E
:101BC00011246E85FF852F2F30E0260F311D67FD14
:101BD0003A95229DB001239D700D329D700D112408
:101BE0002A893B89620F731FED852A2D30E02E0F65
:101BF000311DE7FD3A95281B390B229DC001239D1D
:101C0000900D329D900D1124E88CF98C0A8D1B8D5E
:101C10002C8D3D8DE889F9898E0F9F1F0E94C50B81
:101C2000FF85FF5FFF878B85F81740F068A079A0DC
:101C300009C01F86B12C79A268A27B2C8A858111EC
:101C400060CFEECF2C85229DC001239D900D1124E5
:101C500028893989280F391F398B288B3FEF631A60
:101C6000730AEC89FD8901900020E9F731976C89AE
:101C70007D89E61BF70B6E167F0608F400CFA19650
:101C80000FB6F894DEBF0FBECDBFDF91CF911F918D
:101C90000F91FF90EF90DF90CF90BF90AF909F900B
:101CA0008F907F906F905F904F903F902F9008950E
:101CB0002A9895E29EBD0DB407FEFDCF2A9A2A9878
:101CC0008EBD0DB407FEFDCF2A9A2A986EBD0DB4C5
:101CD00007FEFDCF2A9A2A984EBD0DB407FEFDCF10
:101CE0002A9A2A982EBD0DB407FEFDCF2A9A089590
:101CF000813039F018F0823039F009C090E031E0DD
:101D000008C091E030E005C091E031E002C090E011
:101D100030E02A9887E28EBD0DB407FEFDCF2A9AE7
:101D20002A983EBD0DB407FEFDCF2A9A2A986EBDB3
:101D30000DB407FEFDCF2A9A2A984EBD0DB407FEBA
:101D4000FDCF2A9A2A989EBD0DB407FEFDCF2A9A90
:101D50002A982EBD0DB407FEFDCF2A9A2A988FE24D
:101D60008EBD0DB407FEFDCF2A9A0895882341F059
:101D70002A988FE28EBD0DB407FEFDCF2A9A0895F2
:101D80002A988EE28EBD0DB407FEFDCF2A9A0895E3
:101D900085B1866A85B984B1866A84B98CB5806557
:101DA0008CBD8DB581608DBD08950E94C80E87E8F9
:101DB00093E10197F1F700C000002A988EEA8EBDEA
:101DC0000DB407FEFDCF2A9A2A9881E88EBD0DB486
:101DD00007FEFDCF2A9A2A9881E98EBD0DB407FE31
:101DE000FDCF2A9A2A9882E88EBD0DB407FEFDCF5A
:101DF0002A9A2A9880E58EBD0DB407FEFDCF2A9A57
:101E00002A9883E88EBD0DB407FEFDCF2A9A2A9842
:101E10008DE78EBD0DB407FEFDCF2A9A2A9887E87C
:101E20008EBD0DB407FEFDCF2A9A2A9886E08EBD9E
:101E30000DB407FEFDCF2A9A2A988AE88EBD0DB40C
:101E400007FEFDCF2A9A2A9884E68EBD0DB407FEC0
:101E5000FDCF2A9A2A988BE88EBD0DB407FEFDCFE0
:101E60002A9A2A9888E78EBD0DB407FEFDCF2A9ADC
:101E70002A988CE88EBD0DB407FEFDCF2A9A2A98C9
:101E800084E68EBD0DB407FEFDCF2A9A2A9880EA1B
:101E90008EBD0DB407FEFDCF2A9A2A9882E78EBD2B
:101EA0000DB407FEFDCF2A9A2A9881EA8EBD0DB4A3
:101EB00007FEFDCF2A9A2A981EBC0DB407FEFDCF5F
:101EC0002A9A2A9882EA8EBD0DB407FEFDCF2A9A7F
:101ED0002A981EBC0DB407FEFDCF2A9A2A9884EAE0
:101EE0008EBD0DB407FEFDCF2A9A2A9888EA8EBDD2
:101EF0000DB407FEFDCF2A9A2A988FE38EBD0DB44C
:101F000007FEFDCF2A9A2A988DEA8EBD0DB407FEF2
:101F1000FDCF2A9A2A988EE88EBD0DB407FEFDCF1C
:101F20002A9A2A9880EB8EBD0DB407FEFDCF2A9A1F
:101F30002A981EBC0DB407FEFDCF2A9A2A9881EB81
:101F40008EBD0DB407FEFDCF2A9A2A9881E38EBD7F
:101F50000DB407FEFDCF2A9A2A9883EB8EBD0DB4EF
:101F600007FEFDCF2A9A2A9880EF8EBD0DB407FE9A
:101F7000FDCF2A9A2A988BEB8EBD0DB407FEFDCFBC
:101F80002A9A2A988AE38EBD0DB407FEFDCF2A9ABD
:101F90002A988EEB8EBD0DB407FEFDCF2A9A2A98A3
:101FA0008EE38EBD0DB407FEFDCF2A9A2A988EE2ED
:101FB0008EBD0DB407FEFDCF2A9A2A988FEA8EBDFA
:101FC0000DB407FEFDCF2A9A87E893E10197F1F758
:101FD00000C000002FE330E04FE550E060E070E02B
:101FE00080E090E00E94580E87E893E10197F1F7B6
:101FF00000C000000895FB01DC0102C005900D92B5
:0C20000041505040D8F70895F894FFCFED
:10200C0053534431333331004F4C4544003031325B
:06201C00333435360000EC
:00000001FF
