:020000040800F2
:1000000060070020CD010008B5350008311E00084A
:10001000B135000819030008493900080000000044
:10002000000000000000000000000000C1370008D0
:100030001D030008000000001D36000819380008E4
:10004000E7010008E7010008E7010008E7010008F0
:10005000E7010008E7010008E7010008E7010008E0
:10006000E7010008E7010008E7010008E7010008D0
:10007000E7010008E7010008E7010008E7010008C0
:10008000E7010008E7010008E7010008E7010008B0
:10009000E7010008E7010008E7010008E7010008A0
:1000A000E7010008E7010008E7010008E701000890
:1000B000E7010008E7010008E7010008E701000880
:1000C000E7010008E7010008E7010008E701000870
:1000D000E7010008E7010008E7010008E701000860
:1000E000E7010008E7010008E7010008E701000850
:1000F000E7010008E7010008E7010008E701000840
:10010000E7010008E7010008E7010008E70100082F
:10011000E7010008E7010008E7010008E70100081F
:10012000E7010008E7010008E7010008E70100080F
:1001300000F002F800F03AF80AA090E8000C8244BF
:100140008344AAF10107DA4501D100F02FF8AFF29C
:10015000090EBAE80F0013F0010F18BFFB1A43F0A5
:10016000010318474C5E00006C5E0000103A24BF8B
:1001700078C878C1FAD8520724BF30C830C144BF0C
:1001800004680C607047000000230024002500264E
:10019000103A28BF78C1FBD8520728BF30C148BFEA
:1001A0000B6070471FB51FBD10B510BD00F054F8AF
:1001B0001146FFF7F7FF03F0EBFC00F072F803B411
:1001C000FFF7F2FF03BC00F079F800000948804710
:1001D00009480047FEE7FEE7FEE7FEE7FEE7FEE729
:1001E000FEE7FEE7FEE7FEE704480549054A064B41
:1001F00070470000893800083101000860010020C4
:10020000600700206003002060030020002800DA5F
:100210004042704710B5431C02E010F8011B71B159
:100220008107FAD14FF0013202C88C1A8C4314EACC
:10023000C211F9D0C01A0A0603D0C01E10BDC01AE0
:1002400010BD0A0401D0801E10BD0902FCD0401E62
:1002500010BD704770477047754600F02BF8AE46EA
:1002600005006946534620F00700854618B020B5C2
:10027000FFF7BAFFBDE820404FF000064FF000073F
:100280004FF000084FF0000BAC46ACE8C009ACE8FA
:10029000C009ACE8C009ACE8C00921F007018D46EF
:1002A000704710B50446AFF300802046BDE810400B
:1002B000FFF785BF0048704708000020014918205B
:1002C000ABBEFEE72600020070474FF0000200B50B
:1002D000134694469646203922BFA0E80C50A0E869
:1002E0000C50B1F12001BFF4F7AF090728BFA0E817
:1002F0000C5048BF0CC05DF804EB890028BF40F8E3
:10030000042B08BF704748BF20F8022B11F0804F24
:1003100018BF00F8012B7047FFE7FEE770470000A9
:1003200081B0EFF3108072B60090FFE7FEE70000A7
:1003300080B584B003900291019200930098B0F5CB
:10034000804F1ED1FFE70398019950F8210000214A
:10035000CCF6F07100EA010C02990A684B688868D3
:10036000D1F80CE042EA031242EA0020896908430E
:1003700040EA0E4040EA0C000399019A41F822003D
:1003800006E0039801996FF0704240F82120FFE7E2
:1003900004B080BD80B585B00490039104980399A2
:1003A000096850F8212022F0010240F8212003982A
:1003B0008068082803D1FFE74020029002E0002077
:1003C0000290FFE7DDF808C003994A688B68C868A7
:1003D000D1F810E042EA0C021A43104340EA0E0042
:1003E0004A691043CA6910430A6A10434A6A1043B3
:1003F0008A6A1043CA6A1043096B08430190039844
:1004000080690199084301900398406B0199084362
:1004100001904FF67F30C0F208000090009840F441
:1004200080600090009840F4E020009004980399C8
:10043000096850F8210000998843019908430499FC
:10044000039A126841F8220005B080BD80B583B0E0
:100450000290019100920298009900EB810040689F
:1004600000F0404C0199D1F800E04B688868CA68F8
:100470004EEA031343EA002040EA02400A690023DF
:10048000CFF6F07303EB025210434A69FE3240EAA2
:1004900002608969084340EA0C000299009A01EB66
:1004A0008201486003B080BD83B000218DF809103F
:1004B0000190BDF806008DF803000198000A8DF840
:1004C000020001988DF801009DF8090098B1FFE73E
:1004D0009DF803004FF4784101EA00209DF80210D6
:1004E00001F0FC0140EAC1009DF8011040EAD10092
:1004F000ADF80A0012E09DF801004FF4784101EADE
:1005000000209DF8021001F0FC0140EAC1009DF8B6
:10051000031040EAD100ADF80A00FFE7BDF80A0079
:1005200003B0704780B584B0039000F021FA0290C8
:10053000039801900198013020B1FFE70198013044
:100540000190FFE7FFE700F013FA0299401A0199C2
:10055000884201D2FFE7F6E704B080BD70B586B0EF
:100560000020059004900390029040F25410C2F2D3
:100570000000007808B1FFE730E040F25410C2F20A
:10058000000001210170FFE741F21400C4F20200F3
:10059000016841F480710160006800F4807001908E
:1005A0000198FFE74FF6807002900225039503261D
:1005B000059641F60000C4F2010002AC214600F0AD
:1005C0000FF84CF6B37002900395059641F2004087
:1005D000C4F20100214600F003F8FFE706B070BD49
:1005E0008AB009900891002007900390FFE70898CF
:1005F00000680799C840002800F08081FFE707984D
:10060000012101FA00F00690089800680699084058
:10061000059005980699884240F06C81FFE708989C
:100620004068002846D0FFE7012830D0FFE70228C5
:1006300036D0FFE7032857D0FFE711282BD0FFE77C
:10064000122832D0FFE70021C1F21101884231D0D7
:10065000FFE70021C1F2120188422BD0FFE7002101
:10066000C1F22101884225D0FFE70021C1F2220119
:1006700088421FD0FFE70021C1F23101884219D022
:10068000FFE70021C1F23201884213D02FE0089821
:10069000C06803902CE00898C0680430039027E0FD
:1006A0000898C0680830039022E00898C0680C30B1
:1006B00003901DE00898806818B9FFE704200390B4
:1006C00011E008988068012806D1FFE70820039010
:1006D00006980999086105E0082003900698099991
:1006E0004861FFE7FFE703E00020039000E0FFE739
:1006F0000598FF2802D8FFE7099802E0099804301E
:10070000FFE702900598FF2803D8FFE707988000CD
:1007100005E007986FF01F0101EB8000FFE70190F3
:100720000298006801990F228A409043039A02FAC6
:1007300001F10843029908600898C079C0060028B2
:1007400040F1D780FFE7FFE741F21800C4F2020052
:10075000016841F001010160006800F001000090B3
:100760000098FFE7079820F003000821C4F2010178
:1007700040580490079800F0030080000F2101FA10
:1007800000F0049921EA00000490099840F6000165
:10079000C4F20101884202D1FFE7002035E0099848
:1007A00040F60041C4F20101884202D1FFE7012076
:1007B0002AE0099841F20001C4F20101884202D105
:1007C000FFE702201FE0099841F20041C4F2010155
:1007D000884202D1FFE7032014E0099841F60001A6
:1007E000C4F20101884202D1FFE7042009E009991F
:1007F00041F60042C4F201020620914208BF0520E2
:10080000FFE7FFE7FFE7FFE7FFE7079901F00301D5
:10081000890088400499084304900498079921F0BE
:1008200003010822C4F20102885008988079C007A9
:1008300048B1FFE7059840F20041C4F201010A689F
:100840001043086009E0059840F20041C4F201013C
:100850000A6822EA00000860FFE7089880798007AC
:10086000002809D5FFE7059840F20441C4F20101D0
:100870000A681043086009E0059840F20441C4F298
:1008800001010A6822EA00000860FFE70898807901
:10089000C006002809D5FFE7059840F20841C4F2D8
:1008A00001010A681043086009E0059840F2084118
:1008B000C4F201010A6822EA00000860FFE7089814
:1008C00080798006002809D5FFE7059840F20C41A1
:1008D000C4F201010A681043086009E0059840F27B
:1008E0000C41C4F201010A6822EA00000860FFE737
:1008F000FFE7FFE707980130079078E60AB07047F6
:1009000082B040F60040C4F2010001904020ADF8F2
:10091000020001988068BDF80210084204D0FFE789
:1009200001208DF8010003E000208DF80100FFE7B1
:100930009DF8010002B0704782B040F60042C4F258
:1009400001020192ADF802008DF801109DF801003E
:1009500028B1FFE7BDF802000199086105E0BDF884
:100960000200000401990861FFE702B0704700002F
:1009700040F25810C2F200000068704740F2581070
:10098000C2F20000016801310160704780B542F297
:100990000000C4F20200016841F01001016000F0A3
:1009A00083F80F2000F004F800F032F880BD00005A
:1009B00080B582B0009040F20400C2F200000068EE
:1009C00044F6D351C1F26201A0FB0101880901F094
:1009D00089F920B1FFE701208DF8070015E00098A4
:1009E0000F280AD8FFE7009800F044F8009840F27A
:1009F0000001C2F20001086003E001208DF8070049
:100A000003E000208DF80700FFE702B080BD000082
:100A100083B0FFE741F21800C4F20200016841F020
:100A200001010160006800F0010002900298FFE7F8
:100A3000FFE741F21C00C4F20200016841F080515E
:100A40000160006800F0805001900198FFE7FFE727
:100A50000420C4F2010001680091009921F0E061D6
:100A60000091009941F00071009100990160FFE749
:100A700003B0704710B584B0FF218DF80F100290BD
:100A800000200190009002F0D1FF00909DF90F40EE
:100A900000980299019A02F08FFD0146204602F06B
:100AA000CDFF04B010BD000080B582B003200190DE
:100AB000019802F0E5FF02B080BD000080B584B06F
:100AC000029002200190029820B9FFE701208DF8E2
:100AD0000F001BE1019842F20001C4F20201096813
:100AE00001F00701884216D9FFE742F20000C4F284
:100AF0000200016821F00701019A114301600068BA
:100B000000F007000199884204D0FFE701208DF82A
:100B10000F00FBE0FFE702980078800700282AD545
:100B2000FFE7029800784007002809D5FFE741F267
:100B30000400C4F20200016841F4E0610160FFE7D3
:100B4000029800780007002809D5FFE741F2040069
:100B5000C4F20200016841F460510160FFE741F214
:100B60000400C4F20200016821F0F001029A9268C8
:100B700011430160FFE702980078C007002860D0A9
:100B8000FFE70298406801280ED1FFE741F200001C
:100B9000C4F2020000688003002804D4FFE70120AB
:100BA0008DF80F00B2E021E00298406802280ED1D3
:100BB000FFE741F20000C4F2020000688001002853
:100BC00004D4FFE701208DF80F009FE00DE041F213
:100BD0000000C4F2020000688007002804D4FFE788
:100BE00001208DF80F0091E0FFE7FFE741F20400DC
:100BF000C4F20200016821F00301029A5268114315
:100C00000160FFF7B5FE0090FFE741F20400C4F277
:100C10000200006800F00C0002994968B0EB810FF7
:100C20000ED0FFE7FFF7A4FE0099401A41F2893188
:100C3000884204D3FFE703208DF80F0066E0E4E765
:100C4000FFE7019842F20001C4F20201096801F0D5
:100C50000701884216D2FFE742F20000C4F2020008
:100C6000016821F00701019A11430160006800F05A
:100C700007000199884204D0FFE701208DF80F009A
:100C800044E0FFE702980078400700280CD5FFE712
:100C900041F20400C4F20200016821F4E061029A0A
:100CA000D26811430160FFE702980078000700282E
:100CB0000DD5FFE741F20400C4F20200016821F4FF
:100CC0006051029A126941EAC2010160FFE700F037
:100CD0004BF841F20401C4F202010968C9B20909E2
:100CE00045F63272C0F60002515CC84040F2040181
:100CF000C2F20001086040F20000C2F20000006889
:100D0000FFF756FE00208DF80F00FFE79DF80F005B
:100D100004B080BD40F20400C2F2000000687047D9
:100D200080B5FFF7F7FF41F20401C4F20201096840
:100D3000C1F3022145F64672C0F60002515CC8407C
:100D400080BD000080B5FFF7E5FF41F20401C4F269
:100D500002010968C1F3C22145F64672C0F60002DD
:100D6000515CC84080BD00008AB040F60E70C1F2F0
:100D70001000099040F60A30C0F60C50089040F27E
:100D80000670C0F60810079040F20230C0F204501E
:100D9000069040F20120ADF8160000200490039068
:100DA00002900190009041F20400C4F20200006839
:100DB0000490049800F00C00D0B3FFE7042803D09F
:100DC000FFE7082806D034E041F20020C0F27A00A4
:100DD000009034E00498C0F3834006A9085C0190B9
:100DE0009DF81200C007C0B1FFE741F20400C4F251
:100DF0000200006800F400300DF1160141EA504095
:100E000000780390019841F20021C0F27A01484332
:100E10000399B0FBF1F0029007E0019840F6001151
:100E2000C0F23D0148430290FFE70298009006E0BF
:100E3000FFE741F20020C0F27A000090FFE700983F
:100E40000AB0704780B586B00490049820B9FFE7D7
:100E500001208DF817002DE304980078C0070028C2
:100E600000F0AE80FFE741F20400C4F20200006827
:100E700000F00C00042813D0FFE741F20400C4F294
:100E80000200006800F00C0008281BD1FFE741F2C7
:100E90000400C4F202000068C003002812D5FFE776
:100EA00041F20000C4F2020000688003002808D567
:100EB000FFE70498406820B9FFE701208DF817008C
:100EC000F8E27CE0FFE704984068B0F5803F09D184
:100ED000FFE741F20000C4F20200016841F48031F2
:100EE000016032E00498406868B9FFE741F2000011
:100EF000C4F20200016821F480310160016821F42C
:100F00008021016020E004984068B0F5A02F0DD149
:100F1000FFE741F20000C4F20200016841F48021C1
:100F20000160016841F4803101600CE041F2000091
:100F3000C4F20200016821F480310160016821F4EB
:100F400080210160FFE7FFE7FFE7FFE704984068C3
:100F5000D0B1FFE7FFF70CFD0390FFE741F200007F
:100F6000C4F202000068800300280CD4FFE7FFF7FA
:100F7000FFFC0399401A652804D3FFE703208DF88E
:100F8000170097E2EAE719E0FFF7F2FC0390FFE7AA
:100F900041F20000C4F202000068800300280CD572
:100FA000FFE7FFF7E5FC0399401A652804D3FFE744
:100FB00003208DF817007DE2EAE7FFE7FFE7FFE790
:100FC000049800788007002840F18D80FFE741F207
:100FD0000400C4F20200006810F00C0F13D0FFE709
:100FE00041F20400C4F20200006800F00C0008287E
:100FF00029D1FFE741F20400C4F202000068C003F7
:10100000002820D4FFE741F20000C4F2020000688B
:101010008007002809D5FFE704980069012804D05B
:10102000FFE701208DF8170044E241F20000C4F20E
:101030000200016821F0F801049A526941EAC201F4
:101040000160FFE74EE00498006958B3FFE7002015
:10105000C4F2422001210160FFF78AFC0390FFE700
:1010600041F20000C4F202000068800700280CD49E
:10107000FFE7FFF77DFC0399401A032804D3FFE73D
:1010800003208DF8170015E2EAE741F20000C4F2F0
:101090000200016821F0F801049A526941EAC20194
:1010A00001601EE00020C4F2422000210160FFF731
:1010B0005FFC0390FFE741F20000C4F20200006809
:1010C000800700280CD5FFE7FFF752FC0399401A70
:1010D000032804D3FFE703208DF81700EAE1EAE7CD
:1010E000FFE7FFE7FFE7049800780007002847D5EF
:1010F000FFE70498806910B3FFE740F28040C4F234
:10110000422001210160FFF733FC0390FFE741F229
:101110002400C4F202000068800700280CD4FFE716
:10112000FFF726FC0399401A032804D3FFE70320A6
:101130008DF81700BEE1EAE702F072FA1FE040F214
:101140008040C4F2422000210160FFF711FC0390AF
:10115000FFE741F22400C4F2020000688007002883
:101160000CD5FFE7FFF704FC0399401A032804D3CA
:10117000FFE703208DF817009CE1EAE7FFE7FFE7B0
:10118000049800784007002840F1D880FFE700204D
:101190008DF8070041F21C00C4F202000068C00094
:1011A000002813D4FFE7FFE741F21C00C4F202005D
:1011B000016841F080510160006800F080500090AB
:1011C0000098FFE701208DF80700FFE747F20000D5
:1011D000C4F200000068C005002822D4FFE747F2EF
:1011E0000000C4F20000016841F480710160FFF763
:1011F000BFFB0390FFE747F20000C4F20000006865
:10120000C00500280CD4FFE7FFF7B2FB0399401A92
:10121000652804D3FFE703208DF817004AE1EAE7C9
:10122000FFE7FFE70498C068012809D1FFE741F212
:101230002000C4F20200016841F00101016031E0C8
:101240000498C06868B9FFE741F22000C4F20200C8
:10125000016821F001010160016821F004010160D1
:101260001FE00498C06805280DD1FFE741F2200077
:10127000C4F20200016841F004010160016841F01C
:10128000010101600CE041F22000C4F2020001689B
:1012900021F001010160016821F004010160FFE714
:1012A000FFE7FFE7FFE70498C068E0B1FFE7FFF75B
:1012B0005FFB0390FFE741F22000C4F202000068E8
:1012C000800700280ED4FFE7FFF752FB0399401A6E
:1012D00041F28931884204D3FFE703208DF81700DB
:1012E000E8E0E8E71BE0FFF743FB0390FFE741F28C
:1012F0002000C4F202000068800700280ED5FFE736
:10130000FFF736FB0399401A41F28931884204D332
:10131000FFE703208DF81700CCE0E8E7FFE79DF832
:101320000700012809D1FFE741F21C00C4F20200C6
:10133000016821F080510160FFE7FFE70498C06970
:10134000002800F0B380FFE741F20400C4F202007D
:10135000006800F00C00082800F08280FFE7049885
:10136000C06902285CD1FFE76020C4F2422000215E
:101370000160FFF7FDFA0390FFE741F20000C4F2BD
:1013800002000068800100280CD5FFE7FFF7F0FAA3
:101390000399401A032804D3FFE703208DF81700B0
:1013A00088E0EAE70498006AB0F5803F0CD1FFE7D7
:1013B00041F20400C4F20200016821F40031049AF1
:1013C000926811430160FFE741F20400C4F2020099
:1013D000016821F47411049A136A526A1A43114382
:1013E00001606020C4F2422001210160FFF7C0FAD1
:1013F0000390FFE741F20000C4F2020000688001A0
:1014000000280CD4FFE7FFF7B3FA0399401A03282A
:1014100004D3FFE703208DF817004BE0EAE71EE056
:101420006020C4F2422000210160FFF7A1FA03907E
:10143000FFE741F20000C4F20200006880010028CA
:101440000CD5FFE7FFF794FA0399401A032804D359
:10145000FFE703208DF817002CE0EAE7FFE724E020
:101460000498C069012804D1FFE701208DF8170016
:1014700020E041F20400C4F20200006802900298E9
:1014800000F480300499096A884208D1FFE7029885
:1014900000F470100499496A884204D0FFE70120E3
:1014A0008DF8170006E0FFE7FFE7FFE700208DF863
:1014B0001700FFE79DF8170006B080BD80B582B029
:1014C00040F27000C2F200000090009820B9FFE7DF
:1014D00001208DF807006DE00098406A60B9FFE7D1
:1014E00000984068B0F5827F01D1FFE703E00098E3
:1014F0000021C161FFE705E000980021016100982B
:101500004161FFE7009800218162009890F8510046
:1015100040B9FFE70098002180F85010009800F0D3
:101520004DF8FFE70098022180F8511000980068FC
:10153000016821F0400101600098D0F800C04268C5
:101540008368C16802F4827203F404431A4401F40C
:1015500000611144026902F002021144426902F082
:1015600001021144826902F400721144C26902F05E
:1015700038021144026A02F080021143806A00F4CA
:1015800000500843CCF800000098418B01F00401A2
:101590000068416000980068C16921F40061C16180
:1015A0000098002141650098012280F851208DF8B3
:1015B0000710FFE79DF8070002B080BDB0B588B006
:1015C000079000200690059004900390079800680B
:1015D00043F20001C4F20101884237D1FFE7FFE77F
:1015E00041F21800C4F20200016841F48051016028
:1015F000006800F4805002900298FFE7FFE741F294
:101600001800C4F20200016841F0040101600068A2
:1016100000F0040001900198FFE7B0200390022041
:1016200004900320069040F60004C4F2010403ADC8
:1016300020462946FEF7D4FF402003900020049066
:10164000059020462946FEF7CBFFFFE708B0B0BD66
:1016500080B588B040F27001C2F200010691059099
:101660000120ADF812004FF47A70039000208DF83D
:101670000700FFE7069890F85000012804D1FFE723
:1016800002208DF81F0028E10698012180F85010F3
:10169000FFE7FFE7FFF76CF90290BDF81200ADF825
:1016A0000400069890F85100012804D0FFE70220BA
:1016B0008DF8070002E1059820B1FFE7BDF81200A0
:1016C00020B9FFE701208DF80700F7E00698032115
:1016D00080F851100698002141650598069A10631C
:1016E000BDF81200069A9086BDF81200069AD086C0
:1016F00006988163069881870698C1870698416499
:101700000698016406988068B0F5004F0DD1FFE798
:1017100006980068016821F04001016006980068A1
:10172000016841F480410160FFE7069800680068A5
:1017300000F04000402807D0FFE7069800680168E5
:1017400041F040010160FFE70698C068B0F5006F06
:1017500047D1FFE70698406828B1FFE7BDF80400CD
:1017600001280ED1FFE706980168006B0088C86069
:101770000698016B023101630698C18E0139C1865A
:10178000FFE7FFE70698C08E50B3FFE706980068B2
:101790008068800700280ED5FFE706980168006B77
:1017A0000088C8600698016B023101630698C18EFB
:1017B0000139C18613E0FFF7DBF80299401A03995B
:1017C000884204D3FFE70398013018B9FFE7039874
:1017D00020B9FFE703208DF807006FE0FFE7D1E7AE
:1017E00046E00698406828B1FFE7BDF804000128EC
:1017F0000ED1FFE706980168006B00780873069821
:10180000016B013101630698C18E0139C186FFE782
:10181000FFE70698C08E50B3FFE70698006880681F
:10182000800700280ED5FFE706980168006B007856
:1018300008730698016B013101630698C18E013966
:10184000C18613E0FFF794F80299401A0399884281
:1018500004D3FFE70398013018B9FFE7039820B9D4
:10186000FFE703208DF8070028E0FFE7D1E7FFE757
:1018700006980399029A01F0F1FE20B1FFE706985D
:1018800020214165FFE70698806870B9FFE7FFE710
:101890000020009006980068C068009006980068D4
:1018A000806800900098FFE7FFE70698406D20B140
:1018B000FFE701208DF80700FFE7FFE70698012109
:1018C00080F85110FFE70698002180F85010FFE7DC
:1018D0009DF807008DF81F00FFE708B080BD0000ED
:1018E00080B58EB040F27002C2F200020C920B90F2
:1018F0000A910120ADF826004FF47A710891039007
:1019000000208DF80B00FFE70C9890F8500001289C
:1019100004D1FFE702208DF837008FE10C980121F8
:1019200080F85010FFE7FFE7FFF722F804900C98CB
:1019300090F851008DF817000C9840680690BDF89B
:101940002600ADF81E009DF81700012812D0FFE711
:101950000698B0F5827F09D1FFE70C98806828B916
:10196000FFE79DF81700042804D0FFE702208DF858
:101970000B0054E10B9838B1FFE70A9820B1FFE75C
:10198000BDF8260020B9FFE701208DF80B0046E1E5
:101990000C9890F85100042805D0FFE70C98052119
:1019A00080F85110FFE70C98002141650A980C9AC5
:1019B0009063BDF826000C9AD087BDF826000C9ADB
:1019C00090870B980C9A1063BDF826000C9AD0866D
:1019D000BDF826000C9A90860C9801640C9841641E
:1019E0000C980068006800F04000402807D0FFE72E
:1019F0000C980068016841F040010160FFE70C9815
:101A0000C068B0F5006F73D1FFE70C98406828B14B
:101A1000FFE7BDF81E0001280ED1FFE70C98016812
:101A2000006B0088C8600C98016B023101630C9850
:101A3000C18E0139C186FFE7FFE70C98C18E0120F6
:101A400031B9FFE70C98C08F002818BF0120FFE7CD
:101A5000C00700284BD0FFE70C980068806880071B
:101A6000002818D5FFE70C98C08EA0B1FFE70398B7
:101A7000012810D1FFE70C980168006B0088C8604E
:101A80000C98016B023101630C98C18E0139C1863B
:101A900000200390FFE70C9800688068C007A8B199
:101AA000FFE70C98C08F88B1FFE70C980068C0680A
:101AB0000C99896B08800C98816B023181630C98BA
:101AC000C18F0139C18701200390FFE7FEF750FF66
:101AD0000499401A0899884208D3FFE70898013012
:101AE00020B1FFE703208DF80B0098E0A5E775E033
:101AF0000C98406828B1FFE7BDF81E0001280ED100
:101B0000FFE70C980168006B007808730C98016B74
:101B1000013101630C98C18E0139C186FFE7FFE7EF
:101B20000C98C18E012031B9FFE70C98C08F0028B6
:101B300018BF0120FFE7C00700284ED0FFE70C9830
:101B4000006880688007002818D5FFE70C98C08ED1
:101B5000A0B1FFE70398012810D1FFE70C980168B6
:101B6000006B007808730C98016B013101630C98CD
:101B7000C18E0139C18600200390FFE70C980068F0
:101B80008068C007A8B1FFE70C98C08F88B1FFE755
:101B90000C980068C0680C99896B08700C98816B70
:101BA000013181630C98C18F0139C18701200390F5
:101BB000FFE7FEF7DDFE0499401A0899884204D336
:101BC000FFE70898013018B9FFE7089820B9FFE748
:101BD00003208DF80B0022E0A2E7FFE70C9808999C
:101BE000049A01F03BFD38B1FFE701208DF80B00AE
:101BF0000C982021416512E00C98806870B9FFE7CD
:101C0000FFE7002001900C980068C06801900C98D4
:101C10000068806801900198FFE7FFE7FFE70C98F4
:101C2000012180F85110FFE70C98002180F8501036
:101C3000FFE79DF80B008DF83700FFE70EB080BD81
:101C400080B584B040F20C12C2F200020292019000
:101C50000091029830B1FFE702988069B0F5807F6B
:101C600004D1FFE701208DF80F002FE0029890F8D3
:101C7000410040B9FFE70298002180F84010029827
:101C800000F028F8FFE7029951F8080BFEF782FBF5
:101C9000029A019910689268FEF7D8FB029B00999E
:101CA00058689A681B6BFEF743FB029801688068CE
:101CB00051F8202042F0010241F820200298012131
:101CC00080F8411000208DF80F00FFE79DF80F000D
:101CD00004B080BD80B582B00190FEF73FFC02B039
:101CE00080BD000080B582B00190019801F06AFDCE
:101CF00002B080BD80B582B040F2C800C2F20000E0
:101D00000090009820B9FFE701208DF807003EE021
:101D10000098806908B1FFE700E0FFE7009890F8BD
:101D20003D0040B9FFE70098002180F83C10009882
:101D300000F032F8FFE70098242180F83D10009869
:101D40000068C16821F40051C160009801F09EFD57
:101D500000980068016921F49041016100980068D1
:101D6000416921F02A01416100980068C16841F48D
:101D70000051C1600098002101640098202280F881
:101D80003D20009880F83E208DF80710FFE79DF871
:101D9000070002B080BD0000B0B588B007900020F9
:101DA00006900590049003900798006843F60001A0
:101DB000C4F20101884239D1FFE7FFE741F2180080
:101DC000C4F20200016841F480410160006800F43F
:101DD000804002900298FFE7FFE741F21800C4F24A
:101DE0000200016841F004010160006800F0040095
:101DF00001900198FFE74FF40070039002200490D7
:101E00000320069040F60004C4F2010403AD20460E
:101E10002946FEF7E5FB4FF4806003900020049014
:101E2000059020462946FEF7DBFBFFE708B0B0BD72
:101E3000FFE7FEE780B588B0DDF82CC0DDF828C0EC
:101E4000ADF81E00ADF81C10069205938DF813C076
:101E500005980068039006980088ADF80A000020F5
:101E60008DF809008DF80800ADF806008DF8040023
:101E7000FFE79DF804000699C978884280F29280B5
:101E8000FFE700208DF80500FFE79DF805000699A3
:101E90008978884255DAFFE79DF8080068B9FFE7BE
:101EA0000398BDF80A104A1CADF80A20405C8DF872
:101EB000090080208DF80800FFE79DF809009DF8D3
:101EC0000810084206D0FFE7BDF806000130ADF863
:101ED00006002AE0BDF80600012825DBFFE7BDF873
:101EE0001EC0069991F905209DF805301A44BDF8E9
:101EF0000600121A9DF8133002FB03CCBDF81CE05B
:101F000091F906109DF80420114401FB03E15843A8
:101F10000B9A009282B289B21FFA8CF000F01AFF7D
:101F20000020ADF80600FFE7FFE79DF80800400835
:101F30008DF80800FFE79DF8050001308DF80500D9
:101F4000A3E7BDF80600012825DBFFE7BDF81EC0AA
:101F5000069991F905209DF805301A44BDF8060050
:101F6000121A9DF8133002FB03CCBDF81CE091F966
:101F700006109DF80420114401FB03E158430B9A1D
:101F8000009282B289B21FFA8CF000F0E3FE0020CA
:101F9000ADF80600FFE7FFE79DF8040001308DF87B
:101FA000040066E708B080BD80B588B0ADF81E00BB
:101FB0005A20ADF81C008DF81B108DF81A20012056
:101FC0008DF819000593002004909DF81B000390E4
:101FD0009DF81B00C0F101000290FFE704980399EF
:101FE000884200F3DB80FFE79DF81A0001282DD11D
:101FF000FFE7BDF81E000499401ABDF81C20039BA2
:10200000A2EB030C49004A1C59004B1C0599009196
:1020100080B21FFA8CF192B29BB200F09BFEBDF829
:102020001E000399401ABDF81C20049BA2EB030C70
:1020300049004A1C59004B1C0599009180B21FFAB7
:102040008CF192B29BB200F085FE88E00498BDF856
:102050001E1008440399BDF81C2011449DF8192056
:10206000059B009380B289B2134600F073FE03987B
:10207000BDF81E1008440499BDF81C2011449DF8B9
:102080001920059B009380B289B2134600F062FECE
:10209000BDF81E000499401A0399BDF81C20114494
:1020A0009DF81920059B009380B289B2134600F079
:1020B00051FEBDF81E000399401A0499BDF81C207A
:1020C00011449DF81920059B009380B289B21346F4
:1020D00000F040FE0398BDF81E100844BDF81C1027
:1020E000049A891A9DF81920059B009380B289B241
:1020F000134600F02FFE0498BDF81E100844BDF8EA
:102100001C10039A891A9DF81920059B009380B230
:1021100089B2134600F01EFEBDF81E000499401A55
:10212000BDF81C10039A891A9DF81920059B00938D
:1021300080B289B2134600F00DFEBDF81E0003996F
:10214000401ABDF81C10049A891A9DF81920059BA5
:10215000009380B289B2134600F0FCFDFFE70298BD
:10216000B0F1FF3F0ADCFFE70298049900EB410061
:10217000033002900498013004900EE00298049914
:10218000039A891A00EB410005300290049801304F
:102190000490039801380390FFE71FE708B080BD63
:1021A00010B588B0DDF82CC0DDF828C0ADF81E00F1
:1021B000ADF81C10ADF81A208DF81930ADF816C026
:1021C000BDF81A00C0F10100ADF814000120ADF80F
:1021D0001200BDF81A000021A1EB4000ADF810007C
:1021E000ADF80E10BDF81A00ADF80C00FFE7BDF910
:1021F0000E00BDF90C10884280F29980FFE7BDF90E
:102200001400002812D4FFE7BDF80C000138ADF827
:102210000C00BDF810000230ADF81000BDF8100041
:10222000BDF814100844ADF81400FFE7BDF80E0027
:102230000130ADF80E00BDF812000230ADF812000A
:10224000BDF81200BDF814100844ADF814009DF854
:102250001900C00790B3FFE7BDF81E00BDF80E10CF
:102260000844BDF91C10BDF90C20891A01EB42028B
:10227000BDF816301A440B9B01930124009489B2D7
:1022800080B293B2024600F071FCBDF81E00BDF8AA
:102290000C100844BDF91C10BDF90E20891A01EB81
:1022A0004202BDF816301A440B9B0193009489B288
:1022B00080B293B2024600F059FCFFE79DF8190086
:1022C0008007002832D5FFE7BDF81E00BDF80E10CC
:1022D000401ABDF91C10BDF90C20891A01EB42020D
:1022E000BDF816301A440B9B01930124009489B267
:1022F00080B293B2024600F039FCBDF81E00BDF872
:102300000C10401ABDF91C10BDF90E20891A01EB02
:102310004202BDF816301A440B9B0193009489B217
:1023200080B293B2024600F021FCFFE75FE708B0FD
:1023300010BD000080B586B0DDF824C0DDF820C0F7
:10234000ADF81600ADF81410ADF812208DF811306C
:102350008DF810C0BDF81200C0F10100ADF80E00FC
:102360000120ADF80C00BDF812000021A1EB4000E7
:10237000ADF80A00ADF80810BDF81200ADF806007F
:10238000FFE7BDF90800BDF90610884280F2DD8044
:10239000FFE7BDF90E00002812D4FFE7BDF80600E4
:1023A0000138ADF80600BDF80A000230ADF80A00A9
:1023B000BDF80A00BDF80E100844ADF80E00FFE7A6
:1023C000BDF808000130ADF80800BDF80C0002307F
:1023D000ADF80C00BDF80C00BDF80E100844ADF8C7
:1023E0000E009DF811004007002827D5FFE7BDF833
:1023F0001600BDF808100844BDF81410BDF80620FA
:1024000011449DF81020099B009380B289B21346B5
:1024100000F0A0FCBDF81600BDF806100844BDF899
:102420001410BDF8082011449DF81020099B00935A
:1024300080B289B2134600F08DFCFFE79DF81100D1
:102440008007002827D5FFE7BDF81600BDF8081063
:102450000844BDF81410BDF80620891A9DF8102014
:10246000099B009380B289B2134600F073FCBDF85B
:102470001600BDF806100844BDF81410BDF8082079
:10248000891A9DF81020099B009380B289B21346E7
:1024900000F060FCFFE79DF811000007002827D539
:1024A000FFE7BDF81600BDF80610401ABDF814107D
:1024B000BDF8082011449DF81020099B009380B2BC
:1024C00089B2134600F046FCBDF81600BDF80810AE
:1024D000401ABDF81410BDF8062011449DF81020D4
:1024E000099B009380B289B2134600F033FCFFE7EA
:1024F0009DF81100C00738B3FFE7BDF81600BDF81E
:102500000610401ABDF81410BDF80820891A9DF86D
:102510001020099B009380B289B2134600F01AFC88
:10252000BDF81600BDF80810401ABDF81410BDF82B
:102530000620891A9DF81020099B009380B289B269
:10254000134600F007FCFFE71BE706B080BD000064
:1025500080B58CB0DDF83CC0DDF838E0ADF82E0079
:10256000ADF82C10ADF82A20ADF828308DF827E012
:102570008DF826C04FF60070C0F2FF000890BDF93C
:102580002A0040430690BDF9280040430590069874
:10259000800004900598800003909DF82700002893
:1025A00000F0EE80FFE70020ADF81E00BDF8280027
:1025B000ADF81C0005980699BDF928200123A3EB6E
:1025C0004202514301EB40000290FFE70598BDF93C
:1025D0001E1048430699BDF91C205143884258DC1F
:1025E000FFE7BDF92E00BDF91E10A0EB010CBDF8F0
:1025F0002C30BDF81C209A1A08449DF82610401A69
:10260000431C0898019000911FFA8CF091B29AB285
:102610000B4600F0ABFABDF92E00BDF91E10A0EB81
:10262000010CBDF82C30BDF81C201A4408449DF85C
:102630002610401A431C0898019000911FFA8CF054
:1026400091B29AB20B4600F091FA029800280FD48A
:10265000FFE70498BDF91C10C1F10101029A00FBCB
:1026600001200290BDF81C000138ADF81C00FFE706
:102670000598BDF91E10062202EB8101029A00FBAB
:1026800001200290FFE7BDF81E000130ADF81E00EA
:102690009CE7BDF82A00ADF81E000020ADF81C0034
:1026A00006980599BDF92A200123A3EB4202514364
:1026B00001EB40000290FFE70698BDF91C1048436B
:1026C0000599BDF91E205143884258DCFFE7BDF94A
:1026D0002E00BDF91E10A0EB010CBDF82C30BDF88A
:1026E0001C209A1A08449DF82610401A431C08988A
:1026F000019000911FFA8CF091B29AB20B4600F053
:1027000035FABDF92E00BDF91E10A0EB010CBDF885
:102710002C30BDF81C201A4408449DF82610401A9D
:10272000431C0898019000911FFA8CF091B29AB264
:102730000B4600F01BFA029800280FD4FFE703981D
:10274000BDF91E10C1F10101029A00FB01200290A7
:10275000BDF81E000138ADF81E00FFE70698BDF970
:102760001C10062202EB8101029A00FB012002905C
:10277000FFE7BDF81C000130ADF81C009CE71CE130
:102780000020ADF81E00BDF82800ADF81C0005982B
:102790000699BDF928200123A3EB4202514301EB26
:1027A00040000290FFE70598BDF91E1048430699C6
:1027B000BDF91C205143884270DCFFE7BDF82E00B4
:1027C000BDF81E100844BDF82C10BDF81C201144A3
:1027D0009DF82620089B009380B289B2134600F032
:1027E000B9FABDF82E00BDF81E10401ABDF82C1025
:1027F000BDF81C2011449DF82620089B009380B250
:1028000089B2134600F0A6FABDF82E00BDF81E10DE
:102810000844BDF82C10BDF81C20891A9DF826200C
:10282000089B009380B289B2134600F093FABDF87A
:102830002E00BDF81E10401ABDF82C10BDF81C204B
:10284000891A9DF82620089B009380B289B213460E
:1028500000F080FA029800280FD4FFE70498BDF931
:102860001C10C1F10101029A00FB01200290BDF889
:102870001C000138ADF81C00FFE70598BDF91E10DB
:10288000062202EB8101029A00FB01200290FFE781
:10289000BDF81E000130ADF81E0084E7BDF82A0027
:1028A000ADF81E000020ADF81C0006980599BDF992
:1028B0002A200123A3EB4202514301EB4000029086
:1028C000FFE70698BDF91C1048430599BDF91E2085
:1028D0005143884270DCFFE7BDF82E00BDF81E10A2
:1028E0000844BDF82C10BDF81C2011449DF826208A
:1028F000089B009380B289B2134600F02BFABDF812
:102900002E00BDF81E10401ABDF82C10BDF81C207A
:1029100011449DF82620089B009380B289B213468B
:1029200000F018FABDF82E00BDF81E100844BDF8DE
:102930002C10BDF81C20891A9DF82620089B0093B6
:1029400080B289B2134600F005FABDF82E00BDF83A
:102950001E10401ABDF82C10BDF81C20891A9DF8D5
:102960002620089B009380B289B2134600F0F2F94A
:10297000029800280FD4FFE70398BDF91E10C1F19B
:102980000101029A00FB01200290BDF81E000138EF
:10299000ADF81E00FFE70698BDF91C10062202EBF9
:1029A0008101029A00FB01200290FFE7BDF81C00A4
:1029B0000130ADF81C0084E7FFE70CB080BD0000DB
:1029C00010B58EB0DDF840C0ADF83600ADF834106B
:1029D0000C920B9301208DF82B00BDF83600ADF85A
:1029E0002800BDF83400ADF826000B980168426855
:1029F00080680890079206910020ADF81600FFE766
:102A0000BDF816400C98FDF705FC84425AD2FFE74A
:102A10000C98BDF81610405C8DF815009DF8150057
:102A20000A280FD1FFE7BDF83600ADF828009DF861
:102A300022009DF82B10BDF8262000FB0120ADF8E8
:102A4000260038E09DF815009DF82010884231DB03
:102A5000FFE79DF815009DF8211088422ADCFFE76A
:102A60009DF815000D2825D0FFE707989DF8151053
:102A70009DF82020891A00EBC10250F83100039024
:102A800050680490BDF92800BDF926109DF82B2050
:102A9000109B0193009203AA06ABFFF7CBF99DF8B8
:102AA00010009DF82B10BDF8282000FB0120ADF888
:102AB0002800FFE7FFE7FFE7BDF816000130ADF89B
:102AC00016009DE70EB010BD10B582B0002407209F
:102AD000002100F0E9FA1020002100F0E5FA1120B1
:102AE000002100F0E1FA1220002100F0DDFA1320AD
:102AF000002100F0D9FA2920002100F0D5FA322077
:102B0000FDF710FD1020902100F0CEFA11200021D9
:102B100000F0CAFA1220112100F0C6FA5020FDF789
:102B200001FD072040F2331100F0BEFA102041F2FF
:102B3000900100F0B9FA2B200E2100F0B5FA6020C8
:102B40004FF4274100F0B0FA6120012100F0ACFA07
:102B50000120FDF7E7FC0094002000214FF4A07253
:102B6000F02300F0F7F802B010BD000080B58AB085
:102B7000DDF834C0DDF830C0ADF82600ADF8241023
:102B8000ADF82220ADF820308DF81FC0BDF822002E
:102B9000BDF82610401AFDF739FB0690BDF820005D
:102BA000BDF82410401AFDF731FB0590BDF8260052
:102BB000BDF822104FF0FF3288424FF0FF30B8BF0F
:102BC00001200490BDF82400BDF820108842B8BF51
:102BD0000122039206980599401A02900020019064
:102BE000FFE7BDF82600BDF824109DF81F200D9BBF
:102BF0000093134600F0AEF8BDF82600BDF8221091
:102C0000884208D1FFE7BDF82400BDF820108842B3
:102C100001D1FFE724E00298400001900198059956
:102C2000494288420BDDFFE705980299081A029095
:102C30000498BDF826100844ADF82600FFE7019877
:102C4000069988420BDAFFE7069802990844029039
:102C50000398BDF824100844ADF82400FFE7C0E74E
:102C60000AB080BD80B582B0ADF80600ADF80410A2
:102C700000929DF80600BDF8041000F027FA00F05D
:102C8000FBF90098FDF710FC00F002FA02B080BDDD
:102C900080B586B0DDF820C0ADF81600ADF8141090
:102CA000ADF81220ADF8103002208DF80F00BDF8FD
:102CB0001600BDF81410BDF8122000EB020C9DF8B0
:102CC0000F30089A019200931FFA8CF20B46FFF71F
:102CD0004DFFBDF81600BDF81410BDF8102001EB33
:102CE000020CBDF8122002449DF80F3008990191A2
:102CF000009392B21FFA8CF10B46FFF737FFBDF835
:102D00001600BDF81410BDF8102001EB020C9DF860
:102D10000F30089A019200931FFA8CF30246FFF7D6
:102D200025FFBDF81600BDF8121000EB010CBDF830
:102D30001410BDF810200A449DF80F300898019037
:102D400000931FFA8CF093B20246FFF70FFF06B014
:102D500080BD000080B584B0DDF818C0ADF80E006D
:102D6000ADF80C10ADF80A20ADF808300020ADF831
:102D70000600ADF80400FFE7BDF80600BDF80A1034
:102D8000884226DAFFE7FFE7BDF80400BDF8081027
:102D9000884215DAFFE7BDF80C00BDF804100844BE
:102DA000BDF80E10BDF806201144069A80B289B213
:102DB000FFF758FFBDF804000130ADF80400E3E769
:102DC0000020ADF80400BDF806000130ADF80600A3
:102DD000D2E704B080BD000080B586B05020ADF8C9
:102DE00016004620ADF814003C20ADF81200192062
:102DF000ADF810000A20ADF80E0003208DF80D008C
:102E00006FF07F400290BDF81600BDF80E108A1CCE
:102E100000EB020CBDF81410BDF8123018449DF8F8
:102E20000D301844821A0298019000931FFA8CF01A
:102E300092B20B46FFF79AFEBDF81600BDF80E10D1
:102E4000023100EB010CBDF81430BDF810201A441B
:102E5000A2F1010EBDF8123018449DF80D3018444F
:102E6000421A0298019000931FFA8CF01FFA8EF11B
:102E700092B20B46FFF77AFEBDF81600BDF81410AB
:102E8000BDF80E20023201EB020CBDF810301944DF
:102E90009DF80D30C91A8A1A0299019100931FFA00
:102EA0008CF193B20246FFF761FEBDF81600BDF843
:102EB00012100844A0F1010CBDF81410BDF80E204A
:102EC00002328B18BDF8100008449DF80D10401A0E
:102ED000821A02980190009199B21FFA8CF093B275
:102EE0000246FFF743FEBDF81600BDF80E108A1C1F
:102EF00000EB020CBDF8141011449DF80D3002983F
:102F0000019000930FFA8CF009B212B20123FFF77F
:102F100011FABDF81600BDF812100844BDF80E10E5
:102F20008A1CD14301EB000CBDF8141011449DF82C
:102F30000D3002980190009309B20FFA8CF012B292
:102F40000223FFF7F7F9BDF81600BDF81210084488
:102F5000BDF80E108A1CD14301EB000CBDF81430F3
:102F6000BDF81000184401449DF80D00029B019328
:102F700000900FFA8CF009B212B20423FFF7DAF9CD
:102F8000BDF81600BDF80E108A1C00EB020CBDF84F
:102F90001410BDF810301944D34319449DF80D3076
:102FA0000298019000930FFA8CF009B212B2082334
:102FB000FFF7C0F906B080BD80B586B05020ADF8EF
:102FC00016006420ADF814003C20ADF81200192062
:102FD000ADF810000A20ADF80E006FF07F400290AF
:102FE000BDF81600BDF80E2000EB020CBDF8141061
:102FF000BDF81230A3EB4202BDF8103002980090E9
:103000001FFA8CF092B2FFF7A5FEBDF81600BDF8CE
:1030100012100844BDF90E20D14301EB000CBDF89D
:1030200014101144BDF810306FEA42001844029B9E
:10303000019300B2009009B20FFA8CF00123FFF760
:10304000AFF8BDF81600BDF90E2000EB020CBDF87C
:1030500014101144BDF810306FEA42001844029B6E
:10306000019300B200900FFA8CF009B20223FFF72F
:1030700097F806B080BD000081B02220ADF80200B4
:10308000BDF802004FF0C041088001B07047000059
:1030900081B0ADF80200BDF802000021C6F20201C5
:1030A000088001B07047000081B0ADF80200ADF8B3
:1030B0000010BDF802004FF0C0410880BDF80000CC
:1030C0000021C6F20201088001B0704780B582B0CD
:1030D0008DF80700ADF804109DF807102020FFF7C9
:1030E000E3FFBDF804102120FFF7DEFF02B080BD32
:1030F00080B588B00520ADF81E00ADF81C00ADF815
:103100001A001420ADF818001920ADF81600ADF81B
:10311000140001208DF813004FF47F000390BDF8D8
:103120001E00BDF81C10BDF81A20BDF818309DF81F
:1031300013C0DDF80CE0CDF804E0CDF800C0FFF7D7
:1031400015FDBDF81A00BDF81810BDF81620BDF821
:1031500014309DF813C0DDF80CE0CDF804E0CDF894
:1031600000C0FFF703FDBDF81600BDF81410BDF850
:103170001E20BDF81C309DF813C0DDF80CE0CDF822
:1031800004E0CDF800C0FFF7F1FC08B080BD0000FE
:1031900080B58EB00520ADF83600ADF83400ADF83E
:1031A00032001420ADF830001920ADF82E00ADF833
:1031B0002C00FF200A900020ADF82600ADF8240076
:1031C000ADF82200ADF82000ADF81E00ADF81C00EF
:1031D000ADF81A00ADF81800ADF81600ADF81400FF
:1031E000ADF81200ADF81000ADF80E00BDF83200D9
:1031F000BDF83610401A012806DBFFE7BDF83200A3
:10320000BDF83610401A05E0BDF83200BDF83610A2
:10321000081AFFE7ADF82600BDF83000BDF83410FD
:10322000401A012806DBFFE7BDF83000BDF8341076
:10323000401A05E0BDF83000BDF83410081AFFE769
:10324000ADF82400BDF83600ADF82200BDF834001A
:10325000ADF82000BDF83200BDF83610884206DB1C
:10326000FFE70120ADF81E00ADF81C0006E04FF6A8
:10327000FF70ADF81E00ADF81C00FFE7BDF8300090
:10328000BDF83410884206DBFFE70120ADF81A00D4
:10329000ADF8180006E04FF6FF70ADF81A00ADF873
:1032A0001800FFE7BDF92600BDF92410884219DB9C
:1032B000FFE70020ADF81E00ADF81800BDF82600AD
:1032C000ADF81600BDF9260000EBD0704008ADF84F
:1032D0001400BDF82400ADF81200BDF82600ADF8CA
:1032E000100018E00020ADF81C00ADF81A00BDF881
:1032F0002400ADF81600BDF9240000EBD0704008A2
:10330000ADF81400BDF82600ADF81200BDF8240099
:10331000ADF81000FFE70020ADF80E00FFE7BDF9A3
:103320000E00BDF9101088424BDCFFE7BDF822000B
:10333000BDF82010BDF82E20BDF82C30DDF828C0D7
:10334000CDF804C04FF0010CCDF800C0FFF70EFC23
:10335000BDF81200BDF814100844ADF81400BDF912
:103360001400BDF91610884216DBFFE7BDF8160001
:10337000BDF81410081AADF81400BDF81E00BDF811
:1033800022100844ADF82200BDF81A00BDF8201044
:103390000844ADF82000FFE7BDF81C00BDF822107E
:1033A0000844ADF82200BDF81800BDF8201008440C
:1033B000ADF82000FFE7BDF80E000130ADF80E00BB
:1033C000ADE70EB080BD000080B58EB000200D903E
:1033D0000C900B900A900990089007900690059029
:1033E0000490039002900190009040F20C11C2F200
:1033F00000014FF020420A6040F20412CAF20002BB
:103400004A608860C860086110224A618861C861AA
:10341000086248624FF480538B62C8624FF4804365
:103420000B634863886307900F2108910123099378
:103430000A900B9211230C930D90009001910221A0
:103440000291039004920593069007A86946FEF73F
:10345000F7FB10B1FFE7FCF763FF1C20C4F201008B
:10346000016841F4806101600EB080BD70B588B024
:1034700000200790069005900490FFE741F21800A5
:10348000C4F20200016841F004010160006800F02C
:10349000040003900398FFE7FFE741F21800C4F22D
:1034A0000200016841F008010160006800F00800B6
:1034B00002900298FFE7FFE741F21800C4F2020011
:1034C000016841F040010160006800F04000019097
:1034D0000198FFE7FFE741F21800C4F2020001681B
:1034E00041F020010160006800F020000090009889
:1034F000FFE70324002603200021FDF71DFA0494B2
:103500000120059006960220079040F60044C4F280
:10351000010404AD20462946FDF762F840200490DE
:103520000596069620462946FDF75AF808B070BD64
:1035300080B540F27000C2F2000043F20001C4F214
:10354000010101604FF48271416000218160C1601E
:10355000016141614FF4802282613822C2610162BF
:10356000416281620A21C162FDF7A8FF10B1FFE745
:10357000FCF7D6FE80BD000080B540F2C800C2F264
:10358000000043F60001C4F2010101604FF4E13193
:10359000416000218160C16001610C224261816152
:1035A000C161FEF7A7FB10B1FFE7FCF7B9FE80BDD4
:1035B000FFE7FEE7FFE7FEE786B005900491039280
:1035C000059800F0070002900298C0F10700052856
:1035D00002D3FFE7042003E00298C0F10700FFE7F1
:1035E000019002980430062802D8FFE7002002E08C
:1035F00002980338FFE7009004980199012202FA2B
:1036000001F10139084000998840039B02FA01F159
:1036100001391940084306B07047000070470000A8
:1036200082B001200190019840F20401C2F2000131
:103630000968C90844F6D352C1F26202A1FB021222
:10364000910948430090FFE700BFFFE70098411E43
:1036500000910028F8D1FFE702B0704780B584B030
:1036600002900191009202980199009A00F014F8DA
:1036700048B1FFE70298416D41F020014165032008
:103680008DF80F0003E000208DF80F00FFE79DF894
:103690000F0004B080BD000010B58AB008908020F3
:1036A000079000208DF81B0005910492059CFDF702
:1036B0005FF90499081A20440290FDF759F9019026
:1036C000029840F20401C2F200010968C1F3CB3153
:1036D00048430390FFE7089800688068079908400E
:1036E000401AB0FA80F040099DF81B1088425ED065
:1036F000FFE705980130002858D0FFE7FDF738F9BB
:103700000199401A0299884204D2FFE702980028E2
:1037100042D1FFE708980068416821F0E00141606C
:1037200008984068B0F5827F13D1FFE70898806859
:10373000B0F5004F06D0FFE708988068B0F5806FBD
:1037400007D1FFE708980068016821F04001016097
:10375000FFE70898806AB0F5005F0FD1FFE7FFE749
:1037600008980068016821F4005101600898006819
:10377000016841F400510160FFE7FFE7089801216B
:1037800080F85110FFE70898002180F85010FFE7FB
:1037900003208DF827000EE0039818B9FFE70020FA
:1037A0000290FFE7039801380390FFE793E70020BA
:1037B0008DF82700FFE79DF827000AB010BD000034
:1037C0007047000080B582B0009000980138B0F1D9
:1037D000807F03D3FFE70120019019E000980138B2
:1037E0004EF21401CEF2000108604FF0FF300F21BD
:1037F00000F024F94EF21800CEF200000021016022
:103800004EF21000CEF20000072202600191FFE7A5
:10381000019802B080BD000080B5FDF7AFF880BD13
:1038200010B590B006AC20462821FCF74EFD0020D4
:1038300005900490039002900190012106914FF4AD
:103840008032079208900A9102200D900E924FF458
:10385000E0100F902046FDF7F5FA10B1FFE7FCF7F6
:103860005FFD0F20019002200290002003904FF492
:1038700080610491059001A8FDF720F910B1FFE7E0
:10388000FCF74EFD10B010BD7047000080B584B04D
:10389000039003980068006920F4405003990A6877
:1038A000C96808431061039881680269406911433F
:1038B0000843029003980068C06841F20C61884395
:1038C0000299084303990968C86003980068406931
:1038D00020F4407003990A6889690843506103988D
:1038E000006843F60001C4F20101884204D1FFE7F9
:1038F000FDF728FA019003E0FDF712FA0190FFE7C7
:1039000001981921484303990A6849688900B0FB66
:10391000F1F048F21F5CC5F2EB1CA0FB0C31490929
:10392000642301FB1300322303EB0010A0FB0C0304
:10393000F02000EA531000EB0110C3F343110844D8
:10394000906004B080BD0000FFE7FEE780B582B064
:10395000D02000F0B3F800F021FC0021C4F2963131
:1039600048F20002C4F26D520023C4F26F3300F03B
:10397000AFFA00F0F7FBADF80400BDF80400C0F1A9
:10398000EF00ADF80400BDF8040001280ADBFFE7F2
:10399000BDF80400EE2805DCFFE7BDF80400ADF833
:1039A000060003E00020ADF80600FFE7BDF80600C2
:1039B00002B080BD80B58020FDF74AFE0020FDF7F3
:1039C00047FE0020FDF744FE80BD000080B582B0B8
:1039D000902000F073F800F0E1FB0021C4F24831C0
:1039E00046F20002C4F26A5248F20003C4F29F3366
:1039F00000F06EFA00F0B6FBADF80400BDF804006C
:103A000001280BDBFFE7BDF80400B0F59F7F05DC64
:103A1000FFE7BDF80400ADF8060003E00020ADF8B4
:103A20000600FFE7BDF8060002B080BD4EF60C5060
:103A3000CEF200000068C0F30220704782B08DF81B
:103A4000070000919DF9070000280AD4FFE70098BD
:103A500000019DF907104EF20042CEF20002885498
:103A60000BE0009800019DF8071001F00F014EF6E1
:103A70001452CEF200028854FFE702B070470000F3
:103A800083B00290029800F0070000904EF60C50B0
:103A9000CEF200000168019101994FF6FF0211403A
:103AA00001910199009A41EA02210022C0F2FA52E2
:103AB000114301910199016003B0704770B582B064
:103AC0008DF807000120FCF72DFD0DF107042046BD
:103AD000FDF7BEFD00268DF807600DF106052046B6
:103AE0002946FDF7FDFE9DF80600ADF802008DF8B1
:103AF000076020462946FDF7F3FE9DF80600ADF865
:103B00000400BDF80200BDF8041041EA0020C0F333
:103B1000CF0002B070BD000080B582B045F64270A3
:103B2000C0F6000000680190FFE7BDF80400BDF892
:103B30000610884209D0FFE7FFF748FFADF8040000
:103B4000FFF744FFADF80600EFE7BDF8040002B050
:103B500080BD000080B582B045F64270C0F600001E
:103B600000680190FFE7BDF80400BDF80610884228
:103B700009D0FFE7FFF7EAFEADF80400FFF7E6FE25
:103B8000ADF80600EFE7BDF8040002B080BD00000C
:103B900086B000240594FCF7F9FEFFF741FEFFF71D
:103BA00065FCFFF711FCFFF7C3FCFFF7E5FCFEF730
:103BB0008BFFFFF7FFFEFF200090002000214FF455
:103BC000A072F023FFF7C6F80094012001214FF402
:103BD0009F72EE23FFF7BEF8009400200021A02280
:103BE0008023FFF7B7F808208DF81300FFE79DF852
:103BF0001300A02813DCFFE79DF813204FF47F404B
:103C0000019001200090002000218023FEF7AEFFEC
:103C1000FFE79DF8130008308DF81300E7E7082050
:103C20008DF81200FFE79DF81200802813DCFFE7F3
:103C30009DF812304FF47F40019001200090002049
:103C40000021A022FEF792FFFFE79DF81200083046
:103C50008DF81200E7E7FA20FCF764FC10208DF8DD
:103C6000110014208DF8100000208DF80F00FFE7E0
:103C70009DF80F00072824DCFFE79DF81020502056
:103C8000A0EB52009DF811304021A1EB53014FF6FB
:103C90000077C0F2FF07009780B289B2FEF7F8FF05
:103CA0009DF8110010308DF811009DF810001430AF
:103CB0008DF81000FFE79DF80F0001308DF80F0020
:103CC000D6E7FA20FCF72EFCFF2600960024002001
:103CD0000021A0228023FFF73DF800940125012058
:103CE00001219E227E23FFF735F84FF60070C0F2C7
:103CF000FF00009045F64E72C0F6000244F6E40361
:103D0000C0F6000305202821FEF75AFE4FF0FF17EA
:103D1000019700951720142189221423FEF726FF0E
:103D2000019600951720152189221523FEF71EFF05
:103D3000019600951720152189221523FEF716FFFD
:103D4000009745F68872C0F6000244F6F843C0F6C4
:103D5000000329200A21FEF733FE4FF47F06009668
:103D600045F67D72C0F6000245F62C13C0F600033E
:103D70002D202321FEF724FE28201E2100224FF4AF
:103D80007F03FEF711F92D2014210122FF23FEF7F6
:103D90000BF9FFF7FDF9FFF7ABF94FF47F40009007
:103DA0003C202D211E221423FEF772FFFFF714F88A
:103DB000FFF702F90220019000943C2064211E22AA
:103DC0001423FEF7C5FB019500957D203C211922A7
:103DD0000F23FEF7BDFB009645F67272C0F6000297
:103DE00045F61473C0F600030020C821FEF7E8FD75
:103DF000009645F69772C0F6000245F29C13C0F695
:103E000000030A20DC21FEF7DBFDFFE7FCF778FD6D
:103E1000012807D1FFE740F26800C2F2000001214B
:103E20000170FFE740F26800C2F20000007801284C
:103E300047D1FFE7FFF770FE40F26A04C2F20004C8
:103E40002080FFF787FE40F26C01C2F2000108807B
:103E5000208808B3FFE740F26C00C2F2000000883F
:103E6000D0B1FFE740F26A00C2F200000088DB2810
:103E700012D0FFE740F26A00C2F20000008840F270
:103E80006C01C2F2000109886FF07F4200920122AA
:103E90000123FEF75FFFFFE7002402200021FCF76B
:103EA0004BFD40F26A00C2F20000048040F26C0058
:103EB000C2F20000048040F26800C2F20000047008
:103EC00004E002200121FCF737FDFFE79EE7000038
:103ED00070B586B005900491039200200290019382
:103EE0000598049C214600F039FA05460198029E87
:103EF000314600F033FA0146284600F063F90546E2
:103F00000398214600F02AFA0146284600F068F896
:103F1000314600F003F806B070BD000090EA010FD2
:103F200048BF81F0004100F12082421A3CBF801A54
:103F300089184FEAD052A2EBD1534FF07F4C1CEAC4
:103F4000410F18BF9CEA026F00F03B804FF0004C1D
:103F50004CEA00204CEA012121FA03FC10EB0C0C86
:103F60001ED202F1FF325FEA1C2040EBC25038BF84
:103F700070471CF07F0F4FEA400C18BFBCF17F4F19
:103F800038BF7047C3F12003994008BF20F00100FB
:103F9000BCF17F4F38BF7047A0F1C04000F0D9B9E5
:103FA0004FEA3C00000A40EBC25028BF1CF0FF0F54
:103FB0004FEA400CE6D018BFBCF17F4F38BF7047C6
:103FC000EAE79CEA026F05D010EA5C0F08BF00F038
:103FD0000040704710B500F076F900BF64FBBE3EAC
:103FE0004FF47F0C1CEAD0121EBF1CEAD11392EAD8
:103FF0000C0F93EA0C0F00F0858090EA010F48BF88
:1040000042F4807240F4000C41F400002CF07F4137
:1040100020F07F4000B5A2EB030281420FF2081CA2
:10402000ACEB504E9EF800E0C0F100004FEA4E0E9F
:1040300000FB0EFC38BF49004FEA2C1C0CFB0EF3B2
:104040004FEACE1E0EEB635E4FEA112C0EFB0CFC0A
:104050004FEAC1214FEA1C5300FB031102F5FA029B
:104060004FEA112C0EFB0CFC4FEA01314FEADC4CFD
:1040700000FB0C1142EB2242C14228BF09184CEB55
:1040800003335DF804EB10EB410143EBC250B2F592
:104090007C0F38BF704729D512F0F00F1CBF00F11C
:1040A000C04000F00040704700818283848586878D
:1040B00088898B8C8D8E8F919293959697999A9CE7
:1040C0009D9FA0A2A3A5A7A8AAACAEB0B2B3B5B756
:1040D000B9BCBEC0C2C5C7C9CCCED1D4D7D9DCDF2C
:1040E000E2E6E9ECF0F3F7FAFE0000004FEA400CDC
:1040F0000CF1807CBCF17E4F28BF7047B0F1C0400E
:1041000000F027B90CEAD11390EA010F48BF42F43E
:104110008072624538BF634507D213F47F0F16D013
:1041200080EA010000F00040704710B500F0CBF8C5
:10413000097EFC3E00F005B880EA010000F0004076
:10414000704780EA010000F0004000F002B912F46C
:104150007F0F04BF0248704780EA010000F0F9B801
:104160000000C07F41000B0ED3F19E0208D950F42D
:1041700000034FEA032323FA02F048BF404270478E
:1041800010B500F0A0F800BF4992248000207047CD
:104190006FF0004282EA200070470000B0FA80F31E
:1041A00010FA03F2C3F19D030AD0D90501EB1220E6
:1041B000530638BF704700F1010008BF20F001002E
:1041C000704700004FF47F0C1CEAD0121EBF1CEA9F
:1041D000D11392EA0C0F93EA0C0F00F0478090EA9B
:1041E000010F48BF42F480724FF0004C4CEA0020AF
:1041F0004CEA012102EB0302A0FB0113A2F500022D
:10420000002918BF43F001035B0028BF4FEA3303C6
:1042100042EB22425FEA132C4CEBC2502EBFBCEBA8
:10422000436FB2F57C0F70474FEA036CBCF1004F4F
:1042300008BF20F00100B2F57C0F38BF70470BD5E6
:1042400082F0FF0212F5803FC8BF704700F1C04006
:10425000D8BF00F00040704700F5000C5FEA4C0C3E
:1042600048BF7047B0F1C04000F073B80CEAD113FA
:1042700090EA010F48BF42F48072624538BF63453F
:1042800004D280EA010000F00040704710B500F051
:104290001AF800BF8900013E00F007B800F009B825
:1042A0005FEA410C5FEA1C6C08D080EA010000F074
:1042B00050B85FEA400C5FEA1C6CF6D14FF000404A
:1042C000A0F5800070470EF1020E2EF0030E5EF88E
:1042D000044B244204D44FEA4102B2F17F4F11D87B
:1042E0004FEA4003B3F17F4F0CD80ED14FEAD07C98
:1042F0000CEB4C0C0CF1020CB2F17F4F08BF4CEBF5
:10430000D17C04E04FF0080C01E04FEAD17C0CEBCB
:104310004C0324FA03F404F00704B4F1040C06D2AD
:104320000EEB840CBDE810404CF0010C6047DFE858
:104330000CF0070802024FF00040A0F5800010BD0D
:104340000846420018BFD2F1807288BF00F00040DA
:1043500010BDFF2141EAD050C005704790EA010F1F
:1043600048BF81F000413FF5E0AD421A04D882F029
:104370000042A0EB020011444FEAD052A2EBD1530D
:104380004FF07F4C1CEA410F18BF9CEA026F4AD0E5
:104390004FF0004C4CEA00204CEA012121FA03FCCA
:1043A000B0EB0C0C0FD412F0FE0F36D05FEA4C00CD
:1043B0001DD5001240EBC25038BF70471CF03F0FB4
:1043C00018BF70470BE05FEA1C20A2F1010240EB2E
:1043D000C25038BF70471CF07F0F18BF7047C3F141
:1043E0002003994014BF401E20F0010070474FEA9F
:1043F0001223800808BF7047B0FA80FCA2EB0C02C1
:10440000CCF1280C60FA0CF093EA122F04BF00EBF9
:10441000C25070474FEAC3707047130A5FEADC105E
:1044200008BF7047F6E79CEA026F04D010EA5C0F01
:1044300008BF0020704710B5FFF745FF40DFF63E8C
:1044400081F0004070470000008080800080A0A0C4
:10445000A0E0A0E0A060C060C0408020408020C0FC
:10446000C0E0A060808040808080408040404080EC
:10447000A040A040E0404080E0802020408080605C
:10448000A0A0A0C040C0404040C0204080E0C0206C
:104490004020C0A0A0E02020E080C020C06080E0DC
:1044A000A0E0E020408080E0A0E0A0E0E0A0E020EC
:1044B000C0800080400040802040804020E000E03C
:1044C0008040204080E02040004040A0E0806040EC
:1044D000A0E0A0A0C0A0C0A0C06080808060C0A0FC
:1044E000A0A0C0E080E080E0E080E080806080E02C
:1044F000A060A0A0E0A0A0E0404040E0202020A0DC
:1045000040A0A0C0A0A080808080E0A0E0E0A0A0AB
:10451000A0E0E0E0A040A0A0A040C0A0C0808040FB
:10452000A0A0E060C0A0E0C0A060804020C0E0404B
:10453000404040A0A0A0A060A0A0A04040A0A0E05B
:10454000E0A0A0A040A0A0A0A0404040E02040806B
:10455000E0E0808080E0804020E0202020E040A05B
:10456000E08040C060A0E080C0A0A0C0608080600B
:104570002060A0A06060A0C0602040E0404060A03B
:10458000E0204080C0A0A0A080008080802000208B
:1045900020A04080A0C0C0A0C0404040E0E0E0E0DB
:1045A000A0C0A0A0A040A0A040C0A0A0C08060A0CB
:1045B000A060206080808060C060C040E0404060BB
:1045C000A0A0A060A0A0E040A0E0E0E0A04040A04B
:1045D000A0A0602040E060C0E0604080406080803B
:1045E000008080C0402040C060C000000801020080
:1045F000FB00010008050200FB00060008020400A1
:10460000FB00080008050400FB000D00080504007D
:10461000FB00120008050400FB0017000805040059
:10462000FB001C0008020200FB001E00080503003E
:10463000FB00230008050300FB002800080304001A
:10464000FB002B0008030400FC002E0008020300FE
:10465000FE00300008010400FD00310008010200E6
:10466000FF00320008050400FB00370008050400C5
:10467000FB003C0008050300FB00410008050400A6
:10468000FB00460008050400FB004B000805040081
:10469000FB00500008050400FB005500080504005D
:1046A000FB005A0008050400FB005F000805040039
:1046B000FB00640008050400FB0069000803020019
:1046C000FC006C0008040300FC00700008050400F6
:1046D000FB00750008030400FC00780008050400D6
:1046E000FB007D0008050400FB00820008050400B3
:1046F000FB00870008050400FB008C00080504008F
:10470000FB00910008050400FB009600080504006A
:10471000FB009B0008050400FB00A0000805040046
:10472000FB00A50008050400FB00AA000805040022
:10473000FB00AF0008050400FB00B40008050400FE
:10474000FB00B90008050400FB00BE0008050400DA
:10475000FB00C30008050400FB00C80008050400B6
:10476000FB00CD0008050400FB00D2000805040092
:10477000FB00D70008050400FB00DC00080504006E
:10478000FB00E10008050400FB00E600080504004A
:10479000FB00EB0008050400FB00F0000805040026
:1047A000FB00F50008050400FB00FA000805040002
:1047B000FB00FF0008050400FB00040108050400DD
:1047C000FB00090108050400FB000E0108030400BA
:1047D000FC00110108050400FB001601080204009A
:1047E000FB00180108010400FF0019010802030082
:1047F000FB001B0108040400FC001F010805040065
:10480000FB00240108040400FC0028010805040042
:10481000FB002D0108040400FC0031010805040020
:10482000FB00360108050400FC003B0108050400FC
:10483000FB00400108050200FB00450108060400DA
:10484000FB004B0108050400FB00500108050400B3
:10485000FB00550108040400FC0059010804040091
:10486000FC005D0108040400FC006101080504006F
:10487000FC00660108050400FC006B01080404004C
:10488000FC006F0108040400FC007301080504002B
:10489000FB00780108040400FC007C01080404000B
:1048A000FC00800108040400FC00840108040400EA
:1048B000FC00880108050400FC008D0108040400C8
:1048C000FC00910108050400FB00960108050200A8
:1048D000FB009B0108050400FB00A0010802040086
:1048E000FB00000048440008EA450008207E06005E
:1048F000E8A057D5F500FD3E5F8088888880F4BF2A
:104900002E80806A409580AA805D00C0F080088873
:104910008800FC631F80F8F87F0F80F87E1F808C72
:104920007E1080FC3E1F80FC3F1F80F8421080FC00
:104930007F1F80FC7E1F8090B02A22F0F088A8F8AC
:104940004E0200FD6F0F80FC7F1880F47D1F00FC7D
:10495000210F80F4631F00FC3F0F80FC3F0800FC28
:104960002F1F808C7F1880F9084F8078852F808DCD
:10497000B1688084210F80FD6B5A80FC631880FC35
:10498000631F80FC7F0800FC633F80FC7F2900FCE4
:104990003E1F80F90842008C631F808C62A200AD2C
:1049A0006B5F808A88A8808C544200F87F0F80EA71
:1049B000C082082080D5C054F880F1FF8F99F0F8AC
:1049C0008F1F99F0FF8F6BA4F99F108F9990F0556E
:1049D000C08AF990F8FD6310F999F99FF99F80F961
:1049E0009F20F888471F27C84200999F99978C6B92
:1049F000F09669999F102E8F2B22F889A80FE0005E
:104A00000000000006000100000001050200FC009B
:104A1000010003010400FC00020005050600FC0083
:104A2000060005050600FC000A0005050600FC005E
:104A30000E0005050600FC00120001010200FC004A
:104A4000130002050300FC00150002050300FC0032
:104A5000170003030400FD00190003030400FD0018
:104A60001B000102020000001C0004010500FE0002
:104A70001D000101020000001E0005050600FC00EB
:104A8000220005050600FC00260001050200FC00CE
:104A9000270005050600FC002B0005050600FC00AC
:104AA0002F0005050600FC00330005050600FC008C
:104AB000370005050600FC003B0005050600FC006C
:104AC0003F0005050600FC00430005050600FC004C
:104AD000470001040200FD00480001040200FD003F
:104AE000490003050400FC004B0004030500FD0021
:104AF0004D0003050400FC004F0005050600FC0006
:104B0000530005050600FC00570005050600FC00E3
:104B10005B0005050600FC005F0005050600FC00C3
:104B2000630005050600FC00670005050600FC00A3
:104B30006B0005050600FC006F0005050600FC0083
:104B4000730005050600FC00770005050600FC0063
:104B50007B0005050600FC007F0005050600FC0043
:104B6000830005050600FC00870005050600FC0023
:104B70008B0005050600FC008F0005050600FC0003
:104B8000930005050600FC00970005050600FC00E3
:104B90009B0005050600FC009F0005050600FC00C3
:104BA000A30005050600FC00A70005050600FC00A3
:104BB000AB0005050600FC00AF0005050600FC0083
:104BC000B30005050600FC00B70005050600FC0063
:104BD000BB0005050600FC00BF0002050300FC0049
:104BE000C10005050600FC00C50002050300FC002D
:104BF000C70003020400FC00C80005010600010014
:104C0000C90001010200FC00CA0004040500FD0007
:104C1000CC0004050500FC00CF0004040500FD00E5
:104C2000D10004050500FC00D40004040500FD00CB
:104C3000D60003050400FC00D80004050500FD00B3
:104C4000DB0004050500FC00DE0001040200FD009D
:104C5000DF0002050300FD00E10004050500FC0083
:104C6000E40001050200FC00E50005040600FD006B
:104C7000E80004040500FD00EA0004040500FD004E
:104C8000EC0004050500FD00EF0004050500FD0033
:104C9000F20004040500FD00F40004040500FD001A
:104CA000F60005050600FC00FA0004040500FD00FE
:104CB000FC0004040500FD00FE0005040600FD00E4
:104CC000010104040500FD00030104050500FD00C9
:104CD000060104040500FD00080103050400FC00B2
:104CE0000A0101050200FC000B0103050400FC00A1
:104CF0000D0105030600FD00F0480008004A000809
:104D0000207E0700FD5AA028AFCA53F51423EB46B6
:104D100018B5F1004AAB1428D55221451EAAA91B8B
:104D2000582A49244488924950255CEA902109F286
:104D3000108058F88008842211084400746318C653
:104D40002E592497746222221F744260862E119479
:104D5000A93C43FC21E0862E74A1E8C62EFC8442C7
:104D600010847462E8C62E746317852E848C0888BC
:104D700088208208F801F0820820888880746222E6
:104D8000100474675ADE0F20831451E4B3F252E426
:104D9000A53E7C6108422EF25294A53EFA54E521CC
:104DA0003FFA54E5211C3928209E248CCD249E49AD
:104DB00024B3F90842109F7C4104104124E0ED2502
:104DC000185144BBE1041041047FDEF7BAD6B5DDCB
:104DD000269A5964BA746318C62EF252E4211C74E0
:104DE0006318F66E18F1249C5124BB7C60C1063E0A
:104DF000FD4842108ECD249249248CCD249450C27B
:104E000008AD6AE5294ADA9442295BDA9442108EA9
:104E1000FC8442213FF249249C8884422210E4927F
:104E2000493C54FC80649D2780C210E4A52E7988FB
:104E3000703084E94A4F69F8703A11E4211E7C9978
:104E40000F45C0C1041C4924BB40649710031111D5
:104E50001EC1041751C4BBE10842109FF56B5A8074
:104E6000F12492EC699960F25297238074A5270887
:104E7000E0DB108E00F861F044E44430D924923C29
:104E8000ED250C20AD5CA500DA88AD80ED250C2069
:104E90008C00F244F06928924CFFF0C922925842EB
:104EA00091800000000008000000000001080802D6
:104EB000F700010004030801F600030006080800DB
:104EC000F7000900050A0800F600100006080800AF
:104ED000F700160006080800F7001C00020308008F
:104EE000F6001D00030A0803F6002100030A08016A
:104EF000F600250005060800F8002900050708004F
:104F0000F7002E0002030800FE002F000501080034
:104F1000FA00300001010801FE003100050A080016
:104F2000F600380005080800F7003D0003080801F6
:104F3000F700400005080800F700450005080800D4
:104F4000F7004A0005080800F7004F0005080800B0
:104F5000F700540005080800F7005900050808008C
:104F6000F7005E0005080800F70063000508080068
:104F7000F700680001060802F9006900010608024E
:104F8000FA006A0005090801F6007000050408002F
:104F9000F900730005090801F6007900050808000A
:104FA000F7007E0005080800F700830006080800E7
:104FB000F700890005080800F7008E0005080800C2
:104FC000F700930005080800F7009800050808009E
:104FD000F7009D0005080800F700A2000608080079
:104FE000F700A80006080800F700AE000508080052
:104FF000F700B30006090800F700BA000608080029
:10500000F700C00006080800F700C6000508080001
:10501000F700CB0006080800F700D10005080800DB
:10502000F700D60005080800F700DB0005090800B6
:10503000F700E10006080800F700E700050808008F
:10504000F700EC0005080800F700F100060808006A
:10505000F700F70006080800F700FD000508080043
:10506000F700020105080800F7000701050808001D
:10507000F7000C0105080800F7001101030A0802F7
:10508000F600150104090801F6001A01030A0801D7
:10509000F6001E0103020801F6001F0106010800C8
:1050A0000000200101010802F600210105050801A8
:1050B000FA00250105080800F7002A010405080187
:1050C000FA002D0105080801F70032010405080166
:1050D000FA00350105080801F7003A010507080143
:1050E000FA003F0106080800F7004501030808011F
:1050F000F7004801040A0800F7004D0106080800FF
:10510000F700530105080800F700580105050800DD
:10511000FA005C0106050800FA00600104050801B8
:10512000FA00630105070800FA0068010507080195
:10513000FA006D0105050800FA0071010405080177
:10514000FA00740104070801F80078010605080058
:10515000FA007C0106050800FA0080010505080038
:10516000FA00840105050800FA0088010607080016
:10517000FA008E0104050801FA009101030A0802F1
:10518000F6009501010C0803F5009701030A0801D8
:10519000F6009B0106030800F5000000044D00081E
:1051A000A24E0008207E0C00FFF4921FF0CF3CE3DB
:1051B00088130984C247F990C84CFF13090C864034
:1051C0001038D692D2F07C3E179393D67C103C21B7
:1051D000CF0E2430A0C50334E72640B904C42330E1
:1051E0008C841C0F00CC06603E00E78F189C8CE47A
:1051F000E3C79E3C72FDE0FF803244CCCCCCC4625D
:10520000108422333333326480316BB18ED68C00FC
:10521000080402010FF84020100800DF9500FFFF8E
:10522000800C218610C308618430C01C3398DC7E5A
:105230003F1F8FC7E3B198C38008E38E38E38E38F1
:10524000E3BF3C3F23C0E07030381818185FDFE040
:105250007C8E0E0E0C1E07030302E6F8060E0E3EB1
:105260002E4E8E8EFFFF0E0E3F7E4040F8FC1E0637
:105270000202E4F8071C3070FCE6E7E7E767663CEB
:105280007F3FA0D040603010180C040603003CC6DD
:10529000C6C6FC7C3ECFC7C7C67C3E33B8DC7E3F6B
:1052A0001DCE7F07070F1C00FF803FE0FF8037E522
:1052B000400000707878783803803C03C030FFC02D
:1052C000000000FFC0C03C03C01C01C1E1E1E0E000
:1052D00000003D9F3E70E104080070E1C00F818333
:1052E00018C4899C4CE4672239224FE3000C101F3C
:1052F0000002003001C00E00B805C04F02383FE187
:1053000007183DE3F0FF871CE39C739C7F0E71C779
:1053100038E71CE77FC01F261DC1B01E01C038073B
:1053200000E00E04E10FC0FF0E71C738770EE1DC1C
:105330003B8770CE39C67F80FFCE19C1388730FEDB
:105340001CC388702E0DC37FE0FFDC3705C4731FBC
:10535000C731C4701C0703E01F230E706E02E00EFD
:1053600000E1FE0E60E70E38E0F8F9F70E70E70E88
:1053700070E7FE70E70E70E70E70EF9FFB9CE73959
:10538000CE739DF01F0E0E0E0E0E0E0E0E0E0ECED6
:10539000CC78F9F3821C20E207203F01DC0E707309
:1053A000C38F1C3DF3F0F80E01C0380700E01C036A
:1053B00080702E09C37FE0F80F3C1E3C1E2E2E2E5F
:1053C0002E264E274E274E238E238E210E711FF040
:1053D000EE09E13E25E49E91D21E43C839037020B8
:1053E0001F830C70EE07E07E07E07E07E0770E304B
:1053F000C1F8FF1CE71DC771DCE7F1C0701C070393
:10540000E00F839C70E606E07E07E07E07E076060C
:1054100030C1980F007803E0FF073871C71C71C7CF
:10542000387E077077873C71EF8F3947C1C0F07CB9
:105430003E0F83C3C6BCFFFCE38E10E00E00E00EFF
:1054400000E00E00E00E01F0F8EE09C1382704E09C
:105450009C1382704E08E20F80FC7BC10E087081A5
:10546000C40E207A01D00E803801C004002000FD57
:10547000FBDC38438710E1C438F2072E81D3A03417
:10548000700E1C03870060801020FEF3C30F1039DC
:1054900000F003801E017009C08F083DF3F0FC7B13
:1054A000C18E083881E807401C00E007003801C0C1
:1054B0001F00FFD8721E4380E01C0701C0382E0F6A
:1054C000837FE0FCCCCCCCCCCCCCF0C1061820C384
:1054D000041860830CF3333333333333F0181C3444
:1054E000266243C1FF80C6307C63B1C0E1F33B9DBF
:1054F000CEFF80F01C0701DC7B9C771DC771DC7739
:10550000393C3CED9F0E1C38393C0780E038EE7783
:10551000B8EE3B8EE3B8E778EF3C66E6FEE0E0E00D
:10552000723C3EEDC7C70E1C3870E1C7C031DFBF0B
:105530007EE79060FCFE0C17C0F01C0701DC7B9C32
:10554000E739CE739CE73BFF739DE739CE739DF03F
:105550001C71CF1C71C71C71C71C7DBEF01C0701DC
:10556000CE711C8741F8771CE71BEFF39CE739CE1F
:10557000739DF0F738F7B9CE739CE739CE739CE78B
:1055800039CEFFFEF71EE739CE739CE739CEFFC058
:105590003E31B8FC7E3F1F8EC63E00F71EE71DC79A
:1055A00071DC771DCE7F1C0701C0F8003C9CEE3BF0
:1055B0008EE3B8EE39CE3F80E0380E07C0F77B703F
:1055C0007070707070F87E73C78E39B010CF9C7198
:1055D000C71C71D380F79CE739CE739CE739CE3F67
:1055E000C0FBB88C8743C0E070100800F7B6317379
:1055F000A33A3DA3DC18C1881080FBB88E8381C01C
:10560000F098CEEF80F7627234343C181810101006
:10561000E0E0FF1C70E3871C71FE198C6318CC61FD
:105620008C6318C3FFF8C318C631863318C6319887
:10563000F08E00000000050001000000030C0601D0
:10564000F500050006050A02F5000900090D09002C
:10565000F4001800080E0901F40026000E0C1202D6
:10566000F5003B000D0C0F01F5004F000205050190
:10567000F5005100040F0601F5005900040F060162
:10568000F500610007070902F500680009090C012F
:10569000F800730003060401FE0076000402060110
:1056A000FC00770003030401FE007900060D0500ED
:1056B000F5008300090C0900F5009100060C0901B2
:1056C000F5009A00090C0900F500A800080C090073
:1056D000F500B400080C0901F500C000080C090130
:1056E000F500CC00080C0901F500D800090C0900F0
:1056F000F500E600080C0901F500F200090C0900AC
:10570000F500000103090601F8000401030C06027C
:10571000F80009010A0A0C01F70016010A050C013C
:10572000FA001D010A0A0C01F8002A01070C090100
:10573000F50035010D0C1102F50049010D0C0D00AD
:10574000F5005D010B0C0C00F5006E010B0C0D015A
:10575000F5007F010B0C0D01F50090010B0C0C0105
:10576000F500A1010A0C0B01F500B0010C0C0E01B3
:10577000F500C2010C0C0E01F500D401050C070167
:10578000F500DC01080E0900F500EA010D0C0E0120
:10579000F500FE010B0C0C01F5000F02100C1100BE
:1057A000F50027020B0C0D01F50038020C0C0E0160
:1057B000F5004A020A0C0B01F50059020C0F0E010C
:1057C000F50070020C0C0D01F5008202080C0A01B4
:1057D000F5008E020C0C0C00F500A0020B0C0D0164
:1057E000F500B1020D0D0D00F500C702120C1200FC
:1057F000F500E2020D0C0D00F500F6020D0C0D0097
:10580000F5000A030B0C0C01F5001B03040F060145
:10581000F5002303060D0500F5002D03040F060116
:10582000F500350308070A01F5003C0309010900EA
:1058300003003E0304030600F400400309090900C5
:10584000F8004B030A0C0A00F5005A030709080088
:10585000F80062030A0C0A00F50071030809080049
:10586000F8007A03070C0700F5008503070D09010E
:10587000F80091030A0C0A00F500A003050C0500CE
:10588000F500A80306100700F500B4030A0C0A008F
:10589000F500C303050C0500F500CB030F090F004D
:1058A000F800DC030A090A00F800E8030909090006
:1058B000F800F3030A0D0A00F80004040A0D0A00B8
:1058C000F800150408090800F8001E04050907017E
:1058D000F8002404060B0600F6002D040A090A004D
:1058E000F800390409090900F80044040C090D0006
:1058F000F800520409090900F8005D04080D0900C8
:10590000F8006A0407090801F8007204051007008E
:10591000F4007C04010D0401F5007E04051007026B
:10592000F400880408020901FC000000A8510008E6
:1059300032560008207E160038FBFFFFEF8E000372
:10594000FFF800FFFF803FFFF803FFFEC33FFFBCEF
:10595000F0000FFF0001FFE0003FFC0007FF8000A8
:10596000FFF0001FFE0003FFC0007FF8000FFF00E4
:1059700001FFE0003FFC0007FF8000FFF0001FFC7C
:105980000000FE00000700000040000004000000CE
:10599000E000007F00003FF0001FFE0003FFC0009A
:1059A0007FF8000FFF0001FFE0003FFC0007FF80D1
:1059B00000FFF0001FFE0003FFC0007FF8000FFF94
:1059C0000001FFE0003F780003C67FFF301FFFF0BB
:1059D00007FFFF007FFFC007FFF00031EFFFFFFF71
:1059E000FFFFFFFFFFFFFF3C30400033FFFFFFFFE3
:1059F000FFFFFFFFFFFFFDE30003FFF800FFFF8055
:105A00003FFFF803FFFEC03FFFBC00000FC00001D6
:105A1000F800003F000007E00000FC00001F8000CD
:105A200003F000007E00000FC00001F800003F00FE
:105A30000007E00000FC00001F800000F07FFF86F0
:105A40001FFFFC4FFFFFE4FFFFF8E7FFFC1F000014
:105A500003F000007E00000FC00001F800003F00CE
:105A60000007E00000FC00001F800003F000007E43
:105A700000000FC00001F800003F000007E0000038
:105A8000780000067FFF001FFFF007FFFF007FFF89
:105A9000C007FFF0000FFFE00FFFF80FFFFE03FF4E
:105AA000FEC0FFFEF00000FC00007E00003F000092
:105AB0001F80000FC00007E00003F00001F80000A5
:105AC000FC00007E00003F00001F80000FC00007A8
:105AD000E00000F1FFFE19FFFFC7FFFFF8FFFFF82E
