:020000040800F2
:100000000005002005010008771C0008390E0008D3
:10001000751C000881010008D11D000800000000C7
:100020000000000000000000000000007B1C000831
:100030008301000800000000791C00087D1C0008F6
:100040001F0100081F0100081F0100081F01000810
:100050001F0100081F0100081F0100081F01000800
:100060001F0100081F0100081F0100081F010008F0
:100070001F0100081F0100081F0100081F010008E0
:100080001F0100081F0100081F0100081F010008D0
:100090001F0100081F0100081F0100081F010008C0
:1000A0001F0100081F0100081F0100081F010008B0
:1000B0001F0100081F0100081F0100081F010008A0
:1000C0001F0100081F0100081F0100081F01000890
:1000D0001F0100081F0100081F0100081F01000880
:1000E0001F0100081F0100081F010008DFF810D0E1
:1000F00000F034F800480047111E0008AFF30080FC
:10010000000500200648804706480047FEE7FEE756
:10011000FEE7FEE7FEE7FEE7FEE7FEE7FEE7FEE7B7
:10012000D11C0008ED000008D2B201E000F8012B5C
:10013000491EFBD270470022F6E710B513460A4667
:1001400004461946FFF7F0FF204610BD421C10F888
:10015000011B0029FBD1801A70470000064C074D97
:1001600006E0E06840F0010394E807009847103487
:10017000AC42F6D3FFF7BEFFF43B0008143C000886
:10018000FEE77047C1F30743CAB2C1F307218908EC
:1001900030B1D808C00240EA411040EAD2007047AE
:1001A000D008C00240EA411040EAD3007047000086
:1001B00070B5044600F004F90546601C02D00448FE
:1001C0000078044400F0FCF8401BA042FAD370BD54
:1001D000000000202DE9F84FDFF8B891002409F164
:1001E000040A0AF1040B23460F270BF1040EC9E0A1
:1001F0000125A5402A40AA427DD1674ED1F804C00E
:10020000ACEB0608B44532D014DCBCF1030F3AD095
:1002100009DCBCF1000F2AD0BCF1010F1CD0BCF1ED
:10022000020F31D11DE0BCF1110F17D0BCF1120F3C
:100230002AD119E0B8F5881F19D006DCB8F5803F3F
:1002400015D0B8F5801F1FD111E0B8F5001F0ED0F2
:10025000B8F5041F18D10AE0CB6815E0CB681B1D68
:1002600012E0CB6808330FE0CB680C330CE08B68EE
:100270002BB1012B4FF0080303D0456104E00423A8
:1002800002E0056100E00023FF2A01D8064601E0F4
:1002900000F104064FEA840501D9A5F12005D6F83E
:1002A000008007FA05FC28EA0C0803FA05F548EA7D
:1002B0000508C6F800804D68ED0062D5374DAE697F
:1002C00046F00106AE61AD6924F0030605F00105B4
:1002D0000095334D06EB050CDCF80850A607360FE9
:1002E00007FA06F825EA0805DFF8B880404503D18B
:1002F0004FF0000817E044E0DFF8AC80404502D141
:100300004FF001080FE0DFF8A480404502D14FF024
:10031000020808E0DFF89880404502D14FF003085A
:1003200001E04FF0040808FA06F848EA0508CCF89E
:1003300008804D68D9F80060ED034D4601D516439D
:1003400000E096432E604D68DAF80060AD03554634
:1003500001D5164300E096432E604D68DBF800603F
:10036000ED025D4601D5164300E096432E604D68D0
:10037000DEF80060AD02754601D5164300E09643F5
:100380002E60641C0D682A46E5407FF431AFBDE85D
:10039000F88F00000004014000001110001002401E
:1003A0000000014000080140000C01400010014025
:1003B000001401400AB1016170470904FBE7000025
:1003C00001488068704700000000002070B50400FC
:1003D00025D094F83D00002520B984F83C502046F3
:1003E00000F0B8F8242084F83D002068016821F06E
:1003F000010101602068016841F40041016020684A
:10040000016821F40041016000F0FCF94D4A616887
:10041000914201D84C4900E04C49884201D2012068
:1004200070BD4B492368B0FBF1F15E6826F03F06D2
:100430000E435E606368934206D94FF49673594346
:100440004FF47A73B1FBF3F12368491C1E6A26F05E
:100450003F06314319626168914210D84900401E3D
:10046000B0FBF1F2521CC2F30B02042A01D20420A9
:1004700022E0B0FBF1F0401CC0F30B001CE0A268CE
:10048000F2B301EBC10303EB0116431EB3FBF6F31A
:100490005B1C43F480431B0549D092B301EBC102BE
:1004A00002EB0111401EB0FBF1F0401CC0F30B0049
:1004B00040F4804040F400402168CA694CF6FF7364
:1004C0009A431043C861D4E90710014320680268C9
:1004D00022F0C00211430160D4E903010143206806
:1004E000826848F2FF339A4311438160D4E90501E1
:1004F00008432168CA6822F0FF021043C86001E087
:100500000EE016E02068016841F0010101602564F9
:10051000202084F83D00256384F83E50002070BD03
:1005200001EB4106431EB3FBF6F35B1CB3E701206E
:10053000C2E701EB4101401EB0FBF1F0401CC0F3EB
:100540000B00B7E7A086010080841E0000093D0073
:1005500040420F0010B586B0002100910191029138
:10056000039100681349884222D1134CA06940F0DE
:100570000800A061A069694600F0080004904FF4EB
:100580004070009012200190032003900B48FFF769
:1005900021FE0B48416841F0E06141F002014160F9
:1005A000E06940F40010E061E06900F4001004909C
:1005B00006B010BD0054004000100240000C014085
:1005C0000000014002488168027811448160704750
:1005D00000000020074810B5016841F010010160DB
:1005E000032000F067F8002000F006F800F024F87F
:1005F000002010BD0020024070B50D4D04464FF4A0
:100600007A712878B1FBF0F00A490968B1FBF0F083
:1006100000F08CFB48B9102C07D200222146501E56
:1006200000F028F800206C6070BD012070BD000053
:10063000000000200C0000200C4808B5816941F042
:1006400001018161816901F001010091C16941F0FD
:100650008051C161C06900F0805000900448416839
:1006600021F0E06141F00071416008BD00100240DE
:1006700000000140F0B40E4B1B680C46C3F302238C
:10068000C3F10705042D00D90425191D072901D23E
:10069000002300E0DB1E012606FA05F1491E214079
:1006A00099409E40761E16403143F0BC01F091BB4C
:1006B0000CED00E0064900F0070208684FF6FF0362
:1006C000184040EA0220034A1043086070470000C7
:1006D0000CED00E00000FA052DE9F0470F4605009B
:1006E00061D0434E306800F00700B84209D230684C
:1006F00020F0070038433060306800F00700B8424F
:1007000051D128683B4C810712D5400703D560685A
:1007100040F4E06060602878000703D5606840F42A
:10072000605060606068A96820F0F0000843606075
:100730002878C00728D06868012810D021680228CE
:1007400010D0890700292EDA616821F003010143E6
:100750006160FFF735FE804641F288390DE021687F
:100760008903EFE78901EDE7FFF72AFEA0EB080117
:10077000494502D90320BDE8F0876068696800F048
:100780000C00B0EB810FEFD1306800F00700B842E9
:100790000BD9306820F0070038433060306800F033
:1007A0000700B84201D00120E5E72878400705D5C9
:1007B0006068E96820F4E06008436060287800071A
:1007C00006D56068296920F4605040EAC100606085
:1007D00000F038F86168084AC1F30311515CC84061
:1007E0000649086006480068FFF706FF0020C2E7D8
:1007F0000020024000100240DC3B00080C000020FA
:10080000040000200448054900684968044AC1F30F
:100810000221515CC84070470C00002000100240CB
:10082000EC3B00080448054900684968044AC1F3E4
:10083000C221515CC84070470C00002000100240EB
:10084000EC3B000812A185B00FC98DE80F0014A081
:10085000144A006804905168134801F00C03042BFB
:1008600010D0082B0ED1C1F38343C9031DF8030038
:100870000AD5516804AAC1F34041515C0A4A504369
:10088000B0FBF1F005B0704708494843FAE70000B3
:1008900002030405060708090A0B0C0D0E0F1010C1
:1008A000010200000010024000127A0000093D0021
:1008B0002DE9F84F040070D02078C04DC00749D012
:1008C0006868C0F38100012807D06868C0F3810020
:1008D000022809D16868C00306D52868800339D585
:1008E00060680028E7D035E06068B0F5803F0BD045
:1008F00010B1B0F5A02F11D0286820F48030286006
:10090000286820F4802002E0286840F480302860C5
:10091000606890B1FFF754FD06460AE0286840F48D
:1009200080202860F0E700BFFFF74AFD801B6428A5
:1009300073D828688003F7D50CE0FFF741FD064621
:1009400005E000BFFFF73CFD801B6428F0D8286855
:100950008003F7D420789A4E80074FF001094FF0BA
:10096000000839D5686810F00C0F07D06868C0F32C
:100970008100022809D16868C00306D4286880076E
:1009800014D52069012808D110E02069B0B1C6F85B
:100990000090FFF715FD074605E00AE1FFF710FD9F
:1009A000C01B0228C4D828688007F7D52868616969
:1009B00020F0F80040EAC10028600DE0C6F8008091
:1009C000FFF7FEFC074604E0FFF7FAFCC01B022815
:1009D00023D828688007F7D4207800072CD57948D9
:1009E000A169D9B1C0F80090FFF7EAFC074604E01E
:1009F000FFF7E6FCC01B02280FD8686A8007F7D50E
:100A000071484FF4FA510068B0FBF1F0009000BF5C
:100A10000098411E0091FAD20EE080E0C0F80080FC
:100A2000FFF7CEFC074604E0FFF7CAFCC01B022814
:100A300075D8686A8007F7D42078400760D5E869E0
:100A40000027C00008D4E86940F08050E861E869F8
:100A5000012700F0805000905C480168C90513D45C
:100A60000168834641F480710160FFF7A9FC82466A
:100A700006E000BFFFF7A4FCA0EB0A0064284ED8F4
:100A8000DBF80000C005F5D5E06801280AD008B100
:100A9000052813D0286A20F001002862286A20F077
:100AA000040002E0286A40F001002862E06841F298
:100AB000883B98B1FFF784FC82460BE0286A40F03F
:100AC00004002862EEE700BFFFF77AFCA0EB0A0102
:100AD00059455AD8286A8007F6D50CE0FFF770FC14
:100AE000824605E0FFF76CFCA0EB0A0159454CD8A3
:100AF000286A8007F6D41FB1E86920F08050E861C9
:100B0000E06988B36968C1F38101022944D00228F1
:100B1000C6F8608004D0FFF753FC044638E034E0A8
:100B2000FFF74EFC074604E0FFF74AFCC01B022813
:100B30002BD828688001F7D4206AB0F5803F05D112
:100B40006868A16820F4003008436860D4E90801AF
:100B50000843696821F4741108436860C6F860901E
:100B6000FFF72EFC044606E025E000BFFFF728FC57
:100B7000001B022809D828688001F7D51BE000BFB8
:100B8000FFF71EFC001B022802D90320BDE8F88FE6
:100B900028688001F4D40EE00128F7D06868226A42
:100BA00000F48031914204D1616A00F470108842EF
:100BB00001D00120EAE70020E8E700000010024031
:100BC00000004242800442420C00002000700040BD
:100BD00070B5040009D0606A002540B125616561E7
:100BE000A56294F8510040B10CE0012070BD60682E
:100BF000B0F5827FF4D0E561F2E784F850502046EA
:100C000000F040F8022084F851002068016821F0CB
:100C100040010160A088218900F4827001F4044140
:100C20000843A18901F400610843217C01F002011D
:100C30000843217D01F001010843218B01F400717B
:100C40000843217F01F03801084394F8201001F097
:100C500080010843218D01F4005108432168086098
:100C6000A069042101EA1040216848602068C16938
:100C700021F40061C1616565012084F85100002004
:100C800070BD000070B586B00024009401940294F9
:100C900003940068204988423BD12048816941F48F
:100CA00080518161816901F480510491816941F031
:100CB00004018161816901F004010491816941F0BD
:100CC000080181618069022500F0080004904FF45A
:100CD0000040CDE900050326694603961048FFF75A
:100CE00079FA2820CDE900050E4D6946039628467D
:100CF000FFF770FA1020CDE90004694628460294F7
:100D0000FFF768FA0848416841F0E06141F00101ED
:100D1000416006B070BD000000300140001002408C
:100D200000080140000C01400000014010B5401EC9
:100D3000B0F1807F01D3012010BD4FF0E02460614D
:100D40000F21601701F045F80020A0610720206105
:100D5000002010BD70B5040004D094F839000025BF
:100D600010B106E0012070BD84F83850204600F034
:100D700023F8242084F839002068C16821F4005148
:100D8000C160204600F0C8FF2068016921F490414D
:100D900001612068416921F02A0141612068C16830
:100DA00041F40051C160E563202084F8390084F8E3
:100DB0003A00002070BD000030B585B000240094DA
:100DC0000194029403940068174988422AD1174875
:100DD000816941F480418161816901F4804104911C
:100DE000816941F0080181618069114D00F00800BE
:100DF0000490402000900220019003200390694657
:100E00002846FFF7E7F98020CDE900046946284627
:100E10000294FFF7DFF90748416841F0E06141F0D3
:100E20000401416005B030BD0038014000100240AF
:100E3000000C014000000140FEE7000070B50446D0
:100E40004D4DC00B4FF4805101D0012200E0002233
:100E50002846FFF7AFFA60044FF4006101D5012284
:100E600000E000222846FFF7A5FAA0044FF48061B5
:100E700001D5012200E000222846FFF79BFAE0049A
:100E80004FF4007101D5012200E000222846FFF74F
:100E900091FA20054FF4807101D5012200E0002273
:100EA0002846FFF787FA354E60054FF4004101D51B
:100EB000012200E000223046FFF77CFAA0054FF443
:100EC000804101D5012200E000223046FFF772FA8E
:100ED000E0054FF4005101D5012200E00022304628
:100EE000FFF768FA200601D5012200E000228021E8
:100EF0002846FFF75FFA600601D5012200E00022D4
:100F000040212846FFF756FAA00601D5012200E04D
:100F1000002220212846FFF74DFAE00601D50122E4
:100F200000E0002210212846FFF744FA200701D5EF
:100F3000012200E0002208212846FFF73BFA600763
:100F400001D5012200E0002204212846FFF732FAF1
:100F5000A00701D5012200E0002202212846FFF768
:100F600029FAE00701D0012200E000222846BDE86E
:100F700070400121FFF71EBA00080140000C01403B
:100F80002DE9FF4F4FF0000981B01446DDF838A07D
:100F9000B2F800804F4648464E46D3F800B04CE0C9
:100FA00000252BE037B91BF8089008F101011FFA62
:100FB00081F8802719EA070F02D0401C80B21AE09E
:100FC000C8B10F9900910AFB00F18AB294F906109A
:100FD000029B01EB060C0CFB0A3194F9053089B237
:100FE0002B44A3EB000C019B0CFB0A3080B2534650
:100FF00000F0EAFB00207F086D1CEDB2A178A94249
:10100000D0D8C0B10F9900910AFB00F18AB294F9CF
:101010000610029B01EB060C0CFB0A3194F905301B
:1010200089B22B441D1A019B05FB0A3080B253463E
:1010300000F0CAFB0020761CF6B2E178B142AFD8CE
:1010400005B0BDE8F08F2DE9FF4F85B08846814699
:1010500000241546C2F10107139E85E00898012877
:101060005ED004EB0900CDE90060129B05EB080B94
:101070001FFA8BF180B21A4600F0A6FB05EB0900BF
:10108000129B04EB080A04901FFA8AF1009680B2C2
:101090001A4600F099FBA9EB04000390129B1FFA7B
:1010A0008BF1009680B21A4600F08EFBA9EB05008A
:1010B000129B02901FFA8AF1009680B21A4600F045
:1010C00083FB0498129BA8EB040B1FFA8BF100968C
:1010D00080B21A4600F078FB0198129BA8EB050A33
:1010E0001FFA8AF1009680B21A4600F06DFB039851
:1010F000129B1FFA8AF1009680B21A4600F064FB38
:101100000298129B1FFA8BF1009680B21A4600F0EB
:101110005BFB002F22DA07EB4407641CFF1C23E073
:10112000012000EB450B00EB440AA8EB050081B25F
:10113000A9EB04001FFA8BF31FFA8AF280B2009623
:1011400000F042FBA8EB040081B2A9EB05001FFAF6
:101150008AF31FFA8BF280B20096D8E7601B07EB88
:101160004007641C6D1E7F1DAC427FF777AF09B04E
:10117000BDE8F08F2DE9FF4F8146C2F1010083B039
:1011800006B2C2EBC230DDE910BA4000012700B25E
:10119000884600251446029059E0002E07DB641EA5
:1011A000029824B2801C00B20290304406B2BF1CE8
:1011B0006D1C3FB2F01906B206982DB2C00721D0BF
:1011C0000120A8EB0401CDE9000A01EB440202EB87
:1011D0000B0083B209EB050082B289B280B200F045
:1011E0008DFA0121CDE9001AA8EB050101EB4502BA
:1011F00002EB0B0083B209EB040082B289B280B229
:1012000000F07CFA0698800721D50121CDE9001A6B
:10121000A8EB040101EB440202EB0B0083B2A9EB43
:10122000050082B289B280B200F068FA0121CDE9EE
:10123000001AA8EB050101EB450202EB0B0083B29B
:10124000A9EB040082B289B280B200F057FAA5423D
:10125000A3DB07B0BDE8F08F2DE9FC5F0746C2F1C4
:1012600001000FFA80F9C2EBC230400000B29B4689
:101270000E464FF0010ADDF8348000251446019037
:1012800072E000BFB9F1000F08DB641E019824B2C0
:10129000801C00B2019048440FFA80F90AF1020064
:1012A0000FFA80FA6D1C09EB0A000FFA80F92DB2D3
:1012B0005FEA4B7013D5301981B20C9B781980B25C
:1012C000CDF800801A4600F07FFA701981B20C9BAD
:1012D000381980B2CDF800801A4600F075FA5FEA3E
:1012E0008B7013D5301B81B20C9B781980B2CDF86E
:1012F00000801A4600F068FA701B81B20C9B381906
:1013000080B2CDF800801A4600F05EFA5FEA0B70FA
:1013100013D5701981B20C9B381B80B2CDF80080B8
:101320001A4600F051FA301981B20C9B781B80B23A
:10133000CDF800801A4600F047FA5FEACB7013D070
:10134000701B81B20C9B381B80B2CDF800801A460E
:1013500000F03AFA301B81B20C9B781B80B2CDF8BA
:1013600000801A4600F030FAA5428BDBBDE8FC9FF6
:101370002DE9F04F91B0934602FB0BF58046A80093
:1013800003FB03F409901C9EA0000890CBF100021F
:10139000012000EB420207925A4200EB42000BFB95
:1013A0000BF250430F461A9903FB03F2002900EB9E
:1013B00042004FF0000189469A4602903AD1CCE0B3
:1013C0001B98CDE900061B9808EB0902101A401C77
:1013D00082B20F90A7EB0A01A8EB09008BB20E9026
:1013E00089B280B200F08AF91B98CDE900060F9807
:1013F00007EB0A0182B20E988BB289B280B200F07C
:101400007DF9029800280ADB09990298CAF10102C5
:1014100001FB02000290AAF101000FFA80FA0621F6
:10142000029801EB890104FB0100029009F101001F
:101430000FFA80F904FB09F005FB0AF18842BFDDD1
:101440000798DA4660434FF0000900EB450B35E0A2
:101450001B98CDE900061B9808EB0A02101A401CE5
:1014600082B20D90A7EB0901A8EB0A008BB20C9099
:1014700089B280B200F042F91B98CDE900060D98C0
:1014800007EB090182B20C988BB289B280B200F0EE
:1014900035F9BBF1000F08DBCAF101020899AAF186
:1014A000010001FB02BB0FFA80FA062101EB890162
:1014B00005FB01BB09F101000FFA80F905FB09F0FA
:1014C00004FB0AF18842C3DD11B0BDE8F08F00BF14
:1014D00007EB0A0081B20B9008EB09000C901B9BF4
:1014E000009680B21A4600F06FF90B981B9B81B2F0
:1014F000A8EB09000B90009680B21A4600F064F940
:10150000A7EB0A0081B20D900C981B9B009680B24D
:101510001A4600F059F90D981B9B81B20B98009662
:1015200080B21A4600F050F9029800280ADB0999A7
:101530000298CAF1010201FB02000290AAF1010027
:101540000FFA80FA0621029801EB890104FB0100E1
:10155000029009F101000FFA80F904FB09F005FB84
:101560000AF18842B4DD0798DA4660434FF000097B
:1015700000EB450B41E000BF07EB090081B2099089
:10158000009608EB0A001B9B0A9080B21A4600F0F6
:101590001BF909981B9B81B2A8EB0A0009900096E1
:1015A00080B21A4600F010F9A7EB090081B200964C
:1015B0000B900A981B9B80B21A4600F005F90B9815
:1015C0001B9B81B20998009680B21A4600F0FCF885
:1015D000BBF1000F08DBCAF101020899AAF1010072
:1015E00001FB02BB0FFA80FA062101EB890105FB22
:1015F00001BB09F101000FFA80F905FB09F004FBBA
:101600000AF18842B8DD5FE72DE9F04788B005B2FE
:1016100090460EB2DDE9109A93E807000DF1100C28
:101620002F468CE80700002427E000BF18F80400CC
:101630000A282AD09DF8181081421CD89DF819104C
:10164000814218D30D2816D09DF818200599801ACC
:1016500001EBC00004AB016802914068CDE9009A3B
:10166000039002AA31462846FFF78AFC9DF80C1029
:1016700001FB095005B2641CA4B24046FEF766FDAA
:10168000A042D3D808B0BDE8F0879DF81A103D46B7
:1016900001FB096006B2EEE710B56420FEF788FD95
:1016A000012211461448FEF785FE2121072000F093
:1016B000A5F90121002000F0A1F92321072000F065
:1016C0009DF90021102000F099F91E20FEF770FD11
:1016D0003321072000F092F946F63801112000F07E
:1016E0008DF94FF4C061022000F088F9BDE8104088
:1016F0000A20FEF75DBD0000000C01402DE9FE4F01
:1017000007469A4690460E46D41B00D56442BAEB73
:10171000060000D5404281464FF0FF30474501D2D8
:10172000012100E001460291564500D20120834686
:10173000C9F10000A4EB090501900D980C9B0090E5
:101740001A463146384600F03FF8474501D1564524
:101750000FD001996800884204DD0299A5EB0905C4
:1017600039448FB2A042E8DA06EB0B00254486B27A
:10177000E3E7BDE8FE8F2DE9FC471C46DDE90A677B
:10178000851889468046AAB20B46CDE90067FFF767
:10179000B5FF4C44A3B2AAB2A1B24046CDE900675E
:1017A000FFF7ACFF4246A3B249461046CDE90067B9
:1017B000FFF7A4FFA3B2AAB2A8B24946CDE90067D9
:1017C000FFF79CFFBDE8FC872DE9F0410F4681182B
:1017D00002FB03F5FA18491E89B20B46521E014658
:1017E000002492B23846069E00F0A1F906E0314688
:1017F0000020FEF7C7FC00F0D7F8641CAC42F6D31B
:10180000BDE8F0812DE9FE4F8A46DDE90D4507462A
:101810000C9E00EB020909EB0400811B891E009459
:10182000CDE901519846B8198AB200F1020B53462E
:101830001FFA8BF01946FFF761FFD0440299A8F117
:1018400001008AB283B281B2CDE900451FFA8BF064
:10185000FFF754FFA8EB0400801B801E0094CDE925
:1018600001500AEB060183B201F1020A3A461FFA5F
:101870008AF11046FFF742FF0298CDE9004583B296
:10188000A9F1010082B21FFA8AF180B2FFF736FF98
:101890000FFA8AF10094B21CCDE901510FFA8BF0D6
:1018A00012B2824601231746FFF7D6FCA9EB0600C9
:1018B000C01E00B2CDE90045814602233A46029996
:1018C000FFF7CAFCA8EB0600C01E06B24846042378
:1018D0003A463146CDE90045FFF7BEFC3146504659
:1018E00008233A46CDE90045FFF7B6FCBDE8FE8F78
:1018F0002DE9FC5F8146DDE90C476542904602EB2D
:10190000450082B209EB040A1E468B461FFA8AF094
:101910000097FFF759FF06EB4500401E06B20BEBA0
:10192000040005B209EB0800001B401E22B200B201
:10193000012314462946CDE90067FFF71BFC294621
:101940000FFA8AF002232246CDE90067FFF712FC66
:10195000BDE8FC9F70B5134C054600224FF40061B2
:101960002046FEF727FD012211032046FEF722FD47
:10197000002202212046FEF71DFD2846FFF75EFAF1
:101980002515002229462046FEF714FD012229468E
:101990002046FEF70FFD2046BDE8704001220221DF
:1019A000FEF708BD000C014070B5134C054601223E
:1019B000D1022046FEF7FEFC012211032046FEF76D
:1019C000F9FC002202212046FEF7F4FC2846FFF72E
:1019D00035FA2515002229462046FEF7EBFC0122A8
:1019E00029462046FEF7E6FC2046BDE8704001226D
:1019F0000221FEF7DFBC0000000C014070B50A4C6C
:101A00000E460546002202212046FEF7D3FC28465A
:101A1000FFF7A0FF3046FFF7C7FF2046BDE8704044
:101A200001220221FEF7C6BC000C01402DE9FC5F3B
:101A30009A46DDE90E54DDE90C76CDE90054934673
:101A400088468146FFF75AFECDE9005433463A46B0
:101A500051465846FFF752FECDE9005443464A46E8
:101A600031463846FFF74AFEBDE8FC9F2DE9F04FAE
:101A70000027141A85B0002C00DC841A0FFA84F8B1
:101A80005C1A002C00DCCC1A0FFA84FC06B20DB2F2
:101A90004FF0FF34824203D301208246039001E0DD
:101AA000A24603948B4203D301208146029001E0B9
:101AB000A1460294E0454FF0000008DB8146039008
:101AC00008EBD870C3464410CDF810C02AE0824617
:101AD00000200290E3460CEBDC70CDF8108044103F
:101AE000D8461FE010990120CDE90001DDE90E2361
:101AF000A9B2B0B2FFF702FE0498204404B25C45DC
:101B000008DBA4EB0B0004B20398304406B2029841
:101B1000284405B206EB0A0006B205EB09007F1C5B
:101B200005B23FB24745DDDD05B0BDE8F08F70B5C9
:101B300004460D4640EA022081B21E464420FFF7CB
:101B40005DFF29464520FFF759FF31464620FFF744
:101B500055FF21464E20FFF751FF29464F20FFF742
:101B60004DFFBDE870402220FFF7F4BE2DE9F04F95
:101B700085B000242E480094019402940394816956
:101B800041F010018161816901F0100104918169C6
:101B900041F020018161816901F020010491816996
:101BA00041F004018161816901F0040104918169BE
:101BB00041F0080181618069DFF8789000F0080049
:101BC0004FF400550490002229464846FEF7F2FBE8
:101BD000DFF864A06F1E002239465046FEF7EAFB8C
:101BE000DFF858B04FF60348002241465846FEF74A
:101BF000E1FB0095022601250396CDE901546946D3
:101C00004846FEF7E7FA00970396CDE90154694686
:101C10005046FEF7DFFACDF800800396CDE9015477
:101C200069465846FEF7D6FA05B0BDE8F08F0000C9
:101C3000001002400010014000080140000C01406B
:101C40000B480A494FF4802201604FF482714160D1
:101C500000218160C1600161C0E90512C1610162BA
:101C6000416281620A21C162FEF7B2BF00300140C9
:101C700064000020FEE7704770477047FEF7A2BC83
:101C800030B58FB028216846FEF755FA14210AA80E
:101C9000FEF751FA01210804CDE900100024029456
:101CA00002250491CDE907504FF4E01009906846F1
:101CB000FEF7FEFD0F20CDE90A056802CDE90C40D4
:101CC0000E9002210AA8FEF707FD0FB030BD0000FC
:101CD0000D48016841F00101016041680B4A114063
:101CE000416001680A4A11400160016821F48021C5
:101CF0000160416821F4FE0141604FF41F018160E1
:101D00000449C00308607047001002400000FFF85B
:101D1000FFFFF6FE08ED00E070B5044600680169BB
:101D2000E26821F44051114301612169A068084330
:101D3000616908432168CA6841F20C639A4302430F
:101D4000CA6020684169A26921F440711143416170
:101D50001E492068884202D1FEF764FD01E0FEF7CB
:101D600051FD00EBC00101EB0012606864218000AE
:101D7000B2FBF0F3B3FBF1F36FF018067343B2FB61
:101D8000F0F5B2FBF0F605EB8305322303EB051506
:101D9000B5FBF1F5B6FBF1F605F0F00505EB061520
:101DA000B2FBF0F6B2FBF0F0B0FBF1F06FF018020E
:101DB000504306EB800003EB0010B0FBF1F021680C
:101DC00000F00F002844886070BD0000003801401A
:101DD000FEE70907090E002804DB00F1E02080F887
:101DE0000014704700F00F0000F1E02080F8141D8F
:101DF000704702E008C8121F08C1002AFAD17047D4
:101E00007047002001E001C1121F002AFBD170477A
:101E10001FB5FEF7DFFBFFF733FFFFF7A7FE9C4878
:101E20009A494FF0000B01609A49C0E9011B4FF439
:101E30008041C0E903B1C0F814B0C0F818B0C0F8D0
:101E40001CB05C46C0F820B0FEF7C0FA904892493A
:101E5000AC3001604FF4E131C0E901140C21C460E1
:101E6000C0E904418461C461FEF774FFFFF7E8FE36
:101E7000FFF712FCFF2000210090F0234FF4A07226
:101E80000846FFF7A1FC0121EE234FF49F7208469C
:101E90000094FFF799FCFA20FEF78AF900218023CD
:101EA000A02208460094FFF78FFC082501244FF478
:101EB0007F46CDE90046002180232A460846FFF7E9
:101EC0001DFC0835EDB2A02DF3D90825B046CDE9AB
:101ED000004800212B46A0220846FFF70FFC0835DA
:101EE000EDB2802DF3D9FA20FEF762F91026142501
:101EF000DFF8A89100274FF0020A4020A0EB56001F
:101F000081B25020CDE900A9A0EB550080B2334644
:101F10002A46FFF730FC103614357F1CFFB2F6B2AC
:101F2000EDB2082FE9D3FA20FEF742F9FF25002190
:101F30008023A02208460095FFF746FC01217E235E
:101F40009E220846CDF800B0FFF73EFCCDE90049DF
:101F5000534B54A228210520FFF756FB4FF0FF16E4
:101F6000CDE900461423892219461720FFF7C6FB46
:101F70001523892219461720CDE90045FFF7BEFB3E
:101F80001523892219461720CDE90045FFF7B6FB36
:101F9000434BCDE900460C334BA20A212920FFF721
:101FA00033FB2E043E4BCDE9004624334AA22321C5
:101FB0002D20FFF729FBCDE9004600231E225A21E0
:101FC0002820FFF740F8012314225A212D20CDE9C3
:101FD0000045FFF738F8192700970522CDE901756C
:101FE000142311461046FFF741FD0522CDE90246B4
:101FF00000971423114610460197FFF717FDCDE90E
:1020000000A8554614231E222D213C20FFF7B3FBC8
:102010004FF00A086FF07F470321CDF80080CDE92B
:10202000011719233C2246215020FFF7EBFBCDE995
:10203000008719233C2264215020FFF759FCCDF87A
:1020400000B0CDE9015914231E2264213C20FFF782
:102050008FF90094CDE901490F2319223C217D20FD
:10206000FFF786F90E4BCDE9004630331DA2C8219B
:102070000020FFF7C9FA0A4BCDE9004618331CA22D
:10208000DC210A20FFF7C0FAFEE700000054004000
:1020900010000020A08601000038014000FFFF0072
:1020A000A4250008546869732069730A206A75734F
:1020B00074206120546573740A20546F6D546875E0
:1020C0006D62204578740A00444953504C415920B0
:1020D0004452495645520000534552494620424F0A
:1020E0004C44000031323334353637383930000053
:1020F00031323334353637383930204465666175CE
:102100006C7420466F6E7400008080800080A0A0F8
:10211000A0E0A0E0A060C060C0408020408020C05F
:10212000C0E0A0608080408080804080404040804F
:10213000A040A040E0404080E080202040808060BF
:10214000A0A0A0C040C0404040C0204080E0C020CF
:102150004020C0A0A0E02020E080C020C06080E03F
:10216000A0E0E020408080E0A0E0A0E0E0A0E0204F
:10217000C0800080400040802040804020E000E09F
:102180008040204080E02040004040A0E08060404F
:10219000A0E0A0A0C0A0C0A0C06080808060C0A05F
:1021A000A0A0C0E080E080E0E080E080806080E08F
:1021B000A060A0A0E0A0A0E0404040E0202020A03F
:1021C00040A0A0C0A0A080808080E0A0E0E0A0A00F
:1021D000A0E0E0E0A040A0A0A040C0A0C08080405F
:1021E000A0A0E060C0A0E0C0A060804020C0E040AF
:1021F000404040A0A0A0A060A0A0A04040A0A0E0BF
:10220000E0A0A0A040A0A0A0A0404040E0204080CE
:10221000E0E0808080E0804020E0202020E040A0BE
:10222000E08040C060A0E080C0A0A0C0608080606E
:102230002060A0A06060A0C0602040E0404060A09E
:10224000E0204080C0A0A0A08000808080200020EE
:1022500020A04080A0C0C0A0C0404040E0E0E0E03E
:10226000A0C0A0A0A040A0A040C0A0A0C08060A02E
:10227000A060206080808060C060C040E04040601E
:10228000A0A0A060A0A0E040A0E0E0E0A04040A0AE
:10229000A0A0602040E060C0E0604080406080809E
:1022A000008080C0402040C060C0000008010200E3
:1022B000FB00010008050200FB0006000802040004
:1022C000FB00080008050400FB000D0008050400E1
:1022D000FB00120008050400FB00170008050400BD
:1022E000FB001C0008020200FB001E0008050300A2
:1022F000FB00230008050300FB002800080304007E
:10230000FB002B0008030400FC002E000802030061
:10231000FE00300008010400FD0031000801020049
:10232000FF00320008050400FB0037000805040028
:10233000FB003C0008050300FB0041000805040009
:10234000FB00460008050400FB004B0008050400E4
:10235000FB00500008050400FB00550008050400C0
:10236000FB005A0008050400FB005F00080504009C
:10237000FB00640008050400FB006900080302007C
:10238000FC006C0008040300FC0070000805040059
:10239000FB00750008030400FC0078000805040039
:1023A000FB007D0008050400FB0082000805040016
:1023B000FB00870008050400FB008C0008050400F2
:1023C000FB00910008050400FB00960008050400CE
:1023D000FB009B0008050400FB00A00008050400AA
:1023E000FB00A50008050400FB00AA000805040086
:1023F000FB00AF0008050400FB00B4000805040062
:10240000FB00B90008050400FB00BE00080504003D
:10241000FB00C30008050400FB00C8000805040019
:10242000FB00CD0008050400FB00D20008050400F5
:10243000FB00D70008050400FB00DC0008050400D1
:10244000FB00E10008050400FB00E60008050400AD
:10245000FB00EB0008050400FB00F0000805040089
:10246000FB00F50008050400FB00FA000805040065
:10247000FB00FF0008050400FB0004010805040040
:10248000FB00090108050400FB000E01080304001D
:10249000FC00110108050400FB00160108020400FD
:1024A000FB00180108010400FF00190108020300E5
:1024B000FB001B0108040400FC001F0108050400C8
:1024C000FB00240108040400FC00280108050400A6
:1024D000FB002D0108040400FC0031010805040084
:1024E000FB00360108050400FC003B010805040060
:1024F000FB00400108050200FB004501080604003E
:10250000FB004B0108050400FB0050010805040016
:10251000FB00550108040400FC00590108040400F4
:10252000FC005D0108040400FC00610108050400D2
:10253000FC00660108050400FC006B0108040400AF
:10254000FC006F0108040400FC007301080504008E
:10255000FB00780108040400FC007C01080404006E
:10256000FC00800108040400FC008401080404004D
:10257000FC00880108050400FC008D01080404002B
:10258000FC00910108050400FB009601080502000B
:10259000FB009B0108050400FB00A00108020400E9
:1025A000FB00000008210008AA220008207E060087
:1025B000E0250008F0260008207E0700E829000832
:1025C000862B0008207E0C007E2E000808330008B1
:1025D000207E160000360008743B00082E3A3200B8
:1025E000E8A057D5F500FD3E5F8088888880F4BF5D
:1025F0002E80806A409580AA805D00C0F0800888A7
:102600008800FC631F80F8F87F0F80F87E1F808CA5
:102610007E1080FC3E1F80FC3F1F80F8421080FC33
:102620007F1F80FC7E1F8090B02A22F0F088A8F8DF
:102630004E0200FD6F0F80FC7F1880F47D1F00FCB0
:10264000210F80F4631F00FC3F0F80FC3F0800FC5B
:102650002F1F808C7F1880F9084F8078852F808D00
:10266000B1688084210F80FD6B5A80FC631880FC68
:10267000631F80FC7F0800FC633F80FC7F2900FC17
:102680003E1F80F90842008C631F808C62A200AD5F
:102690006B5F808A88A8808C544200F87F0F80EAA4
:1026A000C082082080D5C054F880F1FF8F99F0F8DF
:1026B0008F1F99F0FF8F6BA4F99F108F9990F055A1
:1026C000C08AF990F8FD6310F999F99FF99F80F994
:1026D0009F20F888471F27C84200999F99978C6BC5
:1026E000F09669999F102E8F2B22F889A80FE00091
:1026F0000000000006000100000001050200FC00CF
:10270000010003010400FC00020005050600FC00B6
:10271000060005050600FC000A0005050600FC0091
:102720000E0005050600FC00120001010200FC007D
:10273000130002050300FC00150002050300FC0065
:10274000170003030400FD00190003030400FD004B
:102750001B000102020000001C0004010500FE0035
:102760001D000101020000001E0005050600FC001E
:10277000220005050600FC00260001050200FC0001
:10278000270005050600FC002B0005050600FC00DF
:102790002F0005050600FC00330005050600FC00BF
:1027A000370005050600FC003B0005050600FC009F
:1027B0003F0005050600FC00430005050600FC007F
:1027C000470001040200FD00480001040200FD0072
:1027D000490003050400FC004B0004030500FD0054
:1027E0004D0003050400FC004F0005050600FC0039
:1027F000530005050600FC00570005050600FC0017
:102800005B0005050600FC005F0005050600FC00F6
:10281000630005050600FC00670005050600FC00D6
:102820006B0005050600FC006F0005050600FC00B6
:10283000730005050600FC00770005050600FC0096
:102840007B0005050600FC007F0005050600FC0076
:10285000830005050600FC00870005050600FC0056
:102860008B0005050600FC008F0005050600FC0036
:10287000930005050600FC00970005050600FC0016
:102880009B0005050600FC009F0005050600FC00F6
:10289000A30005050600FC00A70005050600FC00D6
:1028A000AB0005050600FC00AF0005050600FC00B6
:1028B000B30005050600FC00B70005050600FC0096
:1028C000BB0005050600FC00BF0002050300FC007C
:1028D000C10005050600FC00C50002050300FC0060
:1028E000C70003020400FC00C80005010600010047
:1028F000C90001010200FC00CA0004040500FD003B
:10290000CC0004050500FC00CF0004040500FD0018
:10291000D10004050500FC00D40004040500FD00FE
:10292000D60003050400FC00D80004050500FD00E6
:10293000DB0004050500FC00DE0001040200FD00D0
:10294000DF0002050300FD00E10004050500FC00B6
:10295000E40001050200FC00E50005040600FD009E
:10296000E80004040500FD00EA0004040500FD0081
:10297000EC0004050500FD00EF0004050500FD0066
:10298000F20004040500FD00F40004040500FD004D
:10299000F60005050600FC00FA0004040500FD0031
:1029A000FC0004040500FD00FE0005040600FD0017
:1029B000010104040500FD00030104050500FD00FC
:1029C000060104040500FD00080103050400FC00E5
:1029D0000A0101050200FC000B0103050400FC00D4
:1029E0000D0105030600FD00FD5AA028AFCA53F5EE
:1029F0001423EB4618B5F1004AAB1428D5522145F3
:102A00001EAAA91B582A49244488924950255CEAE9
:102A1000902109F2108058F880088422110844009F
:102A2000746318C62E592497746222221F74426060
:102A3000862E1194A93C43FC21E0862E74A1E8C6A1
:102A40002EFC844210847462E8C62E746317852EAF
:102A5000848C088888208208F801F0820820888801
:102A600080746222100474675ADE0F20831451E4CC
:102A7000B3F252E4A53E7C6108422EF25294A53E88
:102A8000FA54E5213FFA54E5211C3928209E248C74
:102A9000CD249E4924B3F90842109F7C4104104183
:102AA00024E0ED25185144BBE1041041047FDEF71A
:102AB000BAD6B5DD269A5964BA746318C62EF25296
:102AC000E4211C746318F66E18F1249C5124BB7C1D
:102AD00060C1063EFD4842108ECD249249248CCD23
:102AE000249450C208AD6AE5294ADA9442295BDA97
:102AF0009442108EFC8442213FF249249C888442F7
:102B00002210E492493C54FC80649D2780C210E46A
:102B1000A52E7988703084E94A4F69F8703A11E43B
:102B2000211E7C990F45C0C1041C4924BB406497F9
:102B3000100311111EC1041751C4BBE10842109FBC
:102B4000F56B5A80F12492EC699960F252972380D8
:102B500074A52708E0DB108E00F861F044E44430EF
:102B6000D924923CED250C20AD5CA500DA88AD801F
:102B7000ED250C208C00F244F06928924CFFF0C93E
:102B800022925842918000000000080000000000DE
:102B900001080802F700010004030801F600030021
:102BA00006080800F7000900050A0800F6001000F2
:102BB00006080800F700160006080800F7001C00C9
:102BC00002030800F6001D00030A0803F6002100B6
:102BD000030A0801F600250005060800F800290090
:102BE00005070800F7002E0002030800FE002F0072
:102BF00005010800FA00300001010801FE00310063
:102C0000050A0800F600380005080800F7003D0036
:102C100003080801F700400005080800F700450018
:102C200005080800F7004A0005080800F7004F00F3
:102C300005080800F700540005080800F7005900CF
:102C400005080800F7005E0005080800F7006300AB
:102C500005080800F700680001060802F90069008D
:102C600001060802FA006A0005090801F600700072
:102C700005040800F900730005090801F600790051
:102C800005080800F7007E0005080800F70083002B
:102C900006080800F700890005080800F7008E0004
:102CA00005080800F700930005080800F7009800E1
:102CB00005080800F7009D0005080800F700A200BD
:102CC00006080800F700A80006080800F700AE0094
:102CD00005080800F700B30006090800F700BA006D
:102CE00006080800F700C00006080800F700C60044
:102CF00005080800F700CB0006080800F700D1001F
:102D000005080800F700D60005080800F700DB00FA
:102D100005090800F700E10006080800F700E700D1
:102D200005080800F700EC0005080800F700F100AE
:102D300006080800F700F70006080800F700FD0085
:102D400005080800F700020105080800F700070160
:102D500005080800F7000C0105080800F70011013C
:102D6000030A0802F600150104090801F6001A0119
:102D7000030A0801F6001E0103020801F6001F0104
:102D8000060108000000200101010802F6002101EF
:102D900005050801FA00250105080800F7002A01C9
:102DA00004050801FA002D0105080801F7003201A9
:102DB00004050801FA00350105080801F7003A0189
:102DC00005070801FA003F0106080800F700450161
:102DD00003080801F7004801040A0800F7004D0144
:102DE00006080800F700530105080800F70058011D
:102DF00005050800FA005C0106050800FA006001FC
:102E000004050801FA00630105070800FA006801DB
:102E100005070801FA006D0105050800FA007101B7
:102E200004050801FA00740104070801F80078019C
:102E300006050800FA007C0106050800FA0080017A
:102E400005050800FA00840105050800FA0088015C
:102E500006070800FA008E0104050801FA00910136
:102E6000030A0802F6009501010C0803F50097011A
:102E7000030A0801F6009B0106030800F500FFF4B1
:102E8000921FF0CF3CE388130984C247F990C84CE5
:102E9000FF13090C86401038D692D2F07C3E17936F
:102EA00093D67C103C21CF0E2430A0C50334E726F6
:102EB00040B904C423308C841C0F00CC06603E0053
:102EC000E78F189C8CE4E3C79E3C72FDE0FF8032E4
:102ED00044CCCCCCC462108422333333326480318E
:102EE0006BB18ED68C00080402010FF84020100848
:102EF00000DF9500FFFF800C218610C3086184303D
:102F0000C01C3398DC7E3F1F8FC7E3B198C3800895
:102F1000E38E38E38E38E3BF3C3F23C0E0703038A7
:102F20001818185FDFE07C8E0E0E0C1E07030302DC
:102F3000E6F8060E0E3E2E4E8E8EFFFF0E0E3F7EE4
:102F40004040F8FC1E060202E4F8071C3070FCE664
:102F5000E7E7E767663C7F3FA0D040603010180C81
:102F6000040603003CC6C6C6FC7C3ECFC7C7C67C71
:102F70003E33B8DC7E3F1DCE7F07070F1C00FF806D
:102F80003FE0FF8037E540000070787878380380B4
:102F90003C03C030FFC0000000FFC0C03C03C01CA9
:102FA00001C1E1E1E0E000003D9F3E70E104080066
:102FB00070E1C00F818318C4899C4CE467223922D8
:102FC0004FE3000C101F0002003001C00E00B805D6
:102FD000C04F02383FE107183DE3F0FF871CE39C38
:102FE000739C7F0E71C738E71CE77FC01F261DC189
:102FF000B01E01C0380700E00E04E10FC0FF0E71E3
:10300000C738770EE1DC3B8770CE39C67F80FFCEB4
:1030100019C1388730FE1CC388702E0DC37FE0FFB6
:10302000DC3705C4731FC731C4701C0703E01F23BE
:103030000E706E02E00E00E1FE0E60E70E38E0F862
:10304000F9F70E70E70E70E7FE70E70E70E70E708E
:10305000EF9FFB9CE739CE739DF01F0E0E0E0E0EF8
:103060000E0E0E0E0ECECC78F9F3821C20E2072055
:103070003F01DC0E7073C38F1C3DF3F0F80E01C0EE
:10308000380700E01C0380702E09C37FE0F80F3C76
:103090001E3C1E2E2E2E2E264E274E274E238E23CE
:1030A0008E210E711FF0EE09E13E25E49E91D21EA5
:1030B00043C8390370201F830C70EE07E07E07E0E1
:1030C0007E07E0770E30C1F8FF1CE71DC771DCE713
:1030D000F1C0701C0703E00F839C70E606E07E07DA
:1030E000E07E07E0760630C1980F007803E0FF0726
:1030F0003871C71C71C7387E077077873C71EF8FB6
:103100003947C1C0F07C3E0F83C3C6BCFFFCE38ED1
:1031100010E00E00E00E00E00E00E00E01F0F8EE10
:1031200009C1382704E09C1382704E08E20F80FC2E
:103130007BC10E087081C40E207A01D00E80380148
:10314000C004002000FDFBDC38438710E1C438F2E6
:10315000072E81D3A034700E1C03870060801020DE
:10316000FEF3C30F103900F003801E017009C08FF9
:10317000083DF3F0FC7BC18E083881E807401C0055
:10318000E007003801C01F00FFD8721E4380E01C1A
:103190000701C0382E0F837FE0FCCCCCCCCCCCCC4C
:1031A000F0C1061820C3041860830CF333333333A3
:1031B0003333F0181C34266243C1FF80C6307C6371
:1031C000B1C0E1F33B9DCEFF80F01C0701DC7B9C8E
:1031D000771DC771DC77393C3CED9F0E1C38393CBC
:1031E0000780E038EE77B8EE3B8EE3B8E778EF3C47
:1031F00066E6FEE0E0E0723C3EEDC7C70E1C3870AC
:10320000E1C7C031DFBF7EE79060FCFE0C17C0F065
:103210001C0701DC7B9CE739CE739CE73BFF739D69
:10322000E739CE739DF01C71CF1C71C71C71C71C90
:103230007DBEF01C0701CE711C8741F8771CE71B8F
:10324000EFF39CE739CE739DF0F738F7B9CE739C56
:10325000E739CE739CE739CEFFFEF71EE739CE7310
:103260009CE739CEFFC03E31B8FC7E3F1F8EC63E84
:1032700000F71EE71DC771DC771DCE7F1C0701C05C
:10328000F8003C9CEE3B8EE3B8EE39CE3F80E03850
:103290000E07C0F77B707070707070F87E73C78E09
:1032A00039B010CF9C71C71C71D380F79CE739CE21
:1032B000739CE739CE3FC0FBB88C8743C0E07010E9
:1032C0000800F7B63173A33A3DA3DC18C18810801B
:1032D000FBB88E8381C0F098CEEF80F762723434F1
:1032E0003C1818101010E0E0FF1C70E3871C71FE02
:1032F000198C6318CC618C6318C3FFF8C318C631EE
:10330000863318C63198F08E0000000005000100D9
:103310000000030C0601F500050006050A02F50091
:103320000900090D0900F4001800080E0901F40055
:1033300026000E0C1202F5003B000D0C0F01F500EB
:103340004F0002050501F5005100040F0601F500CC
:103350005900040F0601F500610007070902F50096
:10336000680009090C01F800730003060401FE005F
:10337000760004020601FC00770003030401FE004E
:103380007900060D0500F5008300090C0900F50021
:103390009100060C0901F5009A00090C0900F500DE
:1033A000A800080C0900F500B400080C0901F5009C
:1033B000C000080C0901F500CC00080C0901F5005B
:1033C000D800090C0900F500E600080C0901F50019
:1033D000F200090C0900F500000103090601F800DC
:1033E0000401030C0602F80009010A0A0C01F700A7
:1033F00016010A050C01FA001D010A0A0C01F80069
:103400002A01070C0901F50035010D0C1102F50028
:1034100049010D0C0D00F5005D010B0C0C00F500D1
:103420006E010B0C0D01F5007F010B0C0D01F50079
:1034300090010B0C0C01F500A1010A0C0B01F50029
:10344000B0010C0C0E01F500C2010C0C0E01F500D0
:10345000D401050C0701F500DC01080E0900F50098
:10346000EA010D0C0E01F500FE010B0C0C01F5003C
:103470000F02100C1100F50027020B0C0D01F500D6
:1034800038020C0C0E01F5004A020A0C0B01F50083
:1034900059020C0F0E01F50070020C0C0D01F50025
:1034A0008202080C0A01F5008E020C0C0C00F500DB
:1034B000A0020B0C0D01F500B1020D0D0D00F50081
:1034C000C702120C1200F500E2020D0C0D00F5000F
:1034D000F6020D0C0D00F5000A030B0C0C01F500B3
:1034E0001B03040F0601F5002303060D0500F5007C
:1034F0002D03040F0601F500350308070A01F50046
:103500003C030901090003003E0304030600F40024
:10351000400309090900F8004B030A0C0A00F500F2
:103520005A0307090800F80062030A0C0A00F500B4
:10353000710308090800F8007A03070C0700F5007A
:103540008503070D0901F80091030A0C0A00F50034
:10355000A003050C0500F500A80306100700F50000
:10356000B4030A0C0A00F500C303050C0500F500BE
:10357000CB030F090F00F800DC030A090A00F8006A
:10358000E80309090900F800F3030A0D0A00F8002E
:1035900004040A0D0A00F800150408090800F800E0
:1035A0001E0405090701F8002404060B0600F600B6
:1035B0002D040A090A00F800390409090900F80075
:1035C00044040C090D00F800520409090900F80030
:1035D0005D04080D0900F8006A0407090801F800F5
:1035E000720405100700F4007C04010D0401F500CD
:1035F0007E0405100702F400880408020901FC009B
:1036000038FBFFFFEF8E0003FFF800FFFF803FFF56
:10361000F803FFFEC33FFFBCF0000FFF0001FFE017
:10362000003FFC0007FF8000FFF0001FFE0003FFCB
:10363000C0007FF8000FFF0001FFE0003FFC000723
:10364000FF8000FFF0001FFC0000FE0000070000EC
:103650000040000004000000E000007F00003FF098
:10366000001FFE0003FFC0007FF8000FFF0001FFF6
:10367000E0003FFC0007FF8000FFF0001FFE00039A
:10368000FFC0007FF8000FFF0001FFE0003F78005F
:1036900003C67FFF301FFFF007FFFF007FFFC0075B
:1036A000FFF00031EFFFFFFFFFFFFFFFFFFFFF3CD9
:1036B00030400033FFFFFFFFFFFFFFFFFFFFFDE391
:1036C0000003FFF800FFFF803FFFF803FFFEC03F4D
:1036D000FFBC00000FC00001F800003F000007E041
:1036E0000000FC00001F800003F000007E00000FBF
:1036F000C00001F800003F000007E00000FC0000EF
:103700001F800000F07FFF861FFFFC4FFFFFE4FFDC
:10371000FFF8E7FFFC1F000003F000007E00000F31
:10372000C00001F800003F000007E00000FC0000BE
:103730001F800003F000007E00000FC00001F800B1
:10374000003F000007E00000780000067FFF001F38
:10375000FFF007FFFF007FFFC007FFF0000FFFE053
:103760000FFFF80FFFFE03FFFEC0FFFEF00000FC9E
:1037700000007E00003F00001F80000FC00007E037
:103780000003F00001F80000FC00007E00003F0094
:10379000001F80000FC00007E00000F1FFFE19FFCE
:1037A000FFC7FFFFF8FFFFF81FFFF1800003C00015
:1037B00007E00003F00001F80000FC00007E0000BC
:1037C0003F00001F80000FC00007E00003F0000171
:1037D000F80000FC00007E00003F00000F07FFF330
:1037E00007FFFC07FFFF01FFFF007FFF0000000154
:1037F00086000079E0001FFE0003FFC0007FF80094
:103800000FFF0001FFE0003FFC0007FF8000FFF01A
:10381000001FFE0003FFC0007FF8000FFF0001FF44
:10382000E0003FF80001FCFFFF0E3FFFF89FFFFFA5
:10383000C1FFFFF00FFFF8C000007800003F00005C
:1038400007E00000FC00001F800003F000007E0085
:10385000000FC00001F800003F000007E00000FC7E
:1038600000001F800003F000007E000007800000C1
:103870006003FFF800FFFF803FFFF803FFFE033FF8
:10388000FF80F000003F000007E00000FC00001F88
:10389000800003F000007E00000FC00001F800006F
:1038A0003F000007E00000FC00001F800003F00064
:1038B000007C00000E7FFF811FFFFC0FFFFFE0FF79
:1038C000FFF807FFFC6000003C00001F800003F0D1
:1038D00000007E00000FC00001F800003F0000075C
:1038E000E00000FC00001F800003F000007E0000EC
:1038F0000FC00001F800003F000003C07FFF301F31
:10390000FFF007FFFF007FFFC007FFF00003FFF895
:1039100000FFFF803FFFF803FFFE033FFF80F00042
:10392000003F000007E00000FC00001F800003F0E3
:1039300000007E00000FC00001F800003F000007FB
:10394000E00000FC00001F800003F000007C00008D
:103950000E7FFF811FFFFC0FFFFFE4FFFFF8E7FF73
:10396000FC7F00003FF0001FFE0003FFC0007FF857
:10397000000FFF0001FFE0003FFC0007FF8000FF99
:10398000F0001FFE0003FFC0007FF8000FFF0001E2
:10399000FFE0003F780003C67FFF301FFFF007FF06
:1039A000FF007FFFC007FFF0003FFF80FFFF83FFA6
:1039B000FF83FFFEC3FFFBC0000FC0001F80003F5E
:1039C00000007E0000FC0001F80003F00007E000AA
:1039D0000FC0001F80003F00007E0000FC0001F8C7
:1039E0000000F00000600000400000000000000047
:1039F0000600003C0001F80003F00007E0000FC0E3
:103A0000001F80003F00007E0000FC0001F8000362
:103A1000F00007E0000FC0001F80003F00003C00E6
:103A2000003003FFF800FFFF803FFFF803FFFEC3F5
:103A30003FFFBCF0000FFF0001FFE0003FFC00076C
:103A4000FF8000FFF0001FFE0003FFC0007FF800B2
:103A50000FFF0001FFE0003FFC0007FF8000FFF0C8
:103A6000001FFC0000FE7FFF871FFFFC4FFFFFE4ED
:103A7000FFFFF8E7FFFC7F00003FF0001FFE0003A0
:103A8000FFC0007FF8000FFF0001FFE0003FFC00D7
:103A900007FF8000FFF0001FFE0003FFC0007FF85B
:103AA000000FFF0001FFE0003F780003C67FFF30FA
:103AB0001FFFF007FFFF007FFFC007FFF00003FFBD
:103AC000F800FFFF803FFFF803FFFEC33FFFBCF09D
:103AD000000FFF0001FFE0003FFC0007FF8000FF38
:103AE000F0001FFE0003FFC0007FF8000FFF000181
:103AF000FFE0003FFC0007FF8000FFF0001FFC001C
:103B000000FE7FFF871FFFFC4FFFFFE0FFFFF8076E
:103B1000FFFC6000003C00001F800003F000007EFE
:103B200000000FC00001F800003F000007E00000A7
:103B3000FC00001F800003F000007E00000FC000AA
:103B400001F800003F000003C07FFF301FFFF007B7
:103B5000FFFF007FFFC007FFF00038FBFFFFEF8E85
:103B6000000000000000000000000000071F7FFFB1
:103B7000FDF1C00000000707200EF500070000005F
:103B80002000000007001B2E2002D100A300062702
:103B90002017D400C1001B2E2002D1005D01192E78
:103BA0002004D100ED011B272002D40071021B2E3E
:103BB0002002D1000D031B2E2002D100A903172AD9
:103BC0002006D10022041B2E2002D100BE041B2E91
:103BD0002002D1005A05071C200EDB000000000067
:103BE00000000000010203040607080900000000AD
:103BF00001020304143C0008000000201000000033
:103C0000F21D0008243C000810000020F004000011
:103C1000021E00080100000010000000000000006B
:043C200000A24A04B0
:04000005080000ED02
:00000001FF
