S0130000484434343738305F5457492E737265632B
S11300000C943E000C945B000C945B000C945B001D
S11300100C945B000C945B000C945B000C945B00F0
S11300200C945B000C945B000C945B000C945B00E0
S11300300C945B000C945B000C945B000C945B00D0
S11300400C945B000C945B000C945B000C945B00C0
S11300500C945B000C945B000C945B000C945B00B0
S11300600C9451030C945B009501B801DC01FF0171
S1130070220247026A028D02B202D50211241FBE77
S1130080CFEFD8E0DEBFCDBF11E0A0E0B1E0EAE3FE
S1130090F7E002C005900D92A836B107D9F721E028
S11300A0A8E6B1E001C01D92AA36B207E1F70E94AA
S11300B0FB020C949B030C940000CF93C82FC295B1
S11300C0C07F8091690184608093690167E20E9426
S11300D084038FEA94E00197F1F700C00000809157
S11300E0690167E28C2B0E948403809169018B7FF4
S11300F08093690167E20E9484038FEA94E0019788
S1130100F1F700C00000CF910895CF93C82F8295D6
S11301108F700E945D008C2F0E945D00CF91089526
S1130120CF93C82F809169018E7F8093690167E224
S11301300E94840360E08C2F0E948500CF91089573
S1130140CF93C82F8091690181608093690167E230
S11301500E94840361E08C2F0E948500CF91089552
S113016080916801982F9460909368018C600E943C
S11301709000089581E00E9490008FE39FE1019731
S1130180F1F700C0000008950F931F93CF93DF93FE
S11301908B01877090E0880F991F880F991F880F33
S11301A0991F80640E949000C0E0D0E007C0F8016D
S11301B0EC0FFD1F80810E94A0002196C830D1055C
S11301C0B4F380E80E949000DF91CF911F910F91CA
S11301D00895CF938FE59AEE0197F1F700C00000E0
S11301E083E00E945D008FE79EE30197F1F700C072
S11301F0000083E00E945D008FE891E00197F1F731
S113020000C0000083E00E945D008FE99FE0019739
S1130210F1F700C0000082E00E945D008FE99FE0DA
S11302200197F1F700C0000060E088E20E948500B9
S11302308FE99FE00197F1F700C0000060E08CE0D7
S11302400E9485008FE99FE00197F1F700C000004C
S113025060E086E00E9485008FE99FE00197F1F756
S113026000C000008091690188608093690167E2A1
S11302700E948403809169018D7F8093690167E204
S11302800E948403C0E00EC06C2F70E0660F771FDD
S1130290660F771F660F771F60507F4F8C2F0E9469
S11302A0C400CF5FC83080F30E94B0000E94BA003F
S11302B0CF910895CF93DF93EC01E62FF0E0E05C5B
S11302C0FE4F8081840F80680E94900003C00E94CA
S11302D0A000219688818111FACFDF91CF910895F2
S11302E0CF93C82F611108C080E8840F0E9490004A
S11302F08C2F0E94A00009C0613039F480EC840F77
S11303000E9490008C2F0E94A000CF9108951F930B
S1130310CF93DF9390E08A30910508F068C1C62F2F
S1130320FC01EC5CFF4F0C949503462F60E080E0E9
S11303300E94700111E01C0F412F60E081E00E94D7
S11303407001D2E0DC0F4D2F60E082E00E9470016A
S11303504C2F61E083E00E947001412F61E084E052
S11303600E9470014D2F61E085E00E9470013FC141
S1130370462F60E081E00E94700111E01C0F412FC4
S113038060E082E00E947001D2E0DC0F4D2F60E05B
S113039083E691E00E945A014C2F61E084E00E94C0
S11303A07001412F61E087E00E9470014D2F61E0F0
S11303B084E00E9470011BC1462F60E086E00E9429
S11303C0700111E01C0F412F60E086E00E94700173
S11303D0D2E0DC0F4D2F60E082E00E9470014C2FD0
S11303E061E083E00E947001412F61E084E00E949B
S11303F070014D2F61E084E00E947001F8C0462F27
S113040060E086E00E94700111E01C0F412F60E063
S113041086E00E947001D2E0DC0F4D2F60E082E0A4
S11304200E9470014C2F61E084E00E947001412F12
S113043061E084E00E9470014D2F61E085E00E943C
S11304407001D5C0462F60E083E00E94700111E086
S11304501C0F412F60E084E00E947001D2E0DC0FA9
S11304604D2F60E087E00E9470014C2F61E083E62D
S113047091E00E945A01412F61E083E691E00E94DD
S11304805A014D2F61E087E00E947001B0C0462FF1
S113049060E083E00E94700111E01C0F412F60E0D6
S11304A086E00E947001D2E0DC0F4D2F60E086E010
S11304B00E9470014C2F61E084E00E947001412F82
S11304C061E084E00E9470014D2F61E085E00E94AC
S11304D070018DC0462F60E080E00E94700111E041
S11304E01C0F412F60E086E00E947001D2E0DC0F17
S11304F04D2F60E086E00E9470014C2F61E083E0A4
S11305000E947001412F61E084E00E9470014D2F30
S113051061E085E00E9470016AC0462F60E081E0DE
S11305200E94700111E01C0F412F60E081E00E94E5
S11305307001D2E0DC0F4D2F60E082E00E94700178
S11305404C2F61E083E691E00E945A01412F61E063
S113055083E691E00E945A014D2F61E087E00E94FA
S1130560700145C0462F60E080E00E94700111E0F8
S11305701C0F412F60E086E00E947001D2E0DC0F86
S11305804D2F60E082E00E9470014C2F61E083E017
S11305900E947001412F61E084E00E9470014D2FA0
S11305A061E085E00E94700122C0462F60E080E097
S11305B00E94700111E01C0F412F60E086E00E9450
S11305C07001D2E0DC0F4D2F60E082E00E947001E8
S11305D04C2F61E084E00E947001412F61E084E0CF
S11305E00E9470014D2F61E085E00E947001DF914F
S11305F0CF911F9108950E945B030E94E90043E09C
S113060060E084E491E00E945A0143E061E083E504
S113061091E00E945A012FEF83ED90E32150804036
S11306209040E1F700C000000E94BA0060E081E061
S11306300E94870164E082E00E94870169E084E00F
S11306400E9487016DE085E00E94870147E060E039
S113065082E691E00E945A0147E061E085E691E07C
S11306600E945A012FEF83ED90E321508040904087
S1130670E1F700C0000047E060E085E691E00E94F9
S11306805A0147E061E082E691E00E945A012FEFAF
S113069083ED90E3215080409040E1F700C00000DA
S11306A0D5CF1F920F920FB60F9211240F900FBE49
S11306B00F901F90189578948CE08093B80085E093
S11306C08093BC00089584EA8093BC008091BC00B0
S11306D08823E4F7089585E98093BC000895809306
S11306E0BB0084E88093BC008091BC008823E4F7BD
S11306F00895880F8093BB0084E88093BC008091A8
S1130700BC008823E4F70895CF93DF93C82FD62F36
S11307100E9463038D2F0E9479038C2F0E946F0324
S11307200E946B03DF91CF910895EE0FFF1F059098
S10D0730F491E02D0994F894FFCF32
S113073A070F1F1F1F1F1F1F1F1F1F00000000007E
S113074A1C1E1F1F1F1F1F1F1F1F1F1F1F1F0F07D7
S113075A00000000001F1F1F1F1F1F1F1F1F1E1C3A
S113076A1F1F1F0000001F1F1F1F1F1F1F1F1F1FE8
S113077A004014544C434420535452494E472030A9
S113078A2033004C434420535452494E47203120CD
S10B079A33002A2000202A008C
S9030000FC
