:100000000C94E90A0C94060B0C94060B0C94060B4A
:100010000C94060B0C94060B0C94060B0C94060B1C
:100020000C94060B0C94060B0C94060B0C94060B0C
:100030000C94060B0C94060B0C94060B0C94060BFC
:100040000C94060B0C94060B0C94060B0C94060BEC
:100050000C94060B0C94060B0C94060B0C94060BDC
:100060000C94060B0C94060B000000000000005FCF
:1000700000000007000700147F147F14242A7F2A41
:10008000122313086462364955225000050300000C
:10009000001C2241000041221C0014083E081408E4
:1000A000083E0808005030000008080808080060F2
:1000B00060000020100804023E5149453E00427F86
:1000C000400042615149462141454B311814127F8D
:1000D0001027454545393C4A494930017109050316
:1000E0003649494936064949291E0036360000007E
:1000F0005636000008142241001414141414004150
:100100002214080201510906324979413E7E11113B
:10011000117E7F494949363E414141227F4141227A
:100120001C7F494949417F090909013E4149497AF2
:100130007F0808087F00417F41002040413F017F48
:10014000081422417F404040407F020C027F7F0420
:1001500008107F3E4141413E7F090909063E415159
:10016000215E7F09192946464949493101017F012C
:10017000013F4040403F1F2040201F3F4038403F4C
:100180006314081463070870080761514945430068
:100190007F41410002040810200041417F00040219
:1001A0000102044040404040000102040020545439
:1001B00054787F48444438384444442038444448C0
:1001C0007F3854545418087E0901020C5252523E92
:1001D0007F0804047800447D40002040443D007FB7
:1001E0001028440000417F40007C041804787C08FB
:1001F00004047838444444387C1414140808141453
:10020000147C7C080404084854545420043F44409F
:10021000203C4040207C1C2040201C3C4030403C86
:1002200044281028440C5050503C4464544C440022
:100230000836410000007F00000041360800100829
:100240000810080000000000E8044F02207E0600AD
:100250000008010200FB010008050200FB0600087F
:10026000020400FB080008050400FB0D000805045B
:1002700000FB120008050400FB170008050400FB42
:100280001C0008020200FB1E0008050300FB2300FF
:1002900008050300FB280008030400FB2B000803EB
:1002A0000400FC2E0008020300FE300008010400D8
:1002B000FD310008010200FF320008050400FB3791
:1002C0000008050400FB3C0008050300FB41000892
:1002D000050400FB460008050400FB4B000805046C
:1002E00000FB500008050400FB550008050400FB56
:1002F0005A0008050400FB5F0008050400FB6400C9
:1003000008050400FB690008030200FC6C000804F7
:100310000300FC700008050400FB750008030400DE
:10032000FC780008050400FB7D0008050400FB8242
:100330000008050400FB870008050400FB8C00088A
:10034000050400FB910008050400FB960008050465
:1003500000FB9B0008050400FBA00008050400FB4F
:10036000A50008050400FBAA0008050400FBAF0077
:1003700008050400FBB40008050400FBB9000805EB
:100380000400FBBE0008050400FBC30008050400D0
:10039000FBC80008050400FBCD0008050400FBD2E3
:1003A0000008050400FBD70008050400FBDC00087A
:1003B000050400FBE10008050400FBE60008050455
:1003C00000FBEB0008050400FBF00008050400FB3F
:1003D000F50008050400FBFA0008050400FBFF0017
:1003E00008050400FB040108050400FB09010805D9
:1003F0000400FB0E0108030400FC110108050400C1
:10040000FB160108020400FB180108010400FF1993
:100410000108020300FB1B0108040400FC1F010883
:10042000050400FB240108040400FC28010805045D
:1004300000FB2D0108040400FC310108050400FB49
:10044000360108050400FC3B0108050400FB4001DF
:1004500008050200FB450108060400FB4B010805E6
:100460000400FB500108050400FB550108040400CA
:10047000FC590108040400FC5D0108040400FC614F
:100480000108050400FC660108050400FC6B010876
:10049000040400FC6F0108040400FC730108050457
:1004A00000FB780108040400FC7C0108040400FC43
:1004B000800108040400FC840108040400FC880195
:1004C00008050400FC8D0108040400FC91010805E6
:1004D0000400FB960108050200FB9B0108050400CF
:1004E000FBA00108020400FB008080800080A0A027
:1004F000A0E0A0E0A060C060C0408020408020C09C
:10050000C0E0A0608080408080804080404040808B
:10051000A040A040E0404080E080202040808060FB
:10052000A0A0A0C040C0404040C0204080E0C0200B
:100530004020C0A0A0E02020E080C020C06080E07B
:10054000A0E0E020408080E0A0E0A0E0E0A0E0208B
:10055000C0800080400040802040804020E000E0DB
:100560008040204080E02040004040A0E08060408B
:10057000A0E0A0A0C0A0C0A0C06080808060C0A09B
:10058000A0A0C0E080E080E0E080E080806080E0CB
:10059000A060A0A0E0A0A0E0404040E0202020A07B
:1005A00040A0A0C0A0A080808080E0A0E0E0A0A04B
:1005B000A0E0E0E0A040A0A0A040C0A0C08080409B
:1005C000A0A0E060C0A0E0C0A060804020C0E040EB
:1005D000404040A0A0A0A060A0A0A04040A0A0E0FB
:1005E000E0A0A0A040A0A0A0A0404040E02040800B
:1005F000E0E0808080E0804020E0202020E040A0FB
:10060000E08040C060A0E080C0A0A0C060808060AA
:100610002060A0A06060A0C0602040E0404060A0DA
:10062000E0204080C0A0A0A080008080802000202A
:1006300020A04080A0C0C0A0C0404040E0E0E0E07A
:10064000A0C0A0A0A040A0A040C0A0A0C08060A06A
:10065000A060206080808060C060C040E04040605A
:10066000A0A0A060A0A0E040A0E0E0E0A04040A0EA
:10067000A0A0602040E060C0E060408040608080DA
:10068000008080C0402040C060C0D7069106303A4C
:100690003200001B2E2002D09C0006272017D3BA60
:1006A000001B2E2002D05601192E2004D0E6011B7B
:1006B000272002D36A021B2E2002D006031B2E2005
:1006C00002D0A203172A2006D01B041B2E2002D022
:1006D000B7041B2E2002D003FFF800FFFF803FFF6E
:1006E000F803FFFEC33FFFBCF0000FFF0001FFE077
:1006F000003FFC0007FF8000FFF0001FFE0003FF2B
:10070000C0007FF8000FFF0001FFE0003FFC000782
:10071000FF8000FFF0001FFC0000FE00000700004B
:100720000040000004000000E000007F00003FF0F7
:10073000001FFE0003FFC0007FF8000FFF0001FF55
:10074000E0003FFC0007FF8000FFF0001FFE0003F9
:10075000FFC0007FF8000FFF0001FFE0003F7800BE
:1007600003C67FFF301FFFF007FFFF007FFFC007BA
:10077000FFF00031EFFFFFFFFFFFFFFFFFFFFF3C38
:1007800030400033FFFFFFFFFFFFFFFFFFFFFDE3F0
:100790000003FFF800FFFF803FFFF803FFFEC03FAC
:1007A000FFBC00000FC00001F800003F000007E0A0
:1007B0000000FC00001F800003F000007E00000F1E
:1007C000C00001F800003F000007E00000FC00004E
:1007D0001F800000F07FFF861FFFFC4FFFFFE4FF3C
:1007E000FFF8E7FFFC1F000003F000007E00000F91
:1007F000C00001F800003F000007E00000FC00001E
:100800001F800003F000007E00000FC00001F80010
:10081000003F000007E00000780000067FFF001F97
:10082000FFF007FFFF007FFFC007FFF0000FFFE0B2
:100830000FFFF80FFFFE03FFFEC0FFFEF00000FCFD
:1008400000007E00003F00001F80000FC00007E096
:100850000003F00001F80000FC00007E00003F00F3
:10086000001F80000FC00007E00000F1FFFE19FF2D
:10087000FFC7FFFFF8FFFFF81FFFF1800003C00074
:1008800007E00003F00001F80000FC00007E00001B
:100890003F00001F80000FC00007E00003F00001D0
:1008A000F80000FC00007E00003F00000F07FFF38F
:1008B00007FFFC07FFFF01FFFF007FFF00000001B3
:1008C00086000079E0001FFE0003FFC0007FF800F3
:1008D0000FFF0001FFE0003FFC0007FF8000FFF07A
:1008E000001FFE0003FFC0007FF8000FFF0001FFA4
:1008F000E0003FF80001FCFFFF0E3FFFF89FFFFF05
:10090000C1FFFFF00FFFF8C000007800003F0000BB
:1009100007E00000FC00001F800003F000007E00E4
:10092000000FC00001F800003F000007E00000FCDD
:1009300000001F800003F000007E00000780000020
:100940006003FFF800FFFF803FFFF803FFFE033F57
:10095000FF80F000003F000007E00000FC00001FE7
:10096000800003F000007E00000FC00001F80000CE
:100970003F000007E00000FC00001F800003F000C3
:10098000007C00000E7FFF811FFFFC0FFFFFE0FFD8
:10099000FFF807FFFC6000003C00001F800003F030
:1009A00000007E00000FC00001F800003F000007BB
:1009B000E00000FC00001F800003F000007E00004B
:1009C0000FC00001F800003F000003C07FFF301F90
:1009D000FFF007FFFF007FFFC007FFF00003FFF8F5
:1009E00000FFFF803FFFF803FFFE033FFF80F000A2
:1009F000003F000007E00000FC00001F800003F043
:100A000000007E00000FC00001F800003F0000075A
:100A1000E00000FC00001F800003F000007C0000EC
:100A20000E7FFF811FFFFC0FFFFFE4FFFFF8E7FFD2
:100A3000FC7F00003FF0001FFE0003FFC0007FF8B6
:100A4000000FFF0001FFE0003FFC0007FF8000FFF8
:100A5000F0001FFE0003FFC0007FF8000FFF000141
:100A6000FFE0003F780003C67FFF301FFFF007FF65
:100A7000FF007FFFC007FFF0003FFF80FFFF83FF05
:100A8000FF83FFFEC3FFFBC0000FC0001F80003FBD
:100A900000007E0000FC0001F80003F00007E00009
:100AA0000FC0001F80003F00007E0000FC0001F826
:100AB0000000F000006000004000000000000000A6
:100AC0000600003C0001F80003F00007E0000FC042
:100AD000001F80003F00007E0000FC0001F80003C2
:100AE000F00007E0000FC0001F80003F00003C0046
:100AF000003003FFF800FFFF803FFFF803FFFEC355
:100B00003FFFBCF0000FFF0001FFE0003FFC0007CB
:100B1000FF8000FFF0001FFE0003FFC0007FF80011
:100B20000FFF0001FFE0003FFC0007FF8000FFF027
:100B3000001FFC0000FE7FFF871FFFFC4FFFFFE44C
:100B4000FFFFF8E7FFFC7F00003FF0001FFE0003FF
:100B5000FFC0007FF8000FFF0001FFE0003FFC0036
:100B600007FF8000FFF0001FFE0003FFC0007FF8BA
:100B7000000FFF0001FFE0003F780003C67FFF3059
:100B80001FFFF007FFFF007FFFC007FFF00003FF1C
:100B9000F800FFFF803FFFF803FFFEC33FFFBCF0FC
:100BA000000FFF0001FFE0003FFC0007FF8000FF97
:100BB000F0001FFE0003FFC0007FF8000FFF0001E0
:100BC000FFE0003FFC0007FF8000FFF0001FFC007B
:100BD00000FE7FFF871FFFFC4FFFFFE0FFFFF807CE
:100BE000FFFC6000003C00001F800003F000007E5E
:100BF00000000FC00001F800003F000007E0000007
:100C0000FC00001F800003F000007E00000FC00009
:100C100001F800003F000003C07FFF301FFFF00716
:100C2000FFFF007FFFC007FFF000180D310C3050B0
:100C30000B0000090A0800F60C00090A0800F61863
:100C400000090A0800F62400090A0800F630000925
:100C50000A0800F63C00090A0800F64800090A08DC
:100C600000F65400090A0800F66000090A0800F6B8
:100C70006C00090A0800F67800040A0300F6000078
:100C80000000000000000000000000000000000064
:100C90000000000000000000000000000000000054
:100CA00000000000000000007D00090A0800F600B6
:100CB0000000000000000000000000000000000034
:100CC0000000000000000000000000000000000024
:100CD0000000000000000000000000000000000014
:100CE0000000000000000000000000000000000004
:100CF0000000000000000000000000008900090A58
:100D00000800F600000000000000000000000000E5
:100D1000009500090A0800F6001F1FCC6633198CE5
:100D2000FE3E000000030381C06030181E0F00006B
:100D3000003F1FC023F3F180FE7F0000003F1FC073
:100D4000E3E1F01CFE7E0000003198CC67F3F80C64
:100D500006030000003F9FCC07E3F80CFE7E000076
:100D6000001F9FCC07E3F98CFE3E0000003F9FC1AF
:100D7000C1C1C0E070380000001F1FCC63E3F98CD4
:100D8000FE3E0000001F1FCC67F1F80CFE7E000045
:100D90000066006600001F1FCC67F3F98CC6630075
:100DA0000000319DCFE7F3598CC6630000003F1F60
:100DB000CC67F3F180C06000008A7800000000007A
:100DC00000000078000000000000000000000000AB
:100DD00000000000F0030000000000000000000020
:100DE0000000000000C00F00000000000000000034
:100DF000000000000000807F0000000000000000F4
:100E00000000000000000000FF03000000000000E0
:100E1000000000000000000000FC0F0000000000C7
:100E200000000000000000000000F87F000000004B
:100E30000000000000000000000000E0FF010000D2
:100E4000000000000000000000000000C0FF0F00D4
:100E50000000000000000000000000000080FF7F94
:100E6000000000000000000000000000000000FE84
:100E7000FF01000000000000000000000000000072
:100E8000FCFF0F0000000000000000000000000058
:100E900000F0CF3F00000000000000000000000054
:100EA0000000E03FFF010000000000000000000023
:100EB000000000C07FF80F000000000000000000EC
:100EC0000000000000FFE13F000000000000000003
:100ED000000000000000FE03FF0100000000000011
:100EE00000000000000000F807FC07000000000000
:100EF0000000000000000000F01FFF3F00000000A5
:100F0000000000000000000000E03FFEFF010000C4
:100F10000000000000000000000080FFF8FF070054
:100F2000000000000000000000000000FFF1FB3F97
:100F300000000000000000000000000000FCE7E7E7
:100F4000FF00000000000000000000000000F8FFAB
:100F50008FFF07000000000000000000000000E01C
:100F6000FF1FFE1F00000000000000000000000046
:100F7000C0FF3BF8FF000000000000000000000080
:100F80000000FFCFE0FF03000000000000000000B1
:100F9000000000FE3F80FF1F000000000000000076
:100FA00000000000FCFF00FEFF0000000000000049
:100FB0000000000000F0FF87F9FF030000000000C0
:100FC000000000000000E0FF1FC7FF1F000000003E
:100FD00000000000000000807F7E0CFF7F0000000A
:100FE000000000000000000000FFF931FCFF0300DA
:100FF00000000000000000000000FCE3C7F0F71F45
:101000000000000000000000000000F8073FC0DF03
:101010007F0000000000000000000000F01FFC0046
:101020007FFF0300000000000000000000C07FF010
:1010300003FCFC0F0000000000000000000080FF27
:10104000830FFCE37F0000000000000000000000B0
:10105000FE0F3EF80FFE010000000000000000003F
:1010600000FC7FF8F11FF80F0000000000000000F6
:101070000000F8FFC1C77FC07F0000000000000033
:10108000000000E0FF0F9FF781FF0100000000005B
:1010900000000000C0FF3D7FC603FE0F00000000FF
:1010A000000000000080FFE7ED0F0FFC3F00000094
:1010B00000000000000000FE9F873F3CF0FF0100A1
:1010C0000000000000000000FCFF3C7C70C0FF0F2F
:1010D000000000000000000000F0FFFFF1C381FFEE
:1010E0003F000000000000000000E03FFFC7EF07E6
:1010F0003EFF010000000000000000807FF83F8EEE
:101100009FFCFC07000000000000000000FF81FFC2
:10111000383EF3FB3F000000000000000000FC032D
:10112000FCE7FCECE7FF000000000000000000F816
:101130000FC01FF393C3FD07000000000000000074
:10114000F01F00FE8C078FE11F0000000000000070
:1011500000C03F00E0030F1CC0FF000000000000C3
:10116000000080FF00000F3E3080FF0700000000FD
:1011700000000000FE010008F80000FF1F00000052
:101180000000000000FC030040E003027EFF0000BE
:10119000000000000000F00F0080C71F1E7CFC0351
:1011A00000000000000000E01F0000FFFFFFF8FC4F
:1011B0001F00000000000000C07F0000FCFFFFF3E4
:1011C000F8FF0000000000000000FF0000F0FFFF3B
:1011D000C7F9FF0300000000000000FE030080FFCD
:1011E000FF1FF8F11F00000000000000F8070000DA
:1011F000FCFF3F70807F00000000000000F01F0037
:1012000000F8FFFF0080FF03000000000000C03F67
:101210000000E07FFE07C0FF0F000000000000801C
:101220007F0000807FE01FF8FF7F000000000000CB
:1012300000FF0100E0FF00FFF7FFFF0300000000D8
:101240000000FC0300C0FF03FC1F00F80F000000BB
:10125000000000F80F0000FF0FF07F00FF7F00008C
:1012600000000000F01F0000FC3FC0FF01E0FF0392
:101270000000000000C07F0000E0FF00FF0700F852
:101280000F000000000080FF000000FC07FEC1FF0F
:10129000FF7F000000000000FE010000E03FFC07AF
:1012A000F0FFFF010000000000FC07000080FFF0DD
:1012B0001F00F8FF0F0000000000F00F000000FC0E
:1012C000C13F00F0F13F0000000000E03F000000DF
:1012D000F807FE01C70FFF0100000000C07F800774
:1012E00000F01FF8C73F10F8070000000000FF00E3
:1012F0003F00C03FE03FFC1FC03F0000000000FE79
:1013000003FE0100FF00FF00FF1FFF0000000000C0
:10131000F807F807003800E079C0FFFF0700000079
:1013200000F01FE01F00460000E201FFFF3F000049
:101330000000C03F807F003E0000603CFCFFFF00DB
:10134000000000807F00FE01FC000000C3E39FFF5F
:101350000700000000FE01F003F8030000383C3CE9
:10136000E01F00000000FC0378F8FF030000C0C18C
:101370000700FF00000000F80FF0FFFF070000006B
:101380001C7C00FC07000000E01FE0FFFF0F00F8DE
:1013900001E0C007E01F000000C07FC0FFFF1F008A
:1013A000FF07000F7C80FF00000000FF80FFFF3F71
:1013B000C0FF1F0078F807FC03000000FE01FFFFDC
:1013C0000380FF7F00C0F77FE01F000000FC07FEE6
:1013D000FF1F80FFFF0000FCDF87FF000000F00F11
:1013E000FCF9FF80FF0F0000E07F7CFC030000E0C1
:1013F0003FF0C3FF07FF010000001FC0FF1F0000F8
:10140000807FC007FE3FFF03000000F801FC7F0063
:101410000000FF010FF0FFFF03000000C01FC0FF2E
:10142000030000FE033CC0FFFF0700000000FC00BB
:10143000FC1F0000F80FF000FEFF0700000000E0B6
:101440000FC77F0000F01FC003F0FF0F0000000077
:10145000007F1CFE0300C03F000F80FFFF00000064
:101460000000F807F00F0080FF003C00FCFF7F0049
:10147000000000807FC07F0000FE01F000E0FFFF61
:101480000F00000000FC03FE0100FC07C00300FE8B
:10149000FF7F00000000E03FF80F00F80F000000A1
:1014A000C0FFFF0700000000FFC17F00E01F000039
:1014B000000000FE3F00000000F01FFE01C07F00A2
:1014C0000000000000FE0300000080FFF90F00FF95
:1014D000000000000000E01F00000000FCCF3F0003
:1014E000FE03000000000000FF00000000E0FFFF1E
:1014F00001F807000000000000F00700000000FFF6
:10150000FF07F00F000000000000800F0000000047
:10151000F0FF3FE03F000000000000001800000066
:101520000080FFFF817F000000000000000000003D
:10153000000000FCFF07FF010000000000000000A9
:1015400000000000E0FF3FFC07000000000000007A
:10155000000000000000FFFFF8FFFFFFFFFFFFFF9C
:10156000FFFFFFFFFFFFFFFFFFE7FFFFFFFFFFFFA3
:10157000FFFFFFFFFFFFFFFFFFFFDFFFFFFFFFFF9B
:10158000FFFFFFFFFFFFFFFFFFFFFFFFFFFFFFFF6B
:10159000FFFFFFFFFFFFFFFFFFFFFFFFFFFFFFFF5B
:1015A000FFFFFFFFFFFFFFFFFFFFFFFFFFFFEFFF5B
:1015B000FFFFFFFFFFFFFFFFFFFFFFFFFFFFFF1F1B
:1015C000FFFFFFFFFFFFFFFFFFFFFFFFFFFFFFFF2B
:1015D0003F0011241FBECFEFD8E0DEBFCDBF11E02A
:1015E000A0E0B1E0E0E6F7E302C005900D92AE3571
:1015F000B107D9F721E0AEE5B1E001C01D92A636F2
:10160000B207E1F70E94EB190C94AE1B0C9400009A
:101610002C982B985AE25EBD0DB407FEFDCF2C9A94
:101620002C982B9A9EBD0DB407FEFDCF8EBD0DB438
:1016300007FEFDCF2C9A2C982B9A9EBD0DB407FE69
:10164000FDCF8EBD0DB407FEFDCF2C9A2C982B98A4
:101650008BE28EBD0DB407FEFDCF2C9A2C982B9AF1
:101660007EBD0DB407FEFDCF6EBD0DB407FEFDCFF0
:101670002C9A2C982B9A7EBD0DB407FEFDCF6EBD23
:101680000DB407FEFDCF2C9A2C982B988CE28EBDC2
:101690000DB407FEFDCF2C9A469546954695842FAE
:1016A00090E0982F8827990F990F990F36953695C6
:1016B00040E2349FB0011124862B972B2695269566
:1016C0002695822B2C982B9A9EBD0DB407FEFDCF3C
:1016D0008EBD0DB407FEFDCF2C9A0895EF92FF92B8
:1016E0000F931F93CF93FA01D90140916401509158
:1016F00065019F0121503109280F391F2417350733
:1017000018F0FA01E81BF90B409162015091630156
:101710009D0121503109260F371F2417350718F076
:10172000DA01A61BB70B9B01215031092A0F3B1F81
:10173000AC01415051094E0F5F1F2C982B98CAE203
:10174000CEBD0DB407FEFDCF2C9A2C982B9A9EBDD2
:101750000DB407FEFDCF8EBD0DB407FEFDCF2C9A54
:101760002C982B9A5EBD0DB407FEFDCF4EBD0DB477
:1017700007FEFDCF2C9A2C982B988BE28EBD0DB4D2
:1017800007FEFDCF2C9A2C982B9A7EBD0DB407FE38
:10179000FDCF6EBD0DB407FEFDCF2C9A2C982B9A71
:1017A0003EBD0DB407FEFDCF2EBD0DB407FEFDCF2F
:1017B0002C9A2C982B988CE28EBD0DB407FEFDCF91
:1017C0002C9A109779F1802F86958695869590E0D2
:1017D0009C01322F2227330F330F330FF694F694E8
:1017E00040E2F49EC0011124822B932BE694E694F0
:1017F000E6948E29592F382FBD0111C0CF012C98A6
:101800002B9A5EBD0DB407FEFDCF3EBD0DB407FEA5
:10181000FDCF2C9A019799F76150710919F0309713
:1018200069F7FACFCF911F910F91FF90EF90089534
:101830002F923F924F925F926F927F928F929F92E0
:10184000AF92BF92CF92DF92EF92FF920F931F93CE
:10185000CF93DF93CDB7DEB72E970FB6F894DEBFE8
:101860000FBECDBF9E878D874B012A013C872B87FA
:10187000CB82DC82ED82FE82CA012D853E85821BF1
:10188000930B6C0122F4CC24DD24C81AD90A2B85D1
:101890003C8528193909C901992324F488279927F7
:1018A000821B930B98878F834D855E854415550564
:1018B00028F08FEF9FEF9A87898704C021E030E0FE
:1018C0003A8729874B855C858416950620F022246B
:1018D0002A94322C03C022242394312C56018F8168
:1018E0009885A81AB90A202F30E03A8329833C0151
:1018F000719461947108EB80FC800D811E812981B7
:101900003A81A901B4018D859E85E8DE8D859E858D
:101910008415950529F42B853C8582169306D1F014
:10192000C501880F991F6816790664F44F815885A0
:10193000A41AB50A2D853E8549855A85240F351F81
:101940003E872D878C159D05B4F6AC0CBD1C820C12
:10195000931CD1CF2E960FB6F894DEBF0FBECDBF2D
:10196000DF91CF911F910F91FF90EF90DF90CF907B
:10197000BF90AF909F908F907F906F905F904F90AF
:101980003F902F9008952F923F924F925F926F92C7
:101990007F928F929F92AF92BF92CF92DF92EF92FF
:1019A000FF920F931F93CF93DF9300D000D000D00E
:1019B000CDB7DEB79A8389831B013A0129011C83C5
:1019C0000B83FE82ED821C2D75016401012F30DF37
:1019D0002D813E814B815C81B201C30129DF9101E0
:1019E00049815A816D817E818B819C8121DF269680
:1019F0000FB6F894DEBF0FBECDBFDF91CF911F9120
:101A00000F91FF90EF90DF90CF90BF90AF909F909D
:101A10008F907F906F905F904F903F902F900895A0
:101A20002F923F924F925F926F927F928F929F92EE
:101A3000AF92BF92CF92DF92EF92FF920F931F93DC
:101A4000CF93DF935C01EB0149011C01240E351E8D
:101A50009B01A101EDDE8C0E9D1E9401A101B4013C
:101A6000C501E6DE9401A501BE01C501E1DE9401D8
:101A7000A101BE01C101DCDEDF91CF911F910F9169
:101A8000FF90EF90DF90CF90BF90AF909F908F909E
:101A90007F906F905F904F903F902F9008952F927E
:101AA0003F924F925F926F927F928F929F92AF92EE
:101AB000BF92CF92DF92EF92FF920F931F93CF933B
:101AC000DF93CDB7DEB7A5970FB6F894DEBF0FBE94
:101AD000CDBF3C014B012A013A832983EBA2AB869F
:101AE000BC86CD86DE86449FC001459F900D900D3B
:101AF00011249C01990F440B550B298B3A8B4B8B6E
:101B00005C8B49815A81449FC001459F900D900D87
:101B100011249C01990F440B550B2D8B3E8B4F8B41
:101B2000588F49895A896B897C89440F551F661FD4
:101B3000771F440F551F661F771F4B8F5C8F6D8F6C
:101B40007E8F6D897E898F89988D660F771F881F9C
:101B5000991F660F771F881F991F6F8F78A389A31E
:101B60009AA3002309F466C189819A81880F991F7D
:101B7000A1E0B0E0A81BB90B29893A894B895C899F
:101B80000E94861BCD88DE88EF88F88CCC0CDD1C8B
:101B9000EE1CFF1C9B01AC012C0D3D1D4E1D5F1D5D
:101BA0002F83388749875A87A981BA8129893A8939
:101BB0004B895C890E94861B99230CF48DC00F2EE3
:101BC000F6E0AF2EB12CF02D212C312CC3013BA11E
:101BD000831B9109AC014F5F5F4F5A8F498FB88BC0
:101BE000AF87132FCB84DC84ED84FE84012FB401F6
:101BF0008F859889681B790B9B01A98DBA8DA20DE1
:101C0000B31DBA83A983AD01C301821993099E83D1
:101C10008D830EDECB84DC84ED84FE846F85788931
:101C2000680D791D9B0149815A818D819E8100DE5D
:101C30002F81388549855A855523F4F0A1E0B0E01D
:101C40004F855889A41BB50B2B8D3C8D4D8D5E8D1A
:101C50000E94861B2F81388549855A85260F371F9C
:101C6000481F591F2F83388749875A874F855889BE
:101C700041505109588B4F87D5012D893E894F8995
:101C8000588D0E94861B2F81388549855A85260FDD
:101C9000371F481F591F2F83388749875A873FEFBF
:101CA000231A330A44E0A40EB11CD1012D893E89C8
:101CB0004F89588D0E94861B6B017C01AF85B889C6
:101CC00029893A894B895C890E94861B6C157D05A0
:101CD0008E059F050CF086CFC201880F991FA1E0E9
:101CE000B0E0A81BB90B2D893E894F89588D0E9401
:101CF000861BC988DA88EB88FC88CC0CDD1CEE1CBE
:101D0000FF1C9B01AC012C0D3D1D4E1D5F1D298349
:101D10003A834B835C83D2012D893E894F89588D4C
:101D20000E94861B99230CF4F5C10F2EF6E0AF2E0E
:101D3000B12CF02D212C312C5BA1452F50E0588B7C
:101D40004F871BA1C301840D951D0196BC01AF8572
:101D5000B8896A1B7B0B78876F83CB84DC84ED8426
:101D6000FE84012FB401621973099B014F815885CC
:101D7000C301841995099E838D835ADDCB84DC844D
:101D8000ED84FE84B401620D731D9B014F81588563
:101D90008D819E814DDD29813A814B815C81552366
:101DA000CCF0A1E0B0E0A419B5092F8D38A149A16C
:101DB0005AA10E94861B29813A814B815C81260FA2
:101DC000371F481F591F29833A834B835C8331E0B7
:101DD000431A5108D50129893A894B895C890E94A7
:101DE000861B29813A814B815C81260F371F481F52
:101DF000591F29833A834B835C833FEF231A330AAD
:101E000044E0A40EB11CD10129893A894B895C892F
:101E10000E94861B6B017C01D2012D893E894F896E
:101E2000588D0E94861B6C157D058E059F050CF054
:101E300089CF70C189819A81880F991FA1E0B0E094
:101E4000A81BB90B29893A894B895C890E94861B9A
:101E5000CD88DE88EF88F88CCC0CDD1CEE1CFF1CD6
:101E600056016701A60EB71EC81ED91EA981BA81E8
:101E70000E94861B99230CF491C066E070E07A8F73
:101E8000698F212C312C9BA1892F90E09E838D831B
:101E9000BDA3ACA3EB84FC840D851E852D813E8102
:101EA000A901ACA1BDA1A80DB91DBA83A983BD012B
:101EB000C101860D971D98878F8310DCEB84FC840D
:101EC0000D851E852D813E81A90169817A81D3010D
:101ED000A219B309B88BAF87CD0100DCEB84FC8479
:101EE0000D851E852D813E81A901B4018CA19DA186
:101EF000681B790B7A8369838F819885EFDBEB848C
:101F0000FC840D851E852D813E81A90169817A8120
:101F10008F859889E3DBDD20B4F0A1E0B0E02CA14F
:101F20003DA1A21BB30B2B8D3C8D4D8D5E8D0E9470
:101F3000861BA60EB71EC81ED91E4CA15DA141501E
:101F400051095DA34CA3A98DBA8D2D893E894F8976
:101F5000588D0E94861BA60EB71EC81ED91E5FEFA5
:101F6000251A350ABD016C5F7F4F7A8F698FD101C9
:101F70002D893E894F89588D0E94861B7B018C01DB
:101F8000ACA1BDA129893A894B895C890E94861B35
:101F90006E157F05800791070CF07CCFC201880F7A
:101FA000991FA1E0B0E0A81BB90B2D893E894F898C
:101FB000588D0E94861BC988DA88EB88FC88CC0C77
:101FC000DD1CEE1CFF1C9B01AC012C0D3D1D4E1DAC
:101FD0005F1D2F83388749875A87D2012D893E8913
:101FE0004F89588D0E94861B99230CF493C00F2EA5
:101FF000F6E0AF2EB12CF02D212C312C5BA1452F1A
:1020000050E0588B4F87EB84FC840D851E852F850F
:102010003889A9016101C80CD91CB601C301840D1E
:10202000951D9E838D835ADBEB84FC840D851E8574
:102030002F853889A901B601D301A419B509BA833E
:10204000A983CD014BDBEB84FC840D851E852F8598
:102050003889A9016401C218D308B6018D819E8117
:102060003DDBEB84FC840D851E852F853889A90115
:10207000B60189819A8132DB2F81388549855A855D
:102080005523CCF0A1E0B0E0A419B5092F8D38A1FB
:1020900049A15AA10E94861B2F81388549855A85FE
:1020A000260F371F481F591F2F83388749875A87A4
:1020B00031E0431A5108D50129893A894B895C8955
:1020C0000E94861B2F81388549855A85260F371F28
:1020D000481F591F2F83388749875A873FEF231A94
:1020E000330A44E0A40EB11CD10129893A894B89F5
:1020F0005C890E94861B6B017C01D2012D893E897F
:102100004F89588D0E94861B6C157D058E059F0595
:102110000CF079CFA5960FB6F894DEBF0FBECDBFF9
:10212000DF91CF911F910F91FF90EF90DF90CF90B3
:10213000BF90AF909F908F907F906F905F904F90E7
:102140003F902F9008952F923F924F925F926F92FF
:102150007F928F929F92AF92BF92CF92DF92EF9237
:10216000FF920F931F93CF93DF93CDB7DEB76597A1
:102170000FB6F894DEBF0FBECDBF5C012B012B8BD9
:10218000CF82D886E986FA86242E312C81E090E031
:102190003C016218730821E030E0388B2F879E875E
:1021A0008D87C12CD12C802E912CBD8AAC8ADA8AE5
:1021B000C98A9B89913021F5C101880F991F9C0123
:1021C0002F5F3F4F3C832B83EF80F88409851A856E
:1021D0004F855889B201621973098C899D897EDA0D
:1021E000EF80F88409851A852F8538894B815C81B9
:1021F000B2016C197D09C501821993096FDA71C0AA
:10220000EF80F88409851A859401A401C201820D2A
:10221000931D9C838B83BC01C5018C0D9D1D9C87E8
:102220008B875CDAEF80F88409851A859401A40114
:10223000C2018C0D9D1D9E838D83BC01C501820D45
:10224000931D9A8389834ADAEF80F88409851A8579
:102250009401A4016B817C818C899D893FDAEF8098
:10226000F88409851A859401A4016D817E81C501D8
:10227000821993099C838B8331DAEF80F884098576
:102280001A859401A401C2018C199D099E838D8336
:10229000BC0189819A8122DAEF80F88409851A8548
:1022A0009401A401C201821993099A838983BC0114
:1022B0008B859C8513DAEF80F88409851A85940153
:1022C000A40169817A818C899D8908DAEF80F8847C
:1022D00009851A859401A4016D817E818B819C8181
:1022E000FDD977205CF493E0690E711CC601880F5C
:1022F000991F680E791E8D859E8510C025E0620E9F
:10230000711C89899A8982199309880F991F680E0F
:10231000791E8D859E8531E0231A31082FEFC21A70
:10232000D20A2D853E852F5F3F4F3E872D872C8912
:102330003D89215031093D8B2C8B2F8538892E5FAB
:102340003F4F388B2F87281639060CF030CF659613
:102350000FB6F894DEBF0FBECDBFDF91CF911F91B6
:102360000F91FF90EF90DF90CF90BF90AF909F9034
:102370008F907F906F905F904F903F902F90089537
:102380002F923F924F925F926F927F928F929F9285
:10239000AF92BF92CF92DF92EF92FF920F931F9373
:1023A000CF93DF93CDB7DEB72E970FB6F894DEBF8D
:1023B0000FBECDBF2C014B015A01CB82DC82ED82D6
:1023C000FE8281E090E06C01C41AD50A8827992723
:1023D000841B950B3C01660C771C141615060CF03B
:1023E000BCC022242394312C922F94709987E02F23
:1023F000F0E0FA83E983F22FF270FA87822F887077
:102400008B8721702C87E1E0F0E0FE87ED87DD20EF
:1024100044F0F1E0AF1AB10882E0680E711CC60CFE
:10242000D71CED85FE85F887EF83F2E02F0E311C77
:10243000C20CD31C89858823F1F0EB80FC800D81D0
:102440001E8129813A81A901B501680D791D8D850B
:102450009E85840D951D42D9EB80FC800D811E81E7
:1024600029813A81A9016D857E85680D791DC50197
:10247000840D951D33D99A859923F9F0EB80FC8062
:102480000D811E8129813A81A901B4016A197B0954
:102490008D859E85840D951D21D9EB80FC800D8155
:1024A0001E8129813A81A901B401ED85FE856E1B4B
:1024B0007F0BC501840D951D11D9FB85FF23F9F014
:1024C000EB80FC800D811E8129813A81A9016D85F7
:1024D0007E85680D791DC2018A199B09FFD8EB80A2
:1024E000FC800D811E8129813A81A901B501680D09
:1024F000791DC201ED85FE858E1B9F0BEFD8FC85F3
:10250000FF2301F1EB80FC800D811E8129813A813E
:10251000A901B4018D859E85681B790BC2018A19BA
:102520009B09DCD8EB80FC800D811E8129813A81DA
:10253000A901B4016A197B09C201ED85FE858E1BD4
:102540009F0BCCD88D859E8501969E878D87EF81C8
:10255000F885EA15FB050CF45ACF2E960FB6F894C1
:10256000DEBF0FBECDBFDF91CF911F910F91FF90C6
:10257000EF90DF90CF90BF90AF909F908F907F9023
:102580006F905F904F903F902F9008952F923F92C1
:102590004F925F926F927F928F929F92AF92BF9273
:1025A000CF92DF92EF92FF920F931F93CF93DF931F
:1025B000CDB7DEB72C970FB6F894DEBF0FBECDBFF8
:1025C00098878F837A876987190148011E2DA98210
:1025D000BA82CB82DC823C01640E751E4E2C512CDB
:1025E000C20188199909860D971D9C878B878F8159
:1025F0009885880D991D9E838D8376016501012F35
:102600009B014B855C8514D9A984BA84A20CB31CA8
:10261000150191E0291A3108C980DA80EB80FC802D
:1026200091014B855C85B1018D819E8101D9A418F2
:10263000B508A818B90889859A85880D991D9A87C3
:102640008987C980DA80EB80FC8095014F815885AD
:10265000BC01CA01EDD8C3010197C980DA80EB80C3
:10266000FC809501AC0169857A85E2D8C980DA8061
:10267000EB80FC8021E0A40169857A858D819E81B3
:102680007FDE5401A094B094A60CB71CC980DA80F8
:10269000EB80FC8022E0A40169857A85C50170DEAB
:1026A000C1018819990998878F83C980DA80EB80E6
:1026B000FC8024E0A401BC01C50162DEC980DA808F
:1026C000EB80FC8028E0A4016F8178858D819E815C
:1026D00057DE2C960FB6F894DEBF0FBECDBFDF914C
:1026E000CF911F910F91FF90EF90DF90CF90BF900F
:1026F000AF909F908F907F906F905F904F903F90A2
:102700002F9008952F923F924F925F926F927F92F7
:102710008F929F92AF92BF92CF92DF92EF92FF92F1
:102720000F931F93CF93DF93CDB7DEB72F970FB6DD
:10273000F894DEBF0FBECDBF4C013B015A011D878F
:102740000C87CF82D886E986FA8681E090E01C016A
:10275000241A350A88279927841B950BAC01440F4E
:10276000551F5C834B831A141B040CF084C0CB01EF
:1027700001979A838983C80101962C01460E571E42
:1027800041E050E0122F117022702B875F874E8737
:10279000332054F051E0A51AB1088B819C81029638
:1027A0009C838B83280E391E4E855F855E834D8307
:1027B000CA01880F991F0196280E391E112301F1B5
:1027C00093012A0D3B1D8C859D85280F391FCF80D5
:1027D000D884E984FA8401E0CA01880D991DAC010E
:1027E000B3016A197B0924D8CF80D884E984FA849C
:1027F0009201C501880D991DAC0169817A8118D8B3
:102800009B85992321F193012A0D3B1D4C855D8504
:10281000240F351FCF80D884E984FA8401E0C401F5
:102820004E855F85841B950BAC01B3016A197B094A
:102830000E94180CCF80D884E984FA849201C401E4
:102840008A199B09AC0169817A810E94180C8E85D6
:102850009F8501969F878E8749815A8141505109F2
:102860005A8349835FEF451A550A8D819E818A15E7
:102870009B050CF48DCF2F960FB6F894DEBF0FBEDC
:10288000CDBFDF91CF911F910F91FF90EF90DF901F
:10289000CF90BF90AF909F908F907F906F905F9000
:1028A0004F903F902F9008952F923F924F925F92BA
:1028B0006F927F928F929F92AF92BF92CF92DF9250
:1028C000EF92FF920F931F93CF93DF9300D000D02E
:1028D00000D0CDB7DEB75C012B011A0149011E8380
:1028E0000D83C982DA82EB82FC826801CC0CDD1C8C
:1028F0003801680E791E4C195D09E980FA800B8158
:102900001C81C3010E946E0B81E0881A91088C180B
:102910009D08ED81FE814E0E5F1EC5010197820D5F
:10292000931DC980DA80EB80FC80840121E0AF0137
:10293000B2018E1B9F0BE6DEC980DA80EB80FC8043
:1029400022E04D815E81B201C301DCDE26960FB626
:10295000F894DEBF0FBECDBFDF91CF911F910F91D5
:10296000FF90EF90DF90CF90BF90AF909F908F90AF
:102970007F906F905F904F903F902F9008952F928F
:102980003F924F925F926F927F928F929F92AF92FF
:10299000BF92CF92DF92EF92FF920F931F93CF934C
:1029A000DF9300D000D01F92CDB7DEB728013901E8
:1029B000E9828B3321E0920770F0683E710558F48C
:1029C000685F7F4F709361016093600190935F0136
:1029D00080935E0108C070936101609360019093E1
:1029E0005F0180935E0129802694312C842E952EE0
:1029F00036C1398131113CC090E06C01CC0CDD1C3A
:102A0000CC0CDD1CC80ED91E6894EE24E2F8F12C23
:102A100080EAC81AD108F601EE0DFF1DE859FF4FF4
:102A2000E4912E2F30E03B832A8307E010E03A81C7
:102A300037FF10C06091600170916101600F711FDC
:102A400080915E0190915F01A30192018E0D9F1D07
:102A50000E94080B8A819B81880F991F9B838A8320
:102A60000150110920F7E1E0EE1AF108A0F6D6C0F6
:102A70002981213009F052C090E05C01AA0CBB1CF6
:102A8000AA0CBB1CA80EB91E6894EE24E2F8F12C27
:102A900030EAA31AB108F501EE0DFF1DE859FF4F0A
:102AA000E4918E2F90E09B838A8307E010E09A8167
:102AB00097FF25C060916001709161016801CC0CA5
:102AC000DD1C6C0D7D1D80915E0190915F01A30165
:102AD00092018E0D9F1D0E94080B60916001709104
:102AE00061016F5F7F4F6C0D7D1D80915E01909144
:102AF0005F01A30192018E0D9F1D0E94080BEA81C8
:102B0000FB81EE0FFF1FFB83EA830150110978F66A
:102B100021E0E21AF10808F0BECF80C099819A3016
:102B200009F07CC090E09C01220F331F220F331F5D
:102B3000820F931F6894AA24A2F8B12CFC01E05ADA
:102B4000F109FB83EA83EA81FB81EA0DFB1DE85969
:102B5000FF4FE4912E2F30E03D832C836501CC0C98
:102B6000DD1C07E010E03C8137FF49C06091600147
:102B7000709161017801EE0CFF1C6E0D7F1D80913C
:102B80005E0190915F01A30192018C0D9D1D0E9439
:102B9000080B60916001709161016F5F7F4F6E0D56
:102BA0007F1D80915E0190915F01A30192018C0DC8
:102BB0009D1D0E94080B60916001709161016E0D76
:102BC0007F1D80915E0190915F010196A3019201AA
:102BD0008C0D9D1D0E94080B609160017091610138
:102BE0006F5F7F4F6E0D7F1D80915E0190915F0141
:102BF0000196A30192018C0D9D1D0E94080B8C81F2
:102C00009D81880F991F9D838C830150110908F0C5
:102C1000AACFE1E0AE1AB10808F095CF80915E012D
:102C200090915F010696820D931D8B3321E09207F0
:102C300090F02091600130916101283E310558F4F7
:102C4000285F3F4F309361012093600190935F01B3
:102C500080935E0104C090935F0180935E01F40154
:102C600081914F018111C5CE0F900F900F900F9061
:102C70000F90DF91CF911F910F91FF90EF90DF9018
:102C8000CF90BF90AF909F908F907F906F905F900C
:102C90004F903F902F9008952F923F924F925F92C6
:102CA0006F927F928F929F92AF92BF92CF92DF925C
:102CB000EF92FF920F931F93CF93DF93CDB7DEB7C1
:102CC000A1970FB6F894DEBF0FBECDBFA82EB92EC8
:102CD0005D8B4C8BC88ED98EEA8EFB8E8E8F9F8F2C
:102CE0006A8B7B8B47E050E0B901CE0101962DD570
:102CF0002C893D893F8B2E8BA88AB98A612C712C37
:102D0000202E312C0C8F3D8EF1C0EE89FF898191F0
:102D1000FF8BEE8B8A3089F42F81229DC001239D89
:102D2000900D11242A893B89280F391F3B8B2A8B50
:102D30003E8D388B6F8D698BD6C02D81821708F43C
:102D4000D2C09E81981708F4CEC08D3009F4CBC054
:102D500090E0821B9109BC01660F771F660F771FF9
:102D6000660F771FFB01E81BF90B6B817C816E0FEF
:102D70007F1F47E050E0CE010896E7D489809A8013
:102D8000C884D9848B85811199C0A1C0A12C80E011
:102D900090E0FF854F2E512CB1100BC096012F5F94
:102DA0003F4FF401EC0DFD1D749069016894BB2444
:102DB000B7F8272D2B2111F0019639C00097B9F1F2
:102DC000289EA001299E500D389E500D11242E855D
:102DD000B201620F711D27FD7A959B01229DB00102
:102DE000239D700D329D700D1124EA89FB896E0FB1
:102DF0007F1FED852A2D30E02E0F311DE7FD3A951E
:102E0000281B390B229DC001239D900D329D900DF2
:102E10001124E88CF98C0A8D1B8D2C8D3D8DE88951
:102E2000F9898E0F9F1F0E946E0B80E090E0B69490
:102E3000A3942A85A21608F4AFCF0097B1F1289E7B
:102E4000A001299E500D389E500D11246E85FF85DE
:102E50002F2F30E0260F311D67FD3A95229DB001DE
:102E6000239D700D329D700D11242A893B89620FBC
:102E7000731FED852A2D30E02E0F311DE7FD3A95A9
:102E8000281B390B229DC001239D900D329D900D72
:102E90001124E88CF98C0A8D1B8D2C8D3D8DE889D1
:102EA000F9898E0F9F1F0E946E0BFF85FF5FFF87C2
:102EB0008B85F81740F068A079A009C01F86B12C57
:102EC00079A268A27B2C8A85811160CFEECF2C85F8
:102ED000229DC001239D900D112428893989280F36
:102EE000391F398B288B3FEF631A730AEC89FD89F0
:102EF00001900020E9F731976C897D89E61BF70B7B
:102F00006E167F0608F401CFA1960FB6F894DEBFC7
:102F10000FBECDBFDF91CF911F910F91FF90EF902A
:102F2000DF90CF90BF90AF909F908F907F906F90E9
:102F30005F904F903F902F9008956F927F928F9265
:102F40009F92AF92BF92CF92DF92EF92FF920F9338
:102F50001F93CF93DF93FA01A490DA011296319672
:102F60004491842E912CAB0141505109480D591DBB
:102F7000B12CFC013197EA0DFB1D2C982B983AE2FD
:102F80003EBD0DB407FEFDCF2C9A2C982B9A9EBD0A
:102F90000DB407FEFDCF8EBD0DB407FEFDCF2C9AFC
:102FA0002C982B9AFEBD0DB407FEFDCFEEBD0DB4DF
:102FB00007FEFDCF2C9A2C982B988BE28EBD0DB47A
:102FC00007FEFDCF2C9A2C982B9A7EBD0DB407FEE0
:102FD000FDCF6EBD0DB407FEFDCF2C9A2C982B9A19
:102FE0005EBD0DB407FEFDCF4EBD0DB407FEFDCF97
:102FF0002C9A2C982B988CE28EBD0DB407FEFDCF39
:103000002C9A8114910409F47BC0802F86958695B3
:10301000869590E0982F8827990F990F990F2695FC
:1030200026952695822B212F26952695F0E22F9F17
:1030300090011124822B932B692E782E8C2D86954E
:103040008695869590E0982F8827990F990F990F6C
:10305000E694E694E6948E292D2D2695269540E259
:10306000249F90011124822B932BE92EF82E00E04F
:1030700010E0E0E0F0E080E090E061E070E039C076
:103080009C01277033272115310539F4ED01219674
:10309000FD01A491EA2FF0E0DE01EB0102C0CC0FAC
:1030A000DD1F2A95E2F79E012E233F23232B61F09B
:1030B0002C982B9A6EBC0DB407FEFDCF7EBC0DB4D0
:1030C00007FEFDCF2C9A0BC02C982B9AEEBC0DB4AA
:1030D00007FEFDCFFEBC0DB407FEFDCF2C9A019676
:1030E0008417950769F6CA010F5F1F4F8016910676
:1030F00039F0A114B104C1F3AC014A0D5B1DC0CF7E
:10310000DF91CF911F910F91FF90EF90DF90CF90C3
:10311000BF90AF909F908F907F906F90089585B1F2
:10312000886B85B984B1886B84B98CB580658CBD9A
:103130008DB583608DBD0895289A209A2C98289A81
:103140002FEB87E299E0215080409040E1F700C0EA
:10315000000028982FEB87E299E0215080409040B2
:10316000E1F700C00000289A08952C982B9896E368
:103170009EBD0DB407FEFDCF2C9A8130E1F030F0FA
:10318000823071F1833009F440C008952C982B9A55
:1031900088E48EBD0DB407FEFDCF2C9A80EF90E041
:1031A000909365018093640180E491E090936301C2
:1031B0008093620108952C982B9A88E28EBD0DB4FD
:1031C00007FEFDCF2C9A80E491E0909365018093F7
:1031D000640180EF90E09093630180936201089511
:1031E0002C982B9A88E88EBD0DB407FEFDCF2C9A43
:1031F00080EF90E0909365018093640180E491E01A
:10320000909363018093620108952C982B9A88EE25
:103210008EBD0DB407FEFDCF2C9A80E491E0909313
:1032200065018093640180EF90E090936301809347
:1032300062010895EF92FF920F931F9370DF7CDF7E
:103240002C982B9881E08EBD0DB407FEFDCF2C9AF3
:103250002C982B9880EC8EBD0DB407FEFDCF2C9AD8
:103260002C982B9A85E28EBD0DB407FEFDCF2C9ACB
:103270002C982B9881EC8EBD0DB407FEFDCF2C9AB7
:103280002C982B9A81E08EBD0DB407FEFDCF2C9AB1
:103290002C982B9885EC8EBD0DB407FEFDCF2C9A93
:1032A0002C982B9A8BE28EBD0DB407FEFDCF2C9A85
:1032B0002C982B9A8BE28EBD0DB407FEFDCF2C9A75
:1032C0002C982B9887EC8EBD0DB407FEFDCF2C9A61
:1032D0002C982B9A86E08EBD0DB407FEFDCF2C9A5C
:1032E0002C982B988AE38EBD0DB407FEFDCF2C9A47
:1032F0002C982B9A85E08EBD0DB407FEFDCF2C9A3D
:103300002C982B9881EB8EBD0DB407FEFDCF2C9A27
:103310002C982B9A1EBC0DB407FEFDCF2C9A2C982E
:103320002B9A88E18EBD0DB407FEFDCF2C9A2C9808
:103330002B9886EB8EBD0DB407FEFDCF2C9A2C98F2
:103340002B9A8AE08EBD0DB407FEFDCF2C9A2C98E7
:103350002B9A82E88EBD0DB407FEFDCF2C9A2C98D7
:103360002B9A87E28EBD0DB407FEFDCF2C9A2C98C8
:103370002B988AE38EBD0DB407FEFDCF2C9A2C98B6
:103380002B9A85E58EBD0DB407FEFDCF2C9A2C98A7
:103390002B9881E18EBD0DB407FEFDCF2C9A2C98A1
:1033A0002B9889E28EBD0DB407FEFDCF2C9A83E0E9
:1033B000DCDEE12CF12C870120EF30E040E451E02D
:1033C00060E070E080E090E00E946E0B1F910F9132
:1033D000FF90EF9008952EDFE12CF12C8701EA9405
:1033E00020EF30E040E451E060E070E080E090E009
:1033F0000E946E0BE12CF12C87012EEE30E04EE3A3
:1034000051E061E070E081E090E00E946E0BC12C21
:10341000D12C76010FEF10E020E030E049EB5DE0C9
:1034200064E070E080E190E088DD2FE784E89EE1D1
:10343000215080409040E1F700C00000C8E0D0E09B
:10344000C12CD12C7601DA9401E020E830E0AE0105
:1034500060E070E080E090E00E94180C2896C83A86
:10346000D10571F7C8E0D0E0C12CD12C7601DA94F7
:1034700001E09E0140EA50E060E070E080E090E012
:103480000E94180C2896C838D10571F7EFE3F2E4D2
:103490002FE0E150F0402040E1F700C00000C0E123
:1034A000D0E00F2EF4E1AF2EB12CF02D68946624FD
:1034B00066F8712C0F2EF0E58F2E912CF02D8C2FAD
:1034C0008695B301681B71098A2D8695C12CDD2470
:1034D000DA94ED2CF12C02E09E01A501F401E81B29
:1034E000F109CF010E94100DF4E1AF0EB11C6096FE
:1034F000C039D10521F72FE382E49FE021508040BD
:103500009040E1F700C00000E12CF12C8701EA9423
:1035100020E830E040EA50E060E070E080E090E0D9
:103520000E946E0BE12CF12C87012EE730E04EE972
:1035300050E061E070E081E090E00E946E0BC12CF1
:10354000DD24DA94ED2CF12C01E028E432E040E0B7
:1035500051E068E270E085E090E09EDBCC24CA9404
:10356000D12C760124E130E049E850E064E170E0DC
:1035700087E190E00E94180CC12CD12C7601CA94EE
:1035800025E130E049E850E065E170E087E190E056
:103590000E94180C25E130E049E850E065E170E058
:1035A00087E190E00E94180CE12C0FEF10E09801E9
:1035B0004DE151E06AE070E089E290E0E0D9EE246C
:1035C000E39400E010E02FEF30E04BE251E06AE1DD
:1035D00070E085E390E0D3D9C12CD12C7601EA9438
:1035E00001E020E04EE16AE570E088E290E00E94B0
:1035F000A310C12CD12C7601CA9421E044E16AE5E4
:1036000070E08DE290E00E94A310812C912C540177
:103610008A946894CC24C1F80F2EF9E1EF2EF12C96
:10362000F02D09E110E024E130E045E050E065E0F4
:1036300070E085E090E00E94C30CC12CD12C760193
:10364000DA9402E024E130E04EE150E06DE270E017
:103650008CE390E00E94100DAA24AA94BA2CCA2CE4
:10366000D12C0F2EF3E0EF2EF02D0AE010E029E12F
:1036700030E04CE350E066E470E080E590E00E94CA
:10368000C612CC24CA94DC2CEC2CF12C29E130E0BD
:103690004CE350E064E670E080E590E005D9A12CB1
:1036A000BB24BA94CB2CD12C6894EE24E1F800E032
:1036B00024E130E04EE150E064E670E08CE390E01D
:1036C0000E944F0DEE24E39401E02FE030E049E149
:1036D00050E06CE370E08DE790E00E944F0DC12C4C
:1036E000D12C7601EA942AE836E04DE351E068EC0B
:1036F00070E080E090E0D0DA2AE23CE048E451E07B
:103700006CED70E08AE090E0C7DAFFCFB7FF04C04D
:1037100003D0821B930B089509D0A59F900DB49FF1
:10372000900DA49F800D911D11240895A29FB001BA
:10373000B39FC001A39F700D811D1124911DB29FE5
:10374000700D811D1124911D0895FB01DC0102C043
:1037500005900D9241505040D8F70895F894FFCF4E
:10376000546869732069730A206A75737420612034
:10377000546573740A5354373733350A005354373A
:10378000373335204452495645520041544D454740
:103790004120333238202D20313238340031323359
:1037A00034353637383930003132333435363738FE
:0E37B0003930205445535420464F4E540000EB
:00000001FF
