:100000000C94CB0C0C94E80C0C94E80C0C94E80CBD
:100010000C94E80C0C94E80C0C94E80C0C94E80C90
:100020000C94E80C0C94E80C0C94E80C0C94E80C80
:100030000C94E80C0C94E80C0C94E80C0C94E80C70
:100040000C94E80C0C94E80C0C94E80C0C94E80C60
:100050000C94E80C0C94E80C0C94E80C0C94E80C50
:100060000C94E80C0C94E80CCA006F002E3A320095
:10007000000707200EF50700000020000007001B06
:100080002E2002D1A30006272017D4C1001B2E204A
:1000900002D15D01192E2004D1ED011B272002D4CD
:1000A00071021B2E2002D10D031B2E2002D1A903A9
:1000B000172A2006D122041B2E2002D1BE041B2E9B
:1000C0002002D15A05071C200EDB38FBFFFFEF8E04
:1000D0000003FFF800FFFF803FFFF803FFFEC33F70
:1000E000FFBCF0000FFF0001FFE0003FFC0007FF36
:1000F0008000FFF0001FFE0003FFC0007FF8000F2C
:10010000FF0001FFE0003FFC0007FF8000FFF00060
:100110001FFC0000FE00000700000040000004007B
:100120000000E000007F00003FF0001FFE0003FF22
:10013000C0007FF8000FFF0001FFE0003FFC000758
:10014000FF8000FFF0001FFE0003FFC0007FF800EB
:100150000FFF0001FFE0003F780003C67FFF301F64
:10016000FFF007FFFF007FFFC007FFF00031EFFF48
:10017000FFFFFFFFFFFFFFFFFF3C30400033FFFFAB
:10018000FFFFFFFFFFFFFFFFFDE30003FFF800FF9E
:10019000FF803FFFF803FFFEC03FFFBC00000FC021
:1001A0000001F800003F000007E00000FC00001F15
:1001B000800003F000007E00000FC00001F8000086
:1001C0003F000007E00000FC00001F800000F07FFF
:1001D000FF861FFFFC4FFFFFE4FFFFF8E7FFFC1F58
:1001E000000003F000007E00000FC00001F80000D6
:1001F0003F000007E00000FC00001F800003F0004B
:10020000007E00000FC00001F800003F000007E082
:100210000000780000067FFF001FFFF007FFFF00CF
:100220007FFFC007FFF0000FFFE00FFFF80FFFFE9A
:1002300003FFFEC0FFFEF00000FC00007E00003F58
:1002400000001F80000FC00007E00003F00001F86D
:100250000000FC00007E00003F00001F80000FC077
:100260000007E00000F1FFFE19FFFFC7FFFFF8FFE6
:10027000FFF81FFFF1800003C00007E00003F0005B
:1002800001F80000FC00007E00003F00001F80001D
:100290000FC00007E00003F00001F80000FC0000C0
:1002A0007E00003F00000F07FFF307FFFC07FFFF82
:1002B00001FFFF007FFF0000000186000079E000E1
:1002C0001FFE0003FFC0007FF8000FFF0001FFE0EA
:1002D000003FFC0007FF8000FFF0001FFE0003FF4F
:1002E000C0007FF8000FFF0001FFE0003FF80001B1
:1002F000FCFFFF0E3FFFF89FFFFFC1FFFFF00FFF66
:10030000F8C000007800003F000007E00000FC009B
:10031000001F800003F000007E00000FC00001F805
:1003200000003F000007E00000FC00001F80000309
:10033000F000007E0000078000006003FFF800FF6F
:10034000FF803FFFF803FFFE033FFF80F000003F08
:10035000000007E00000FC00001F800003F0000028
:100360007E00000FC00001F800003F000007E00021
:1003700000FC00001F800003F000007C00000E7FE6
:10038000FF811FFFFC0FFFFFE0FFFFF807FFFC608E
:1003900000003C00001F800003F000007E00000F02
:1003A000C00001F800003F000007E00000FC000072
:1003B0001F800003F000007E00000FC00001F80065
:1003C000003F000003C07FFF301FFFF007FFFF006A
:1003D0007FFFC007FFF00003FFF800FFFF803FFF33
:1003E000F803FFFE033FFF80F000003F000007E03E
:1003F0000000FC00001F800003F000007E00000FE2
:10040000C00001F800003F000007E00000FC000011
:100410001F800003F000007C00000E7FFF811FFFA3
:10042000FC0FFFFFE4FFFFF8E7FFFC7F00003FF059
:10043000001FFE0003FFC0007FF8000FFF0001FF58
:10044000E0003FFC0007FF8000FFF0001FFE0003FC
:10045000FFC0007FF8000FFF0001FFE0003F7800C1
:1004600003C67FFF301FFFF007FFFF007FFFC007BD
:10047000FFF0003FFF80FFFF83FFFF83FFFEC3FF0E
:10048000FBC0000FC0001F80003F00007E0000FC8A
:100490000001F80003F00007E0000FC0001F80001B
:1004A0003F00007E0000FC0001F80000F00000604A
:1004B000000040000000000000000600003C0001B9
:1004C000F80003F00007E0000FC0001F80003F00AD
:1004D000007E0000FC0001F80003F00007E0000FC0
:1004E000C0001F80003F00003C00003003FFF80008
:1004F000FFFF803FFFF803FFFEC33FFFBCF0000F8C
:10050000FF0001FFE0003FFC0007FF8000FFF0005C
:100510001FFE0003FFC0007FF8000FFF0001FFE097
:10052000003FFC0007FF8000FFF0001FFC0000FE02
:100530007FFF871FFFFC4FFFFFE4FFFFF8E7FFFC93
:100540007F00003FF0001FFE0003FFC0007FF800A7
:100550000FFF0001FFE0003FFC0007FF8000FFF0FD
:10056000001FFE0003FFC0007FF8000FFF0001FF27
:10057000E0003F780003C67FFF301FFFF007FFFF5A
:10058000007FFFC007FFF00003FFF800FFFF803F80
:10059000FFF803FFFEC33FFFBCF0000FFF0001FFA9
:1005A000E0003FFC0007FF8000FFF0001FFE00039B
:1005B000FFC0007FF8000FFF0001FFE0003FFC00DC
:1005C00007FF8000FFF0001FFC0000FE7FFF871F79
:1005D000FFFC4FFFFFE0FFFFF807FFFC6000003C5F
:1005E00000001F800003F000007E00000FC000012B
:1005F000F800003F000007E00000FC00001F800042
:1006000003F000007E00000FC00001F800003F0072
:100610000003C07FFF301FFFF007FFFF007FFFC018
:1006200007FFF00038FBFFFFEF8E00000000000026
:10063000000000000000071F7FFFFDF1C0DD08443F
:1006400006207E16000000000500010000030C06D5
:1006500001F5050006050A02F50900090D0900F477
:100660001800080E0901F426000E0C1202F53B00DA
:100670000D0C0F01F54F0002050501F55100040FA7
:100680000601F55900040F0601F56100070709028C
:10069000F5680009090C01F8730003060401FE76F1
:1006A0000004020601FC770003030401FE79000642
:1006B0000D0500F58300090C0900F59100060C09F1
:1006C00001F59A00090C0900F5A800080C0900F5CD
:1006D000B400080C0901F5C000080C0901F5CC00B4
:1006E000080C0901F5D800090C0900F5E600080C12
:1006F0000901F5F200090C0900F5000103090601E2
:10070000F80401030C0602F809010A0A0C01F716A5
:10071000010A050C01FA1D010A0A0C01F82A010759
:100720000C0901F535010D0C1102F549010D0C0DF7
:1007300000F55D010B0C0C00F56E010B0C0D01F5C5
:100740007F010B0C0D01F590010B0C0C01F5A101C3
:100750000A0C0B01F5B0010C0C0E01F5C2010C0CDA
:100760000E01F5D401050C0701F5DC01080E0900A6
:10077000F5EA010D0C0E01F5FE010B0C0C01F50F55
:1007800002100C1100F527020B0C0D01F538020CBC
:100790000C0E01F54A020A0C0B01F559020C0F0E62
:1007A00001F570020C0C0D01F58202080C0A01F52E
:1007B0008E020C0C0C00F5A0020B0C0D01F5B10221
:1007C0000D0D0D00F5C702120C1200F5E2020D0C22
:1007D0000D00F5F6020D0C0D00F50A030B0C0C01D3
:1007E000F51B03040F0601F52303060D0500F52D87
:1007F00003040F0601F5350308070A01F53C030958
:10080000010900033E0304030600F440030909093B
:1008100000F84B030A0C0A00F55A0307090800F810
:1008200062030A0C0A00F5710308090800F87A034C
:10083000070C0700F58503070D0901F891030A0C61
:100840000A00F5A003050C0500F5A8030610070033
:10085000F5B4030A0C0A00F5C303050C0500F5CB3B
:10086000030F090F00F8DC030A090A00F8E803097E
:10087000090900F8F3030A0D0A00F804040A0D0A36
:1008800000F8150408090800F81E0405090701F816
:100890002404060B0600F62D040A090A00F83904A0
:1008A00009090900F844040C090D00F8520409096B
:1008B0000900F85D04080D0900F86A040709080139
:1008C000F8720405100700F47C04010D0401F57EA4
:1008D0000405100702F4880408020901FCFFF492E1
:1008E0001FF0CF3CE388130984C247F990C84CFF3E
:1008F00013090C86401038D692D2F07C3E179393A1
:10090000D67C103C21CF0E2430A0C50334E726400E
:10091000B904C423308C841C0F00CC06603E00E771
:100920008F189C8CE4E3C79E3C72FDE0FF8032444C
:10093000CCCCCCC462108422333333326480316B2C
:10094000B18ED68C00080402010FF8402010080078
:10095000DF9500FFFF800C218610C308618430C042
:100960001C3398DC7E3F1F8FC7E3B198C38008E338
:100970008E38E38E38E3BF3C3F23C0E07030381838
:1009800018185FDFE07C8E0E0E0C1E07030302E6D4
:10099000F8060E0E3E2E4E8E8EFFFF0E0E3F7E4050
:1009A00040F8FC1E060202E4F8071C3070FCE6E783
:1009B000E7E767663C7F3FA0D040603010180C042A
:1009C0000603003CC6C6C6FC7C3ECFC7C7C67C3EFD
:1009D00033B8DC7E3F1DCE7F07070F1C00FF803F32
:1009E000E0FF8037E5400000707878783803803C7D
:1009F00003C030FFC0000000FFC0C03C03C01C01AA
:100A0000C1E1E1E0E000003D9F3E70E104080070BC
:100A1000E1C00F818318C4899C4CE4672239224FBE
:100A2000E3000C101F0002003001C00E00B805C02A
:100A30004F02383FE107183DE3F0FF871CE39C734A
:100A40009C7F0E71C738E71CE77FC01F261DC1B011
:100A50001E01C0380700E00E04E10FC0FF0E71C791
:100A600038770EE1DC3B8770CE39C67F80FFCE1928
:100A7000C1388730FE1CC388702E0DC37FE0FFDCB9
:100A80003705C4731FC731C4701C0703E01F230E52
:100A9000706E02E00E00E1FE0E60E70E38E0F8F93D
:100AA000F70E70E70E70E7FE70E70E70E70E70EF5E
:100AB0009FFB9CE739CE739DF01F0E0E0E0E0E0E9F
:100AC0000E0E0E0ECECC78F9F3821C20E207203FEA
:100AD00001DC0E7073C38F1C3DF3F0F80E01C038BB
:100AE0000700E01C0380702E09C37FE0F80F3C1E56
:100AF0003C1E2E2E2E2E264E274E274E238E238E24
:100B0000210E711FF0EE09E13E25E49E91D21E43B5
:100B1000C8390370201F830C70EE07E07E07E07E6B
:100B200007E0770E30C1F8FF1CE71DC771DCE7F165
:100B3000C0701C0703E00F839C70E606E07E07E0B0
:100B40007E07E0760630C1980F007803E0FF073893
:100B500071C71C71C7387E077077873C71EF8F397A
:100B600047C1C0F07C3E0F83C3C6BCFFFCE38E10C0
:100B7000E00E00E00E00E00E00E00E01F0F8EE09DD
:100B8000C1382704E09C1382704E08E20F80FC7B82
:100B9000C10E087081C40E207A01D00E803801C0C9
:100BA00004002000FDFBDC38438710E1C438F20765
:100BB0002E81D3A034700E1C03870060801020FEAD
:100BC000F3C30F103900F003801E017009C08F08B5
:100BD0003DF3F0FC7BC18E083881E807401C00E043
:100BE00007003801C01F00FFD8721E4380E01C07B9
:100BF00001C0382E0F837FE0FCCCCCCCCCCCCCF029
:100C0000C1061820C3041860830CF3333333333325
:100C100033F0181C34266243C1FF80C6307C63B1B8
:100C2000C0E1F33B9DCEFF80F01C0701DC7B9C778D
:100C30001DC771DC77393C3CED9F0E1C38393C07F1
:100C400080E038EE77B8EE3B8EE3B8E778EF3C66AD
:100C5000E6FEE0E0E0723C3EEDC7C70E1C3870E1F6
:100C6000C7C031DFBF7EE79060FCFE0C17C0F01CF0
:100C70000701DC7B9CE739CE739CE73BFF739DE764
:100C800039CE739DF01C71CF1C71C71C71C71C7DC0
:100C9000BEF01C0701CE711C8741F8771CE71BEFE3
:100CA000F39CE739CE739DF0F738F7B9CE739CE724
:100CB00039CE739CE739CEFFFEF71EE739CE739C21
:100CC000E739CEFFC03E31B8FC7E3F1F8EC63E00E6
:100CD000F71EE71DC771DC771DCE7F1C0701C0F82A
:100CE000003C9CEE3B8EE3B8EE39CE3F80E0380E00
:100CF00007C0F77B707070707070F87E73C78E39A4
:100D0000B010CF9C71C71C71D380F79CE739CE73AC
:100D10009CE739CE3FC0FBB88C8743C0E070100819
:100D200000F7B63173A33A3DA3DC18C1881080FBED
:100D3000B88E8381C0F098CEEF80F7627234343C75
:100D40001818101010E0E0FF1C70E3871C71FE19EA
:100D50008C6318CC618C6318C3FFF8C318C6318646
:100D60003318C63198F08E07106E0D207E0C0000EF
:100D70000000080000000001080802F70100040359
:100D80000801F6030006080800F70900050A080034
:100D9000F6100006080800F7160006080800F71C01
:100DA0000002030800F61D00030A0803F6210003F1
:100DB0000A0801F6250005060800F82900050708BD
:100DC00000F72E0002030800FE2F0005010800FABC
:100DD000300001010801FE3100050A0800F6380064
:100DE00005080800F73D0003080801F74000050862
:100DF0000800F7450005080800F74A000508080044
:100E0000F74F0005080800F7540005080800F759D7
:100E10000005080800F75E0005080800F7630005F4
:100E2000080800F7680001060802F96900010608D1
:100E300002FA6A0005090801F6700005040800F9C5
:100E4000730005090801F6790005080800F77E001F
:100E500005080800F7830006080800F78900050860
:100E60000800F78E0005080800F793000508080041
:100E7000F7980005080800F79D0005080800F7A28C
:100E80000006080800F7A80006080800F7AE0005ED
:100E9000080800F7B30006090800F7BA00060808BA
:100EA00000F7C00006080800F7C60005080800F7AC
:100EB000CB0006080800F7D10005080800F7D600A7
:100EC00005080800F7DB0005090800F7E10006083F
:100ED0000800F7E70005080800F7EC00050808001F
:100EE000F7F10006080800F7F70006080800F7FD0C
:100EF0000005080800F7020105080800F7070105CA
:100F0000080800F70C0105080800F71101030A089A
:100F100002F6150104090801F61A01030A0801F690
:100F20001E0103020801F61F01060108000020014E
:100F300001010802F6210105050801FA250105084D
:100F40000800F72A0104050801FA2D010508080127
:100F5000F7320104050801FA350105080801F73ADE
:100F60000105070801FA3F0106080800F7450103DB
:100F7000080801F74801040A0800F74D01060808AF
:100F800000F7530105080800F7580105050800FAA5
:100F90005C0106050800FA600104050801FA630116
:100FA00005070800FA680105070801FA6D01050543
:100FB0000800FA710104050801FA74010407080128
:100FC000F8780106050800FA7C0106050800FA8099
:100FD0000105050800FA840105050800FA880106E4
:100FE000070800FA8E0104050801FA9101030A08B6
:100FF00002F69501010C0803F59701030A0801F6B2
:101000009B0106030800F5FD5AA028AFCA53F5144A
:1010100023EB4618B5F1004AAB1428D55221451EE2
:10102000AAA91B582A49244488924950255CEA9071
:101030002109F2108058F8800884221108440074B5
:101040006318C62E592497746222221F7442608648
:101050002E1194A93C43FC21E0862E74A1E8C62EF3
:10106000FC844210847462E8C62E746317852E8453
:101070008C088888208208F801F0820820888880FF
:10108000746222100474675ADE0F20831451E4B393
:10109000F252E4A53E7C6108422EF25294A53EFA3B
:1010A00054E5213FFA54E5211C3928209E248CCD9B
:1010B000249E4924B3F90842109F7C410410412426
:1010C000E0ED25185144BBE1041041047FDEF7BA7E
:1010D000D6B5DD269A5964BA746318C62EF252E466
:1010E000211C746318F66E18F1249C5124BB7C609B
:1010F000C1063EFD4842108ECD249249248CCD2459
:101100009450C208AD6AE5294ADA9442295BDA9420
:1011100042108EFC8442213FF249249C8884422262
:1011200010E492493C54FC80649D2780C210E4A5E1
:101130002E7988703084E94A4F69F8703A11E421B9
:101140001E7C990F45C0C1041C4924BB4064971004
:101150000311111EC1041751C4BBE10842109FF5D1
:101160006B5A80F12492EC699960F2529723807453
:10117000A52708E0DB108E00F861F044E44430D984
:1011800024923CED250C20AD5CA500DA88AD80ED05
:10119000250C208C00F244F06928924CFFF0C92203
:1011A00092584291804514AC11207E070000000047
:1011B000060001000001050200FC0100030104001B
:1011C000FC020005050600FC060005050600FC0AF9
:1011D0000005050600FC0E0005050600FC120001D6
:1011E000010200FC130002050300FC1500020503C8
:1011F00000FC170003030400FD190003030400FDB5
:101200001B0001020200001C0004010500FE1D007D
:1012100001010200001E0005050600FC2200050574
:101220000600FC260001050200FC2700050506005B
:10123000FC2B0005050600FC2F0005050600FC330D
:101240000005050600FC370005050600FC3B00050F
:10125000050600FC3F0005050600FC4300050506E9
:1012600000FC470001040200FD480001040200FDEB
:10127000490003050400FC4B0004030500FD4D007C
:1012800003050400FC4F0005050600FC530005059E
:101290000600FC570005050600FC5B00050506007E
:1012A000FC5F0005050600FC630005050600FC6701
:1012B0000005050600FC6B0005050600FC6F000537
:1012C000050600FC730005050600FC770005050611
:1012D00000FC7B0005050600FC7F0005050600FC00
:1012E000830005050600FC870005050600FC8B0051
:1012F00005050600FC8F0005050600FC93000505AA
:101300000600FC970005050600FC9B00050506008D
:10131000FC9F0005050600FCA30005050600FCA7D0
:101320000005050600FCAB0005050600FCAF000546
:10133000050600FCB30005050600FCB70005050620
:1013400000FCBB0005050600FCBF0002050300FC15
:10135000C10005050600FCC50002050300FCC7002E
:1013600003020400FCC8000501060001C9000101D8
:101370000200FCCA0004040500FDCC0004050500C1
:10138000FCCF0004040500FDD10004050500FCD4D9
:101390000004040500FDD60003050400FCD8000489
:1013A000050500FDDB0004050500FCDE000104026C
:1013B00000FDDF0002050300FDE10004050500FC5F
:1013C000E40001050200FCE50005040600FDE8005C
:1013D00004040500FDEA0004040500FDEC0004051A
:1013E0000500FDEF0004050500FDF2000404050002
:1013F000FDF40004040500FDF60005050600FCFAF6
:101400000004040500FDFC0004040500FDFE0005C9
:10141000040600FD010104040500FD0301040505A7
:1014200000FD060104040500FD080103050400FC9D
:101430000A0101050200FC0B0103050400FC0D017B
:1014400005030600FDE8A057D5F500FD3E5F808846
:10145000888880F4BF2E80806A409580AA805D00D5
:10146000C0F08008888800FC631F80F8F87F0F8038
:10147000F87E1F808C7E1080FC3E1F80FC3F1F800A
:10148000F8421080FC7F1F80FC7E1F8090B02A22D3
:10149000F0F088A8F84E0200FD6F0F80FC7F1880E6
:1014A000F47D1F00FC210F80F4631F00FC3F0F80C0
:1014B000FC3F0800FC2F1F808C7F1880F9084F80AC
:1014C00078852F808DB1688084210F80FD6B5A80D4
:1014D000FC631880FC631F80FC7F0800FC633F8076
:1014E000FC7F2900FC3E1F80F90842008C631F80AE
:1014F0008C62A200AD6B5F808A88A8808C54420009
:10150000F87F0F80EAC082082080D5C054F880F1AF
:10151000FF8F99F0F88F1F99F0FF8F6BA4F99F1040
:101520008F9990F055C08AF990F8FD6310F999F9F8
:101530009FF99F80F99F20F888471F27C84200998C
:101540009F99978C6BF09669999F102E8F2B22F89C
:1015500089A80FE0F4175B15207E06000008010241
:1015600000FB010008050200FB060008020400FB66
:10157000080008050400FB0D0008050400FB12002C
:1015800008050400FB170008050400FB1C00080206
:101590000200FB1E0008050300FB230008050300F2
:1015A000FB280008030400FB2B0008030400FC2EAA
:1015B0000008020300FE300008010400FD310008AD
:1015C000010200FF320008050400FB370008050493
:1015D00000FB3C0008050300FB410008050400FB7C
:1015E000460008050400FB4B0008050400FB500002
:1015F00008050400FB550008050400FB5A00080517
:101600000400FB5F0008050400FB640008050400FB
:10161000FB690008030200FC6C0008040300FC7076
:101620000008050400FB750008030400FC780008AE
:10163000050400FB7D0008050400FB82000805048A
:1016400000FB870008050400FB8C0008050400FB74
:10165000910008050400FB960008050400FB9B00B0
:1016600008050400FBA00008050400FBA500080510
:101670000400FBAA0008050400FBAF0008050400F5
:10168000FBB40008050400FBB90008050400FBBE1C
:101690000008050400FBC30008050400FBC800089F
:1016A000050400FBCD0008050400FBD2000805047A
:1016B00000FBD70008050400FBDC0008050400FB64
:1016C000E10008050400FBE60008050400FBEB0050
:1016D00008050400FBF00008050400FBF500080500
:1016E0000400FBFA0008050400FBFF0008050400E5
:1016F000FB040108050400FB090108050400FB0EBA
:101700000108030400FC110108050400FB16010890
:10171000020400FB180108010400FF19010802037C
:1017200000FB1B0108040400FC1F0108050400FB6A
:10173000240108040400FC280108050400FB2D0115
:1017400008040400FC310108050400FB360108050B
:101750000400FC3B0108050400FB400108050200F1
:10176000FB450108060400FB4B0108050400FB5083
:101770000108050400FB550108040400FC59010898
:10178000040400FC5D0108040400FC610108050478
:1017900000FC660108050400FC6B0108040400FC61
:1017A0006F0108040400FC730108050400FB7801C4
:1017B00008040400FC7C0108040400FC8001080407
:1017C0000400FC840108040400FC880108050400EE
:1017D000FC8D0108040400FC910108050400FB963F
:1017E0000108050200FB9B0108050400FBA001089D
:1017F000020400FB008080800080A0A0A0E0A0E0A8
:10180000A060C060C0408020408020C0C0E0A060D8
:10181000808040808080408040404080A040A04048
:10182000E0404080E080202040808060A0A0A0C0F8
:1018300040C0404040C0204080E0C0204020C0A0C8
:10184000A0E02020E080C020C06080E0A0E0E02098
:10185000408080E0A0E0A0E0E0A0E020C080008028
:10186000400040802040804020E000E08040204058
:1018700080E02040004040A0E0806040A0E0A0A0C8
:10188000C0A0C0A0C06080808060C0A0A0A0C0E058
:1018900080E080E0E080E080806080E0A060A0A048
:1018A000E0A0A0E0404040E0202020A040A0A0C058
:1018B000A0A080808080E0A0E0E0A0A0A0E0E0E028
:1018C000A040A0A0A040C0A0C0808040A0A0E06038
:1018D000C0A0E0C0A060804020C0E040404040A0E8
:1018E000A0A0A060A0A0A04040A0A0E0E0A0A0A078
:1018F00040A0A0A0A0404040E0204080E0E08080E8
:1019000080E0804020E0202020E040A0E08040C037
:1019100060A0E080C0A0A0C0608080602060A0A027
:101920006060A0C0602040E0404060A0E0204080B7
:10193000C0A0A0A0800080808020002020A0408047
:10194000A0C0C0A0C0404040E0E0E0E0A0C0A0A037
:10195000A040A0A040C0A0A0C08060A0A060206067
:1019600080808060C060C040E0404060A0A0A06077
:10197000A0A0E040A0E0E0E0A04040A0A0A0602047
:1019800040E060C0E060408040608080008080C0B7
:10199000402040C060C011241FBECFEFD8E0DEBFA2
:1019A000CDBF11E0A0E0B1E0E0E2F5E302C00590B8
:1019B0000D92A236B107D9F721E0A2E6B1E001C04D
:1019C0001D92A636B207E1F70E94DF180C948E1A1A
:1019D0000C9400008F929F92AF92BF92CF92DF92B1
:1019E000EF92FF920F931F93CF93DF936C01EB0164
:1019F000F9019A01DF010E94661A4B015C01C601E0
:101A00000197480F591FCE010197E80FF91F2C9835
:101A10002B988AE28EBD0DB407FEFDCF2C9A2C9830
:101A20002B9ADEBC0DB407FEFDCFCEBC0DB407FE75
:101A3000FDCF2C9A2C982B9A5EBD0DB407FEFDCFDE
:101A40004EBD0DB407FEFDCF2C9A2C982B988BE23F
:101A50008EBD0DB407FEFDCF2C9A2C982B9ADEBDBF
:101A60000DB407FEFDCFCEBD0DB407FEFDCF2C9A01
:101A70002C982B9AFEBD0DB407FEFDCFEEBD0DB424
:101A800007FEFDCF2C9A2C982B988CE28EBD0DB4BE
:101A900007FEFDCF2C9A81149104A104B10471F1C9
:101AA000069506950695802F90E0982F8827990F28
:101AB000990F990FF694F69440E2F49E9001112448
:101AC000822B932BE694E694E6948E29392F282FC7
:101AD00080E090E0DC012C982B9A3EBD0DB407FE0F
:101AE000FDCF2EBD0DB407FEFDCF2C9A0196A11D92
:101AF000B11D88169906AA06BB0669F7DF91CF913A
:101B00001F910F91FF90EF90DF90CF90BF90AF901B
:101B10009F908F9008952F923F924F925F926F9275
:101B20007F928F929F92AF92BF92CF92DF92EF926D
:101B3000FF920F931F93CF93DF93CDB7DEB72E970E
:101B40000FB6F894DEBF0FBECDBF9E878D874B01C9
:101B50002A013C872B87CB82DC82ED82FE82CA0180
:101B60002D853E85821B930B6C0122F4CC24DD2451
:101B7000C81AD90A2B853C8528193909C901992326
:101B800024F488279927821B930B98878F834D8590
:101B90005E854415550528F08FEF9FEF9A8789875A
:101BA00004C021E030E03A8729874B855C858416A4
:101BB000950620F022242A94322C03C02224239458
:101BC000312C56018F819885A81AB90A202F30E050
:101BD0003A8329833C01719461947108EB80FC8005
:101BE0000D811E8129813A81A901B4018D859E85CF
:101BF000F1DE8D859E858415950529F42B853C8520
:101C000082169306D1F0C501880F991F68167906D0
:101C100064F44F815885A41AB50A2D853E854985FF
:101C20005A85240F351F3E872D878C159D05B4F6E8
:101C3000AC0CBD1C820C931CD1CF2E960FB6F89421
:101C4000DEBF0FBECDBFDF91CF911F910F91FF90EF
:101C5000EF90DF90CF90BF90AF909F908F907F904C
:101C60006F905F904F903F902F9008952F923F92EA
:101C70004F925F926F927F928F929F92AF92BF929C
:101C8000CF92DF92EF92FF920F931F93CF93DF9348
:101C90005C01EB0149011C01240E351E9B01A101D1
:101CA0003ADF8C0E9D1E9401A101B401C50133DF02
:101CB0009401A501BE01C5012EDF9401A101BE0161
:101CC000C10129DFDF91CF911F910F91FF90EF901C
:101CD000DF90CF90BF90AF909F908F907F906F904C
:101CE0005F904F903F902F9008952F923F924F9288
:101CF0005F926F927F928F929F92AF92BF92CF929C
:101D0000DF92EF92FF920F931F93CF93DF9300D058
:101D100000D000D0CDB7DEB79A8389831B013A018A
:101D200029011C830B83FE82ED821C2D7501640149
:101D3000012FF1DE2D813E814B815C81B201C30117
:101D4000EADE910149815A816D817E818B819C817E
:101D5000E2DE26960FB6F894DEBF0FBECDBFDF9150
:101D6000CF911F910F91FF90EF90DF90CF90BF9098
:101D7000AF909F908F907F906F905F904F903F902B
:101D80002F9008952F923F924F925F926F927F9281
:101D90008F929F92AF92BF92CF92DF92EF92FF927B
:101DA0000F931F93CF93DF93CDB7DEB7A5970FB6F1
:101DB000F894DEBF0FBECDBF3C014B012A013A8330
:101DC0002983EBA2AB86BC86CD86DE86449FC0010C
:101DD000459F900D900D11249C01990F440B550BBC
:101DE000298B3A8B4B8B5C8B49815A81449FC00174
:101DF000459F900D900D11249C01990F440B550B9C
:101E00002D8B3E8B4F8B588F49895A896B897C89E2
:101E1000440F551F661F771F440F551F661F771FFE
:101E20004B8F5C8F6D8F7E8F6D897E898F89988DAA
:101E3000660F771F881F991F660F771F881F991FCE
:101E40006F8F78A389A39AA3002309F466C18981BF
:101E50009A81880F991FA1E0B0E0A81BB90B2989CE
:101E60003A894B895C890E94751ACD88DE88EF8893
:101E7000F88CCC0CDD1CEE1CFF1C9B01AC012C0D66
:101E80003D1D4E1D5F1D2F83388749875A87A981C5
:101E9000BA8129893A894B895C890E94751A9923EC
:101EA0000CF48DC00F2EF6E0AF2EB12CF02D212CAE
:101EB000312CC3013BA1831B9109AC014F5F5F4FE4
:101EC0005A8F498FB88BAF87132FCB84DC84ED8476
:101ED000FE84012FB4018F859889681B790B9B01C3
:101EE000A98DBA8DA20DB31DBA83A983AD01C3011B
:101EF000821993099E838D830EDECB84DC84ED846E
:101F0000FE846F857889680D791D9B0149815A810E
:101F10008D819E8100DE2F81388549855A85552324
:101F2000F4F0A1E0B0E04F855889A41BB50B2B8DD0
:101F30003C8D4D8D5E8D0E94751A2F8138854985A7
:101F40005A85260F371F481F591F2F833887498707
:101F50005A874F85588941505109588B4F87D50171
:101F60002D893E894F89588D0E94751A2F81388599
:101F700049855A85260F371F481F591F2F833887D9
:101F800049875A873FEF231A330A44E0A40EB11C55
:101F9000D1012D893E894F89588D0E94751A6B0198
:101FA0007C01AF85B88929893A894B895C890E946F
:101FB000751A6C157D058E059F050CF086CFC20144
:101FC000880F991FA1E0B0E0A81BB90B2D893E89AD
:101FD0004F89588D0E94751AC988DA88EB88FC8869
:101FE000CC0CDD1CEE1CFF1C9B01AC012C0D3D1D1F
:101FF0004E1D5F1D29833A834B835C83D2012D895B
:102000003E894F89588D0E94751A99230CF4F5C1A9
:102010000F2EF6E0AF2EB12CF02D212C312C5BA130
:10202000452F50E0588B4F871BA1C301840D951D90
:102030000196BC01AF85B8896A1B7B0B78876F83DB
:10204000CB84DC84ED84FE84012FB4016219730912
:102050009B014F815885C301841995099E838D8307
:102060005ADDCB84DC84ED84FE84B401620D731DE3
:102070009B014F8158858D819E814DDD29813A815B
:102080004B815C815523CCF0A1E0B0E0A419B509E7
:102090002F8D38A149A15AA10E94751A29813A8130
:1020A0004B815C81260F371F481F591F29833A83B4
:1020B0004B835C8331E0431A5108D50129893A8961
:1020C0004B895C890E94751A29813A814B815C8118
:1020D000260F371F481F591F29833A834B835C8380
:1020E0003FEF231A330A44E0A40EB11CD101298921
:1020F0003A894B895C890E94751A6B017C01D20177
:102100002D893E894F89588D0E94751A6C157D0561
:102110008E059F050CF089CF70C189819A81880F47
:10212000991FA1E0B0E0A81BB90B29893A894B8916
:102130005C890E94751ACD88DE88EF88F88CCC0CFB
:10214000DD1CEE1CFF1C56016701A60EB71EC81E43
:10215000D91EA981BA810E94751A99230CF491C0E5
:1021600066E070E07A8F698F212C312C9BA1892F3A
:1021700090E09E838D83BDA3ACA3EB84FC840D858E
:102180001E852D813E81A901ACA1BDA1A80DB91D5F
:10219000BA83A983BD01C101860D971D98878F83DE
:1021A00019DCEB84FC840D851E852D813E81A901FF
:1021B00069817A81D301A219B309B88BAF87CD01A8
:1021C00009DCEB84FC840D851E852D813E81A901EF
:1021D000B4018CA19DA1681B790B7A8369838F81DF
:1021E0009885F8DBEB84FC840D851E852D813E816E
:1021F000A90169817A818F859889ECDBDD20B4F0B3
:10220000A1E0B0E02CA13DA1A21BB30B2B8D3C8D16
:102210004D8D5E8D0E94751AA60EB71EC81ED91E62
:102220004CA15DA1415051095DA34CA3A98DBA8D6C
:102230002D893E894F89588D0E94751AA60EB71EAA
:10224000C81ED91E5FEF251A350ABD016C5F7F4F8E
:102250007A8F698FD1012D893E894F89588D0E94CF
:10226000751A7B018C01ACA1BDA129893A894B89E2
:102270005C890E94751A6E157F05800791070CF026
:102280007CCFC201880F991FA1E0B0E0A81BB90B59
:102290002D893E894F89588D0E94751AC988DA8820
:1022A000EB88FC88CC0CDD1CEE1CFF1C9B01AC01F8
:1022B0002C0D3D1D4E1D5F1D2F83388749875A8782
:1022C000D2012D893E894F89588D0E94751A992314
:1022D0000CF493C00F2EF6E0AF2EB12CF02D212C74
:1022E000312C5BA1452F50E0588B4F87EB84FC8449
:1022F0000D851E852F853889A9016101C80CD91C5F
:10230000B601C301840D951D9E838D8363DBEB8431
:10231000FC840D851E852F853889A901B601D3015E
:10232000A419B509BA83A983CD0154DBEB84FC84DD
:102330000D851E852F853889A9016401C218D3082F
:10234000B6018D819E8146DBEB84FC840D851E8564
:102350002F853889A901B60189819A813BDB2F81BC
:10236000388549855A855523CCF0A1E0B0E0A41901
:10237000B5092F8D38A149A15AA10E94751A2F8144
:10238000388549855A85260F371F481F591F2F83C7
:10239000388749875A8731E0431A5108D50129897E
:1023A0003A894B895C890E94751A2F813885498545
:1023B0005A85260F371F481F591F2F833887498793
:1023C0005A873FEF231A330A44E0A40EB11CD1010F
:1023D00029893A894B895C890E94751A6B017C01B5
:1023E000D2012D893E894F89588D0E94751A6C152E
:1023F0007D058E059F050CF079CFA5960FB6F89454
:10240000DEBF0FBECDBFDF91CF911F910F91FF9027
:10241000EF90DF90CF90BF90AF909F908F907F9084
:102420006F905F904F903F902F9008952F923F9222
:102430004F925F926F927F928F929F92AF92BF92D4
:10244000CF92DF92EF92FF920F931F93CF93DF9380
:10245000CDB7DEB765970FB6F894DEBF0FBECDBF20
:102460005C012B012B8BCF82D886E986FA86242E3D
:10247000312C81E090E03C016218730821E030E0EB
:10248000388B2F879E878D87C12CD12C802E912C45
:10249000BD8AAC8ADA8AC98A9B89913021F5C1014B
:1024A000880F991F9C012F5F3F4F3C832B83EF8048
:1024B000F88409851A854F855889B2016219730914
:1024C0008C899D8987DAEF80F88409851A852F85A4
:1024D00038894B815C81B2016C197D09C501821973
:1024E000930978DA71C0EF80F88409851A85940120
:1024F000A401C201820D931D9C838B83BC01C50185
:102500008C0D9D1D9C878B8765DAEF80F88409858B
:102510001A859401A401C2018C0D9D1D9E838D839B
:10252000BC01C501820D931D9A83898353DAEF8024
:10253000F88409851A859401A4016B817C818C89BA
:102540009D8948DAEF80F88409851A859401A401F1
:102550006D817E81C501821993099C838B833ADA50
:10256000EF80F88409851A859401A401C2018C19B1
:102570009D099E838D83BC0189819A812BDAEF802E
:10258000F88409851A859401A401C201821993096E
:102590009A838983BC018B859C851CDAEF80F88443
:1025A00009851A859401A40169817A818C899D89A4
:1025B00011DAEF80F88409851A859401A4016D81F0
:1025C0007E818B819C8106DA77205CF493E0690E32
:1025D000711CC601880F991F680E791E8D859E8516
:1025E00010C025E0620E711C89899A8982199309AD
:1025F000880F991F680E791E8D859E8531E0231AFC
:1026000031082FEFC21AD20A2D853E852F5F3F4F2A
:102610003E872D872C893D89215031093D8B2C8B9C
:102620002F8538892E5F3F4F388B2F872816390624
:102630000CF030CF65960FB6F894DEBF0FBECDBF5D
:10264000DF91CF911F910F91FF90EF90DF90CF908E
:10265000BF90AF909F908F907F906F905F904F90C2
:102660003F902F9008952F923F924F925F926F92DA
:102670007F928F929F92AF92BF92CF92DF92EF9212
:10268000FF920F931F93CF93DF93CDB7DEB72E97B3
:102690000FB6F894DEBF0FBECDBF2C014B015A011F
:1026A000CB82DC82ED82FE8281E090E06C01C41A74
:1026B000D50A88279927841B950B3C01660C771C4B
:1026C000141615060CF0BCC022242394312C922F32
:1026D00094709987E02FF0E0FA83E983F22FF2708B
:1026E000FA87822F88708B8721702C87E1E0F0E0D9
:1026F000FE87ED87DD2044F0F1E0AF1AB10882E0FB
:10270000680E711CC60CD71CED85FE85F887EF831B
:10271000F2E02F0E311CC20CD31C89858823F1F006
:10272000EB80FC800D811E8129813A81A901B501D0
:10273000680D791D8D859E85840D951D4BD9EB8087
:10274000FC800D811E8129813A81A9016D857E85DC
:10275000680D791DC501840D951D3CD99A85992375
:10276000F9F0EB80FC800D811E8129813A81A9015D
:10277000B4016A197B098D859E85840D951D2AD922
:10278000EB80FC800D811E8129813A81A901B40171
:10279000ED85FE856E1B7F0BC501840D951D1AD935
:1027A000FB85FF23F9F0EB80FC800D811E812981E0
:1027B0003A81A9016D857E85680D791DC2018A194E
:1027C0009B0908D9EB80FC800D811E8129813A810B
:1027D000A901B501680D791DC201ED85FE858E1B2D
:1027E0009F0BF8D8FC85FF2301F1EB80FC800D8165
:1027F0001E8129813A81A901B4018D859E85681BBE
:10280000790BC2018A199B09E5D8EB80FC800D8108
:102810001E8129813A81A901B4016A197B09C2018B
:10282000ED85FE858E1B9F0BD5D88D859E850196E7
:102830009E878D87EF81F885EA15FB050CF45ACF4A
:102840002E960FB6F894DEBF0FBECDBFDF91CF91AD
:102850001F910F91FF90EF90DF90CF90BF90AF90BE
:102860009F908F907F906F905F904F903F902F90B0
:1028700008952F923F924F925F926F927F928F9224
:102880009F92AF92BF92CF92DF92EF92FF920F93FF
:102890001F93CF93DF93CDB7DEB72C970FB6F89485
:1028A000DEBF0FBECDBF98878F837A8769871901F6
:1028B00048011E2DA982BA82CB82DC823C01640EC3
:1028C000751E4E2C512CC20188199909860D971D31
:1028D0009C878B878F819885880D991D9E838D831A
:1028E00076016501012F9B014B855C8514D9A98474
:1028F000BA84A20CB31C150191E0291A3108C980D1
:10290000DA80EB80FC8091014B855C85B1018D8183
:102910009E8101D9A418B508A818B90889859A8597
:10292000880D991D9A878987C980DA80EB80FC80A1
:1029300095014F815885BC01CA01EDD8C3010197AB
:10294000C980DA80EB80FC809501AC0169857A85CD
:10295000E2D8C980DA80EB80FC8021E0A40169859F
:102960007A858D819E817FDE5401A094B094A60C5F
:10297000B71CC980DA80EB80FC8022E0A401698565
:102980007A85C50170DEC1018819990998878F83FE
:10299000C980DA80EB80FC8024E0A401BC01C50181
:1029A00062DEC980DA80EB80FC8028E0A4016F81C0
:1029B00078858D819E8157DE2C960FB6F894DEBF08
:1029C0000FBECDBFDF91CF911F910F91FF90EF9080
:1029D000DF90CF90BF90AF909F908F907F906F903F
:1029E0005F904F903F902F9008952F923F924F927B
:1029F0005F926F927F928F929F92AF92BF92CF928F
:102A0000DF92EF92FF920F931F93CF93DF93CDB797
:102A1000DEB72F970FB6F894DEBF0FBECDBF4C01C7
:102A20003B015A011D870C87CF82D886E986FA863A
:102A300081E090E01C01241A350A88279927841B1D
:102A4000950BAC01440F551F5C834B831A141B0478
:102A50000CF084C0CB0101979A838983C801019649
:102A60002C01460E571E41E050E0122F11702270CB
:102A70002B875F874E87332054F051E0A51AB108A9
:102A80008B819C8102969C838B83280E391E4E85F8
:102A90005F855E834D83CA01880F991F0196280EBA
:102AA000391E112301F193012A0D3B1D8C859D8553
:102AB000280F391FCF80D884E984FA8401E0CA0145
:102AC000880D991DAC01B3016A197B0924D8CF8008
:102AD000D884E984FA849201C501880D991DAC015E
:102AE00069817A8118D89B85992321F193012A0D58
:102AF0003B1D4C855D85240F351FCF80D884E9842C
:102B0000FA8401E0C4014E855F85841B950BAC01FE
:102B1000B3016A197B090E948B0DCF80D884E984A8
:102B2000FA849201C4018A199B09AC0169817A81F6
:102B30000E948B0D8E859F8501969F878E87498188
:102B40005A81415051095A8349835FEF451A550A0A
:102B50008D819E818A159B050CF48DCF2F960FB623
:102B6000F894DEBF0FBECDBFDF91CF911F910F91C3
:102B7000FF90EF90DF90CF90BF90AF909F908F909D
:102B80007F906F905F904F903F902F9008952F927D
:102B90003F924F925F926F927F928F929F92AF92ED
:102BA000BF92CF92DF92EF92FF920F931F93CF933A
:102BB000DF9300D000D000D0CDB7DEB75C012B0191
:102BC0001A0149011E830D83C982DA82EB82FC82DD
:102BD0006801CC0CDD1C3801680E791E4C195D09AA
:102BE000E980FA800B811C81C3010E94EA0C81E01C
:102BF000881A91088C189D08ED81FE814E0E5F1E8B
:102C0000C5010197820D931DC980DA80EB80FC809D
:102C1000840121E0AF01B2018E1B9F0BE6DEC9806B
:102C2000DA80EB80FC8022E04D815E81B201C3013D
:102C3000DCDE26960FB6F894DEBF0FBECDBFDF9167
:102C4000CF911F910F91FF90EF90DF90CF90BF90A9
:102C5000AF909F908F907F906F905F904F903F903C
:102C60002F9008952F923F924F925F926F927F9292
:102C70008F929F92AF92BF92CF92DF92EF92FF928C
:102C80000F931F93CF93DF93CDB7DEB7A1970FB606
:102C9000F894DEBF0FBECDBFA82EB92E5D8B4C8B36
:102CA000C88ED98EEA8EFB8E8E8F9F8F6A8B7B8B20
:102CB00047E050E0B901CE01019627D42C893D8927
:102CC0003F8B2E8BA88AB98A612C712C202E312C37
:102CD0000C8F3D8EF1C0EE89FF898191FF8BEE8BC9
:102CE0008A3089F42F81229DC001239D900D1124EB
:102CF0002A893B89280F391F3B8B2A8B3E8D388BC5
:102D00006F8D698BD6C02D81821708F4D2C09E8149
:102D1000981708F4CEC08D3009F4CBC090E0821B28
:102D20009109BC01660F771F660F771F660F771F2B
:102D3000FB01E81BF90B6B817C816E0F7F1F47E065
:102D400050E0CE010896E1D389809A80C884D98466
:102D50008B85811199C0A1C0A12C80E090E0FF85F6
:102D60004F2E512CB1100BC096012F5F3F4FF40135
:102D7000EC0DFD1D749069016894BB24B7F8272DF4
:102D80002B2111F0019639C00097B9F1289EA001BE
:102D9000299E500D389E500D11242E85B201620FD0
:102DA000711D27FD7A959B01229DB001239D700D19
:102DB000329D700D1124EA89FB896E0F7F1FED850E
:102DC0002A2D30E02E0F311DE7FD3A95281B390BD7
:102DD000229DC001239D900D329D900D1124E88C01
:102DE000F98C0A8D1B8D2C8D3D8DE889F9898E0F0C
:102DF0009F1F0E94EA0C80E090E0B694A3942A857D
:102E0000A21608F4AFCF0097B1F1289EA001299E29
:102E1000500D389E500D11246E85FF852F2F30E008
:102E2000260F311D67FD3A95229DB001239D700D3F
:102E3000329D700D11242A893B89620F731FED8525
:102E40002A2D30E02E0F311DE7FD3A95281B390B56
:102E5000229DC001239D900D329D900D1124E88C80
:102E6000F98C0A8D1B8D2C8D3D8DE889F9898E0F8B
:102E70009F1F0E94EA0CFF85FF5FFF878B85F81775
:102E800040F068A079A009C01F86B12C79A268A281
:102E90007B2C8A85811160CFEECF2C85229DC001CD
:102EA000239D900D112428893989280F391F398BCA
:102EB000288B3FEF631A730AEC89FD89019000208B
:102EC000E9F731976C897D89E61BF70B6E167F0653
:102ED00008F401CFA1960FB6F894DEBF0FBECDBFA8
:102EE000DF91CF911F910F91FF90EF90DF90CF90E6
:102EF000BF90AF909F908F907F906F905F904F901A
:102F00003F902F90089585B1886B85B984B1886B07
:102F100084B98CB580658CBD8DB581608DBD0895FB
:102F2000289A209A2C98289A2FEB87E299E0215032
:102F300080409040E1F700C0000028982FEB87E226
:102F400099E0215080409040E1F700C00000289AAD
:102F500008952C982B9896E39EBD0DB407FEFDCFE7
:102F60002C9A8130E1F030F0823071F1833009F435
:102F700040C008952C982B9A88E48EBD0DB407FEAE
:102F8000FDCF2C9A80EF90E09093650180936401CF
:102F900080E491E0909363018093620108952C98FE
:102FA0002B9A88E28EBD0DB407FEFDCF2C9A80E4EB
:102FB00091E0909365018093640180EF90E090939D
:102FC00063018093620108952C982B9A88E88EBD46
:102FD0000DB407FEFDCF2C9A80EF90E09093650131
:102FE0008093640180E491E0909363018093620197
:102FF00008952C982B9A88EE8EBD0DB407FEFDCF58
:103000002C9A80E491E0909365018093640180EFB5
:1030100090E090936301809362010895EF92FF9294
:103020000F931F9370DF7CDF2C982B9881E08EBD6F
:103030000DB407FEFDCF2C9A2C982B9880EC8EBDFA
:103040000DB407FEFDCF2C9A2C982B9A85E28EBDED
:103050000DB407FEFDCF2C9A2C982B9881EC8EBDD9
:103060000DB407FEFDCF2C9A2C982B9A81E08EBDD3
:103070000DB407FEFDCF2C9A2C982B9885EC8EBDB5
:103080000DB407FEFDCF2C9A2C982B9A8BE28EBDA7
:103090000DB407FEFDCF2C9A2C982B9A8BE28EBD97
:1030A0000DB407FEFDCF2C9A2C982B9887EC8EBD83
:1030B0000DB407FEFDCF2C9A2C982B9A86E08EBD7E
:1030C0000DB407FEFDCF2C9A2C982B988AE38EBD69
:1030D0000DB407FEFDCF2C9A2C982B9A85E08EBD5F
:1030E0000DB407FEFDCF2C9A2C982B9881EB8EBD4A
:1030F0000DB407FEFDCF2C9A2C982B9A1EBC0DB454
:1031000007FEFDCF2C9A2C982B9A88E18EBD0DB42A
:1031100007FEFDCF2C9A2C982B9886EB8EBD0DB414
:1031200007FEFDCF2C9A2C982B9A8AE08EBD0DB409
:1031300007FEFDCF2C9A2C982B9A82E88EBD0DB4F9
:1031400007FEFDCF2C9A2C982B9A87E28EBD0DB4EA
:1031500007FEFDCF2C9A2C982B988AE38EBD0DB4D8
:1031600007FEFDCF2C9A2C982B9A85E58EBD0DB4C9
:1031700007FEFDCF2C9A2C982B9881E18EBD0DB4C3
:1031800007FEFDCF2C9A2C982B9889E28EBD0DB4AA
:1031900007FEFDCF2C9A83E0DCDEE12CF12C8701C9
:1031A00020EF30E040E451E061E070E081E090E049
:1031B0000E94EA0C1F910F91FF90EF9008952EDF6F
:1031C000E12CF12C8701EA9420EF30E040E451E05B
:1031D00060E070E080E090E00E94EA0CE12CF12CCD
:1031E00087012EEE30E04EE351E061E070E081E0D7
:1031F00090E00E94EA0C2FEF88E09DE32150804090
:103200009040E1F700C00000C8E0D0E0C12CD12C14
:103210007601DA9401E020E830E0AE0160E070E091
:1032200080E090E00E948B0D2896C838D10571F798
:10323000C8E0D0E0C12CD12C7601DA9401E09E01E7
:1032400040E850E060E070E080E090E00E948B0D8C
:103250002896C838D10571F7EFE3F2E42FE0E1508A
:10326000F0402040E1F700C00000C0E1D0E00F2EA8
:10327000F4E1AF2EB12CF02D6894662466F8712C21
:103280000F2EF0E58F2E912CF02D8C2F8695B3010B
:10329000681B71098A2D8695C12CDD24DA94ED2CEA
:1032A000F12C02E09E01A501F401E81BF109CF0118
:1032B0000E94360EF4E1AF0EB11C6096C039D10504
:1032C00021F72FE382E49FE0215080409040E1F716
:1032D00000C00000E12CF12C8701EA9420E830E0E6
:1032E00040EA50E060E070E080E090E00E94EA0C8C
:1032F000E12CF12C87012EE730E04EE950E061E04F
:1033000070E081E090E00E94EA0CC12CDD24DA94A8
:10331000ED2CF12C01E024E535E140E051E068E2DC
:1033200070E085E090E09EDCCC24CA94D12C76013C
:1033300024E130E049E850E064E170E087E190E0AA
:103340000E948B0DC12CD12C7601CA9425E130E06E
:1033500049E850E065E170E087E190E00E948B0D64
:1033600025E130E049E850E065E170E087E190E078
:103370000E948B0DCC24CA94D12C760125EA31E130
:1033800044E251E06AE070E089E290E06BDCC12C3D
:10339000D12C7601EA942DE336E043E351E063E279
:1033A00070E08DE290E05EDC20E04EE16AE570E0E6
:1033B00088E290E03BD8C12CD12C7601CA9421E060
:1033C00044E16AE570E08DE290E030D8812C912CE8
:1033D00054018A946894CC24C1F80F2EF9E1EF2EA1
:1033E000F12CF02D09E110E024E130E045E050E05F
:1033F00065E070E085E090E00E94750EC12CD12C54
:103400007601DA9402E024E130E04EE150E06DE232
:1034100070E08CE390E00E94360EAA24AA94BA2CA5
:10342000CA2CD12C0F2EF3E0EF2EF02D0AE010E085
:1034300029E130E04CE350E066E470E080E590E0A4
:1034400018DACC24CA94DC2CEC2CF12C29E130E0E5
:103450004CE350E064E670E080E590E098DBA12C5E
:10346000BB24BA94CB2CD12C6894EE24E1F800E074
:1034700024E130E04EE150E064E670E08CE390E05F
:103480000E94C20EEE24E39401E02FE030E049E117
:1034900050E06CE370E08DE790E00E94C20EC12C1A
:1034A000D12C7601EA9428E630E04EE351E068EC56
:1034B00070E080E090E0D6DB27E63DE049E451E0B3
:1034C0006CED70E08AE090E0CDDBFFCFA29FB00111
:1034D000B39FC001A39F700D811D1124911DB29F48
:1034E000700D811D1124911D0895B7FF04C003D0F4
:1034F000821B930B0895EADFA59F900DB49F900D5A
:10350000A49F800D911D11240895FB01DC0102C0D0
:1035100005900D9241505040D8F70895F894FFCF90
:10352000546869732069730A206A75737420612076
:10353000546573740A20546F6D5468756D6220452C
:1035400078740A00444953504C415920445249561A
:10355000455200534552494620424F4C44003132B7
:103560003334353637383930003132333435363745
:103570003839302044656661756C7420466F6E740E
:02358000000049
:00000001FF
